{
  "_format": "hh-sol-artifact-1",
  "contractName": "InsurancePool",
  "sourceName": "contracts/InsurancePool.sol",
  "abi": [
    {
      "inputs": [
        {
          "internalType": "address",
          "name": "_initialOwner",
          "type": "address"
        },
        {
          "internalType": "address",
          "name": "_bqBtc",
          "type": "address"
        }
      ],
      "stateMutability": "nonpayable",
      "type": "constructor"
    },
    {
      "inputs": [
        {
          "internalType": "address",
          "name": "owner",
          "type": "address"
        }
      ],
      "name": "OwnableInvalidOwner",
      "type": "error"
    },
    {
      "inputs": [
        {
          "internalType": "address",
          "name": "account",
          "type": "address"
        }
      ],
      "name": "OwnableUnauthorizedAccount",
      "type": "error"
    },
    {
      "inputs": [],
      "name": "ReentrancyGuardReentrantCall",
      "type": "error"
    },
    {
      "anonymous": false,
      "inputs": [
        {
          "indexed": false,
          "internalType": "uint256",
          "name": "",
          "type": "uint256"
        },
        {
          "indexed": false,
          "internalType": "uint256",
          "name": "",
          "type": "uint256"
        },
        {
          "indexed": false,
          "internalType": "address",
          "name": "",
          "type": "address"
        }
      ],
      "name": "ClaimAttempt",
      "type": "event"
    },
    {
      "anonymous": false,
      "inputs": [
        {
          "indexed": true,
          "internalType": "address",
          "name": "recipient",
          "type": "address"
        },
        {
          "indexed": false,
          "internalType": "string",
          "name": "pool",
          "type": "string"
        },
        {
          "indexed": false,
          "internalType": "uint256",
          "name": "amount",
          "type": "uint256"
        }
      ],
      "name": "ClaimPaid",
      "type": "event"
    },
    {
      "anonymous": false,
      "inputs": [
        {
          "indexed": true,
          "internalType": "address",
          "name": "user",
          "type": "address"
        },
        {
          "indexed": false,
          "internalType": "uint256",
          "name": "amount",
          "type": "uint256"
        },
        {
          "indexed": false,
          "internalType": "string",
          "name": "pool",
          "type": "string"
        }
      ],
      "name": "Deposited",
      "type": "event"
    },
    {
      "anonymous": false,
      "inputs": [
        {
          "indexed": true,
          "internalType": "address",
          "name": "previousOwner",
          "type": "address"
        },
        {
          "indexed": true,
          "internalType": "address",
          "name": "newOwner",
          "type": "address"
        }
      ],
      "name": "OwnershipTransferred",
      "type": "event"
    },
    {
      "anonymous": false,
      "inputs": [
        {
          "indexed": true,
          "internalType": "uint256",
          "name": "id",
          "type": "uint256"
        },
        {
          "indexed": false,
          "internalType": "string",
          "name": "poolName",
          "type": "string"
        }
      ],
      "name": "PoolCreated",
      "type": "event"
    },
    {
      "anonymous": false,
      "inputs": [
        {
          "indexed": true,
          "internalType": "uint256",
          "name": "poolId",
          "type": "uint256"
        },
        {
          "indexed": false,
          "internalType": "uint256",
          "name": "apy",
          "type": "uint256"
        },
        {
          "indexed": false,
          "internalType": "uint256",
          "name": "_minPeriod",
          "type": "uint256"
        }
      ],
      "name": "PoolUpdated",
      "type": "event"
    },
    {
      "anonymous": false,
      "inputs": [
        {
          "indexed": true,
          "internalType": "address",
          "name": "user",
          "type": "address"
        },
        {
          "indexed": false,
          "internalType": "uint256",
          "name": "amount",
          "type": "uint256"
        },
        {
          "indexed": false,
          "internalType": "string",
          "name": "pool",
          "type": "string"
        }
      ],
      "name": "Withdraw",
      "type": "event"
    },
    {
      "inputs": [],
      "name": "ICoverContract",
      "outputs": [
        {
          "internalType": "contract ICover",
          "name": "",
          "type": "address"
        }
      ],
      "stateMutability": "view",
      "type": "function"
    },
    {
      "inputs": [],
      "name": "IGovernanceContract",
      "outputs": [
        {
          "internalType": "contract IGov",
          "name": "",
          "type": "address"
        }
      ],
      "stateMutability": "view",
      "type": "function"
    },
    {
      "inputs": [],
      "name": "IVaultContract",
      "outputs": [
        {
          "internalType": "contract IVault",
          "name": "",
          "type": "address"
        }
      ],
      "stateMutability": "view",
      "type": "function"
    },
    {
      "inputs": [
        {
          "internalType": "uint256",
          "name": "_poolId",
          "type": "uint256"
        },
        {
          "components": [
            {
              "internalType": "uint256",
              "name": "id",
              "type": "uint256"
            },
            {
              "internalType": "string",
              "name": "coverName",
              "type": "string"
            },
            {
              "internalType": "enum CoverLib.RiskType",
              "name": "riskType",
              "type": "uint8"
            },
            {
              "internalType": "string",
              "name": "chains",
              "type": "string"
            },
            {
              "internalType": "uint256",
              "name": "capacity",
              "type": "uint256"
            },
            {
              "internalType": "uint256",
              "name": "cost",
              "type": "uint256"
            },
            {
              "internalType": "uint256",
              "name": "capacityAmount",
              "type": "uint256"
            },
            {
              "internalType": "uint256",
              "name": "coverValues",
              "type": "uint256"
            },
            {
              "internalType": "uint256",
              "name": "maxAmount",
              "type": "uint256"
            },
            {
              "internalType": "uint256",
              "name": "poolId",
              "type": "uint256"
            },
            {
              "internalType": "string",
              "name": "CID",
              "type": "string"
            },
            {
              "internalType": "enum CoverLib.AssetDepositType",
              "name": "adt",
              "type": "uint8"
            },
            {
              "internalType": "address",
              "name": "asset",
              "type": "address"
            }
          ],
          "internalType": "struct CoverLib.Cover",
          "name": "_cover",
          "type": "tuple"
        }
      ],
      "name": "addPoolCover",
      "outputs": [],
      "stateMutability": "nonpayable",
      "type": "function"
    },
    {
      "inputs": [
        {
          "internalType": "address",
          "name": "",
          "type": "address"
        }
      ],
      "name": "assetPriceFeeds",
      "outputs": [
        {
          "internalType": "contract AggregatorV3Interface",
          "name": "",
          "type": "address"
        }
      ],
      "stateMutability": "view",
      "type": "function"
    },
    {
      "inputs": [],
      "name": "bqBTC",
      "outputs": [
        {
          "internalType": "contract IbqBTC",
          "name": "",
          "type": "address"
        }
      ],
      "stateMutability": "view",
      "type": "function"
    },
    {
      "inputs": [],
      "name": "bqBTCAddress",
      "outputs": [
        {
          "internalType": "address",
          "name": "",
          "type": "address"
        }
      ],
      "stateMutability": "view",
      "type": "function"
    },
    {
      "inputs": [
        {
          "internalType": "uint256",
          "name": "_proposalId",
          "type": "uint256"
        }
      ],
      "name": "claimProposalFunds",
      "outputs": [],
      "stateMutability": "nonpayable",
      "type": "function"
    },
    {
      "inputs": [],
      "name": "coverContract",
      "outputs": [
        {
          "internalType": "address",
          "name": "",
          "type": "address"
        }
      ],
      "stateMutability": "view",
      "type": "function"
    },
    {
      "inputs": [
        {
          "components": [
            {
              "internalType": "uint256",
              "name": "poolId",
              "type": "uint256"
            },
            {
              "internalType": "enum CoverLib.RiskType",
              "name": "riskType",
              "type": "uint8"
            },
            {
              "internalType": "string",
              "name": "poolName",
              "type": "string"
            },
            {
              "internalType": "string",
              "name": "rating",
              "type": "string"
            },
            {
              "internalType": "uint256",
              "name": "apy",
              "type": "uint256"
            },
            {
              "internalType": "uint256",
              "name": "minPeriod",
              "type": "uint256"
            },
            {
              "internalType": "uint8",
              "name": "leverage",
              "type": "uint8"
            },
            {
              "internalType": "uint256",
              "name": "investmentArm",
              "type": "uint256"
            },
            {
              "internalType": "enum CoverLib.AssetDepositType",
              "name": "adt",
              "type": "uint8"
            },
            {
              "internalType": "address",
              "name": "asset",
              "type": "address"
            }
          ],
          "internalType": "struct CoverLib.PoolParams",
          "name": "params",
          "type": "tuple"
        }
      ],
      "name": "createPool",
      "outputs": [],
      "stateMutability": "nonpayable",
      "type": "function"
    },
    {
      "inputs": [
        {
          "internalType": "uint256",
          "name": "_poolId",
          "type": "uint256"
        }
      ],
      "name": "deactivatePool",
      "outputs": [],
      "stateMutability": "nonpayable",
      "type": "function"
    },
    {
      "inputs": [
        {
          "components": [
            {
              "internalType": "address",
              "name": "depositor",
              "type": "address"
            },
            {
              "internalType": "uint256",
              "name": "poolId",
              "type": "uint256"
            },
            {
              "internalType": "uint256",
              "name": "amount",
              "type": "uint256"
            },
            {
              "internalType": "enum CoverLib.DepositType",
              "name": "pdt",
              "type": "uint8"
            },
            {
              "internalType": "enum CoverLib.AssetDepositType",
              "name": "adt",
              "type": "uint8"
            },
            {
              "internalType": "address",
              "name": "asset",
              "type": "address"
            }
          ],
          "internalType": "struct CoverLib.DepositParams",
          "name": "depositParam",
          "type": "tuple"
        }
      ],
      "name": "deposit",
      "outputs": [
        {
          "internalType": "uint256",
          "name": "",
          "type": "uint256"
        },
        {
          "internalType": "uint256",
          "name": "",
          "type": "uint256"
        }
      ],
      "stateMutability": "payable",
      "type": "function"
    },
    {
      "inputs": [],
      "name": "getAllParticipants",
      "outputs": [
        {
          "internalType": "address[]",
          "name": "",
          "type": "address[]"
        }
      ],
      "stateMutability": "view",
      "type": "function"
    },
    {
      "inputs": [],
      "name": "getAllPools",
      "outputs": [
        {
          "components": [
            {
              "internalType": "uint256",
              "name": "id",
              "type": "uint256"
            },
            {
              "internalType": "string",
              "name": "poolName",
              "type": "string"
            },
            {
              "internalType": "string",
              "name": "rating",
              "type": "string"
            },
            {
              "internalType": "enum CoverLib.RiskType",
              "name": "riskType",
              "type": "uint8"
            },
            {
              "internalType": "uint256",
              "name": "apy",
              "type": "uint256"
            },
            {
              "internalType": "uint256",
              "name": "minPeriod",
              "type": "uint256"
            },
            {
              "internalType": "uint256",
              "name": "totalUnit",
              "type": "uint256"
            },
            {
              "internalType": "uint256",
              "name": "tvl",
              "type": "uint256"
            },
            {
              "internalType": "uint256",
              "name": "baseValue",
              "type": "uint256"
            },
            {
              "internalType": "uint256",
              "name": "coverUnits",
              "type": "uint256"
            },
            {
              "internalType": "uint256",
              "name": "tcp",
              "type": "uint256"
            },
            {
              "internalType": "bool",
              "name": "isActive",
              "type": "bool"
            },
            {
              "internalType": "uint256",
              "name": "percentageSplitBalance",
              "type": "uint256"
            },
            {
              "internalType": "uint256",
              "name": "investmentArmPercent",
              "type": "uint256"
            },
            {
              "internalType": "uint8",
              "name": "leverage",
              "type": "uint8"
            },
            {
              "internalType": "address",
              "name": "asset",
              "type": "address"
            },
            {
              "internalType": "enum CoverLib.AssetDepositType",
              "name": "assetType",
              "type": "uint8"
            }
          ],
          "internalType": "struct CoverLib.Pool[]",
          "name": "",
          "type": "tuple[]"
        }
      ],
      "stateMutability": "view",
      "type": "function"
    },
    {
      "inputs": [
        {
          "internalType": "uint256",
          "name": "_poolId",
          "type": "uint256"
        }
      ],
      "name": "getPool",
      "outputs": [
        {
          "components": [
            {
              "internalType": "uint256",
              "name": "id",
              "type": "uint256"
            },
            {
              "internalType": "string",
              "name": "poolName",
              "type": "string"
            },
            {
              "internalType": "string",
              "name": "rating",
              "type": "string"
            },
            {
              "internalType": "enum CoverLib.RiskType",
              "name": "riskType",
              "type": "uint8"
            },
            {
              "internalType": "uint256",
              "name": "apy",
              "type": "uint256"
            },
            {
              "internalType": "uint256",
              "name": "minPeriod",
              "type": "uint256"
            },
            {
              "internalType": "uint256",
              "name": "totalUnit",
              "type": "uint256"
            },
            {
              "internalType": "uint256",
              "name": "tvl",
              "type": "uint256"
            },
            {
              "internalType": "uint256",
              "name": "baseValue",
              "type": "uint256"
            },
            {
              "internalType": "uint256",
              "name": "coverUnits",
              "type": "uint256"
            },
            {
              "internalType": "uint256",
              "name": "tcp",
              "type": "uint256"
            },
            {
              "internalType": "bool",
              "name": "isActive",
              "type": "bool"
            },
            {
              "internalType": "uint256",
              "name": "percentageSplitBalance",
              "type": "uint256"
            },
            {
              "internalType": "uint256",
              "name": "investmentArmPercent",
              "type": "uint256"
            },
            {
              "internalType": "uint8",
              "name": "leverage",
              "type": "uint8"
            },
            {
              "internalType": "address",
              "name": "asset",
              "type": "address"
            },
            {
              "internalType": "enum CoverLib.AssetDepositType",
              "name": "assetType",
              "type": "uint8"
            }
          ],
          "internalType": "struct CoverLib.Pool",
          "name": "",
          "type": "tuple"
        }
      ],
      "stateMutability": "view",
      "type": "function"
    },
    {
      "inputs": [
        {
          "internalType": "uint256",
          "name": "_poolId",
          "type": "uint256"
        }
      ],
      "name": "getPoolCovers",
      "outputs": [
        {
          "components": [
            {
              "internalType": "uint256",
              "name": "id",
              "type": "uint256"
            },
            {
              "internalType": "string",
              "name": "coverName",
              "type": "string"
            },
            {
              "internalType": "enum CoverLib.RiskType",
              "name": "riskType",
              "type": "uint8"
            },
            {
              "internalType": "string",
              "name": "chains",
              "type": "string"
            },
            {
              "internalType": "uint256",
              "name": "capacity",
              "type": "uint256"
            },
            {
              "internalType": "uint256",
              "name": "cost",
              "type": "uint256"
            },
            {
              "internalType": "uint256",
              "name": "capacityAmount",
              "type": "uint256"
            },
            {
              "internalType": "uint256",
              "name": "coverValues",
              "type": "uint256"
            },
            {
              "internalType": "uint256",
              "name": "maxAmount",
              "type": "uint256"
            },
            {
              "internalType": "uint256",
              "name": "poolId",
              "type": "uint256"
            },
            {
              "internalType": "string",
              "name": "CID",
              "type": "string"
            },
            {
              "internalType": "enum CoverLib.AssetDepositType",
              "name": "adt",
              "type": "uint8"
            },
            {
              "internalType": "address",
              "name": "asset",
              "type": "address"
            }
          ],
          "internalType": "struct CoverLib.Cover[]",
          "name": "",
          "type": "tuple[]"
        }
      ],
      "stateMutability": "view",
      "type": "function"
    },
    {
      "inputs": [
        {
          "internalType": "uint256",
          "name": "_poolId",
          "type": "uint256"
        }
      ],
      "name": "getPoolTVL",
      "outputs": [
        {
          "internalType": "uint256",
          "name": "",
          "type": "uint256"
        }
      ],
      "stateMutability": "view",
      "type": "function"
    },
    {
      "inputs": [
        {
          "internalType": "address",
          "name": "_userAddress",
          "type": "address"
        }
      ],
      "name": "getPoolsByAddress",
      "outputs": [
        {
          "components": [
            {
              "internalType": "string",
              "name": "poolName",
              "type": "string"
            },
            {
              "internalType": "string",
              "name": "rating",
              "type": "string"
            },
            {
              "internalType": "enum CoverLib.RiskType",
              "name": "risk",
              "type": "uint8"
            },
            {
              "internalType": "uint256",
              "name": "poolId",
              "type": "uint256"
            },
            {
              "internalType": "uint256",
              "name": "dailyPayout",
              "type": "uint256"
            },
            {
              "internalType": "uint256",
              "name": "depositAmount",
              "type": "uint256"
            },
            {
              "internalType": "uint256",
              "name": "apy",
              "type": "uint256"
            },
            {
              "internalType": "uint256",
              "name": "minPeriod",
              "type": "uint256"
            },
            {
              "internalType": "uint256",
              "name": "totalUnit",
              "type": "uint256"
            },
            {
              "internalType": "uint256",
              "name": "tcp",
              "type": "uint256"
            },
            {
              "internalType": "bool",
              "name": "isActive",
              "type": "bool"
            },
            {
              "internalType": "uint256",
              "name": "accruedPayout",
              "type": "uint256"
            }
          ],
          "internalType": "struct CoverLib.PoolInfo[]",
          "name": "",
          "type": "tuple[]"
        }
      ],
      "stateMutability": "view",
      "type": "function"
    },
    {
      "inputs": [
        {
          "internalType": "address",
          "name": "asset",
          "type": "address"
        }
      ],
      "name": "getPriceInUSD",
      "outputs": [
        {
          "internalType": "uint256",
          "name": "",
          "type": "uint256"
        }
      ],
      "stateMutability": "view",
      "type": "function"
    },
    {
      "inputs": [],
      "name": "getTotalTVL",
      "outputs": [
        {
          "internalType": "uint256",
          "name": "",
          "type": "uint256"
        }
      ],
      "stateMutability": "view",
      "type": "function"
    },
    {
      "inputs": [
        {
          "internalType": "address",
          "name": "user",
          "type": "address"
        }
      ],
      "name": "getTotalUserDepositAmountinUSD",
      "outputs": [
        {
          "internalType": "uint256",
          "name": "",
          "type": "uint256"
        }
      ],
      "stateMutability": "view",
      "type": "function"
    },
    {
      "inputs": [
        {
          "internalType": "uint256",
          "name": "_poolId",
          "type": "uint256"
        },
        {
          "internalType": "address",
          "name": "_user",
          "type": "address"
        },
        {
          "internalType": "enum CoverLib.DepositType",
          "name": "pdt",
          "type": "uint8"
        }
      ],
      "name": "getUserGenericDeposit",
      "outputs": [
        {
          "components": [
            {
              "internalType": "address",
              "name": "lp",
              "type": "address"
            },
            {
              "internalType": "uint256",
              "name": "amount",
              "type": "uint256"
            },
            {
              "internalType": "uint256",
              "name": "poolId",
              "type": "uint256"
            },
            {
              "internalType": "uint256",
              "name": "dailyPayout",
              "type": "uint256"
            },
            {
              "internalType": "enum CoverLib.Status",
              "name": "status",
              "type": "uint8"
            },
            {
              "internalType": "uint256",
              "name": "daysLeft",
              "type": "uint256"
            },
            {
              "internalType": "uint256",
              "name": "startDate",
              "type": "uint256"
            },
            {
              "internalType": "uint256",
              "name": "withdrawalInitiated",
              "type": "uint256"
            },
            {
              "internalType": "uint256",
              "name": "accruedPayout",
              "type": "uint256"
            },
            {
              "internalType": "enum CoverLib.DepositType",
              "name": "pdt",
              "type": "uint8"
            },
            {
              "internalType": "enum CoverLib.AssetDepositType",
              "name": "adt",
              "type": "uint8"
            },
            {
              "internalType": "address",
              "name": "asset",
              "type": "address"
            }
          ],
          "internalType": "struct CoverLib.GenericDepositDetails",
          "name": "",
          "type": "tuple"
        }
      ],
      "stateMutability": "view",
      "type": "function"
    },
    {
      "inputs": [
        {
          "internalType": "address",
          "name": "user",
          "type": "address"
        }
      ],
      "name": "getUserParticipation",
      "outputs": [
        {
          "internalType": "uint256",
          "name": "",
          "type": "uint256"
        }
      ],
      "stateMutability": "view",
      "type": "function"
    },
    {
      "inputs": [
        {
          "internalType": "uint256",
          "name": "_poolId",
          "type": "uint256"
        },
        {
          "internalType": "address",
          "name": "_user",
          "type": "address"
        }
      ],
      "name": "getUserPoolDeposit",
      "outputs": [
        {
          "components": [
            {
              "internalType": "address",
              "name": "lp",
              "type": "address"
            },
            {
              "internalType": "uint256",
              "name": "amount",
              "type": "uint256"
            },
            {
              "internalType": "uint256",
              "name": "poolId",
              "type": "uint256"
            },
            {
              "internalType": "uint256",
              "name": "dailyPayout",
              "type": "uint256"
            },
            {
              "internalType": "enum CoverLib.Status",
              "name": "status",
              "type": "uint8"
            },
            {
              "internalType": "uint256",
              "name": "daysLeft",
              "type": "uint256"
            },
            {
              "internalType": "uint256",
              "name": "startDate",
              "type": "uint256"
            },
            {
              "internalType": "uint256",
              "name": "withdrawalInitiated",
              "type": "uint256"
            },
            {
              "internalType": "uint256",
              "name": "accruedPayout",
              "type": "uint256"
            },
            {
              "internalType": "enum CoverLib.DepositType",
              "name": "pdt",
              "type": "uint8"
            }
          ],
          "internalType": "struct CoverLib.Deposits",
          "name": "",
          "type": "tuple"
        }
      ],
      "stateMutability": "view",
      "type": "function"
    },
    {
      "inputs": [],
      "name": "governance",
      "outputs": [
        {
          "internalType": "address",
          "name": "",
          "type": "address"
        }
      ],
      "stateMutability": "view",
      "type": "function"
    },
    {
      "inputs": [
        {
          "internalType": "uint256",
          "name": "_poolId",
          "type": "uint256"
        },
        {
          "internalType": "uint256",
          "name": "__poolPercentageSplit",
          "type": "uint256"
        }
      ],
      "name": "increasePercentageSplit",
      "outputs": [],
      "stateMutability": "nonpayable",
      "type": "function"
    },
    {
      "inputs": [],
      "name": "initialOwner",
      "outputs": [
        {
          "internalType": "address",
          "name": "",
          "type": "address"
        }
      ],
      "stateMutability": "view",
      "type": "function"
    },
    {
      "inputs": [
        {
          "internalType": "address",
          "name": "depositor",
          "type": "address"
        },
        {
          "internalType": "uint256",
          "name": "_poolId",
          "type": "uint256"
        },
        {
          "internalType": "enum CoverLib.DepositType",
          "name": "pdt",
          "type": "uint8"
        }
      ],
      "name": "initialVaultWithdrawUpdate",
      "outputs": [],
      "stateMutability": "nonpayable",
      "type": "function"
    },
    {
      "inputs": [],
      "name": "owner",
      "outputs": [
        {
          "internalType": "address",
          "name": "",
          "type": "address"
        }
      ],
      "stateMutability": "view",
      "type": "function"
    },
    {
      "inputs": [
        {
          "internalType": "uint256",
          "name": "",
          "type": "uint256"
        }
      ],
      "name": "participants",
      "outputs": [
        {
          "internalType": "address",
          "name": "",
          "type": "address"
        }
      ],
      "stateMutability": "view",
      "type": "function"
    },
    {
      "inputs": [
        {
          "internalType": "address",
          "name": "",
          "type": "address"
        }
      ],
      "name": "participation",
      "outputs": [
        {
          "internalType": "uint256",
          "name": "",
          "type": "uint256"
        }
      ],
      "stateMutability": "view",
      "type": "function"
    },
    {
      "inputs": [
        {
          "internalType": "uint256",
          "name": "poolId",
          "type": "uint256"
        }
      ],
      "name": "poolActive",
      "outputs": [
        {
          "internalType": "bool",
          "name": "",
          "type": "bool"
        }
      ],
      "stateMutability": "view",
      "type": "function"
    },
    {
      "inputs": [],
      "name": "poolCanister",
      "outputs": [
        {
          "internalType": "address",
          "name": "",
          "type": "address"
        }
      ],
      "stateMutability": "view",
      "type": "function"
    },
    {
      "inputs": [],
      "name": "poolCount",
      "outputs": [
        {
          "internalType": "uint256",
          "name": "",
          "type": "uint256"
        }
      ],
      "stateMutability": "view",
      "type": "function"
    },
    {
      "inputs": [
        {
          "internalType": "uint256",
          "name": "_poolId",
          "type": "uint256"
        }
      ],
      "name": "poolWithdrawal",
      "outputs": [],
      "stateMutability": "nonpayable",
      "type": "function"
    },
    {
      "inputs": [
        {
          "internalType": "uint256",
          "name": "",
          "type": "uint256"
        }
      ],
      "name": "pools",
      "outputs": [
        {
          "internalType": "uint256",
          "name": "id",
          "type": "uint256"
        },
        {
          "internalType": "string",
          "name": "poolName",
          "type": "string"
        },
        {
          "internalType": "string",
          "name": "rating",
          "type": "string"
        },
        {
          "internalType": "enum CoverLib.RiskType",
          "name": "riskType",
          "type": "uint8"
        },
        {
          "internalType": "uint256",
          "name": "apy",
          "type": "uint256"
        },
        {
          "internalType": "uint256",
          "name": "minPeriod",
          "type": "uint256"
        },
        {
          "internalType": "uint256",
          "name": "totalUnit",
          "type": "uint256"
        },
        {
          "internalType": "uint256",
          "name": "tvl",
          "type": "uint256"
        },
        {
          "internalType": "uint256",
          "name": "baseValue",
          "type": "uint256"
        },
        {
          "internalType": "uint256",
          "name": "coverUnits",
          "type": "uint256"
        },
        {
          "internalType": "uint256",
          "name": "tcp",
          "type": "uint256"
        },
        {
          "internalType": "bool",
          "name": "isActive",
          "type": "bool"
        },
        {
          "internalType": "uint256",
          "name": "percentageSplitBalance",
          "type": "uint256"
        },
        {
          "internalType": "uint256",
          "name": "investmentArmPercent",
          "type": "uint256"
        },
        {
          "internalType": "uint8",
          "name": "leverage",
          "type": "uint8"
        },
        {
          "internalType": "address",
          "name": "asset",
          "type": "address"
        },
        {
          "internalType": "enum CoverLib.AssetDepositType",
          "name": "assetType",
          "type": "uint8"
        }
      ],
      "stateMutability": "view",
      "type": "function"
    },
    {
      "inputs": [
        {
          "internalType": "uint256",
          "name": "_poolId",
          "type": "uint256"
        },
        {
          "internalType": "uint256",
          "name": "__poolPercentageSplit",
          "type": "uint256"
        }
      ],
      "name": "reducePercentageSplit",
      "outputs": [],
      "stateMutability": "nonpayable",
      "type": "function"
    },
    {
      "inputs": [],
      "name": "renounceOwnership",
      "outputs": [],
      "stateMutability": "nonpayable",
      "type": "function"
    },
    {
      "inputs": [
        {
          "internalType": "address",
          "name": "_coverContract",
          "type": "address"
        }
      ],
      "name": "setCover",
      "outputs": [],
      "stateMutability": "nonpayable",
      "type": "function"
    },
    {
      "inputs": [
        {
          "internalType": "address",
          "name": "_governance",
          "type": "address"
        }
      ],
      "name": "setGovernance",
      "outputs": [],
      "stateMutability": "nonpayable",
      "type": "function"
    },
    {
      "inputs": [
        {
          "internalType": "uint256",
          "name": "poolId",
          "type": "uint256"
        },
        {
          "internalType": "address",
          "name": "user",
          "type": "address"
        },
        {
          "internalType": "enum CoverLib.DepositType",
          "name": "pdt",
          "type": "uint8"
        }
      ],
      "name": "setUserDepositToZero",
      "outputs": [],
      "stateMutability": "nonpayable",
      "type": "function"
    },
    {
      "inputs": [
        {
          "internalType": "address",
          "name": "_vaultContract",
          "type": "address"
        }
      ],
      "name": "setVault",
      "outputs": [],
      "stateMutability": "nonpayable",
      "type": "function"
    },
    {
      "inputs": [
        {
          "internalType": "address",
          "name": "newOwner",
          "type": "address"
        }
      ],
      "name": "transferOwnership",
      "outputs": [],
      "stateMutability": "nonpayable",
      "type": "function"
    },
    {
      "inputs": [
        {
          "internalType": "uint256",
          "name": "_poolId",
          "type": "uint256"
        },
        {
          "internalType": "uint256",
          "name": "_apy",
          "type": "uint256"
        },
        {
          "internalType": "uint256",
          "name": "_minPeriod",
          "type": "uint256"
        }
      ],
      "name": "updatePool",
      "outputs": [],
      "stateMutability": "nonpayable",
      "type": "function"
    },
    {
      "inputs": [
        {
          "internalType": "uint256",
          "name": "_poolId",
          "type": "uint256"
        },
        {
          "components": [
            {
              "internalType": "uint256",
              "name": "id",
              "type": "uint256"
            },
            {
              "internalType": "string",
              "name": "coverName",
              "type": "string"
            },
            {
              "internalType": "enum CoverLib.RiskType",
              "name": "riskType",
              "type": "uint8"
            },
            {
              "internalType": "string",
              "name": "chains",
              "type": "string"
            },
            {
              "internalType": "uint256",
              "name": "capacity",
              "type": "uint256"
            },
            {
              "internalType": "uint256",
              "name": "cost",
              "type": "uint256"
            },
            {
              "internalType": "uint256",
              "name": "capacityAmount",
              "type": "uint256"
            },
            {
              "internalType": "uint256",
              "name": "coverValues",
              "type": "uint256"
            },
            {
              "internalType": "uint256",
              "name": "maxAmount",
              "type": "uint256"
            },
            {
              "internalType": "uint256",
              "name": "poolId",
              "type": "uint256"
            },
            {
              "internalType": "string",
              "name": "CID",
              "type": "string"
            },
            {
              "internalType": "enum CoverLib.AssetDepositType",
              "name": "adt",
              "type": "uint8"
            },
            {
              "internalType": "address",
              "name": "asset",
              "type": "address"
            }
          ],
          "internalType": "struct CoverLib.Cover",
          "name": "_cover",
          "type": "tuple"
        }
      ],
      "name": "updatePoolCovers",
      "outputs": [],
      "stateMutability": "nonpayable",
      "type": "function"
    },
    {
      "inputs": [],
      "name": "vaultContract",
      "outputs": [
        {
          "internalType": "address",
          "name": "",
          "type": "address"
        }
      ],
      "stateMutability": "view",
      "type": "function"
    },
    {
      "inputs": [
        {
          "internalType": "uint256",
          "name": "_vaultId",
          "type": "uint256"
        }
      ],
      "name": "vaultWithdraw",
      "outputs": [],
      "stateMutability": "nonpayable",
      "type": "function"
    }
  ],
  "bytecode": "0x60803461027657601f61624e38819003918201601f19168301916001600160401b0383118484101761027b57808492604094855283398101031261027657610052602061004b83610291565b9201610291565b60016000556001600160a01b0390911690811561026057600180546001600160a01b031981168417909155604051929081906001600160a01b03167f8be0079c531659141344cd1fd0a4f28419497f9722a3daafe3b4186f6b6457e0600080a3601180546001600160a01b031990811690915560158054821692909217909155600280548216732514895c72f50d8bd4b4f9b1110f0d6bd2c97526908117909155600380548316735741306c21795fdcbb9b265ea0255f499dfe515c908117909155600480548416739331b55d9830ef609a2abcfac0fbce050a52fdea17815560058054851673eca2605f0bcf2ba5966372c99837b1f182d3d62017815560066020527f54cdd369e4e8a8515e52ca72ec816c2101831ad1f18bf44102ed171459c9b4f8805486169094179093557f92599ef52398a38e84e5b15ac236af99994b80b5e390e5524198cbc8e48da63780548516831790556001600160a01b039485166000818152604081208054871690941790935590547fd1eceb50b46aea74f6b42453ba5381363a7854e4547ee8ff2fef30dd11f58cdd80548616918716919091179055915473337610d27c682e347c9cd60bd4b3b107c9d34ddd9091527f44abd9ca46b16d583f86aa1f838cb006ce9d3219783a65b570216ad498a2825a805484169190941617909255600f8054821683179055601080549091169091179055615fa890816102a68239f35b631e4fbdf760e01b600052600060045260246000fd5b600080fd5b634e487b7160e01b600052604160045260246000fd5b51906001600160a01b03821682036102765756fe6080604052600436101561001257600080fd5b60003560e01c80630226614714614700578063068bcd8d146146c95780630c021ae514614678578063173c08cc14613c90578063195ec9ee14613bc45780631d69829214613b295780632274346b14613b00578063248a75b714613ad757806325f11e8d14613aa357806329ba7bb214613a7a578063318667631461359a57806334808ec31461357157806335c1d3491461352f57806346f8479514612b3f5780634914a878146134b757806358526da314612f995780635aa6e67514612f705780635f267c5514612f475780636817031b14612e6a5780636f60537d14612e41578063715018a614612de45780637c366cc614612d075780637eb111f014612bc85780638da5cb5b14612b9f5780638f24463014612b7957806396f3a8ad14612b3f578063996b8a6f14612b165780639abd9b0514612ac25780639fd36b1514612a67578063a2a8baaf14612587578063a4948d8514612528578063ab033ea914612439578063ac4afa38146122d8578063b5d90c28146122af578063c039a53f146121df578063d27e52e81461219d578063d86c044414612045578063d88ff1f414611f39578063e0375fc0146119c4578063e35f8129146113c1578063e9e0c8b61461130d578063f2fde38b14611283578063f420907c14610e29578063f525cb6814610e0b578063f6e8055814610de2578063fb839dda1461085a5763fde076961461022157600080fd5b346106525760203660031901126106525761023a615f07565b60043560005260096020526040600020604051610256816148d4565b81548152604051916102768361026f8160018501614b99565b0384614928565b60208201928352604051610298816102918160028601614b99565b0382614928565b604083015260ff6003820154166102ae81614795565b60608301526004810154608083015260058101549160a08101928352600682015460c082015260ff600e60078401549360e0840194855260088101546101008501526009810154610120850152600a81015461014085015282600b820154161515610160850152600c810154610180850152600d8101546101a085015201548181166101c084015260018060a01b038160081c166101e084015260a81c166103558161479f565b6102008201523360005260076020526040600020600435600052602052604060002060008052602052604060002092600684015490518080046001148115171561069e576103a291615064565b936001840154916103b48315156158ce565b600485016103dc8154976103d460ff8a166103ce81614795565b15615924565b421015615968565b426007870155600260009760ff191617905561041d6103ff8460c0840151614e24565b8060c08401526064610416826101a0860151614c33565b0490614e24565b61042f60ff6101c08401511682614c33565b61012083015261010082015260043586526008602052604086209384546104558161553a565b956104636040519788614928565b81875288526020808920899188015b83831061076e5750505050865b855181101561050057600c548891906001600160a01b03166104a18289615096565b515190803b156104fc5760248492604051958693849263106b5da160e01b845260048401525af1918983156104f0576001936104e0575b50500161047f565b6104e991614928565b38896104d8565b604051903d90823e3d90fd5b8380fd5b508587610160840151151580610751575b156106b4575060115461052c906001600160a01b0316614c46565b906012925b60c0850151936012036012811161069e57610566600194610560600097610560670de0b6b3a764000095614e31565b90614c33565b0490520155600161020082015161057c8161479f565b6105858161479f565b0361066b576101e0015160405163a9059cbb60e01b81523360048201526024810184905290602090829060449082906000906001600160a01b03165af190811561065f57600091610607575b50600080516020615f53833981519152916105ee6105fd92615aa0565b516040519182913395836159b4565b0390a26001600055005b90506020813d602011610657575b8161062260209383614928565b8101031261065257600080516020615f53833981519152916105ee6106496105fd93615071565b925050916105d1565b600080fd5b3d9150610615565b6040513d6000823e3d90fd5b506105fd600080516020615f5383398151915291610699600080808088335af1610693615a24565b50615a54565b6105ee565b634e487b7160e01b600052601160045260246000fd5b9060046106cd60018060a01b036101e087015116614c46565b6101e086015160405163313ce56760e01b81529194919260209184919082906001600160a01b03165afa9081156104f0578091610711575b5060ff91501692610531565b90506020823d602011610749575b8161072c60209383614928565b81010312610746575061074060ff91614e16565b88610705565b80fd5b3d915061071f565b506101e08401516011546001600160a01b03908116911614610511565b600c6020600192604051610781816148f0565b855481526040516107988161029181898b01614b99565b8382015260ff6002870154166107ad81614795565b60408201526040516107c6816102918160038b01614b99565b606082015260048601546080820152600586015460a0820152600686015460c0820152600786015460e08201526008860154610100820152600986015461012082015260405161081d8161029181600a8b01614b99565b610140820152600b86015460ff81166108358161479f565b610160830152858060a01b039060081c16610180820152815201920192019190610472565b3461065257602036600319011261065257600435610876615f07565b600d54604051632bb2b24360e11b815260048101839052336024820152906001600160a01b03166101a082604481845afa91821561065f57600092610db1575b506020820191825115610d6c5760a060029101516108d381614795565b6108dc81614795565b03610d1b57600060249160405192838092632500ed8d60e21b82528760048301525afa90811561065f57600091610a36575b5060016101208201516109208161479f565b6109298161479f565b03610a1b576101400151905160405163a9059cbb60e01b8152336004820152602481019190915290602090829060449082906000906001600160a01b03165af1801561065f576000906109e0575b6109819150615aa0565b600d546001600160a01b0316803b15610652576040516307e2f9cf60e21b815260048101839052336024820152906000908290604490829084905af1801561065f576109cf575b6001600055005b60006109da91614928565b806109c8565b506020813d602011610a13575b816109fa60209383614928565b8101031261065257610a0e61098191615071565b610977565b3d91506109ed565b506000808080610a319451335af1610693615a24565b610981565b903d8082843e610a468184614928565b820191602081840312610d17578051906001600160401b038211610cff57019061016082840312610746576040519261016084018481106001600160401b03821117610d03576040528251845260208301516001600160401b038111610cff5781610ab29185016159e2565b602085015260408301516003811015610cff57604085015260608301516001600160401b038111610cff5783019080601f83011215610cff57815191610af78361553a565b92610b056040519485614928565b80845260208085019160051b83010191838311610cfb5760208101915b838310610b9757505050505060608401526080820151608084015260a082015160a084015260c082015160c084015260e082015160e08401526101008201516101008401526101208201519060028210156107465750610120830152610b8b90610140016159ce565b6101408201528361090e565b82516001600160401b038111610cf7578201610220818703601f190112610cf75760405190610bc5826148d4565b6020810151825260408101516001600160401b038111610cf357876020610bee928401016159e2565b602083015260608101516001600160401b038111610cf357876020610c15928401016159e2565b604083015260808101516003811015610cf3579061022091606084015260a0810151608084015260c081015160a084015260e081015160c084015261010081015160e0840152610120810151610100840152610140810151610120840152610160810151610140840152610c8c6101808201615071565b6101608401526101a08101516101808401526101c08101516101a0840152610cb76101e08201614e16565b6101c0840152610cca61020082016159ce565b6101e084015201516002811015610cef57610200820152815260209283019201610b22565b8880fd5b8980fd5b8780fd5b8580fd5b8280fd5b634e487b7160e01b83526041600452602483fd5b5080fd5b60405162461bcd60e51b8152602060048201526024808201527f4465706f736974206973206e6f7420726561647920666f72207769746864726160448201526377616c7360e01b6064820152608490fd5b60405162461bcd60e51b815260206004820152601d60248201527f4e6f20616374697665207769746864726177616c20666f7220757365720000006044820152606490fd5b610dd49192506101a03d8111610ddb575b610dcc8183614928565b810190615e4a565b90836108b6565b503d610dc2565b3461065257600036600319011261065257600c546040516001600160a01b039091168152602090f35b34610652576000366003190112610652576020600a54604051908152f35b3461065257602036600319011261065257610e42614723565b6000906001600a54905b81811115611041575050600d546040516374d4e49160e01b815291906001600160a01b0316602083600481845afa92831561065f5760009361100d575b5060015b83811115610ea057602085604051908152f35b604051632bb2b24360e11b8152600481018290526001600160a01b03841660248201526101a081604481865afa90811561065f57600091610fee575b5060208101519081610ef9575b5050610ef490615055565b610e8d565b610180018051601154939792939192916001600160a01b039081169160009116828103610f6b575050610f2d919250614c46565b9060125b6012036012811161069e57610f5c610f6393610560610ef496610560670de0b6b3a764000095614e31565b0490615064565b949086610ee9565b60049250610f7a602091614c46565b945160405163313ce56760e01b815293849182906001600160a01b03165afa9081156104f0578091610fb2575b5060ff915016610f31565b90506020823d8211610fe6575b81610fcc60209383614928565b810103126107465750610fe060ff91614e16565b89610fa7565b3d9150610fbf565b61100791506101a03d8111610ddb57610dcc8183614928565b86610edc565b9092506020813d602011611039575b8161102960209383614928565b8101031261065257519184610e89565b3d915061101c565b602061104d8483615ae4565b018051611064575b5061105f90615055565b610e4c565b81600095929552600960205260406000209160405191611083836148d4565b8354835260405161109b816102918160018901614b99565b60208401526040516110b4816102918160028901614b99565b604084015260ff6003850154166110ca81614795565b606084015260048401546080840152600584015460a0840152600684015460c0840152600784015460e084015260088401546101008401526009840154610120840152600a840154610140840152600e60ff600b860154169461016085019515158652600c810154610180860152600d8101546101a086015201549260ff84166101c082015261020060ff6101e083019560018060a01b038160081c16875260a81c16916111778361479f565b015251926000905115158061126a575b156111db57506011549091506111a5906001600160a01b0316614c46565b9060125b6012036012811161069e57610f5c6111d49361056061105f96610560670de0b6b3a764000095614e31565b9390611055565b8251600491906020906111f6906001600160a01b0316614c46565b945160405163313ce56760e01b815293849182906001600160a01b03165afa9081156104f057809161122e575b5060ff9150166111a9565b90506020823d8211611262575b8161124860209383614928565b81010312610746575061125c60ff91614e16565b88611223565b3d915061123b565b5082516011546001600160a01b03908116911614611187565b346106525760203660031901126106525761129c614723565b6112a4615f29565b6001600160a01b031680156112f757600180546001600160a01b0319811683179091556001600160a01b03167f8be0079c531659141344cd1fd0a4f28419497f9722a3daafe3b4186f6b6457e0600080a3005b631e4fbdf760e01b600052600060045260246000fd5b34610652576040366003190112610652576024356001600160a01b03811681036106525761134061014091600435615ae4565b6101206040519160018060a01b038151168352602081015160208401526040810151604084015260608101516060840152608081015161137f81614795565b608084015260a081015160a084015260c081015160c084015260e081015160e084015261010081015161010084015201516113b98161479f565b610120820152f35b34610652576020366003190112610652576004356113dd615f07565b600e54604051633b4d01a760e01b815260048101839052906000908290602490829084906001600160a01b03165af190811561065f5760009161183c575b509061010082015160c0830151926005841015611826576002600094149081611818575b50156117db5760a081018051845260096020526040842082519192916001600160a01b0316330361179f5761147a60ff600b8301541661588d565b6006810180549360c08401918251861061175a576114ae889684516114a4600a8801918254615064565b9055845190614e24565b90556114ba8151615551565b93855b855181101561153857600c546001600160a01b0316906114dd8188615096565b5151823b15610cef57889260248492604051958693849263106b5da160e01b845260048401525af191821561152d578860019361151d575b5050016114bd565b61152691614928565b8a88611515565b6040513d8a823e3d90fd5b50919350919460018060a01b03600e541690813b15610cfb57859160248392604051948593849263f1b4bf9d60e01b845260048401525af1801561174f5785937feef4955e8b18dcb6d1c19905b7b86e5fe56138ad1ce2c5e540ce4e959312f511928560609361173f575b505051855184516040805193845260208401929092526001600160a01b031690820152a1600160e08201516115d78161479f565b6115e08161479f565b03611725576101000151825160405163a9059cbb60e01b815233600482015260248101919091529160209183916044918391906001600160a01b03165af1801561171a5783906116df575b6116359150615aa0565b60018060a01b03600f54168151813b156104fc57604051637104a76d60e11b8152336004820152602481019190915292908390604490829084905af1918483156104f0577f415071086c9ea63f7f39884c21a8af430af53bfd511a362dff69cabcb1b8bcc1936116cf575b505051916116bc60405191604083526001604084019101614b99565b9260208201528033930390a26001815580f35b6116d891614928565b84846116a0565b506020813d602011611712575b816116f960209383614928565b81010312610cff5761170d61163591615071565b61162b565b3d91506116ec565b6040513d85823e3d90fd5b5080808061173a938551335af1610693615a24565b611635565b61174891614928565b89856115a3565b6040513d87823e3d90fd5b60405162461bcd60e51b815260206004820152601c60248201527f4e6f7420656e6f7567682066756e647320696e2074686520706f6f6c000000006044820152606490fd5b60405162461bcd60e51b8152602060048201526014602482015273139bdd0818481d985b1a59081c1c9bdc1bdcd85b60621b6044820152606490fd5b60405162461bcd60e51b8152602060048201526015602482015274141c9bdc1bdcd85b081b9bdd08185c1c1c9bdd9959605a1b6044820152606490fd5b60e09150015115158461143f565b634e487b7160e01b600052602160045260246000fd5b3d8083833e61184b8183614928565b810190602081830312610cff578051906001600160401b0382116104fc5701916101208383031261074657604051926118838461490c565b805184526020810151602085015260408101516040850152606081015160608501526080810151608085015260a081015160a085015260c08101516005811015610cff5760c08501526118d860e08201615071565b60e0850152610100810151906001600160401b038211610cff57019061012082840312610746576040519261190c8461490c565b611915836159ce565b845260208301516003811015610cff5760208501526040830151604085015260608301516001600160401b038111610cff57816119539185016159e2565b606085015260808301516001600160401b038111610cff57906119779184016159e2565b608084015260a082015160a084015260c082015160c084015260e0820151906002821015610746575060e08301526119b290610100016159ce565b6101008201526101008201528261141b565b34610652576060366003190112610652576119dd614723565b602435604435916002831015610652576119f5615f07565b6013546001600160a01b031633148015611f25575b15611ee15781600052600960205260406000209260405192611a2b846148d4565b84548452604051611a43816102918160018a01614b99565b60208501908152604051611a5e816102918160028b01614b99565b604086015260ff600387015416611a7481614795565b606086015260048601546080860152600586015460a0860190815260068701549260c0870193845260078801549060e08801918252600889015497610100810198895260098a0154986101208201998a52600a8b015461014083015260ff600b8c0154169961016083019a15158b52600c8c0154610180840152600e600d8d01549c6101a085019d8e520154996101c084019360ff8c16855261020060ff6101e083019d8e60018060a01b038260081c16905260a81c1691611b358361479f565b015260018060a01b031698896000526007602052604060002085600052602052604060002090611b648161479f565b600052602052604060002095600687015490518080046001148115171561069e57611b8e91615064565b9b600187019687549d8e1515611ba3906158ce565b600482019182549160ff8316611bb881614795565b15611bc290615924565b421015611bce90615968565b42906007015560ff1916600217905560009c895190611bec91614e24565b8091818b525190611bfc91614c33565b60649004611c0991614e24565b925160ff16611c189084614c33565b9052528852600860205260408820958654611c328161553a565b9760405198611c41908a614928565b8189528a526020808b208b918a015b838310611df55750505050885b8751811015611cce57600c548a91906001600160a01b0316611c7f828b615096565b515190803b156104fc5760248492604051958693849263106b5da160e01b845260048401525af1918b83156104f057600193611cbe575b505001611c5d565b611cc791614928565b8b8b611cb6565b50888851151580611ddc575b15611d48575050601154611cf6906001600160a01b0316614c46565b936012905b5190601203906012821161069e57600080516020615f5383398151915295610560611d3292610560670de0b6b3a764000095614e31565b049052549051906105fd604051928392836159b4565b815191959160049190602090611d66906001600160a01b0316614c46565b975160405163313ce56760e01b815293849182906001600160a01b03165afa9081156104f0578091611d9f575b5060ff91501690611cfb565b90506020823d602011611dd4575b81611dba60209383614928565b810103126107465750611dce60ff91614e16565b88611d93565b3d9150611dad565b5081516011546001600160a01b03908116911614611cda565b600c6020600192604051611e08816148f0565b85548152604051611e1f8161029181898b01614b99565b8382015260ff600287015416611e3481614795565b6040820152604051611e4d816102918160038b01614b99565b606082015260048601546080820152600586015460a0820152600686015460c0820152600786015460e082015260088601546101008201526009860154610120820152604051611ea48161029181600a8b01614b99565b610140820152600b86015460ff8116611ebc8161479f565b610160830152858060a01b039060081c16610180820152815201920192019190611c50565b606460405162461bcd60e51b815260206004820152602060248201527f43616c6c6572206973206e6f7420746865207661756c7420636f6e74726163746044820152fd5b506015546001600160a01b03163314611a0a565b3461065257600036600319011261065257600a54611f568161553a565b90611f646040519283614928565b808252601f19611f738261553a565b0160005b81811061202e57505060015b81811115611ff357826040518091602082016020835281518091526040830190602060408260051b8601019301916000905b828210611fc457505050500390f35b91936001919395506020611fe38192603f198a820301865288516147a9565b9601920192018594939192611fb5565b611ffc81614e3f565b6000198201919081831161069e57826120239161201c6120299588615096565b5285615096565b50615055565b611f83565b602090612039614d98565b82828701015201611f77565b3461065257606036600319011261065257600435602435604435612067615f29565b82600052600960205260ff600b60406000200154161561214d57811561211a5780156120dc576000838152600960209081526040918290206004810185905560050183905581519384528301919091527f17b8644f386d1c7c7138ef98b3c8035622bbe94d7be9b26f71d2654a547c294391a2005b60405162461bcd60e51b8152602060048201526016602482015275125b9d985b1a59081b5a5b9a5b5d5b481c195c9a5bd960521b6044820152606490fd5b60405162461bcd60e51b815260206004820152600b60248201526a496e76616c69642041505960a81b6044820152606490fd5b60405162461bcd60e51b815260206004820152602260248201527f506f6f6c20646f6573206e6f74206578697374206f7220697320696e61637469604482015261766560f01b6064820152608490fd5b34610652576020366003190112610652576001600160a01b036121be614723565b166000526006602052602060018060a01b0360406000205416604051908152f35b34610652576121ed36614b2c565b91906121f7615f07565b6014546001600160a01b03163314801561229b575b156122565760018060a01b0316600052600760205260406000209060005260205260406000209061223c8161479f565b600052602052600060016040822001556001600055600080f35b60405162461bcd60e51b815260206004820152601f60248201527f43616c6c6572206973206e6f742074686520706f6f6c2063616e6973746572006044820152606490fd5b506015546001600160a01b0316331461220c565b3461065257600036600319011261065257600e546040516001600160a01b039091168152602090f35b346106525760203660031901126106525760043560005260096020526040600020805490604051908180600183019061231091614b99565b0361231b9083614928565b6040518061232c8160028501614b99565b036123379082614928565b600382015460ff169160048101546005820154600683015460078401546008850154600986015491600a87015493600b88015460ff1695600c89015497600d8a015499600e01549a6040519e8f9e8f91825260208201610220905261022082016123a091614770565b9080820390604001526123b291614770565b9b8d6123bd82614795565b6060015260808d015260a08c015260c08b015260e08a015261010089015261012088015261014087015215156101608601526101808501526101a084015260ff8181166101c0850152600882901c6001600160a01b03166101e08501526124299060a883901c1661479f565b60a81c60ff166102008301520390f35b3461065257602036600319011261065257612452614723565b61245a615f29565b600b54906001600160a01b0382166124ea576001600160a01b031690811561249b576001600160a01b03199081168217600b55600e80549091169091179055005b60405162461bcd60e51b815260206004820152602160248201527f476f7665726e616e636520616464726573732063616e6e6f74206265207a65726044820152606f60f81b6064820152608490fd5b60405162461bcd60e51b815260206004820152601660248201527511dbdd995c9b985b98d948185b1c9958591e481cd95d60521b6044820152606490fd5b346106525761253636614b16565b9060018060a01b036012541633148015612573575b612554906150aa565b600052600960205261256f600c604060002001918254614e24565b9055005b506015546001600160a01b0316331461254b565b346106525761259536614b2c565b60006101606040516125a6816148b8565b8281528260208201528260408201528260608201528260808201528260a08201528260c08201528260e0820152826101008201528261012082015282610140820152015260018060a01b03821660005260076020526040600020836000526020526040600020906126168161479f565b60005260205260406000206040519261262e8461489c565b60018060a01b0382541684526001820154926020850193845260028301549260408601938452856003820154916060820192835260ff600482015416608083019061267881614795565b8152600582015460a0840190815260068301549160c0850192835260ff600960078601549560e0880196875261010060088201549801978852015416956101208c01966126c48161479f565b8752886000526009602052604060002097604051986126e28a6148d4565b80548a526040516126fa816102918160018601614b99565b60208b0152604051612713816102918160028601614b99565b60408b015260ff60038201541661272981614795565b60608b0152600481015460808b0152600e60058201549160a08c01928352600681015460c08d0152600781015460e08d015260088101546101008d015260098101546101208d0152600a8101546101408d015260ff600b8201541615156101608d0152600c8101546101808d0152600d8101546101a08d015201549a60ff8c166101c08c015261020060ff6101e08d019d8e60018060a01b038260081c16905260a81c169b019a6127d98161479f565b8b5286519151906201518082029180830462015180149015171561069e5761280660209261284394615064565b600c54604051630414960560e21b81526001600160a01b039687166004820152602481019390935290949193849290911690829081906044820190565b03915afa90811561065f57600091612a35575b5080612a2557506128906201518061288887515b42875161287681614795565b61287f81614795565b612a1d57614e24565b048351614c33565b87524281116129e757506101809b600084525b519a519951905191516001600160a01b03909b169a926128c284614795565b519351945195519651976128d58961479f565b51986128e08a61479f565b516040519b6001600160a01b039091169a906128fb8d6148b8565b8c5260208c0190815260408c0191825260608c0192835260808c019361292081614795565b845260a08c0194855260c08c0195865260e08c019687526101008c019788526101208c019861294e8161479f565b89526101408c019961295f8161479f565b8a526101608c019a8b52604080519c516001600160a01b03168d52905160208d01529051908b01525160608a01525161299781614795565b60808901525160a08801525160c08701525160e086015251610100850152516129bf8161479f565b610120840152516129cf8161479f565b610140830152516001600160a01b0316610160820152f35b6129f2904290614e24565b9b620151808d019c8d811161069e576201517f019c8d1161069e57620151806101809d0484526128a3565b508951614e24565b620151806128886128909261286a565b906020823d602011612a5f575b81612a4f60209383614928565b810103126107465750518e612856565b3d9150612a42565b3461065257612a7536614b16565b9060018060a01b036012541633148015612aae575b612a93906150aa565b600052600960205261256f600c604060002001918254615064565b506015546001600160a01b03163314612a8a565b3461065257602036600319011261065257600435612ade615f29565b806000526009602052612afb60ff600b604060002001541661588d565b6000908152600960205260409020600b01805460ff19169055005b34610652576000366003190112610652576010546040516001600160a01b039091168152602090f35b34610652576020366003190112610652576001600160a01b03612b60614723565b1660005260176020526020604060002054604051908152f35b34610652576020366003190112610652576020612b97600435615685565b604051908152f35b34610652576000366003190112610652576001546040516001600160a01b039091168152602090f35b3461065257602036600319011261065257612be4600435615551565b6040518091602082016020835281518091526040830190602060408260051b8601019301916000905b828210612c1c57505050500390f35b919360019193955060208091603f1989820301855287519081518152610180612cd3612c7f612c5a868601516101a0888701526101a0860190614770565b6040860151612c6881614795565b604086015260608601518582036060870152614770565b6080850151608085015260a085015160a085015260c085015160c085015260e085015160e0850152610100850151610100850152610120850151610120850152610140850151848203610140860152614770565b92610160810151612ce38161479f565b61016084015281878060a01b03910151169101529601920192018594939192612c0d565b3461065257602036600319011261065257612d20614723565b612d28615f29565b601254906001600160a01b038216612dab576001600160a01b0316908115612d6657600c80546001600160a01b031990811684179091551617601255005b60405162461bcd60e51b815260206004820152601c60248201527f436f76657220616464726573732063616e6e6f74206265207a65726f000000006044820152606490fd5b60405162461bcd60e51b815260206004820152601160248201527010dbdd995c88185b1c9958591e481cd95d607a1b6044820152606490fd5b3461065257600036600319011261065257612dfd615f29565b600180546001600160a01b031981169091556000906001600160a01b03167f8be0079c531659141344cd1fd0a4f28419497f9722a3daafe3b4186f6b6457e08280a3005b3461065257600036600319011261065257600d546040516001600160a01b039091168152602090f35b3461065257602036600319011261065257612e83614723565b612e8b615f29565b601354906001600160a01b038216612f0e576001600160a01b0316908115612ec957600d80546001600160a01b031990811684179091551617601355005b60405162461bcd60e51b815260206004820152601c60248201527f5661756c7420616464726573732063616e6e6f74206265207a65726f000000006044820152606490fd5b60405162461bcd60e51b815260206004820152601160248201527015985d5b1d08185b1c9958591e481cd95d607a1b6044820152606490fd5b34610652576000366003190112610652576014546040516001600160a01b039091168152602090f35b3461065257600036600319011261065257600b546040516001600160a01b039091168152602090f35b34610652576020366003190112610652576004356001600160401b0381116106525761014060031982360301126106525760405190612fd78261489c565b8060040135825260248101356003811015610652576020830190815260448201356001600160401b038111610652576130169060043691850101614964565b926040810193845260648301356001600160401b038111610652576130419060043691860101614964565b6060820190815260808201926084850135845260a0830160a4860135815260c48601359160ff831683036106525760c0850192835260e085019160e48801358352610104880135976002891015610652576101246130a79161010089019a8b5201614739565b9661012087019788526130b8615f29565b88516130c38161479f565b6130cc8161479f565b1580156134a4575b1561345f57600a546001810180911161069e57600a5586516000526009602052604060002095875187558a5160018801908051906001600160401b0382116133865781906131228454614b5f565b601f811161340c575b50602090601f83116001146133a75760009261339c575b50508160011b916000199060031b1c19161790555b51805160028801916001600160401b038211613386576131778354614b5f565b601f811161333e575b50602090601f83116001146132cd57918061320396949260ff999896946000926132c2575b50508160011b916000199060031b1c19161790555b51600488015560006006880155516005870155600060078701556000600987015560006008870155600b860160018519825416179055516131fa81614795565b6003860161507e565b519182600d850155511693600e830191825490606403956064871161069e577ff01906dc0ac306fa816e50166a7ed46af1f05721cb90cea30beebdd8dede3a6d976132bd97600c6132a69701555161325a8161479f565b6132638161479f565b9251610100600160a81b0360089190911b1660ff60a81b60a89490941b939093166001600160b01b031992909216610100600160a81b0319919091161717179055565b519251604051918291602083526020830190614770565b0390a2005b015190508f806131a5565b90601f1983169184600052816000209260005b818110613326575092600192859260ff9b9a98966132039a98961061330d575b505050811b0190556131ba565b015160001960f88460031b161c191690558f8080613300565b929360206001819287860151815501950193016132e0565b836000526020600020601f840160051c8101916020851061337c575b601f0160051c01905b8181106133705750613180565b60008155600101613363565b909150819061335a565b634e487b7160e01b600052604160045260246000fd5b015190508e80613142565b60008581528281209350601f198516905b8181106133f457509084600195949392106133db575b505050811b019055613157565b015160001960f88460031b161c191690558e80806133ce565b929360206001819287860151815501950193016133b8565b909150836000526020600020601f840160051c81019160208510613455575b90601f859493920160051c01905b818110613446575061312b565b60008155849350600101613439565b909150819061342b565b60405162461bcd60e51b815260206004820152601760248201527f57726f6e6720417373657420666f72204465706f7369740000000000000000006044820152606490fd5b5087516001600160a01b031615156130d4565b34610652576134c5366149ab565b9060018060a01b03601254163314801561351b575b6134e3906150aa565b6000526008602052604060002090815491600160401b8310156133865782613513916001613519950181556150f5565b90615111565b005b506015546001600160a01b031633146134da565b346106525760203660031901126106525760043560165481101561065257613558602091614ae5565b905460405160039290921b1c6001600160a01b03168152f35b3461065257600036600319011261065257600f546040516001600160a01b039091168152602090f35b34610652576020366003190112610652576135b3614723565b600a54600091906001600160a01b03821660015b82811115613a2257506135d98461553a565b936135e76040519586614928565b8085526135f6601f199161553a565b0160005b8181106139ad575050600c546001600160a01b03169260009060015b8481111561371c57866040518091602082016020835281518091526040830190602060408260051b8601019301916000905b82821061365757505050500390f35b919360019193955060208091603f198982030185528751906101608061369b61368b85516101808652610180860190614770565b8686015185820388870152614770565b9360408101516136aa81614795565b6040850152606081015160608501526080810151608085015260a081015160a085015260c081015160c085015260e081015160e0850152610100810151610100850152610120810151610120850152610140810151151561014085015201519101529601920192018594939192613648565b8060005260096020526040600020846000526007602052604060002082600052602052604060002060008052602052604060002060405161375c8161489c565b60018060a01b038254168152600182015460208201526002820154604082015261012060ff600960038501549460608501958652826004820154166137a081614795565b6080860152600581015460a0860152600681015460c0860152600781015460e08601526008810154610100860152015416916137db8361479f565b01526040516339e671f760e11b81526001600160a01b0385166004820152602481018490526020816044818c5afa90811561065f5760009161397a575b506138239151614c33565b856000526007602052604060002083600052602052604060002060008052602052600160406000200154613862575b505061385d90615055565b613616565b600382810154600088815260076020908152604080832088845282528083208380529091529081902092830154600190930154600486015460058701546006880154600a890154600b8a015495519c9960ff9687169891979296939593919291909116906138cf8e6148b8565b6040518e816138e18160018601614b99565b036138ec9083614928565b528d6040518060028194019061390191614b99565b0361390c9083614928565b6020015261391981614795565b60408d01528960608d015260808c015260a08b015260c08a015260e089015261010088015261012087015215156101408601526101608501528061395c90615055565b93613967828a615096565b526139729088615096565b508780613852565b906020823d82116139a5575b8161399360209383614928565b81010312610746575051613823613818565b3d9150613986565b6020906040959495516139bf816148b8565b60608152606083820152600060408201526000606082015260006080820152600060a0820152600060c0820152600060e08201526000610100820152600061012082015260006101408201526000610160820152828289010152019392936135fa565b816000949394526007602052604060002081600052602052604060002060008052602052600160406000200154613a65575b613a5d90615055565b9291926135c7565b93613a72613a5d91615055565b949050613a54565b34610652576000366003190112610652576015546040516001600160a01b039091168152602090f35b34610652576020366003190112610652576004356000526009602052602060ff600b60406000200154166040519015158152f35b34610652576000366003190112610652576012546040516001600160a01b039091168152602090f35b34610652576000366003190112610652576013546040516001600160a01b039091168152602090f35b3461065257613b37366149ab565b6012546001600160a01b031633148015613bb0575b613b55906150aa565b60005b82600052600860205260406000205481101561351957826000526008602052613b858160406000206150f5565b5054825114613b9657600101613b58565b6135139061351993600052600860205260406000206150f5565b506015546001600160a01b03163314613b4c565b34610652576000366003190112610652576040518060206016549283815201809260166000527fd833147d7dc355ba459fc788f669e58cfaf9dc25ddcd0702e87d69c7b51242899060005b818110613c715750505081613c25910382614928565b6040519182916020830190602084525180915260408301919060005b818110613c4f575050500390f35b82516001600160a01b0316845285945060209384019390920191600101613c41565b82546001600160a01b0316845260209093019260019283019201613c0f565b60c036600319011261065257604051600060c082016001600160401b0381118382101761466457604052613cc2614723565b8252602082019160243583526040810160443581526064359360028510156104fc5760608301948552608435946002861015614660576080840195865260a435926001600160a01b0384168403610cfb5760a08501938452613d22615f07565b825186526009602052604086209360ff600b860154161561461057600e850197885460ff8160a81c169151613d568161479f565b613d5f8161479f565b613d688361479f565b82036145bc5782516001600160a01b0390811660089290921c160361457757600190613d938161479f565b03614502578151156144bd5751855182516040516323b872dd60e01b81526001600160a01b039283166004820152306024820152604481019190915291602091839160649183918c91165af180156144b257614477575b508051613dfc60068601918254615064565b90558051875460081c6001600160a01b03169760046020613e1c8b614c46565b9a6040519283809263313ce56760e01b82525afa801561446c578990614432575b60ff915016905b600d613e7360ff613e6a6064613e638c60068101549687910154614c33565b0484614e24565b93541683614c33565b926012036012811161441e578a9b610560670de0b6b3a764000093610560613e9d949e9d9e614e31565b049160098801556008870155600786015560018060a01b03875116865260076020526040862084518752602052604086208351613ed98161479f565b613ee28161479f565b875260205260408620600101541561430657613f4161409e9160018060a01b03895116885260076020526040882086518952602052604088208551613f268161479f565b613f2f8161479f565b89526020526001604089200154615064565b9361016d6064613f55600489015488614c33565b040493600960018060a01b038a51168351928b60058b015494825195613f7a8761479f565b60405194613f878661489c565b85528d60208601928d845260408701908152606087018d8152608088019183835260a0890194855260c08901954287528c60e08b0198868a526101008c019a878c526101208d019e8f613fd98261479f565b5251613fe48161479f565b613fed8161479f565b61425f57516001600160a01b039081168752600760209081526040808920935189529281528288208880529052952099518a546001600160a01b03191695169490941789559251600189015591516002880155905160038701555161405e9061405581614795565b6004870161507e565b5160058501555160068401555160078301555160088201550190516140828161479f565b61408b8161479f565b60ff801983541691161790555b51615551565b93855b855181101561411157600c546001600160a01b0316906140c18188615096565b5151823b15610cef57889260248492604051958693849263106b5da160e01b845260048401525af191821561152d5788600193614101575b5050016140a1565b61410a91614928565b8a886140f9565b50601654869550879086805b828110614227575b50156141c7575b5080516001600160a01b03168652601760205260408620805460018101919082106141b35792600194927f6f85d9948d6ca3dd6ce6ce7d175da22b4e865827ae6fcd530ec7edac1240f928926040999555858060a01b0390511692516141a3895192839283528a6020840152878b84019101614b99565b0390a25582519182526020820152f35b634e487b7160e01b88526011600452602488fd5b81516001600160a01b031690600160401b811015614213578060016141ef9201601655614ae5565b81546001600160a01b0360039290921b91821b191692901b9190911790558661412c565b634e487b7160e01b88526041600452602488fd5b61423081614ae5565b9054855160039290921b1c6001600160a01b039081169116146142555760010161411d565b5050600188614125565b516001600160a01b039081168752600760209081526040808920935189529281528288206001808a529152919096209a518b546001600160a01b0319169616959095178a5551938901939093559151600288015590516003870155516142c89061405581614795565b5160058501555160068401555160078301555160088201550190516142ec8161479f565b6142f58161479f565b60ff80198354169116179055614098565b9261409e9061016d606461431e600489015488614c33565b040493600960018060a01b038a51168351928b60058b0154948251956143438761479f565b604051946143508661489c565b85528d60208601928d845260408701908152606087018d8152608088019183835260a0890194855260c08901954287528c60e08b0198868a526101008c019a878c526101208d019e8f6143a28261479f565b52516143ad8161479f565b6143b68161479f565b61425f57516001600160a01b039081168752600760209081526040808920935189529281528288208880529052952099518a546001600160a01b0319169516949094178955925160018901559151600288015590516003870155516142c89061405581614795565b634e487b7160e01b8b52601160045260248bfd5b506020813d602011614464575b8161444c60209383614928565b81010312610cef5761445f60ff91614e16565b613e3d565b3d915061443f565b6040513d8b823e3d90fd5b6020813d6020116144aa575b8161449060209383614928565b810103126144a6576144a190615071565b613dea565b8680fd5b3d9150614483565b6040513d89823e3d90fd5b60405162461bcd60e51b815260206004820152601d60248201527f416d6f756e74206d7573742062652067726561746572207468616e20300000006044820152606490fd5b5034156145395760115461451e906001600160a01b0316614c46565b96601260068601614530348254615064565b90553491613e44565b60405162461bcd60e51b81526020600482015260166024820152754465706f7369742063616e6e6f74206265207a65726f60501b6044820152606490fd5b60405162461bcd60e51b815260206004820152601f60248201527f506f6f6c20646f6573206e6f74206163636570742074686973206173736574006044820152606490fd5b60405162461bcd60e51b815260206004820152602660248201527f506f6f6c20646f6573206e6f74206163636570742074686973206465706f736960448201526574207479706560d01b6064820152608490fd5b60405162461bcd60e51b815260206004820152602260248201527f506f6f6c20697320696e616374697665206f7220646f6573206e6f74206578696044820152611cdd60f21b6064820152608490fd5b8480fd5b634e487b7160e01b82526041600452602482fd5b34610652576000366003190112610652576000600190600a545b808311156146a557602082604051908152f35b906146bc6146c2916146b685615685565b90615064565b92615055565b9190614692565b34610652576020366003190112610652576146fc6146e8600435614e3f565b6040519182916020835260208301906147a9565b0390f35b34610652576020366003190112610652576020612b9761471e614723565b614c46565b600435906001600160a01b038216820361065257565b35906001600160a01b038216820361065257565b60005b8381106147605750506000910152565b8181015183820152602001614750565b906020916147898151809281855285808601910161474d565b601f01601f1916010190565b6003111561182657565b6002111561182657565b9081518152610200806147e26147d060208601516102206020870152610220860190614770565b60408601518582036040870152614770565b9360608101516147f181614795565b60608501526080810151608085015260a081015160a085015260c081015160c085015260e081015160e085015261010081015161010085015261012081015161012085015261014081015161014085015261016081015115156101608501526101808101516101808501526101a08101516101a085015260ff6101c0820151166101c085015260018060a01b036101e0820151166101e08501520151916148978361479f565b015290565b61014081019081106001600160401b0382111761338657604052565b61018081019081106001600160401b0382111761338657604052565b61022081019081106001600160401b0382111761338657604052565b6101a081019081106001600160401b0382111761338657604052565b61012081019081106001600160401b0382111761338657604052565b90601f801991011681019081106001600160401b0382111761338657604052565b6001600160401b03811161338657601f01601f191660200190565b81601f820112156106525780359061497b82614949565b926149896040519485614928565b8284526020838301011161065257816000926020809301838601378301015290565b90604060031983011261065257600435916024356001600160401b038111610652576101a0818303600319011261065257604051916149e9836148f0565b8160040135835260248201356001600160401b03811161065257816004614a1292850101614964565b60208401526044820135600381101561065257604084015260648201356001600160401b03811161065257816004614a4c92850101614964565b60608401526084820135608084015260a482013560a084015260c482013560c084015260e482013560e0840152610104820135610100840152610124820135610120840152610144820135906001600160401b038211610652576004614ab492840101614964565b610140830152610164810135600281101561065257610160830152614adc9061018401614739565b61018082015290565b601654811015614b0057601660005260206000200190600090565b634e487b7160e01b600052603260045260246000fd5b6040906003190112610652576004359060243590565b606090600319011261065257600435906024356001600160a01b0381168103610652579060443560028110156106525790565b90600182811c92168015614b8f575b6020831014614b7957565b634e487b7160e01b600052602260045260246000fd5b91607f1691614b6e565b60009291815491614ba983614b5f565b8083529260018116908115614bff5750600114614bc557505050565b60009081526020812093945091925b838310614be5575060209250010190565b600181602092949394548385870101520191019190614bd4565b915050602093945060ff929192191683830152151560051b010190565b519069ffffffffffffffffffff8216820361065257565b8181029291811591840414171561069e57565b6001600160a01b03908116600090815260066020526040902054168015614d485760a060049160405192838092633fabe5a360e21b82525afa90811561065f57600091614cfb575b506000811315614cb6576402540be4008102908082046402540be400149015171561069e5790565b60405162461bcd60e51b815260206004820152601960248201527f496e76616c69642070726963652066726f6d206f7261636c65000000000000006044820152606490fd5b9060a0823d60a011614d40575b81614d1560a09383614928565b810103126107465750614d2781614c1c565b50614d39608060208301519201614c1c565b5038614c8e565b3d9150614d08565b60405162461bcd60e51b815260206004820152602260248201527f50726963652066656564206e6f7420617661696c61626c6520666f7220617373604482015261195d60f21b6064820152608490fd5b60405190614da5826148d4565b60006102008382815260606020820152606060408201528260608201528260808201528260a08201528260c08201528260e08201528261010082015282610120820152826101408201528261016082015282610180820152826101a0820152826101c0820152826101e08201520152565b519060ff8216820361065257565b9190820391821161069e57565b604d811161069e57600a0a90565b614e47614d98565b506000526009602052604060002060405190614e62826148d4565b80548252604051614e7a816102918160018601614b99565b6020830152604051614e93816102918160028601614b99565b604083015260ff600382015416614ea981614795565b606083015260048101546080830152600581015460a0830152600681015460c0830190815260078201549160e0840192835260088101546101008501526009810154610120850152600a810154610140850152600e60ff600b830154169161016086019215158352600c810154610180870152600d8101546101a087015201549060ff82166101c086015260ff6101e086019260018060a01b038160081c16845260a81c16614f578161479f565b6102008601525115158061503c575b15614fb35750601154614f81906001600160a01b0316614c46565b906012905b5190601203916012831161069e57610560614fad92610560670de0b6b3a764000095614e31565b04905290565b9060046020614fca60018060a01b03855116614c46565b935160405163313ce56760e01b815292839182906001600160a01b03165afa801561065f57600090615002575b60ff91501690614f86565b506020813d602011615034575b8161501c60209383614928565b810103126106525761502f60ff91614e16565b614ff7565b3d915061500f565b5080516011546001600160a01b03908116911614614f66565b600019811461069e5760010190565b9190820180921161069e57565b5190811515820361065257565b9061508881614795565b60ff80198354169116179055565b8051821015614b005760209160051b010190565b156150b157565b606460405162461bcd60e51b815260206004820152602060248201527f43616c6c6572206973206e6f742074686520636f76657220636f6e74726163746044820152fd5b8054821015614b0057600052600c602060002091020190600090565b9061552457815181556001810160208301518051906001600160401b0382116133865781906151408454614b5f565b601f81116154d1575b50602090601f831160011461546c57600092615461575b50508160011b916000199060031b1c19161790555b61518f604083015161518681614795565b6002830161507e565b6003810160608301518051906001600160401b0382116133865781906151b58454614b5f565b601f811161540e575b50602090601f83116001146153a95760009261539e575b50508160011b916000199060031b1c19161790555b6080820151600482015560a0820151600582015560c0820151600682015560e0820151600782015561010082015160088201556101208201516009820155600a81016101408301518051906001600160401b0382116133865761524d8354614b5f565b601f8111615356575b50602090601f83116001146152e7579180600b94926152da9796946000926152dc575b50508160011b916000199060031b1c19161790555b019061016081015161529f8161479f565b6152a88161479f565b825461018092909201516001600160a81b031990921660ff919091161760089190911b610100600160a81b0316179055565b565b015190503880615279565b90601f1983169184600052816000209260005b81811061533e57509260019285926152da999896600b989610615325575b505050811b01905561528e565b015160001960f88460031b161c19169055388080615318565b929360206001819287860151815501950193016152fa565b836000526020600020601f840160051c81019160208510615394575b601f0160051c01905b8181106153885750615256565b6000815560010161537b565b9091508190615372565b0151905038806151d5565b60008581528281209350601f198516905b8181106153f657509084600195949392106153dd575b505050811b0190556151ea565b015160001960f88460031b161c191690553880806153d0565b929360206001819287860151815501950193016153ba565b909150836000526020600020601f840160051c81019160208510615457575b90601f859493920160051c01905b81811061544857506151be565b6000815584935060010161543b565b909150819061542d565b015190503880615160565b60008581528281209350601f198516905b8181106154b957509084600195949392106154a0575b505050811b019055615175565b015160001960f88460031b161c19169055388080615493565b9293602060018192878601518155019501930161547d565b909150836000526020600020601f840160051c8101916020851061551a575b90601f859493920160051c01905b81811061550b5750615149565b600081558493506001016154fe565b90915081906154f0565b634e487b7160e01b600052600060045260246000fd5b6001600160401b0381116133865760051b60200190565b6000526008602052604060002080546155698161553a565b916155776040519384614928565b818352602083019060005260206000206000915b838310615599575050505090565b600c60206001926040516155ac816148f0565b855481526040516155c38161029181898b01614b99565b8382015260ff6002870154166155d881614795565b60408201526040516155f1816102918160038b01614b99565b606082015260048601546080820152600586015460a0820152600686015460c0820152600786015460e0820152600886015461010082015260098601546101208201526040516156488161029181600a8b01614b99565b610140820152600b86015460ff81166156608161479f565b610160830152858060a01b039060081c1661018082015281520192019201919061558b565b6000526009602052604060002060405161569e816148d4565b815481526040516156b6816102918160018701614b99565b60208201526040516156cf816102918160028701614b99565b604082015260ff6003830154166156e581614795565b606082015260048201546080820152600582015460a082015260068201549160c08201928352600781015460e083015260088101546101008301526009810154610120830152600a810154610140830152600e60ff600b830154169161016084019215158352600c810154610180850152600d8101546101a085015201549160ff83166101c082015261020060ff6101e083019460018060a01b038160081c16865260a81c16916157958361479f565b015251151580615874575b156157eb57506011546157bb906001600160a01b0316614c46565b906012905b5190601203916012831161069e576105606157e792610560670de0b6b3a764000095614e31565b0490565b906004602061580260018060a01b03855116614c46565b935160405163313ce56760e01b815292839182906001600160a01b03165afa801561065f5760009061583a575b60ff915016906157c0565b506020813d60201161586c575b8161585460209383614928565b810103126106525761586760ff91614e16565b61582f565b3d9150615847565b5080516011546001600160a01b039081169116146157a0565b1561589457565b60405162461bcd60e51b8152602060048201526012602482015271506f6f6c206973206e6f742061637469766560701b6044820152606490fd5b156158d557565b60405162461bcd60e51b815260206004820152602160248201527f4e6f206465706f73697420666f756e6420666f722074686973206164647265736044820152607360f81b6064820152608490fd5b1561592b57565b60405162461bcd60e51b81526020600482015260156024820152744465706f736974206973206e6f742061637469766560581b6044820152606490fd5b1561596f57565b60405162461bcd60e51b815260206004820152601c60248201527f4465706f73697420706572696f6420686173206e6f7420656e646564000000006044820152606490fd5b6040906159cb939281528160208201520190614770565b90565b51906001600160a01b038216820361065257565b81601f820112156106525780516159f881614949565b92615a066040519485614928565b81845260208284010111610652576159cb916020808501910161474d565b3d15615a4f573d90615a3582614949565b91615a436040519384614928565b82523d6000602084013e565b606090565b15615a5b57565b60405162461bcd60e51b815260206004820152601c60248201527f4e6174697665206173736574207472616e73666572206661696c6564000000006044820152606490fd5b15615aa757565b60405162461bcd60e51b8152602060048201526015602482015274115490cc8c081d1c985b9cd9995c8819985a5b1959605a1b6044820152606490fd5b6000610120604051615af58161489c565b8281528260208201528260408201528260608201528260808201528260a08201528260c08201528260e082015282610100820152015260018060a01b038216600052600760205260406000208160005260205260406000206000805260205260406000209160405192615b678461489c565b80546001600160a01b031684526001810154602085015260028101546040850152600381015460608501908152600482015460808601949060ff16615bab81614795565b855260058301549460a08701958652600684015460c0880190815260078501549260e0890193845260ff60096008880154976101008c01988952015416615bf18161479f565b6101208a0152806000526009602052604060002090604051615c12816148d4565b82548152604051615c2a816102918160018801614b99565b6020820152604051615c43816102918160028801614b99565b604082015260ff600384015416615c5981614795565b60608201526004830154608082015261020060ff600e60058601549560a08501968752600681015460c0860152600781015460e086015260088101546101008601526009810154610120860152600a81015461014086015282600b820154161515610160860152600c810154610180860152600d8101546101a086015201548181166101c085015260018060a01b038160081c166101e085015260a81c1691615d018361479f565b015282519151906201518082029180830462015180149015171561069e57615d2e602092615d6b94615064565b600c54604051630414960560e21b81526001600160a01b039b8c166004820152602481019390935290999193849290911690829081906044820190565b03915afa90811561065f57600091615e15575b50926201518092615dbb92615dc396958015600014615e0d575051915b429151615da781614795565b615db081614795565b615e04575b50614e24565b049051614c33565b9052428111615dd457506000905290565b615ddf904290614e24565b6201518081019081811161069e576201517f0190811161069e57620151809004905290565b90505138615db5565b905091615d9b565b906020823d602011615e42575b81615e2f60209383614928565b8101031261074657505162015180615d7e565b3d9150615e22565b90816101a091031261065257604051906000615e65836148f0565b615e6e826159ce565b83526020820151602084015260408201516040840152606082015160608401526080820151608084015260a08201516003811015610d175760a084015260c082015160c084015260e082015160e08401526101008201516101008401526101208201516101208401526101408201516101408401526101608201519060028210156107465750610160830152614adc90610180016159ce565b600260005414615f18576002600055565b633ee5aeb560e01b60005260046000fd5b6001546001600160a01b03163303615f3d57565b63118cdaa760e01b6000523360045260246000fdfe485f1bb6524c663555797e00171a10f341656e59b02d6b557a0a38ba7d5d9751a26469706673582212204c2c948275c8a97bf37397bc697c225a268db31b8a7e505f1f803c9883287d5564736f6c634300081c0033",
  "linkReferences": {},
  "deployedLinkReferences": {}
}