{
  "_format": "hh-sol-artifact-1",
  "contractName": "InsuranceCover",
  "sourceName": "contracts/InsuranceCover.sol",
  "abi": [
    {
      "inputs": [
        {
          "internalType": "address",
          "name": "_lpContract",
          "type": "address"
        },
        {
          "internalType": "address",
          "name": "_vaultContract",
          "type": "address"
        },
        {
          "internalType": "address",
          "name": "_initialOwner",
          "type": "address"
        },
        {
          "internalType": "address",
          "name": "_bqBTC",
          "type": "address"
        },
        {
          "internalType": "address",
          "name": "_gov",
          "type": "address"
        }
      ],
      "stateMutability": "nonpayable",
      "type": "constructor"
    },
    {
      "inputs": [],
      "name": "CoverNotAvailable",
      "type": "error"
    },
    {
      "inputs": [],
      "name": "InsufficientPoolBalance",
      "type": "error"
    },
    {
      "inputs": [],
      "name": "InvalidAmount",
      "type": "error"
    },
    {
      "inputs": [],
      "name": "InvalidCoverDuration",
      "type": "error"
    },
    {
      "inputs": [],
      "name": "LpNotActive",
      "type": "error"
    },
    {
      "inputs": [],
      "name": "NameAlreadyExists",
      "type": "error"
    },
    {
      "inputs": [],
      "name": "NoClaimableReward",
      "type": "error"
    },
    {
      "inputs": [
        {
          "internalType": "address",
          "name": "owner",
          "type": "address"
        }
      ],
      "name": "OwnableInvalidOwner",
      "type": "error"
    },
    {
      "inputs": [
        {
          "internalType": "address",
          "name": "account",
          "type": "address"
        }
      ],
      "name": "OwnableUnauthorizedAccount",
      "type": "error"
    },
    {
      "inputs": [],
      "name": "ReentrancyGuardReentrantCall",
      "type": "error"
    },
    {
      "inputs": [],
      "name": "UnsupportedCoverType",
      "type": "error"
    },
    {
      "inputs": [],
      "name": "UserHaveAlreadyPurchasedCover",
      "type": "error"
    },
    {
      "inputs": [],
      "name": "WrongPool",
      "type": "error"
    },
    {
      "anonymous": false,
      "inputs": [
        {
          "indexed": true,
          "internalType": "uint256",
          "name": "coverId",
          "type": "uint256"
        },
        {
          "indexed": false,
          "internalType": "string",
          "name": "name",
          "type": "string"
        },
        {
          "indexed": false,
          "internalType": "enum CoverLib.RiskType",
          "name": "riskType",
          "type": "uint8"
        }
      ],
      "name": "CoverCreated",
      "type": "event"
    },
    {
      "anonymous": false,
      "inputs": [
        {
          "indexed": true,
          "internalType": "address",
          "name": "user",
          "type": "address"
        },
        {
          "indexed": false,
          "internalType": "uint256",
          "name": "coverValue",
          "type": "uint256"
        },
        {
          "indexed": false,
          "internalType": "uint256",
          "name": "coverFee",
          "type": "uint256"
        },
        {
          "indexed": false,
          "internalType": "enum CoverLib.RiskType",
          "name": "riskType",
          "type": "uint8"
        }
      ],
      "name": "CoverPurchased",
      "type": "event"
    },
    {
      "anonymous": false,
      "inputs": [
        {
          "indexed": true,
          "internalType": "uint256",
          "name": "coverId",
          "type": "uint256"
        },
        {
          "indexed": false,
          "internalType": "string",
          "name": "coverName",
          "type": "string"
        },
        {
          "indexed": false,
          "internalType": "enum CoverLib.RiskType",
          "name": "riskType",
          "type": "uint8"
        }
      ],
      "name": "CoverUpdated",
      "type": "event"
    },
    {
      "anonymous": false,
      "inputs": [
        {
          "indexed": true,
          "internalType": "address",
          "name": "previousOwner",
          "type": "address"
        },
        {
          "indexed": true,
          "internalType": "address",
          "name": "newOwner",
          "type": "address"
        }
      ],
      "name": "OwnershipTransferred",
      "type": "event"
    },
    {
      "anonymous": false,
      "inputs": [
        {
          "indexed": true,
          "internalType": "address",
          "name": "user",
          "type": "address"
        },
        {
          "indexed": true,
          "internalType": "uint256",
          "name": "poolId",
          "type": "uint256"
        },
        {
          "indexed": false,
          "internalType": "uint256",
          "name": "amount",
          "type": "uint256"
        }
      ],
      "name": "PayoutClaimed",
      "type": "event"
    },
    {
      "inputs": [
        {
          "internalType": "address",
          "name": "",
          "type": "address"
        },
        {
          "internalType": "uint256",
          "name": "",
          "type": "uint256"
        }
      ],
      "name": "LastVaultClaimTime",
      "outputs": [
        {
          "internalType": "uint256",
          "name": "",
          "type": "uint256"
        }
      ],
      "stateMutability": "view",
      "type": "function"
    },
    {
      "inputs": [
        {
          "internalType": "address",
          "name": "",
          "type": "address"
        },
        {
          "internalType": "uint256",
          "name": "",
          "type": "uint256"
        }
      ],
      "name": "NextLpClaimTime",
      "outputs": [
        {
          "internalType": "uint256",
          "name": "",
          "type": "uint256"
        }
      ],
      "stateMutability": "view",
      "type": "function"
    },
    {
      "inputs": [
        {
          "internalType": "uint256",
          "name": "amount",
          "type": "uint256"
        },
        {
          "internalType": "enum CoverLib.AssetDepositType",
          "name": "adt",
          "type": "uint8"
        },
        {
          "internalType": "address",
          "name": "asset",
          "type": "address"
        }
      ],
      "name": "addFundsToCoverContract",
      "outputs": [],
      "stateMutability": "payable",
      "type": "function"
    },
    {
      "inputs": [],
      "name": "bqBTC",
      "outputs": [
        {
          "internalType": "contract IbqBTC",
          "name": "",
          "type": "address"
        }
      ],
      "stateMutability": "view",
      "type": "function"
    },
    {
      "inputs": [],
      "name": "bqBTCAddress",
      "outputs": [
        {
          "internalType": "address",
          "name": "",
          "type": "address"
        }
      ],
      "stateMutability": "view",
      "type": "function"
    },
    {
      "inputs": [
        {
          "internalType": "uint256",
          "name": "_poolId",
          "type": "uint256"
        }
      ],
      "name": "claimPayoutForLP",
      "outputs": [],
      "stateMutability": "nonpayable",
      "type": "function"
    },
    {
      "inputs": [
        {
          "internalType": "uint256",
          "name": "vaultId",
          "type": "uint256"
        }
      ],
      "name": "claimPayoutForVault",
      "outputs": [],
      "stateMutability": "nonpayable",
      "type": "function"
    },
    {
      "inputs": [],
      "name": "coverCount",
      "outputs": [
        {
          "internalType": "uint256",
          "name": "",
          "type": "uint256"
        }
      ],
      "stateMutability": "view",
      "type": "function"
    },
    {
      "inputs": [
        {
          "internalType": "uint256",
          "name": "",
          "type": "uint256"
        }
      ],
      "name": "coverExists",
      "outputs": [
        {
          "internalType": "bool",
          "name": "",
          "type": "bool"
        }
      ],
      "stateMutability": "view",
      "type": "function"
    },
    {
      "inputs": [],
      "name": "coverFeeBalance",
      "outputs": [
        {
          "internalType": "uint256",
          "name": "",
          "type": "uint256"
        }
      ],
      "stateMutability": "view",
      "type": "function"
    },
    {
      "inputs": [
        {
          "internalType": "uint256",
          "name": "",
          "type": "uint256"
        }
      ],
      "name": "coverIds",
      "outputs": [
        {
          "internalType": "uint256",
          "name": "",
          "type": "uint256"
        }
      ],
      "stateMutability": "view",
      "type": "function"
    },
    {
      "inputs": [
        {
          "internalType": "uint256",
          "name": "",
          "type": "uint256"
        }
      ],
      "name": "covers",
      "outputs": [
        {
          "internalType": "uint256",
          "name": "id",
          "type": "uint256"
        },
        {
          "internalType": "string",
          "name": "coverName",
          "type": "string"
        },
        {
          "internalType": "enum CoverLib.RiskType",
          "name": "riskType",
          "type": "uint8"
        },
        {
          "internalType": "string",
          "name": "chains",
          "type": "string"
        },
        {
          "internalType": "uint256",
          "name": "capacity",
          "type": "uint256"
        },
        {
          "internalType": "uint256",
          "name": "cost",
          "type": "uint256"
        },
        {
          "internalType": "uint256",
          "name": "capacityAmount",
          "type": "uint256"
        },
        {
          "internalType": "uint256",
          "name": "coverValues",
          "type": "uint256"
        },
        {
          "internalType": "uint256",
          "name": "maxAmount",
          "type": "uint256"
        },
        {
          "internalType": "uint256",
          "name": "poolId",
          "type": "uint256"
        },
        {
          "internalType": "string",
          "name": "CID",
          "type": "string"
        },
        {
          "internalType": "enum CoverLib.AssetDepositType",
          "name": "adt",
          "type": "uint8"
        },
        {
          "internalType": "address",
          "name": "asset",
          "type": "address"
        }
      ],
      "stateMutability": "view",
      "type": "function"
    },
    {
      "inputs": [
        {
          "internalType": "uint256",
          "name": "coverId",
          "type": "uint256"
        },
        {
          "internalType": "string",
          "name": "_cid",
          "type": "string"
        },
        {
          "internalType": "enum CoverLib.RiskType",
          "name": "_riskType",
          "type": "uint8"
        },
        {
          "internalType": "string",
          "name": "_coverName",
          "type": "string"
        },
        {
          "internalType": "string",
          "name": "_chains",
          "type": "string"
        },
        {
          "internalType": "uint256",
          "name": "_capacity",
          "type": "uint256"
        },
        {
          "internalType": "uint256",
          "name": "_cost",
          "type": "uint256"
        },
        {
          "internalType": "uint256",
          "name": "_poolId",
          "type": "uint256"
        }
      ],
      "name": "createCover",
      "outputs": [],
      "stateMutability": "nonpayable",
      "type": "function"
    },
    {
      "inputs": [
        {
          "internalType": "address",
          "name": "_user",
          "type": "address"
        }
      ],
      "name": "deleteExpiredUserCovers",
      "outputs": [],
      "stateMutability": "nonpayable",
      "type": "function"
    },
    {
      "inputs": [],
      "name": "getAllAvailableCovers",
      "outputs": [
        {
          "components": [
            {
              "internalType": "uint256",
              "name": "id",
              "type": "uint256"
            },
            {
              "internalType": "string",
              "name": "coverName",
              "type": "string"
            },
            {
              "internalType": "enum CoverLib.RiskType",
              "name": "riskType",
              "type": "uint8"
            },
            {
              "internalType": "string",
              "name": "chains",
              "type": "string"
            },
            {
              "internalType": "uint256",
              "name": "capacity",
              "type": "uint256"
            },
            {
              "internalType": "uint256",
              "name": "cost",
              "type": "uint256"
            },
            {
              "internalType": "uint256",
              "name": "capacityAmount",
              "type": "uint256"
            },
            {
              "internalType": "uint256",
              "name": "coverValues",
              "type": "uint256"
            },
            {
              "internalType": "uint256",
              "name": "maxAmount",
              "type": "uint256"
            },
            {
              "internalType": "uint256",
              "name": "poolId",
              "type": "uint256"
            },
            {
              "internalType": "string",
              "name": "CID",
              "type": "string"
            },
            {
              "internalType": "enum CoverLib.AssetDepositType",
              "name": "adt",
              "type": "uint8"
            },
            {
              "internalType": "address",
              "name": "asset",
              "type": "address"
            }
          ],
          "internalType": "struct CoverLib.Cover[]",
          "name": "",
          "type": "tuple[]"
        }
      ],
      "stateMutability": "view",
      "type": "function"
    },
    {
      "inputs": [],
      "name": "getAllParticipants",
      "outputs": [
        {
          "internalType": "address[]",
          "name": "",
          "type": "address[]"
        }
      ],
      "stateMutability": "view",
      "type": "function"
    },
    {
      "inputs": [
        {
          "internalType": "address",
          "name": "user",
          "type": "address"
        }
      ],
      "name": "getAllUserCovers",
      "outputs": [
        {
          "components": [
            {
              "internalType": "address",
              "name": "user",
              "type": "address"
            },
            {
              "internalType": "uint256",
              "name": "coverId",
              "type": "uint256"
            },
            {
              "internalType": "enum CoverLib.RiskType",
              "name": "riskType",
              "type": "uint8"
            },
            {
              "internalType": "string",
              "name": "coverName",
              "type": "string"
            },
            {
              "internalType": "uint256",
              "name": "coverValue",
              "type": "uint256"
            },
            {
              "internalType": "uint256",
              "name": "claimPaid",
              "type": "uint256"
            },
            {
              "internalType": "uint256",
              "name": "coverPeriod",
              "type": "uint256"
            },
            {
              "internalType": "uint256",
              "name": "endDay",
              "type": "uint256"
            },
            {
              "internalType": "bool",
              "name": "isActive",
              "type": "bool"
            }
          ],
          "internalType": "struct CoverLib.GenericCoverInfo[]",
          "name": "",
          "type": "tuple[]"
        }
      ],
      "stateMutability": "view",
      "type": "function"
    },
    {
      "inputs": [],
      "name": "getCoverFeeBalance",
      "outputs": [
        {
          "internalType": "uint256",
          "name": "",
          "type": "uint256"
        }
      ],
      "stateMutability": "view",
      "type": "function"
    },
    {
      "inputs": [
        {
          "internalType": "uint256",
          "name": "_coverId",
          "type": "uint256"
        }
      ],
      "name": "getCoverInfo",
      "outputs": [
        {
          "components": [
            {
              "internalType": "uint256",
              "name": "id",
              "type": "uint256"
            },
            {
              "internalType": "string",
              "name": "coverName",
              "type": "string"
            },
            {
              "internalType": "enum CoverLib.RiskType",
              "name": "riskType",
              "type": "uint8"
            },
            {
              "internalType": "string",
              "name": "chains",
              "type": "string"
            },
            {
              "internalType": "uint256",
              "name": "capacity",
              "type": "uint256"
            },
            {
              "internalType": "uint256",
              "name": "cost",
              "type": "uint256"
            },
            {
              "internalType": "uint256",
              "name": "capacityAmount",
              "type": "uint256"
            },
            {
              "internalType": "uint256",
              "name": "coverValues",
              "type": "uint256"
            },
            {
              "internalType": "uint256",
              "name": "maxAmount",
              "type": "uint256"
            },
            {
              "internalType": "uint256",
              "name": "poolId",
              "type": "uint256"
            },
            {
              "internalType": "string",
              "name": "CID",
              "type": "string"
            },
            {
              "internalType": "enum CoverLib.AssetDepositType",
              "name": "adt",
              "type": "uint8"
            },
            {
              "internalType": "address",
              "name": "asset",
              "type": "address"
            }
          ],
          "internalType": "struct CoverLib.Cover",
          "name": "",
          "type": "tuple"
        }
      ],
      "stateMutability": "view",
      "type": "function"
    },
    {
      "inputs": [
        {
          "internalType": "address",
          "name": "user",
          "type": "address"
        },
        {
          "internalType": "uint256",
          "name": "_poolId",
          "type": "uint256"
        }
      ],
      "name": "getDepositClaimableDays",
      "outputs": [
        {
          "internalType": "uint256",
          "name": "",
          "type": "uint256"
        }
      ],
      "stateMutability": "view",
      "type": "function"
    },
    {
      "inputs": [
        {
          "internalType": "address",
          "name": "user",
          "type": "address"
        },
        {
          "internalType": "uint256",
          "name": "_poolId",
          "type": "uint256"
        }
      ],
      "name": "getLastClaimTime",
      "outputs": [
        {
          "internalType": "uint256",
          "name": "",
          "type": "uint256"
        }
      ],
      "stateMutability": "view",
      "type": "function"
    },
    {
      "inputs": [
        {
          "internalType": "address",
          "name": "user",
          "type": "address"
        },
        {
          "internalType": "uint256",
          "name": "_coverId",
          "type": "uint256"
        }
      ],
      "name": "getUserCoverInfo",
      "outputs": [
        {
          "components": [
            {
              "internalType": "address",
              "name": "user",
              "type": "address"
            },
            {
              "internalType": "uint256",
              "name": "coverId",
              "type": "uint256"
            },
            {
              "internalType": "enum CoverLib.RiskType",
              "name": "riskType",
              "type": "uint8"
            },
            {
              "internalType": "string",
              "name": "coverName",
              "type": "string"
            },
            {
              "internalType": "uint256",
              "name": "coverValue",
              "type": "uint256"
            },
            {
              "internalType": "uint256",
              "name": "claimPaid",
              "type": "uint256"
            },
            {
              "internalType": "uint256",
              "name": "coverPeriod",
              "type": "uint256"
            },
            {
              "internalType": "uint256",
              "name": "endDay",
              "type": "uint256"
            },
            {
              "internalType": "bool",
              "name": "isActive",
              "type": "bool"
            }
          ],
          "internalType": "struct CoverLib.GenericCoverInfo",
          "name": "",
          "type": "tuple"
        }
      ],
      "stateMutability": "view",
      "type": "function"
    },
    {
      "inputs": [
        {
          "internalType": "address",
          "name": "user",
          "type": "address"
        }
      ],
      "name": "getUserParticipation",
      "outputs": [
        {
          "internalType": "uint256",
          "name": "",
          "type": "uint256"
        }
      ],
      "stateMutability": "view",
      "type": "function"
    },
    {
      "inputs": [],
      "name": "governance",
      "outputs": [
        {
          "internalType": "address",
          "name": "",
          "type": "address"
        }
      ],
      "stateMutability": "view",
      "type": "function"
    },
    {
      "inputs": [],
      "name": "lpAddress",
      "outputs": [
        {
          "internalType": "address",
          "name": "",
          "type": "address"
        }
      ],
      "stateMutability": "view",
      "type": "function"
    },
    {
      "inputs": [],
      "name": "lpContract",
      "outputs": [
        {
          "internalType": "contract ILP",
          "name": "",
          "type": "address"
        }
      ],
      "stateMutability": "view",
      "type": "function"
    },
    {
      "inputs": [],
      "name": "owner",
      "outputs": [
        {
          "internalType": "address",
          "name": "",
          "type": "address"
        }
      ],
      "stateMutability": "view",
      "type": "function"
    },
    {
      "inputs": [
        {
          "internalType": "uint256",
          "name": "",
          "type": "uint256"
        }
      ],
      "name": "participants",
      "outputs": [
        {
          "internalType": "address",
          "name": "",
          "type": "address"
        }
      ],
      "stateMutability": "view",
      "type": "function"
    },
    {
      "inputs": [
        {
          "internalType": "address",
          "name": "",
          "type": "address"
        }
      ],
      "name": "participation",
      "outputs": [
        {
          "internalType": "uint256",
          "name": "",
          "type": "uint256"
        }
      ],
      "stateMutability": "view",
      "type": "function"
    },
    {
      "inputs": [
        {
          "internalType": "uint256",
          "name": "_coverId",
          "type": "uint256"
        },
        {
          "internalType": "uint256",
          "name": "_coverValue",
          "type": "uint256"
        },
        {
          "internalType": "uint256",
          "name": "_coverPeriod",
          "type": "uint256"
        },
        {
          "internalType": "uint256",
          "name": "_coverFee",
          "type": "uint256"
        }
      ],
      "name": "purchaseCover",
      "outputs": [],
      "stateMutability": "payable",
      "type": "function"
    },
    {
      "inputs": [],
      "name": "renounceOwnership",
      "outputs": [],
      "stateMutability": "nonpayable",
      "type": "function"
    },
    {
      "inputs": [
        {
          "internalType": "address",
          "name": "newOwner",
          "type": "address"
        }
      ],
      "name": "transferOwnership",
      "outputs": [],
      "stateMutability": "nonpayable",
      "type": "function"
    },
    {
      "inputs": [
        {
          "internalType": "uint256",
          "name": "_coverId",
          "type": "uint256"
        },
        {
          "internalType": "string",
          "name": "_coverName",
          "type": "string"
        },
        {
          "internalType": "enum CoverLib.RiskType",
          "name": "_riskType",
          "type": "uint8"
        },
        {
          "internalType": "string",
          "name": "_cid",
          "type": "string"
        },
        {
          "internalType": "string",
          "name": "_chains",
          "type": "string"
        },
        {
          "internalType": "uint256",
          "name": "_capacity",
          "type": "uint256"
        },
        {
          "internalType": "uint256",
          "name": "_cost",
          "type": "uint256"
        },
        {
          "internalType": "uint256",
          "name": "_poolId",
          "type": "uint256"
        }
      ],
      "name": "updateCover",
      "outputs": [],
      "stateMutability": "nonpayable",
      "type": "function"
    },
    {
      "inputs": [
        {
          "internalType": "uint256",
          "name": "_coverId",
          "type": "uint256"
        }
      ],
      "name": "updateMaxAmount",
      "outputs": [],
      "stateMutability": "nonpayable",
      "type": "function"
    },
    {
      "inputs": [
        {
          "internalType": "address",
          "name": "user",
          "type": "address"
        },
        {
          "internalType": "uint256",
          "name": "_coverId",
          "type": "uint256"
        },
        {
          "internalType": "uint256",
          "name": "_claimPaid",
          "type": "uint256"
        }
      ],
      "name": "updateUserCoverValue",
      "outputs": [],
      "stateMutability": "nonpayable",
      "type": "function"
    },
    {
      "inputs": [
        {
          "internalType": "address",
          "name": "",
          "type": "address"
        },
        {
          "internalType": "uint256",
          "name": "",
          "type": "uint256"
        }
      ],
      "name": "userCovers",
      "outputs": [
        {
          "internalType": "address",
          "name": "user",
          "type": "address"
        },
        {
          "internalType": "uint256",
          "name": "coverId",
          "type": "uint256"
        },
        {
          "internalType": "enum CoverLib.RiskType",
          "name": "riskType",
          "type": "uint8"
        },
        {
          "internalType": "string",
          "name": "coverName",
          "type": "string"
        },
        {
          "internalType": "uint256",
          "name": "coverValue",
          "type": "uint256"
        },
        {
          "internalType": "uint256",
          "name": "claimPaid",
          "type": "uint256"
        },
        {
          "internalType": "uint256",
          "name": "coverPeriod",
          "type": "uint256"
        },
        {
          "internalType": "uint256",
          "name": "endDay",
          "type": "uint256"
        },
        {
          "internalType": "bool",
          "name": "isActive",
          "type": "bool"
        }
      ],
      "stateMutability": "view",
      "type": "function"
    },
    {
      "inputs": [],
      "name": "vaultAddress",
      "outputs": [
        {
          "internalType": "address",
          "name": "",
          "type": "address"
        }
      ],
      "stateMutability": "view",
      "type": "function"
    },
    {
      "inputs": [],
      "name": "vaultContract",
      "outputs": [
        {
          "internalType": "contract IVault",
          "name": "",
          "type": "address"
        }
      ],
      "stateMutability": "view",
      "type": "function"
    }
  ],
  "bytecode": "0x60803461016957601f613f9238819003918201601f19168301916001600160401b0383118484101761016e5780849260a0946040528339810103126101695761004781610184565b9061005460208201610184565b9061006160408201610184565b9161007a608061007360608501610184565b9301610184565b60016000556001600160a01b0390931693841561015357600180546001600160a01b03198116871790915560405195906001600160a01b03167f8be0079c531659141344cd1fd0a4f28419497f9722a3daafe3b4186f6b6457e0600080a3600380546001600160a01b039283166001600160a01b0319918216811790925560058054948416948216851790556009805482169094179093556007805484169091179055600480549382169383168417905560068054831690931790925560088054939092169216919091179055613df990816101998239f35b631e4fbdf760e01b600052600060045260246000fd5b600080fd5b634e487b7160e01b600052604160045260246000fd5b51906001600160a01b03821682036101695756fe608080604052600436101561001357600080fd5b600090813560e01c9081630db981a0146131b8575080631052581414611915578063106b5da114613071578063195ec9ee14612fa95780632083d5f014612ada578063225a72e7146129ff5780632274346b146129d65780632d8a340c146125f757806334808ec3146125ce578063357917b714611fb757806335c1d3491461258a578063430bf08a1461256157806346f8479514610de95780635aa6e67514612538578063602710a414611fd5578063609c760414611fb757806362858bfa14611e9d5780636299df6c14611d55578063649718b214611b26578063715018a614611ac957806373cce3ee14611987578063782ea619146119585780637a728e7f146119155780637ceb4a691461187d5780638acee3cf146118545780638da5cb5b1461182b5780638de4d1011461107557806393b1ad3814610e2257806396f3a8ad14610de95780639732bdb514610600578063996b8a6f146105d75780639b4dc8cc146105ae5780639e7b399e146104d0578063bfc664f314610392578063cadcb471146102a6578063f2fde38b1461021d578063fb643583146101e35763feb0b8f5146101c357600080fd5b346101e057806003193601126101e0576020601154604051908152f35b80fd5b50346101e05760203660031901126101e057600435906012548210156101e057602061020e83613244565b90549060031b1c604051908152f35b50346101e05760203660031901126101e0576102376131f8565b61023f613d9a565b6001600160a01b0316801561029257600180546001600160a01b0319811683179091556001600160a01b03167f8be0079c531659141344cd1fd0a4f28419497f9722a3daafe3b4186f6b6457e08380a380f35b631e4fbdf760e01b82526004829052602482fd5b50346101e05760403660031901126101e057604061038e916102c66131f8565b6102ce613b69565b5060018060a01b03168152600f60205281812060243582526020522060ff6008604051926102fb8461345a565b80546001600160a01b031684526001810154602085015260028101548316610322816132a7565b60408501526040516103428161033b81600386016133d7565b03826134a8565b606085015260048101546080850152600581015460a0850152600681015460c0850152600781015460e085015201541615156101008201526040519182916020835260208301906134c9565b0390f35b50346101e05760203660031901126101e0576103ac6131f8565b6103b4613d78565b6001600160a01b031660015b6012548110156104c857806103d6600192613244565b90549060031b1c838552600f6020526040852081865260205260408520600881019081549060ff821690816104ba575b50610415575b505050016103c0565b60ff19169055838552600f602052604085209085526020528360086040822082815582858201558260028201558260038201610451815461339d565b8061047a575b50506004820155826005820155826006820155826007820155015538808061040c565b601f8111881461048f5750555b823880610457565b818352602083206104aa91601f0160051c8101908901613ad5565b8082528160208120915555610487565b600791500154421138610406565b826001815580f35b50346101e05760403660031901126101e0576040906001600160a01b036104f56131f8565b168152600f60205281812060243582526020522060018060a01b0381541660018201549160ff6002820154166040519161053d8361053681600385016133d7565b03846134a8565b600481015492600582015461058d60068401549260ff600860078701549601541695604051998a998a5260208a0152610575816132a7565b60408901526101206060890152610120880190613282565b94608087015260a086015260c085015260e084015215156101008301520390f35b50346101e057806003193601126101e0576007546040516001600160a01b039091168152602090f35b50346101e057806003193601126101e0576006546040516001600160a01b039091168152602090f35b50346101e057602490610612366135aa565b909161062399959399979497613d9a565b60018060a01b036003541699898b604051988980926307eb111f60e41b82528760048301525afa968715610dde578a97610dba575b5096996020890197908a5b88518110156106e9576020610678828b613944565b5101516040516106a960208281610698818301968781519384920161325f565b81010301601f1981018352826134a8565b5190208a8c6106ca602060405180936106988383019687925192839161325f565b519020146106da57600101610663565b633480a50360e21b8c5260048cfd5b508a9850899697508b6040519163068bcd8d60e01b83528560048401528a83602481845afa928315610daf578b93610d8b575b5087606084015161072c816132a7565b610735826132a7565b61073e816132a7565b14801590610d7d575b610d6e57606461075b8660c0860151613840565b049161020060018060a01b036101e086015116940151916002831015610d5a57808d913b15610d565781809160448b604051948593849263a4948d8560e01b845260048401528d60248401525af18015610aee57610d3d575b5050610829926107c5601154613b5a565b601155604051986107d58a61348c565b8c8a5260208a01978c895260408b01976107ee8d6132a7565b8c895260608c015260808b015260a08a01528060c08a01528c60e08a0152610100890152866101208901526101408801526101608701613b4e565b6101808501528688526010602052604088209184518355518051906001600160401b038211610bce5761085f600185015461339d565b601f8111610d0a575b50602090601f8311600114610c9d57918061089e926108b795948d92610b21575b50508160011b916000199060031b1c19161790565b60018401555b516108ae816132a7565b60028301613abd565b60608301518051906001600160401b038211610c89576108da600384015461339d565b601f8111610c56575b50602090601f8311600114610bed5761091392918a9183610be25750508160011b916000199060031b1c19161790565b60038201555b6080830151600482015560a0830151600582015560c0830151600682015560e0830151600782015561010083015160088201556101208301516009820155600a81016101408401518051906001600160401b038211610bce5761097c835461339d565b601f8111610b93575b50602090601f8311600114610b2c5791806109ba92600b9695948d92610b215750508160011b916000199060031b1c19161790565b90555b016101608301516002811015610b0d57815460ff610100600160a81b0361018087015160081b169216906affffffffffffffffffffff60a81b1617179055601254600160401b811015610af95790610a1d82600189959401601255613244565b8154600391821b89811b60001990911b1990911617909155546001600160a01b031691823b15610aea57610a7792849283604051809681958294630922950f60e31b845260048401526040602484015260448301906132d4565b03925af18015610aee57610ad5575b5091837f5928d65cc6ae9f07a7673f1a5a2f98d81f1bb0c2bc53bcaa33d6f11cf426f25e9352600c60205260408520600160ff19825416179055610acf60405192839283613d53565b0390a280f35b81610adf916134a8565b610aea578385610a86565b8380fd5b6040513d84823e3d90fd5b634e487b7160e01b87526041600452602487fd5b634e487b7160e01b88526021600452602488fd5b015190508c80610889565b838b52818b209190601f1984168c5b818110610b7b5750916001939185600b9897969410610b62575b505050811b0190556109bd565b015160001960f88460031b161c191690558b8080610b55565b92936020600181928786015181550195019301610b3b565b610bbe90848c5260208c20601f850160051c81019160208610610bc4575b601f0160051c0190613ad5565b8a610985565b9091508190610bb1565b634e487b7160e01b8a52604160045260248afd5b015190508a80610889565b600384018a52818a209190601f1984168b5b818110610c3e5750908460019594939210610c25575b505050811b016003820155610919565b015160001960f88460031b161c19169055898080610c15565b92936020600181928786015181550195019301610bff565b610c8390600385018b5260208b20601f850160051c81019160208610610bc457601f0160051c0190613ad5565b896108e3565b634e487b7160e01b89526041600452602489fd5b600185018b52818b209190601f1984168c5b818110610cf257509160019391856108b797969410610cd9575b505050811b0160018401556108a4565b015160001960f88460031b161c191690558b8080610cc9565b92936020600181928786015181550195019301610caf565b610d3790600186018c5260208c20601f850160051c81019160208610610bc457601f0160051c0190613ad5565b8a610868565b81610d47916134a8565b610d52578b8d6107b4565b8b80fd5b5080fd5b634e487b7160e01b8d52602160045260248dfd5b6369e489f560e11b8b5260048bfd5b506101808301518511610747565b610da89193503d808d833e610da081836134a8565b81019061381b565b918b61071c565b6040513d8d823e3d90fd5b610dd79197503d808c833e610dcf81836134a8565b810190613bad565b9538610658565b6040513d8c823e3d90fd5b50346101e05760203660031901126101e0576020906040906001600160a01b03610e116131f8565b168152600b83522054604051908152f35b50346101e057806003193601126101e0578081601254905b8181106110355750610e4b82613876565b91610e5960405193846134a8565b808352610e68601f1991613876565b01835b81811061101e57505082835b828110610ee55783856040519182916020830160208452825180915260408401602060408360051b870101940192905b828210610eb657505050500390f35b91936001919395506020610ed58192603f198a820301865288516132d4565b9601920192018594939192610ea7565b610eee81613244565b90549060031b1c808652600c60205260ff604087205416610f13575b50600101610e77565b60019192611017918752601060205260408720600b60405191610f358361348c565b80548352604051610f4c8161033b818a86016133d7565b602084015260ff600282015416610f62816132a7565b6040840152604051610f7b8161033b81600386016133d7565b606084015260048101546080840152600581015460a0840152600681015460c0840152600781015460e084015260088101546101008401526009810154610120840152604051610fd28161033b81600a86016133d7565b6101408401520154610feb60ff82166101608401613b4e565b848060a01b039060081c166101808201526110068288613944565b526110118187613944565b50613b5a565b9190610f0a565b602090611029613aec565b82828701015201610e6b565b61103e81613244565b90549060031b1c8452600c60205260ff604085205416611061575b600101610e3a565b9161106d600191613b5a565b929050611059565b50346101e0576024611086366135aa565b61109899979695929891949399613d9a565b60018060a01b036003541699888b6040519485809263068bcd8d60e01b82528660048301525afa928315611820578993611804575b508360608401516110dd816132a7565b6110e6826132a7565b6110ef816132a7565b148015906117f6575b6117e757878952601060205260646111188b60c060408d20960151613840565b04998a6007850154116117d8578960249a9b9c6040519b8c80926307eb111f60e41b82528760048301525afa998a15610daf578b9a6117bc575b50959a6020880196908b5b8b518110156111f7578b8b828c8c60206111778487613944565b51015160405161119760208281610698818301968781519384920161325f565b519020916111b7602060405180936106988383019687925192839161325f565b5190201492836111e0575b5050506111d15760010161115d565b633480a50360e21b8d5260048dfd5b6111eb929350613944565b515114158b828e6111c2565b508b98969997508c60048601549388516001600160401b038111611702578b61122360018a015461339d565b601f8111611789575b505060208c601f83116001146117215761125b929182611716575b508160011b916000199060031b1c19161790565b60018801555b80516001600160401b038111611702578b61127f60038a015461339d565b601f81116116cf575b505060208c601f831160011461166657906112b793836115b55750508160011b916000199060031b1c19161790565b60038701555b826004870155600586015589516001600160401b038111610bce57899a6112ec600a889c999a9b9c015461339d565b601f8111611633575b50602090601f83116001146115c057918061132a9261134795948b926115b55750508160011b916000199060031b1c19161790565b600a8701555b806006870155846009870155600786015490613869565b60088501558082111561152c5761135d91613869565b6003546001600160a01b031690813b15611528578491604483926040519485938492639fd36b1560e01b845288600485015260248401525af190811561151d578491611504575b50505b6003546001600160a01b031691823b15610aea5783928392604051948580948193630eb4c14960e11b8352600483015260406024830152805460448301526101a06064830152600b6114876114316114066101e48601600186016133d7565b60ff600286015416611417816132a7565b60848701528581036043190160a4870152600385016133d7565b600484015460c4860152600584015460e4860152600684015461010486015260078401546101248601526008840154610144860152600984015461016486015284810360431901610184860152600a84016133d7565b91015461149b6101a4840160ff83166132c7565b60081c6001600160a01b03166101c483015203925af18015610aee576114ef575b50507f758a67328ba53c1867c0272bbd2ca10d6fe71d37120188c523fe7ae7bdbbe46991610acf60405192839283613d53565b816114f9916134a8565b610aea5783856114bc565b8161150e916134a8565b6115195782886113a4565b8280fd5b6040513d86823e3d90fd5b8480fd5b80821061153b575b50506113a7565b906115499194929394613869565b6003546001600160a01b0316803b156115195760448392604051948593849263a4948d8560e01b845288600485015260248401525af180156115aa57611594575b9081879392611534565b866115a291979293976134a8565b94908661158a565b6040513d89823e3d90fd5b015190508e80610889565b90600a8801895280892091895b601f198516811061161857509183916001936113479695601f198116106115ff575b505050811b01600a870155611330565b015160001960f88460031b161c191690558d80806115ef565b8183015184558e9a50600190930192602092830192016115cd565b61166090600a89018a5260208a20601f850160051c81019160208610610bc457601f0160051c0190613ad5565b8c6112f5565b9192601f19841660038b018452828420935b8181106116b7575090846001959493921061169e575b505050811b0160038701556112bd565b015160001960f88460031b161c191690558d808061168e565b92936020600181928786015181550195019301611678565b60206116fb9260038c01815220601f840160051c81019160208510610bc457601f0160051c0190613ad5565b8b8e611288565b634e487b7160e01b8c52604160045260248cfd5b90508b01518f611247565b90601f19831660018b018352818320925b8d8282106117715750509083600194939210611758575b5050811b016001880155611261565b8c015160001960f88460031b161c191690558e80611749565b60018495602093958493015181550194019201611732565b60206117b59260018c01815220601f840160051c81019160208510610bc457601f0160051c0190613ad5565b8b8e61122c565b6117d1919a503d808d833e610dcf81836134a8565b9838611152565b6369e489f560e11b8a5260048afd5b6369e489f560e11b8952600489fd5b506101808301518a116110f8565b6118199193503d808b833e610da081836134a8565b91386110cd565b6040513d8b823e3d90fd5b50346101e057806003193601126101e0576001546040516001600160a01b039091168152602090f35b50346101e057806003193601126101e0576003546040516001600160a01b039091168152602090f35b50346101e05760603660031901126101e0576118976131f8565b602435604435916118b360018060a01b03600854163314613633565b6118bb613d78565b60018060a01b0316808452600f60205260408420828552602052600460408520016118e7848254613869565b90558352600f6020526040832090835260205261190c60056040842001918254613958565b90556001815580f35b50346101e05760403660031901126101e0576020906040906001600160a01b0361193d6131f8565b168152600d8352818120602435825283522054604051908152f35b50346101e05760203660031901126101e05760ff60406020926004358152600c84522054166040519015158152f35b50346101e05760403660031901126101e0576119a16131f8565b6003546040516374f0645b60e11b815260248035600483018190526001600160a01b0385811692840192909252919391926101409185916044918391165afa92831561151d578493611a7e575b509183611a4f92603c946020965060018060a01b0316808352600d8752604083208284528752604083205415600014611a6457505060c0820151915b60808101514292611a3a826132a7565b50611a44816132a7565b611a58575b50613869565b04604051908152f35b60e09150015138611a49565b8252600d8652604082209082528552604081205491611a2a565b9092506101403d8111611ac2575b611a9681836134a8565b810190610140818303126115285793611a4f92611ab8603c959360209761388d565b94509250936119ee565b503d611a8c565b50346101e057806003193601126101e057611ae2613d9a565b600180546001600160a01b0319811690915581906001600160a01b03167f8be0079c531659141344cd1fd0a4f28419497f9722a3daafe3b4186f6b6457e08280a380f35b50346101e05760203660031901126101e057611b406131f8565b60125482916001600160a01b0316825b828110611d0a5750611b6183613876565b92611b6f60405194856134a8565b808452611b7e601f1991613876565b01845b818110611cf357505083845b838110611bfb5784866040519182916020830160208452825180915260408401602060408360051b870101940192905b828210611bcc57505050500390f35b91936001919395506020611beb8192603f198a820301865288516134c9565b9601920192018594939192611bbd565b611c0481613244565b90549060031b1c838752600f602052604087208188526020526004604088200154611c33575b50600101611b8d565b60019192611cec91858952600f602052604089209089526020526040882060ff600860405192611c628461345a565b868060a01b03815416845286810154602085015282600282015416611c86816132a7565b6040850152604051611c9f8161033b81600386016133d7565b606085015260048101546080850152600581015460a0850152600681015460c0850152600781015460e08501520154161515610100820152611ce18289613944565b526110118188613944565b9190611c2a565b602090611cfe613b69565b82828801015201611b81565b611d1381613244565b90549060031b1c828652600f602052604086209086526020526004604086200154611d41575b600101611b50565b92611d4d600191613b5a565b939050611d39565b50346101e05760203660031901126101e057600435815260106020526040902080546040519182806001830190611d8b916133d7565b03611d9690846134a8565b600281015460ff169060405180806003840190611db2916133d7565b03611dbd90826134a8565b60048201549060058301546006840154600785015490600886015492600987015494604051978880600a830190611df3916133d7565b03611dfe908a6134a8565b600b0154986040519b8c9b8c5260208c016101a090526101a08c01611e2291613282565b90611e2c816132a7565b60408c01528a810360608c0152611e4291613282565b9560808a015260a089015260c088015260e0870152610100860152610120850152838103610140850152611e7591613282565b90611e87610160840160ff83166132c7565b60081c6001600160a01b03166101808301520390f35b50346101e05760203660031901126101e057604061038e91611ebd613aec565b506004358152601060205220600b60405191611ed88361348c565b80548352604051611ef08161033b81600186016133d7565b602084015260ff600282015416611f06816132a7565b6040840152604051611f1f8161033b81600386016133d7565b606084015260048101546080840152600581015460a0840152600681015460c0840152600781015460e084015260088101546101008401526009810154610120840152604051611f768161033b81600a86016133d7565b6101408401520154611f8f60ff82166101608401613b4e565b60081c6001600160a01b031661018082015260405160208082529092839290918301906132d4565b50346101e057806003193601126101e0576020600254604051908152f35b5060803660031901126101e05760443590602435600435611ff4613d78565b601b841180159061252c575b61251d57808352600c60205260ff6040842054161561250e578083526010602052604083209060088201805484116124ff5760078301612041858254613958565b906006850190815483116124f057600b860160ff81541660028110156124dc576001036124b557546040516323b872dd60e01b81523360048201523060248201526064803560448301529091602091839182908d9060081c6001600160a01b03165af1908115611820578991612468575b50928092916120c36120cf95613a2d565b5554611a498282613869565b9055338452600f602052604084208185526020526004604085200154156000146124595760ff600283015416946201518081028181046201518014821517156124455761211c9042613958565b604051916121298361345a565b338352602083018481526040840198612141816132a7565b89526040519861215f8a6121588160018b016133d7565b038b6134a8565b60608501998a526121e1608086019189835260a08701938b855260c0880195865260e0880196875261010088019860018a52338d52600f60205260408d20908d5260205260408c209760018060a01b039051166bffffffffffffffffffffffff60a01b895416178855516001880155516121d8816132a7565b60028701613abd565b600385019951998a516001600160401b03811161243157612202825461339d565b601f8111612401575b506020601f8211600114612394579080612241928d9e60089b9c9d9e926123895750508160011b916000199060031b1c19161790565b90555b516004850155516005840155516006830155516007820155019051151560ff80198354169116179055828390600a54915b828110612356575b5015612304575b50338352600b60205260408320805490600182018092116122f0575560020154604051918252606435602083015260ff166122be816132a7565b60408201527f23b0f39e0762759ffb18632a1a2b79c9eb58571454e5f7c36e0a2f81759e0a3460603392a26001815580f35b634e487b7160e01b85526011600452602485fd5b600160401b811015612342578060016123209201600a55613213565b81546001600160a01b0360039290921b91821b19163390911b17905538612284565b634e487b7160e01b84526041600452602484fd5b61235f81613213565b905460039190911b1c6001600160a01b0316331461237f57600101612275565b505060013861227d565b015190503880610889565b828c52808c209c601f1983168d5b8181106123e457509160089a9b9c9d9e918460019594106123cb575b505050811b019055612244565b015160001960f88460031b161c191690553880806123be565b919e8f60016020928684930151815501940192019e91929e6123a2565b61242b90838d5260208d20601f840160051c81019160208510610bc457601f0160051c0190613ad5565b3861220b565b634e487b7160e01b8b52604160045260248bfd5b634e487b7160e01b86526011600452602486fd5b639857cbd960e01b8452600484fd5b90506020813d6020116124ad575b81612483602093836134a8565b810103126124a957928092916120c361249e6120cf966136b5565b9250509192936120b2565b8880fd5b3d9150612476565b5090826120cf93926124c8341515613a71565b6124d434600254613958565b6002556120c3565b634e487b7160e01b8a52602160045260248afd5b63bc6072f160e01b8852600488fd5b63bc6072f160e01b8552600485fd5b63bccd404360e01b8352600483fd5b631f89958960e11b8352600483fd5b5061016e841015612000565b50346101e057806003193601126101e0576008546040516001600160a01b039091168152602090f35b50346101e057806003193601126101e0576009546040516001600160a01b039091168152602090f35b50346101e05760203660031901126101e05760043590600a548210156101e05760206125b583613213565b905460405160039290921b1c6001600160a01b03168152f35b50346101e057806003193601126101e0576004546040516001600160a01b039091168152602090f35b50346101e05760203660031901126101e057600435612614613d78565b6003546040516374f0645b60e11b8152600481018390523360248201526001600160a01b039091169061014081604481855afa90811561151d57849161299c575b50338452600d6020526040842083855260205260408420541560001461297b57603c6126a160c08301515b42608085015161268f816132a7565b612698816132a7565b61297057613869565b0480156129345760606126b5920151613840565b9081156128ef57836024916040519283809263068bcd8d60e01b82528760048301525afa90811561151d5784916128d5575b506102008101805160028110156128c1576001036128b6576101e08201516040516370a0823160e01b815230600482015290602090829060249082906001600160a01b03165afa80156128ab578690612873575b61274991505b841115613965565b338552600d6020526040852084865260205242604086205551600281101561285f57600103612831576101e0015160405163a9059cbb60e01b8152336004820152602481018390529060209082906001600160a01b0316818781604481015b03925af1801561151d5784906127f6575b6127c39150613a2d565b6040519081527f0408e6e0b73daf4c873106e95fd067260fbff8bf9d1b499cad563d4480d45bac60203392a36001815580f35b506020813d602011612829575b81612810602093836134a8565b81010312610aea576128246127c3916136b5565b6127b9565b3d9150612803565b5061284b8380808085335af16128456139b1565b506139e1565b61285781600254613869565b6002556127c3565b634e487b7160e01b85526021600452602485fd5b506020813d6020116128a3575b8161288d602093836134a8565b8101031261289f57612749905161273b565b8580fd5b3d9150612880565b6040513d88823e3d90fd5b612749600254612741565b634e487b7160e01b86526021600452602486fd5b6128e991503d8086833e610da081836134a8565b386126e7565b60405162461bcd60e51b815260206004820152601d60248201527f4e6f20636c61696d61626c65207265776172647320666f7220757365720000006044820152606490fd5b60405162461bcd60e51b81526020600482015260146024820152734e6f20636c61696d61626c65207265776172647360601b6044820152606490fd5b5060e0840151613869565b338452600d60205260408420838552602052603c6126a16040862054612680565b90506101403d81116129cf575b6129b381836134a8565b810161014082820312611528576129c99161388d565b38612655565b503d6129a9565b50346101e057806003193601126101e0576005546040516001600160a01b039091168152602090f35b5060603660031901126101e0576024356002811015610d56576044356001600160a01b038116919082900361151957600103612abc576040516323b872dd60e01b815233600480830191909152306024830152356044820152906020908290606490829086905af18015610aee578290612a81575b612a7e9150613a2d565b80f35b506020813d602011612ab4575b81612a9b602093836134a8565b81010312610d5657612aaf612a7e916136b5565b612a74565b3d9150612a8e565b50612ac8341515613a71565b612ad434600254613958565b60025580f35b50346101e05760203660031901126101e05760043590612af8613d78565b60055460405163395d7def60e11b8152600481018490523360248201526001600160a01b0390911691908181604481865afa908115610aee578291612f0c575b5081338152600e60205260408120858252602052604081205415600014612eeb57603c612b9760c0612b6985613937565b5101515b426080612b7987613937565b510151612b85816132a7565b612b8e816132a7565b612ed757613869565b049481935b8351851015612bd157612bc9600191612bc3896060612bbb8a8a613944565b510151613840565b90613958565b940193612b9c565b858115612e9a578360249160405192838092632500ed8d60e21b82528760048301525afa90811561151d578491612d06575b506101208101805160028110156128c157600103612cfb576101408201516040516370a0823160e01b815230600482015290602090829060249082906001600160a01b03165afa80156128ab578690612cc7575b612c649150841115613965565b338552600e6020526040852084865260205242604086205551600281101561285f5760010361283157610140015160405163a9059cbb60e01b8152336004820152602481018390529060209082906001600160a01b0316818781604481016127a8565b506020813d602011612cf3575b81612ce1602093836134a8565b8101031261289f57612c649051612c57565b3d9150612cd4565b612c64600254612741565b90503d8085833e612d1781836134a8565b810190602081830312611528578051906001600160401b03821161289f570161016081830312611528576040519161016083018381106001600160401b03821117610af9576040528151835260208201516001600160401b038111612e965781612d82918401613670565b602084015260408201516003811015612e9657604084015260608201516001600160401b038111612e965782019080601f83011215612e9657815191612dc783613876565b92612dd560405194856134a8565b80845260208085019160051b83010191838311612e925760208101915b838310612e6557505050505060608301526080810151608083015260a081015160a083015260c081015160c083015260e081015160e0830152610100810151610100830152610120810151600281101561289f57610120830152612e5990610140016136c2565b61014082015284612c03565b82516001600160401b038111610d5257602091612e87878480948701016136d6565b815201920191612df2565b8980fd5b8680fd5b60405162461bcd60e51b815260206004820152601560248201527427379031b630b4b6903cb2ba103337b9103ab9b2b960591b6044820152606490fd5b5060e0612ee386613937565b510151613869565b338152600e60205260408120858252602052603c612b976040832054612b6d565b90503d8083833e612f1d81836134a8565b810190602081830312611519578051906001600160401b038211610aea570181601f82011215611519578051612f5281613876565b92612f6060405194856134a8565b818452602061014081860193028401019281841161289f57602001915b838310612f8e575050505038612b38565b602061014091612f9e848661388d565b815201920191612f7d565b50346101e057806003193601126101e057604051806020600a5491828152018091600a85527fc65a7bb8d6351c1cf70c95a316cc6a92839c986682d98bc35f958f4883f9d2a890855b81811061305257505050826130089103836134a8565b604051928392602084019060208552518091526040840192915b818110613030575050500390f35b82516001600160a01b0316845285945060209384019390920191600101613022565b82546001600160a01b0316845260209093019260019283019201612ff2565b50346101e05760203660031901126101e05760043561309b60018060a01b03600754163314613633565b6130a3613d78565b808252601060205260408083206003546009820154925163068bcd8d60e01b815260048101939093528490839060249082906001600160a01b03165afa91821561151d578492613199575b506004015490811561315b5760649160c061310a920151613840565b0481835260106020526006604084200155808252601060205261314460066040842001548284526010602052600760408520015490613869565b908252601060205260086040832001556001815580f35b60405162461bcd60e51b8152602060048201526016602482015275496e76616c696420636f76657220636170616369747960501b6044820152606490fd5b60049192506131b1903d8087833e610da081836134a8565b91906130ee565b905034610d56576040366003190112610d56576020916040906001600160a01b036131e16131f8565b168152600e84528181206024358252845220548152f35b600435906001600160a01b038216820361320e57565b600080fd5b600a5481101561322e57600a60005260206000200190600090565b634e487b7160e01b600052603260045260246000fd5b60125481101561322e57601260005260206000200190600090565b60005b8381106132725750506000910152565b8181015183820152602001613262565b9060209161329b8151809281855285808601910161325f565b601f01601f1916010190565b600311156132b157565b634e487b7160e01b600052602160045260246000fd5b9060028210156132b15752565b90815181526101806133766133226132fd60208601516101a060208701526101a0860190613282565b604086015161330b816132a7565b604086015260608601518582036060870152613282565b6080850151608085015260a085015160a085015260c085015160c085015260e085015160e0850152610100850151610100850152610120850151610120850152610140850151848203610140860152613282565b9261338b6101608201516101608501906132c7565b8101516001600160a01b031691015290565b90600182811c921680156133cd575b60208310146133b757565b634e487b7160e01b600052602260045260246000fd5b91607f16916133ac565b600092918154916133e78361339d565b808352926001811690811561343d575060011461340357505050565b60009081526020812093945091925b838310613423575060209250010190565b600181602092949394548385870101520191019190613412565b915050602093945060ff929192191683830152151560051b010190565b61012081019081106001600160401b0382111761347657604052565b634e487b7160e01b600052604160045260246000fd5b6101a081019081106001600160401b0382111761347657604052565b90601f801991011681019081106001600160401b0382111761347657604052565b80516001600160a01b031682526020808201519083015260408101519091906134f1816132a7565b60408201526101008061351560608501516101206060860152610120850190613282565b936080810151608085015260a081015160a085015260c081015160c085015260e081015160e08501520151151591015290565b6001600160401b03811161347657601f01601f191660200190565b81601f8201121561320e5780359061357a82613548565b9261358860405194856134a8565b8284526020838301011161320e57816000926020809301838601378301015290565b61010060031982011261320e57600435916024356001600160401b03811161320e57826135d991600401613563565b91604435600381101561320e57916064356001600160401b03811161320e578261360591600401613563565b91608435906001600160401b03821161320e5761362491600401613563565b9060a4359060c4359060e43590565b1561363a57565b60405162461bcd60e51b815260206004820152600e60248201526d139bdd08185d5d1a1bdc9a5e995960921b6044820152606490fd5b81601f8201121561320e57805161368681613548565b9261369460405194856134a8565b8184526020828401011161320e576136b2916020808501910161325f565b90565b5190811515820361320e57565b51906001600160a01b038216820361320e57565b9190916102208184031261320e576040519061022082018281106001600160401b038211176134765760405281938151835260208201516001600160401b03811161320e5781613727918401613670565b60208401526040820151906001600160401b03821161320e5761374b918301613670565b60408301526060810151600381101561320e5760608301526080810151608083015260a081015160a083015260c081015160c083015260e081015160e08301526101008101516101008301526101208101516101208301526101408101516101408301526137bc61016082016136b5565b6101608301526101808101516101808301526101a08101516101a08301526101c08101519060ff8216820361320e57610200916101c08401526138026101e082016136c2565b6101e0840152015190600282101561320e576102000152565b9060208282031261320e5781516001600160401b03811161320e576136b292016136d6565b8181029291811591840414171561385357565b634e487b7160e01b600052601160045260246000fd5b9190820391821161385357565b6001600160401b0381116134765760051b60200190565b91908261014091031261320e5760405161014081018181106001600160401b038211176134765760405280926138c2816136c2565b8252602081015160208301526040810151604083015260608101516060830152608081015190600382101561320e5761012091608084015260a081015160a084015260c081015160c084015260e081015160e0840152610100810151610100840152015190600282101561320e576101200152565b80511561322e5760200190565b805182101561322e5760209160051b010190565b9190820180921161385357565b1561396c57565b60405162461bcd60e51b815260206004820152601a60248201527f496e73756666696369656e7420636f7665722062616c616e63650000000000006044820152606490fd5b3d156139dc573d906139c282613548565b916139d060405193846134a8565b82523d6000602084013e565b606090565b156139e857565b60405162461bcd60e51b815260206004820152601c60248201527f4e6174697665206173736574207472616e73666572206661696c6564000000006044820152606490fd5b15613a3457565b60405162461bcd60e51b8152602060048201526015602482015274115490cc8c081d1c985b9cd9995c8819985a5b1959605a1b6044820152606490fd5b15613a7857565b60405162461bcd60e51b815260206004820152601a60248201527f436f7665722076616c75652063616e6e6f74206265207a65726f0000000000006044820152606490fd5b90613ac7816132a7565b60ff80198354169116179055565b818110613ae0575050565b60008155600101613ad5565b60405190613af98261348c565b600061018083828152606060208201528260408201526060808201528260808201528260a08201528260c08201528260e082015282610100820152826101208201526060610140820152826101608201520152565b60028210156132b15752565b60001981146138535760010190565b60405190613b768261345a565b6000610100838281528260208201528260408201526060808201528260808201528260a08201528260c08201528260e08201520152565b60208183031261320e578051906001600160401b03821161320e570181601f8201121561320e57805190613be082613876565b92613bee60405194856134a8565b82845260208085019360051b8301019181831161320e5760208101935b838510613c1a57505050505090565b84516001600160401b03811161320e578201906101a0828503601f19011261320e5760405190613c498261348c565b6020830151825260408301516001600160401b03811161320e57856020613c7292860101613670565b60208301526060830151600381101561320e57604083015260808301516001600160401b03811161320e57856020613cac92860101613670565b606083015260a0830151608083015260c083015160a083015260e083015160c083015261010083015160e08301526101208301516101008301526101408301516101208301526101608301516001600160401b03811161320e57856020613d1592860101613670565b61014083015261018083015191600283101561320e57613d426101a06020958695610160850152016136c2565b610180820152815201940193613c0b565b929190613d6a602091604086526040860190613282565b93613d74836132a7565b0152565b600260005414613d89576002600055565b633ee5aeb560e01b60005260046000fd5b6001546001600160a01b03163303613dae57565b63118cdaa760e01b6000523360045260246000fdfea2646970667358221220273aeacf9c079239569f3df9493c756e615ff39e598793ba0a414fd9c9967bfd64736f6c634300081c0033",
  "linkReferences": {},
  "deployedLinkReferences": {}
}