{
  "_format": "hh-sol-artifact-1",
  "contractName": "InsurancePool",
  "sourceName": "contracts/InsurancePool.sol",
  "abi": [
    {
      "inputs": [
        {
          "internalType": "address",
          "name": "_initialOwner",
          "type": "address"
        },
        {
          "internalType": "address",
          "name": "_bqBtc",
          "type": "address"
        }
      ],
      "stateMutability": "nonpayable",
      "type": "constructor"
    },
    {
      "inputs": [
        {
          "internalType": "address",
          "name": "owner",
          "type": "address"
        }
      ],
      "name": "OwnableInvalidOwner",
      "type": "error"
    },
    {
      "inputs": [
        {
          "internalType": "address",
          "name": "account",
          "type": "address"
        }
      ],
      "name": "OwnableUnauthorizedAccount",
      "type": "error"
    },
    {
      "inputs": [],
      "name": "ReentrancyGuardReentrantCall",
      "type": "error"
    },
    {
      "anonymous": false,
      "inputs": [
        {
          "indexed": false,
          "internalType": "uint256",
          "name": "",
          "type": "uint256"
        },
        {
          "indexed": false,
          "internalType": "uint256",
          "name": "",
          "type": "uint256"
        },
        {
          "indexed": false,
          "internalType": "address",
          "name": "",
          "type": "address"
        }
      ],
      "name": "ClaimAttempt",
      "type": "event"
    },
    {
      "anonymous": false,
      "inputs": [
        {
          "indexed": true,
          "internalType": "address",
          "name": "recipient",
          "type": "address"
        },
        {
          "indexed": false,
          "internalType": "string",
          "name": "pool",
          "type": "string"
        },
        {
          "indexed": false,
          "internalType": "uint256",
          "name": "amount",
          "type": "uint256"
        }
      ],
      "name": "ClaimPaid",
      "type": "event"
    },
    {
      "anonymous": false,
      "inputs": [
        {
          "indexed": true,
          "internalType": "address",
          "name": "user",
          "type": "address"
        },
        {
          "indexed": false,
          "internalType": "uint256",
          "name": "amount",
          "type": "uint256"
        },
        {
          "indexed": false,
          "internalType": "string",
          "name": "pool",
          "type": "string"
        }
      ],
      "name": "Deposited",
      "type": "event"
    },
    {
      "anonymous": false,
      "inputs": [
        {
          "indexed": true,
          "internalType": "address",
          "name": "previousOwner",
          "type": "address"
        },
        {
          "indexed": true,
          "internalType": "address",
          "name": "newOwner",
          "type": "address"
        }
      ],
      "name": "OwnershipTransferred",
      "type": "event"
    },
    {
      "anonymous": false,
      "inputs": [
        {
          "indexed": true,
          "internalType": "uint256",
          "name": "id",
          "type": "uint256"
        },
        {
          "indexed": false,
          "internalType": "string",
          "name": "poolName",
          "type": "string"
        }
      ],
      "name": "PoolCreated",
      "type": "event"
    },
    {
      "anonymous": false,
      "inputs": [
        {
          "indexed": true,
          "internalType": "uint256",
          "name": "poolId",
          "type": "uint256"
        },
        {
          "indexed": false,
          "internalType": "uint256",
          "name": "apy",
          "type": "uint256"
        },
        {
          "indexed": false,
          "internalType": "uint256",
          "name": "_minPeriod",
          "type": "uint256"
        }
      ],
      "name": "PoolUpdated",
      "type": "event"
    },
    {
      "anonymous": false,
      "inputs": [
        {
          "indexed": true,
          "internalType": "address",
          "name": "user",
          "type": "address"
        },
        {
          "indexed": false,
          "internalType": "uint256",
          "name": "amount",
          "type": "uint256"
        },
        {
          "indexed": false,
          "internalType": "string",
          "name": "pool",
          "type": "string"
        }
      ],
      "name": "Withdraw",
      "type": "event"
    },
    {
      "inputs": [],
      "name": "ICoverContract",
      "outputs": [
        {
          "internalType": "contract ICover",
          "name": "",
          "type": "address"
        }
      ],
      "stateMutability": "view",
      "type": "function"
    },
    {
      "inputs": [],
      "name": "IGovernanceContract",
      "outputs": [
        {
          "internalType": "contract IGov",
          "name": "",
          "type": "address"
        }
      ],
      "stateMutability": "view",
      "type": "function"
    },
    {
      "inputs": [],
      "name": "IVaultContract",
      "outputs": [
        {
          "internalType": "contract IVault",
          "name": "",
          "type": "address"
        }
      ],
      "stateMutability": "view",
      "type": "function"
    },
    {
      "inputs": [
        {
          "internalType": "uint256",
          "name": "_poolId",
          "type": "uint256"
        },
        {
          "components": [
            {
              "internalType": "uint256",
              "name": "id",
              "type": "uint256"
            },
            {
              "internalType": "string",
              "name": "coverName",
              "type": "string"
            },
            {
              "internalType": "enum CoverLib.RiskType",
              "name": "riskType",
              "type": "uint8"
            },
            {
              "internalType": "string",
              "name": "chains",
              "type": "string"
            },
            {
              "internalType": "uint256",
              "name": "capacity",
              "type": "uint256"
            },
            {
              "internalType": "uint256",
              "name": "cost",
              "type": "uint256"
            },
            {
              "internalType": "uint256",
              "name": "capacityAmount",
              "type": "uint256"
            },
            {
              "internalType": "uint256",
              "name": "coverValues",
              "type": "uint256"
            },
            {
              "internalType": "uint256",
              "name": "maxAmount",
              "type": "uint256"
            },
            {
              "internalType": "uint256",
              "name": "poolId",
              "type": "uint256"
            },
            {
              "internalType": "string",
              "name": "CID",
              "type": "string"
            },
            {
              "internalType": "enum CoverLib.AssetDepositType",
              "name": "adt",
              "type": "uint8"
            },
            {
              "internalType": "address",
              "name": "asset",
              "type": "address"
            }
          ],
          "internalType": "struct CoverLib.Cover",
          "name": "_cover",
          "type": "tuple"
        }
      ],
      "name": "addPoolCover",
      "outputs": [],
      "stateMutability": "nonpayable",
      "type": "function"
    },
    {
      "inputs": [
        {
          "internalType": "address",
          "name": "",
          "type": "address"
        }
      ],
      "name": "assetPriceFeeds",
      "outputs": [
        {
          "internalType": "contract AggregatorV3Interface",
          "name": "",
          "type": "address"
        }
      ],
      "stateMutability": "view",
      "type": "function"
    },
    {
      "inputs": [],
      "name": "bqBTC",
      "outputs": [
        {
          "internalType": "contract IbqBTC",
          "name": "",
          "type": "address"
        }
      ],
      "stateMutability": "view",
      "type": "function"
    },
    {
      "inputs": [],
      "name": "bqBTCAddress",
      "outputs": [
        {
          "internalType": "address",
          "name": "",
          "type": "address"
        }
      ],
      "stateMutability": "view",
      "type": "function"
    },
    {
      "inputs": [
        {
          "internalType": "uint256",
          "name": "_proposalId",
          "type": "uint256"
        }
      ],
      "name": "claimProposalFunds",
      "outputs": [],
      "stateMutability": "nonpayable",
      "type": "function"
    },
    {
      "inputs": [],
      "name": "coverContract",
      "outputs": [
        {
          "internalType": "address",
          "name": "",
          "type": "address"
        }
      ],
      "stateMutability": "view",
      "type": "function"
    },
    {
      "inputs": [
        {
          "components": [
            {
              "internalType": "uint256",
              "name": "poolId",
              "type": "uint256"
            },
            {
              "internalType": "enum CoverLib.RiskType",
              "name": "riskType",
              "type": "uint8"
            },
            {
              "internalType": "string",
              "name": "poolName",
              "type": "string"
            },
            {
              "internalType": "string",
              "name": "rating",
              "type": "string"
            },
            {
              "internalType": "uint256",
              "name": "apy",
              "type": "uint256"
            },
            {
              "internalType": "uint256",
              "name": "minPeriod",
              "type": "uint256"
            },
            {
              "internalType": "uint8",
              "name": "leverage",
              "type": "uint8"
            },
            {
              "internalType": "uint256",
              "name": "investmentArm",
              "type": "uint256"
            },
            {
              "internalType": "enum CoverLib.AssetDepositType",
              "name": "adt",
              "type": "uint8"
            },
            {
              "internalType": "address",
              "name": "asset",
              "type": "address"
            }
          ],
          "internalType": "struct CoverLib.PoolParams",
          "name": "params",
          "type": "tuple"
        }
      ],
      "name": "createPool",
      "outputs": [],
      "stateMutability": "nonpayable",
      "type": "function"
    },
    {
      "inputs": [
        {
          "internalType": "uint256",
          "name": "_poolId",
          "type": "uint256"
        }
      ],
      "name": "deactivatePool",
      "outputs": [],
      "stateMutability": "nonpayable",
      "type": "function"
    },
    {
      "inputs": [
        {
          "components": [
            {
              "internalType": "address",
              "name": "depositor",
              "type": "address"
            },
            {
              "internalType": "uint256",
              "name": "poolId",
              "type": "uint256"
            },
            {
              "internalType": "uint256",
              "name": "amount",
              "type": "uint256"
            },
            {
              "internalType": "enum CoverLib.DepositType",
              "name": "pdt",
              "type": "uint8"
            },
            {
              "internalType": "enum CoverLib.AssetDepositType",
              "name": "adt",
              "type": "uint8"
            },
            {
              "internalType": "address",
              "name": "asset",
              "type": "address"
            }
          ],
          "internalType": "struct CoverLib.DepositParams",
          "name": "depositParam",
          "type": "tuple"
        }
      ],
      "name": "deposit",
      "outputs": [
        {
          "internalType": "uint256",
          "name": "",
          "type": "uint256"
        },
        {
          "internalType": "uint256",
          "name": "",
          "type": "uint256"
        }
      ],
      "stateMutability": "payable",
      "type": "function"
    },
    {
      "inputs": [],
      "name": "getAllParticipants",
      "outputs": [
        {
          "internalType": "address[]",
          "name": "",
          "type": "address[]"
        }
      ],
      "stateMutability": "view",
      "type": "function"
    },
    {
      "inputs": [],
      "name": "getAllPools",
      "outputs": [
        {
          "components": [
            {
              "internalType": "uint256",
              "name": "id",
              "type": "uint256"
            },
            {
              "internalType": "string",
              "name": "poolName",
              "type": "string"
            },
            {
              "internalType": "string",
              "name": "rating",
              "type": "string"
            },
            {
              "internalType": "enum CoverLib.RiskType",
              "name": "riskType",
              "type": "uint8"
            },
            {
              "internalType": "uint256",
              "name": "apy",
              "type": "uint256"
            },
            {
              "internalType": "uint256",
              "name": "minPeriod",
              "type": "uint256"
            },
            {
              "internalType": "uint256",
              "name": "totalUnit",
              "type": "uint256"
            },
            {
              "internalType": "uint256",
              "name": "tvl",
              "type": "uint256"
            },
            {
              "internalType": "uint256",
              "name": "baseValue",
              "type": "uint256"
            },
            {
              "internalType": "uint256",
              "name": "coverUnits",
              "type": "uint256"
            },
            {
              "internalType": "uint256",
              "name": "tcp",
              "type": "uint256"
            },
            {
              "internalType": "bool",
              "name": "isActive",
              "type": "bool"
            },
            {
              "internalType": "uint256",
              "name": "percentageSplitBalance",
              "type": "uint256"
            },
            {
              "internalType": "uint256",
              "name": "investmentArmPercent",
              "type": "uint256"
            },
            {
              "internalType": "uint8",
              "name": "leverage",
              "type": "uint8"
            },
            {
              "internalType": "address",
              "name": "asset",
              "type": "address"
            },
            {
              "internalType": "enum CoverLib.AssetDepositType",
              "name": "assetType",
              "type": "uint8"
            }
          ],
          "internalType": "struct CoverLib.Pool[]",
          "name": "",
          "type": "tuple[]"
        }
      ],
      "stateMutability": "view",
      "type": "function"
    },
    {
      "inputs": [
        {
          "internalType": "uint256",
          "name": "_poolId",
          "type": "uint256"
        }
      ],
      "name": "getPool",
      "outputs": [
        {
          "components": [
            {
              "internalType": "uint256",
              "name": "id",
              "type": "uint256"
            },
            {
              "internalType": "string",
              "name": "poolName",
              "type": "string"
            },
            {
              "internalType": "string",
              "name": "rating",
              "type": "string"
            },
            {
              "internalType": "enum CoverLib.RiskType",
              "name": "riskType",
              "type": "uint8"
            },
            {
              "internalType": "uint256",
              "name": "apy",
              "type": "uint256"
            },
            {
              "internalType": "uint256",
              "name": "minPeriod",
              "type": "uint256"
            },
            {
              "internalType": "uint256",
              "name": "totalUnit",
              "type": "uint256"
            },
            {
              "internalType": "uint256",
              "name": "tvl",
              "type": "uint256"
            },
            {
              "internalType": "uint256",
              "name": "baseValue",
              "type": "uint256"
            },
            {
              "internalType": "uint256",
              "name": "coverUnits",
              "type": "uint256"
            },
            {
              "internalType": "uint256",
              "name": "tcp",
              "type": "uint256"
            },
            {
              "internalType": "bool",
              "name": "isActive",
              "type": "bool"
            },
            {
              "internalType": "uint256",
              "name": "percentageSplitBalance",
              "type": "uint256"
            },
            {
              "internalType": "uint256",
              "name": "investmentArmPercent",
              "type": "uint256"
            },
            {
              "internalType": "uint8",
              "name": "leverage",
              "type": "uint8"
            },
            {
              "internalType": "address",
              "name": "asset",
              "type": "address"
            },
            {
              "internalType": "enum CoverLib.AssetDepositType",
              "name": "assetType",
              "type": "uint8"
            }
          ],
          "internalType": "struct CoverLib.Pool",
          "name": "",
          "type": "tuple"
        }
      ],
      "stateMutability": "view",
      "type": "function"
    },
    {
      "inputs": [
        {
          "internalType": "uint256",
          "name": "_poolId",
          "type": "uint256"
        }
      ],
      "name": "getPoolCovers",
      "outputs": [
        {
          "components": [
            {
              "internalType": "uint256",
              "name": "id",
              "type": "uint256"
            },
            {
              "internalType": "string",
              "name": "coverName",
              "type": "string"
            },
            {
              "internalType": "enum CoverLib.RiskType",
              "name": "riskType",
              "type": "uint8"
            },
            {
              "internalType": "string",
              "name": "chains",
              "type": "string"
            },
            {
              "internalType": "uint256",
              "name": "capacity",
              "type": "uint256"
            },
            {
              "internalType": "uint256",
              "name": "cost",
              "type": "uint256"
            },
            {
              "internalType": "uint256",
              "name": "capacityAmount",
              "type": "uint256"
            },
            {
              "internalType": "uint256",
              "name": "coverValues",
              "type": "uint256"
            },
            {
              "internalType": "uint256",
              "name": "maxAmount",
              "type": "uint256"
            },
            {
              "internalType": "uint256",
              "name": "poolId",
              "type": "uint256"
            },
            {
              "internalType": "string",
              "name": "CID",
              "type": "string"
            },
            {
              "internalType": "enum CoverLib.AssetDepositType",
              "name": "adt",
              "type": "uint8"
            },
            {
              "internalType": "address",
              "name": "asset",
              "type": "address"
            }
          ],
          "internalType": "struct CoverLib.Cover[]",
          "name": "",
          "type": "tuple[]"
        }
      ],
      "stateMutability": "view",
      "type": "function"
    },
    {
      "inputs": [
        {
          "internalType": "uint256",
          "name": "_poolId",
          "type": "uint256"
        }
      ],
      "name": "getPoolTVL",
      "outputs": [
        {
          "internalType": "uint256",
          "name": "",
          "type": "uint256"
        }
      ],
      "stateMutability": "view",
      "type": "function"
    },
    {
      "inputs": [
        {
          "internalType": "address",
          "name": "_userAddress",
          "type": "address"
        }
      ],
      "name": "getPoolsByAddress",
      "outputs": [
        {
          "components": [
            {
              "internalType": "string",
              "name": "poolName",
              "type": "string"
            },
            {
              "internalType": "uint256",
              "name": "poolId",
              "type": "uint256"
            },
            {
              "internalType": "uint256",
              "name": "dailyPayout",
              "type": "uint256"
            },
            {
              "internalType": "uint256",
              "name": "depositAmount",
              "type": "uint256"
            },
            {
              "internalType": "uint256",
              "name": "apy",
              "type": "uint256"
            },
            {
              "internalType": "uint256",
              "name": "minPeriod",
              "type": "uint256"
            },
            {
              "internalType": "uint256",
              "name": "totalUnit",
              "type": "uint256"
            },
            {
              "internalType": "uint256",
              "name": "tcp",
              "type": "uint256"
            },
            {
              "internalType": "bool",
              "name": "isActive",
              "type": "bool"
            },
            {
              "internalType": "uint256",
              "name": "accruedPayout",
              "type": "uint256"
            }
          ],
          "internalType": "struct CoverLib.PoolInfo[]",
          "name": "",
          "type": "tuple[]"
        }
      ],
      "stateMutability": "view",
      "type": "function"
    },
    {
      "inputs": [
        {
          "internalType": "address",
          "name": "asset",
          "type": "address"
        }
      ],
      "name": "getPriceInUSD",
      "outputs": [
        {
          "internalType": "uint256",
          "name": "",
          "type": "uint256"
        }
      ],
      "stateMutability": "view",
      "type": "function"
    },
    {
      "inputs": [],
      "name": "getTotalTVL",
      "outputs": [
        {
          "internalType": "uint256",
          "name": "",
          "type": "uint256"
        }
      ],
      "stateMutability": "view",
      "type": "function"
    },
    {
      "inputs": [
        {
          "internalType": "address",
          "name": "user",
          "type": "address"
        }
      ],
      "name": "getTotalUserDepositAmountinUSD",
      "outputs": [
        {
          "internalType": "uint256",
          "name": "",
          "type": "uint256"
        }
      ],
      "stateMutability": "view",
      "type": "function"
    },
    {
      "inputs": [
        {
          "internalType": "uint256",
          "name": "_poolId",
          "type": "uint256"
        },
        {
          "internalType": "address",
          "name": "_user",
          "type": "address"
        },
        {
          "internalType": "enum CoverLib.DepositType",
          "name": "pdt",
          "type": "uint8"
        }
      ],
      "name": "getUserGenericDeposit",
      "outputs": [
        {
          "components": [
            {
              "internalType": "address",
              "name": "lp",
              "type": "address"
            },
            {
              "internalType": "uint256",
              "name": "amount",
              "type": "uint256"
            },
            {
              "internalType": "uint256",
              "name": "poolId",
              "type": "uint256"
            },
            {
              "internalType": "uint256",
              "name": "dailyPayout",
              "type": "uint256"
            },
            {
              "internalType": "enum CoverLib.Status",
              "name": "status",
              "type": "uint8"
            },
            {
              "internalType": "uint256",
              "name": "daysLeft",
              "type": "uint256"
            },
            {
              "internalType": "uint256",
              "name": "startDate",
              "type": "uint256"
            },
            {
              "internalType": "uint256",
              "name": "withdrawalInitiated",
              "type": "uint256"
            },
            {
              "internalType": "uint256",
              "name": "accruedPayout",
              "type": "uint256"
            },
            {
              "internalType": "enum CoverLib.DepositType",
              "name": "pdt",
              "type": "uint8"
            },
            {
              "internalType": "enum CoverLib.AssetDepositType",
              "name": "adt",
              "type": "uint8"
            },
            {
              "internalType": "address",
              "name": "asset",
              "type": "address"
            }
          ],
          "internalType": "struct CoverLib.GenericDepositDetails",
          "name": "",
          "type": "tuple"
        }
      ],
      "stateMutability": "view",
      "type": "function"
    },
    {
      "inputs": [
        {
          "internalType": "address",
          "name": "user",
          "type": "address"
        }
      ],
      "name": "getUserParticipation",
      "outputs": [
        {
          "internalType": "uint256",
          "name": "",
          "type": "uint256"
        }
      ],
      "stateMutability": "view",
      "type": "function"
    },
    {
      "inputs": [
        {
          "internalType": "uint256",
          "name": "_poolId",
          "type": "uint256"
        },
        {
          "internalType": "address",
          "name": "_user",
          "type": "address"
        }
      ],
      "name": "getUserPoolDeposit",
      "outputs": [
        {
          "components": [
            {
              "internalType": "address",
              "name": "lp",
              "type": "address"
            },
            {
              "internalType": "uint256",
              "name": "amount",
              "type": "uint256"
            },
            {
              "internalType": "uint256",
              "name": "poolId",
              "type": "uint256"
            },
            {
              "internalType": "uint256",
              "name": "dailyPayout",
              "type": "uint256"
            },
            {
              "internalType": "enum CoverLib.Status",
              "name": "status",
              "type": "uint8"
            },
            {
              "internalType": "uint256",
              "name": "daysLeft",
              "type": "uint256"
            },
            {
              "internalType": "uint256",
              "name": "startDate",
              "type": "uint256"
            },
            {
              "internalType": "uint256",
              "name": "withdrawalInitiated",
              "type": "uint256"
            },
            {
              "internalType": "uint256",
              "name": "accruedPayout",
              "type": "uint256"
            },
            {
              "internalType": "enum CoverLib.DepositType",
              "name": "pdt",
              "type": "uint8"
            }
          ],
          "internalType": "struct CoverLib.Deposits",
          "name": "",
          "type": "tuple"
        }
      ],
      "stateMutability": "view",
      "type": "function"
    },
    {
      "inputs": [],
      "name": "governance",
      "outputs": [
        {
          "internalType": "address",
          "name": "",
          "type": "address"
        }
      ],
      "stateMutability": "view",
      "type": "function"
    },
    {
      "inputs": [
        {
          "internalType": "uint256",
          "name": "_poolId",
          "type": "uint256"
        },
        {
          "internalType": "uint256",
          "name": "__poolPercentageSplit",
          "type": "uint256"
        }
      ],
      "name": "increasePercentageSplit",
      "outputs": [],
      "stateMutability": "nonpayable",
      "type": "function"
    },
    {
      "inputs": [],
      "name": "initialOwner",
      "outputs": [
        {
          "internalType": "address",
          "name": "",
          "type": "address"
        }
      ],
      "stateMutability": "view",
      "type": "function"
    },
    {
      "inputs": [
        {
          "internalType": "address",
          "name": "depositor",
          "type": "address"
        },
        {
          "internalType": "uint256",
          "name": "_poolId",
          "type": "uint256"
        },
        {
          "internalType": "enum CoverLib.DepositType",
          "name": "pdt",
          "type": "uint8"
        }
      ],
      "name": "initialVaultWithdrawUpdate",
      "outputs": [],
      "stateMutability": "nonpayable",
      "type": "function"
    },
    {
      "inputs": [],
      "name": "owner",
      "outputs": [
        {
          "internalType": "address",
          "name": "",
          "type": "address"
        }
      ],
      "stateMutability": "view",
      "type": "function"
    },
    {
      "inputs": [
        {
          "internalType": "uint256",
          "name": "",
          "type": "uint256"
        }
      ],
      "name": "participants",
      "outputs": [
        {
          "internalType": "address",
          "name": "",
          "type": "address"
        }
      ],
      "stateMutability": "view",
      "type": "function"
    },
    {
      "inputs": [
        {
          "internalType": "address",
          "name": "",
          "type": "address"
        }
      ],
      "name": "participation",
      "outputs": [
        {
          "internalType": "uint256",
          "name": "",
          "type": "uint256"
        }
      ],
      "stateMutability": "view",
      "type": "function"
    },
    {
      "inputs": [
        {
          "internalType": "uint256",
          "name": "poolId",
          "type": "uint256"
        }
      ],
      "name": "poolActive",
      "outputs": [
        {
          "internalType": "bool",
          "name": "",
          "type": "bool"
        }
      ],
      "stateMutability": "view",
      "type": "function"
    },
    {
      "inputs": [],
      "name": "poolCanister",
      "outputs": [
        {
          "internalType": "address",
          "name": "",
          "type": "address"
        }
      ],
      "stateMutability": "view",
      "type": "function"
    },
    {
      "inputs": [],
      "name": "poolCount",
      "outputs": [
        {
          "internalType": "uint256",
          "name": "",
          "type": "uint256"
        }
      ],
      "stateMutability": "view",
      "type": "function"
    },
    {
      "inputs": [
        {
          "internalType": "uint256",
          "name": "_poolId",
          "type": "uint256"
        }
      ],
      "name": "poolWithdrawal",
      "outputs": [],
      "stateMutability": "nonpayable",
      "type": "function"
    },
    {
      "inputs": [
        {
          "internalType": "uint256",
          "name": "",
          "type": "uint256"
        }
      ],
      "name": "pools",
      "outputs": [
        {
          "internalType": "uint256",
          "name": "id",
          "type": "uint256"
        },
        {
          "internalType": "string",
          "name": "poolName",
          "type": "string"
        },
        {
          "internalType": "string",
          "name": "rating",
          "type": "string"
        },
        {
          "internalType": "enum CoverLib.RiskType",
          "name": "riskType",
          "type": "uint8"
        },
        {
          "internalType": "uint256",
          "name": "apy",
          "type": "uint256"
        },
        {
          "internalType": "uint256",
          "name": "minPeriod",
          "type": "uint256"
        },
        {
          "internalType": "uint256",
          "name": "totalUnit",
          "type": "uint256"
        },
        {
          "internalType": "uint256",
          "name": "tvl",
          "type": "uint256"
        },
        {
          "internalType": "uint256",
          "name": "baseValue",
          "type": "uint256"
        },
        {
          "internalType": "uint256",
          "name": "coverUnits",
          "type": "uint256"
        },
        {
          "internalType": "uint256",
          "name": "tcp",
          "type": "uint256"
        },
        {
          "internalType": "bool",
          "name": "isActive",
          "type": "bool"
        },
        {
          "internalType": "uint256",
          "name": "percentageSplitBalance",
          "type": "uint256"
        },
        {
          "internalType": "uint256",
          "name": "investmentArmPercent",
          "type": "uint256"
        },
        {
          "internalType": "uint8",
          "name": "leverage",
          "type": "uint8"
        },
        {
          "internalType": "address",
          "name": "asset",
          "type": "address"
        },
        {
          "internalType": "enum CoverLib.AssetDepositType",
          "name": "assetType",
          "type": "uint8"
        }
      ],
      "stateMutability": "view",
      "type": "function"
    },
    {
      "inputs": [
        {
          "internalType": "uint256",
          "name": "_poolId",
          "type": "uint256"
        },
        {
          "internalType": "uint256",
          "name": "__poolPercentageSplit",
          "type": "uint256"
        }
      ],
      "name": "reducePercentageSplit",
      "outputs": [],
      "stateMutability": "nonpayable",
      "type": "function"
    },
    {
      "inputs": [],
      "name": "renounceOwnership",
      "outputs": [],
      "stateMutability": "nonpayable",
      "type": "function"
    },
    {
      "inputs": [
        {
          "internalType": "address",
          "name": "_coverContract",
          "type": "address"
        }
      ],
      "name": "setCover",
      "outputs": [],
      "stateMutability": "nonpayable",
      "type": "function"
    },
    {
      "inputs": [
        {
          "internalType": "address",
          "name": "_governance",
          "type": "address"
        }
      ],
      "name": "setGovernance",
      "outputs": [],
      "stateMutability": "nonpayable",
      "type": "function"
    },
    {
      "inputs": [
        {
          "internalType": "uint256",
          "name": "poolId",
          "type": "uint256"
        },
        {
          "internalType": "address",
          "name": "user",
          "type": "address"
        },
        {
          "internalType": "enum CoverLib.DepositType",
          "name": "pdt",
          "type": "uint8"
        }
      ],
      "name": "setUserDepositToZero",
      "outputs": [],
      "stateMutability": "nonpayable",
      "type": "function"
    },
    {
      "inputs": [
        {
          "internalType": "address",
          "name": "_vaultContract",
          "type": "address"
        }
      ],
      "name": "setVault",
      "outputs": [],
      "stateMutability": "nonpayable",
      "type": "function"
    },
    {
      "inputs": [
        {
          "internalType": "address",
          "name": "newOwner",
          "type": "address"
        }
      ],
      "name": "transferOwnership",
      "outputs": [],
      "stateMutability": "nonpayable",
      "type": "function"
    },
    {
      "inputs": [
        {
          "internalType": "uint256",
          "name": "_poolId",
          "type": "uint256"
        },
        {
          "internalType": "uint256",
          "name": "_apy",
          "type": "uint256"
        },
        {
          "internalType": "uint256",
          "name": "_minPeriod",
          "type": "uint256"
        }
      ],
      "name": "updatePool",
      "outputs": [],
      "stateMutability": "nonpayable",
      "type": "function"
    },
    {
      "inputs": [
        {
          "internalType": "uint256",
          "name": "_poolId",
          "type": "uint256"
        },
        {
          "components": [
            {
              "internalType": "uint256",
              "name": "id",
              "type": "uint256"
            },
            {
              "internalType": "string",
              "name": "coverName",
              "type": "string"
            },
            {
              "internalType": "enum CoverLib.RiskType",
              "name": "riskType",
              "type": "uint8"
            },
            {
              "internalType": "string",
              "name": "chains",
              "type": "string"
            },
            {
              "internalType": "uint256",
              "name": "capacity",
              "type": "uint256"
            },
            {
              "internalType": "uint256",
              "name": "cost",
              "type": "uint256"
            },
            {
              "internalType": "uint256",
              "name": "capacityAmount",
              "type": "uint256"
            },
            {
              "internalType": "uint256",
              "name": "coverValues",
              "type": "uint256"
            },
            {
              "internalType": "uint256",
              "name": "maxAmount",
              "type": "uint256"
            },
            {
              "internalType": "uint256",
              "name": "poolId",
              "type": "uint256"
            },
            {
              "internalType": "string",
              "name": "CID",
              "type": "string"
            },
            {
              "internalType": "enum CoverLib.AssetDepositType",
              "name": "adt",
              "type": "uint8"
            },
            {
              "internalType": "address",
              "name": "asset",
              "type": "address"
            }
          ],
          "internalType": "struct CoverLib.Cover",
          "name": "_cover",
          "type": "tuple"
        }
      ],
      "name": "updatePoolCovers",
      "outputs": [],
      "stateMutability": "nonpayable",
      "type": "function"
    },
    {
      "inputs": [],
      "name": "vaultContract",
      "outputs": [
        {
          "internalType": "address",
          "name": "",
          "type": "address"
        }
      ],
      "stateMutability": "view",
      "type": "function"
    },
    {
      "inputs": [
        {
          "internalType": "uint256",
          "name": "_vaultId",
          "type": "uint256"
        }
      ],
      "name": "vaultWithdraw",
      "outputs": [],
      "stateMutability": "nonpayable",
      "type": "function"
    }
  ],
  "bytecode": "0x60803461027657601f61609e38819003918201601f19168301916001600160401b0383118484101761027b57808492604094855283398101031261027657610052602061004b83610291565b9201610291565b60016000556001600160a01b0390911690811561026057600180546001600160a01b031981168417909155604051929081906001600160a01b03167f8be0079c531659141344cd1fd0a4f28419497f9722a3daafe3b4186f6b6457e0600080a3601180546001600160a01b031990811690915560158054821692909217909155600280548216732514895c72f50d8bd4b4f9b1110f0d6bd2c97526908117909155600380548316735741306c21795fdcbb9b265ea0255f499dfe515c908117909155600480548416739331b55d9830ef609a2abcfac0fbce050a52fdea17815560058054851673eca2605f0bcf2ba5966372c99837b1f182d3d62017815560066020527f54cdd369e4e8a8515e52ca72ec816c2101831ad1f18bf44102ed171459c9b4f8805486169094179093557f92599ef52398a38e84e5b15ac236af99994b80b5e390e5524198cbc8e48da63780548516831790556001600160a01b039485166000818152604081208054871690941790935590547fd1eceb50b46aea74f6b42453ba5381363a7854e4547ee8ff2fef30dd11f58cdd80548616918716919091179055915473337610d27c682e347c9cd60bd4b3b107c9d34ddd9091527f44abd9ca46b16d583f86aa1f838cb006ce9d3219783a65b570216ad498a2825a805484169190941617909255600f8054821683179055601080549091169091179055615df890816102a68239f35b631e4fbdf760e01b600052600060045260246000fd5b600080fd5b634e487b7160e01b600052604160045260246000fd5b51906001600160a01b03821682036102765756fe6080604052600436101561001257600080fd5b60003560e01c80630226614714614550578063068bcd8d146145195780630c021ae5146144c8578063173c08cc14613be8578063195ec9ee14613b1c5780631d69829214613a815780632274346b14613a58578063248a75b714613a2f57806325f11e8d146139fb57806329ba7bb2146139d2578063318667631461356957806334808ec31461354057806335c1d349146134fe57806346f8479514612b0e5780634914a8781461348657806358526da314612f685780635aa6e67514612f3f5780635f267c5514612f165780636817031b14612e395780636f60537d14612e10578063715018a614612db35780637c366cc614612cd65780637eb111f014612b975780638da5cb5b14612b6e5780638f24463014612b4857806396f3a8ad14612b0e578063996b8a6f14612ae55780639abd9b0514612a915780639fd36b1514612a36578063a2a8baaf14612556578063a4948d85146124f7578063ab033ea914612408578063ac4afa38146122a7578063b5d90c281461227e578063c039a53f146121ae578063d27e52e81461216c578063d86c044414612014578063d88ff1f414611f08578063e0375fc014611993578063e35f812914611390578063e9e0c8b6146112dc578063f2fde38b14611252578063f420907c14610df8578063f525cb6814610dda578063f6e8055814610db1578063fb839dda1461085a5763fde076961461022157600080fd5b346106525760203660031901126106525761023a615d57565b6004356000526009602052604060002060405161025681614724565b81548152604051916102768361026f81600185016149e9565b0384614778565b602082019283526040516102988161029181600286016149e9565b0382614778565b604083015260ff6003820154166102ae816145e5565b60608301526004810154608083015260058101549160a08101928352600682015460c082015260ff600e60078401549360e0840194855260088101546101008501526009810154610120850152600a81015461014085015282600b820154161515610160850152600c810154610180850152600d8101546101a085015201548181166101c084015260018060a01b038160081c166101e084015260a81c16610355816145ef565b6102008201523360005260076020526040600020600435600052602052604060002060008052602052604060002092600684015490518080046001148115171561069e576103a291614eb4565b936001840154916103b483151561571e565b600485016103dc8154976103d460ff8a166103ce816145e5565b15615774565b4210156157b8565b426007870155600260009760ff191617905561041d6103ff8460c0840151614c74565b8060c08401526064610416826101a0860151614a83565b0490614c74565b61042f60ff6101c08401511682614a83565b61012083015261010082015260043586526008602052604086209384546104558161538a565b956104636040519788614778565b81875288526020808920899188015b83831061076e5750505050865b855181101561050057600c548891906001600160a01b03166104a18289614ee6565b515190803b156104fc5760248492604051958693849263106b5da160e01b845260048401525af1918983156104f0576001936104e0575b50500161047f565b6104e991614778565b38896104d8565b604051903d90823e3d90fd5b8380fd5b508587610160840151151580610751575b156106b4575060115461052c906001600160a01b0316614a96565b906012925b60c0850151936012036012811161069e57610566600194610560600097610560670de0b6b3a764000095614c81565b90614a83565b0490520155600161020082015161057c816145ef565b610585816145ef565b0361066b576101e0015160405163a9059cbb60e01b81523360048201526024810184905290602090829060449082906000906001600160a01b03165af190811561065f57600091610607575b50600080516020615da3833981519152916105ee6105fd926158f0565b51604051918291339583615804565b0390a26001600055005b90506020813d602011610657575b8161062260209383614778565b8101031261065257600080516020615da3833981519152916105ee6106496105fd93614ec1565b925050916105d1565b600080fd5b3d9150610615565b6040513d6000823e3d90fd5b506105fd600080516020615da383398151915291610699600080808088335af1610693615874565b506158a4565b6105ee565b634e487b7160e01b600052601160045260246000fd5b9060046106cd60018060a01b036101e087015116614a96565b6101e086015160405163313ce56760e01b81529194919260209184919082906001600160a01b03165afa9081156104f0578091610711575b5060ff91501692610531565b90506020823d602011610749575b8161072c60209383614778565b81010312610746575061074060ff91614c66565b88610705565b80fd5b3d915061071f565b506101e08401516011546001600160a01b03908116911614610511565b600c602060019260405161078181614740565b855481526040516107988161029181898b016149e9565b8382015260ff6002870154166107ad816145e5565b60408201526040516107c6816102918160038b016149e9565b606082015260048601546080820152600586015460a0820152600686015460c0820152600786015460e08201526008860154610100820152600986015461012082015260405161081d8161029181600a8b016149e9565b610140820152600b86015460ff8116610835816145ef565b610160830152858060a01b039060081c16610180820152815201920192019190610472565b3461065257602036600319011261065257600435610876615d57565b600d54604051632bb2b24360e11b815260048101839052336024820152906001600160a01b03166101a082604481845afa91821561065f57600092610d80575b506020820191825115610d3b5760a060029101516108d3816145e5565b6108dc816145e5565b03610cea57600060249160405192838092632500ed8d60e21b82528760048301525afa90811561065f57600091610a36575b506001610100820151610920816145ef565b610929816145ef565b03610a1b576101200151905160405163a9059cbb60e01b8152336004820152602481019190915290602090829060449082906000906001600160a01b03165af1801561065f576000906109e0575b61098191506158f0565b600d546001600160a01b0316803b15610652576040516307e2f9cf60e21b815260048101839052336024820152906000908290604490829084905af1801561065f576109cf575b6001600055005b60006109da91614778565b806109c8565b506020813d602011610a13575b816109fa60209383614778565b8101031261065257610a0e61098191614ec1565b610977565b3d91506109ed565b506000808080610a319451335af1610693615874565b610981565b903d8082843e610a468184614778565b820191602081840312610ce6578051906001600160401b038211610ce2570190610140828403126107465760405192610a7e846146ec565b8251845260208301516001600160401b038111610ce25781610aa1918501615832565b602085015260408301516003811015610ce257604085015260608301516001600160401b038111610ce25783019080601f83011215610ce257815191610ae68361538a565b92610af46040519485614778565b80845260208085019160051b83010191838311610cde5760208101915b838310610b7a57505050505060608401526080820151608084015260a082015160a084015260c082015160c084015260e082015160e08401526101008201519060028210156107465750610100830152610b6e906101200161581e565b6101208201528361090e565b82516001600160401b038111610cda578201610220818703601f190112610cda5760405190610ba882614724565b6020810151825260408101516001600160401b038111610cd657876020610bd192840101615832565b602083015260608101516001600160401b038111610cd657876020610bf892840101615832565b604083015260808101516003811015610cd6579061022091606084015260a0810151608084015260c081015160a084015260e081015160c084015261010081015160e0840152610120810151610100840152610140810151610120840152610160810151610140840152610c6f6101808201614ec1565b6101608401526101a08101516101808401526101c08101516101a0840152610c9a6101e08201614c66565b6101c0840152610cad610200820161581e565b6101e084015201516002811015610cd257610200820152815260209283019201610b11565b8880fd5b8980fd5b8780fd5b8580fd5b8280fd5b5080fd5b60405162461bcd60e51b8152602060048201526024808201527f4465706f736974206973206e6f7420726561647920666f72207769746864726160448201526377616c7360e01b6064820152608490fd5b60405162461bcd60e51b815260206004820152601d60248201527f4e6f20616374697665207769746864726177616c20666f7220757365720000006044820152606490fd5b610da39192506101a03d8111610daa575b610d9b8183614778565b810190615c9a565b90836108b6565b503d610d91565b3461065257600036600319011261065257600c546040516001600160a01b039091168152602090f35b34610652576000366003190112610652576020600a54604051908152f35b3461065257602036600319011261065257610e11614573565b6000906001600a54905b81811115611010575050600d546040516374d4e49160e01b815291906001600160a01b0316602083600481845afa92831561065f57600093610fdc575b5060015b83811115610e6f57602085604051908152f35b604051632bb2b24360e11b8152600481018290526001600160a01b03841660248201526101a081604481865afa90811561065f57600091610fbd575b5060208101519081610ec8575b5050610ec390614ea5565b610e5c565b610180018051601154939792939192916001600160a01b039081169160009116828103610f3a575050610efc919250614a96565b9060125b6012036012811161069e57610f2b610f3293610560610ec396610560670de0b6b3a764000095614c81565b0490614eb4565b949086610eb8565b60049250610f49602091614a96565b945160405163313ce56760e01b815293849182906001600160a01b03165afa9081156104f0578091610f81575b5060ff915016610f00565b90506020823d8211610fb5575b81610f9b60209383614778565b810103126107465750610faf60ff91614c66565b89610f76565b3d9150610f8e565b610fd691506101a03d8111610daa57610d9b8183614778565b86610eab565b9092506020813d602011611008575b81610ff860209383614778565b8101031261065257519184610e58565b3d9150610feb565b602061101c8483615934565b018051611033575b5061102e90614ea5565b610e1b565b8160009592955260096020526040600020916040519161105283614724565b8354835260405161106a8161029181600189016149e9565b60208401526040516110838161029181600289016149e9565b604084015260ff600385015416611099816145e5565b606084015260048401546080840152600584015460a0840152600684015460c0840152600784015460e084015260088401546101008401526009840154610120840152600a840154610140840152600e60ff600b860154169461016085019515158652600c810154610180860152600d8101546101a086015201549260ff84166101c082015261020060ff6101e083019560018060a01b038160081c16875260a81c1691611146836145ef565b0152519260009051151580611239575b156111aa5750601154909150611174906001600160a01b0316614a96565b9060125b6012036012811161069e57610f2b6111a39361056061102e96610560670de0b6b3a764000095614c81565b9390611024565b8251600491906020906111c5906001600160a01b0316614a96565b945160405163313ce56760e01b815293849182906001600160a01b03165afa9081156104f05780916111fd575b5060ff915016611178565b90506020823d8211611231575b8161121760209383614778565b81010312610746575061122b60ff91614c66565b886111f2565b3d915061120a565b5082516011546001600160a01b03908116911614611156565b346106525760203660031901126106525761126b614573565b611273615d79565b6001600160a01b031680156112c657600180546001600160a01b0319811683179091556001600160a01b03167f8be0079c531659141344cd1fd0a4f28419497f9722a3daafe3b4186f6b6457e0600080a3005b631e4fbdf760e01b600052600060045260246000fd5b34610652576040366003190112610652576024356001600160a01b03811681036106525761130f61014091600435615934565b6101206040519160018060a01b038151168352602081015160208401526040810151604084015260608101516060840152608081015161134e816145e5565b608084015260a081015160a084015260c081015160c084015260e081015160e08401526101008101516101008401520151611388816145ef565b610120820152f35b34610652576020366003190112610652576004356113ac615d57565b600e54604051633b4d01a760e01b815260048101839052906000908290602490829084906001600160a01b03165af190811561065f5760009161180b575b509061010082015160c08301519260058410156117f55760026000941490816117e7575b50156117aa5760a081018051845260096020526040842082519192916001600160a01b0316330361176e5761144960ff600b830154166156dd565b6006810180549360c0840191825186106117295761147d88968451611473600a8801918254614eb4565b9055845190614c74565b905561148981516153a1565b93855b855181101561150757600c546001600160a01b0316906114ac8188614ee6565b5151823b15610cd257889260248492604051958693849263106b5da160e01b845260048401525af19182156114fc57886001936114ec575b50500161148c565b6114f591614778565b8a886114e4565b6040513d8a823e3d90fd5b50919350919460018060a01b03600e541690813b15610cde57859160248392604051948593849263f1b4bf9d60e01b845260048401525af1801561171e5785937feef4955e8b18dcb6d1c19905b7b86e5fe56138ad1ce2c5e540ce4e959312f511928560609361170e575b505051855184516040805193845260208401929092526001600160a01b031690820152a1600160e08201516115a6816145ef565b6115af816145ef565b036116f4576101000151825160405163a9059cbb60e01b815233600482015260248101919091529160209183916044918391906001600160a01b03165af180156116e95783906116ae575b61160491506158f0565b60018060a01b03600f54168151813b156104fc57604051637104a76d60e11b8152336004820152602481019190915292908390604490829084905af1918483156104f0577f415071086c9ea63f7f39884c21a8af430af53bfd511a362dff69cabcb1b8bcc19361169e575b5050519161168b604051916040835260016040840191016149e9565b9260208201528033930390a26001815580f35b6116a791614778565b848461166f565b506020813d6020116116e1575b816116c860209383614778565b81010312610ce2576116dc61160491614ec1565b6115fa565b3d91506116bb565b6040513d85823e3d90fd5b50808080611709938551335af1610693615874565b611604565b61171791614778565b8985611572565b6040513d87823e3d90fd5b60405162461bcd60e51b815260206004820152601c60248201527f4e6f7420656e6f7567682066756e647320696e2074686520706f6f6c000000006044820152606490fd5b60405162461bcd60e51b8152602060048201526014602482015273139bdd0818481d985b1a59081c1c9bdc1bdcd85b60621b6044820152606490fd5b60405162461bcd60e51b8152602060048201526015602482015274141c9bdc1bdcd85b081b9bdd08185c1c1c9bdd9959605a1b6044820152606490fd5b60e09150015115158461140e565b634e487b7160e01b600052602160045260246000fd5b3d8083833e61181a8183614778565b810190602081830312610ce2578051906001600160401b0382116104fc5701916101208383031261074657604051926118528461475c565b805184526020810151602085015260408101516040850152606081015160608501526080810151608085015260a081015160a085015260c08101516005811015610ce25760c08501526118a760e08201614ec1565b60e0850152610100810151906001600160401b038211610ce25701906101208284031261074657604051926118db8461475c565b6118e48361581e565b845260208301516003811015610ce25760208501526040830151604085015260608301516001600160401b038111610ce25781611922918501615832565b606085015260808301516001600160401b038111610ce25790611946918401615832565b608084015260a082015160a084015260c082015160c084015260e0820151906002821015610746575060e0830152611981906101000161581e565b610100820152610100820152826113ea565b34610652576060366003190112610652576119ac614573565b602435604435916002831015610652576119c4615d57565b6013546001600160a01b031633148015611ef4575b15611eb057816000526009602052604060002092604051926119fa84614724565b84548452604051611a12816102918160018a016149e9565b60208501908152604051611a2d816102918160028b016149e9565b604086015260ff600387015416611a43816145e5565b606086015260048601546080860152600586015460a0860190815260068701549260c0870193845260078801549060e08801918252600889015497610100810198895260098a0154986101208201998a52600a8b015461014083015260ff600b8c0154169961016083019a15158b52600c8c0154610180840152600e600d8d01549c6101a085019d8e520154996101c084019360ff8c16855261020060ff6101e083019d8e60018060a01b038260081c16905260a81c1691611b04836145ef565b015260018060a01b031698896000526007602052604060002085600052602052604060002090611b33816145ef565b600052602052604060002095600687015490518080046001148115171561069e57611b5d91614eb4565b9b600187019687549d8e1515611b729061571e565b600482019182549160ff8316611b87816145e5565b15611b9190615774565b421015611b9d906157b8565b42906007015560ff1916600217905560009c895190611bbb91614c74565b8091818b525190611bcb91614a83565b60649004611bd891614c74565b925160ff16611be79084614a83565b9052528852600860205260408820958654611c018161538a565b9760405198611c10908a614778565b8189528a526020808b208b918a015b838310611dc45750505050885b8751811015611c9d57600c548a91906001600160a01b0316611c4e828b614ee6565b515190803b156104fc5760248492604051958693849263106b5da160e01b845260048401525af1918b83156104f057600193611c8d575b505001611c2c565b611c9691614778565b8b8b611c85565b50888851151580611dab575b15611d17575050601154611cc5906001600160a01b0316614a96565b936012905b5190601203906012821161069e57600080516020615da383398151915295610560611d0192610560670de0b6b3a764000095614c81565b049052549051906105fd60405192839283615804565b815191959160049190602090611d35906001600160a01b0316614a96565b975160405163313ce56760e01b815293849182906001600160a01b03165afa9081156104f0578091611d6e575b5060ff91501690611cca565b90506020823d602011611da3575b81611d8960209383614778565b810103126107465750611d9d60ff91614c66565b88611d62565b3d9150611d7c565b5081516011546001600160a01b03908116911614611ca9565b600c6020600192604051611dd781614740565b85548152604051611dee8161029181898b016149e9565b8382015260ff600287015416611e03816145e5565b6040820152604051611e1c816102918160038b016149e9565b606082015260048601546080820152600586015460a0820152600686015460c0820152600786015460e082015260088601546101008201526009860154610120820152604051611e738161029181600a8b016149e9565b610140820152600b86015460ff8116611e8b816145ef565b610160830152858060a01b039060081c16610180820152815201920192019190611c1f565b606460405162461bcd60e51b815260206004820152602060248201527f43616c6c6572206973206e6f7420746865207661756c7420636f6e74726163746044820152fd5b506015546001600160a01b031633146119d9565b3461065257600036600319011261065257600a54611f258161538a565b90611f336040519283614778565b808252601f19611f428261538a565b0160005b818110611ffd57505060015b81811115611fc257826040518091602082016020835281518091526040830190602060408260051b8601019301916000905b828210611f9357505050500390f35b91936001919395506020611fb28192603f198a820301865288516145f9565b9601920192018594939192611f84565b611fcb81614c8f565b6000198201919081831161069e5782611ff291611feb611ff89588614ee6565b5285614ee6565b50614ea5565b611f52565b602090612008614be8565b82828701015201611f46565b3461065257606036600319011261065257600435602435604435612036615d79565b82600052600960205260ff600b60406000200154161561211c5781156120e95780156120ab576000838152600960209081526040918290206004810185905560050183905581519384528301919091527f17b8644f386d1c7c7138ef98b3c8035622bbe94d7be9b26f71d2654a547c294391a2005b60405162461bcd60e51b8152602060048201526016602482015275125b9d985b1a59081b5a5b9a5b5d5b481c195c9a5bd960521b6044820152606490fd5b60405162461bcd60e51b815260206004820152600b60248201526a496e76616c69642041505960a81b6044820152606490fd5b60405162461bcd60e51b815260206004820152602260248201527f506f6f6c20646f6573206e6f74206578697374206f7220697320696e61637469604482015261766560f01b6064820152608490fd5b34610652576020366003190112610652576001600160a01b0361218d614573565b166000526006602052602060018060a01b0360406000205416604051908152f35b34610652576121bc3661497c565b91906121c6615d57565b6014546001600160a01b03163314801561226a575b156122255760018060a01b0316600052600760205260406000209060005260205260406000209061220b816145ef565b600052602052600060016040822001556001600055600080f35b60405162461bcd60e51b815260206004820152601f60248201527f43616c6c6572206973206e6f742074686520706f6f6c2063616e6973746572006044820152606490fd5b506015546001600160a01b031633146121db565b3461065257600036600319011261065257600e546040516001600160a01b039091168152602090f35b34610652576020366003190112610652576004356000526009602052604060002080549060405190818060018301906122df916149e9565b036122ea9083614778565b604051806122fb81600285016149e9565b036123069082614778565b600382015460ff169160048101546005820154600683015460078401546008850154600986015491600a87015493600b88015460ff1695600c89015497600d8a015499600e01549a6040519e8f9e8f918252602082016102209052610220820161236f916145c0565b908082039060400152612381916145c0565b9b8d61238c826145e5565b6060015260808d015260a08c015260c08b015260e08a015261010089015261012088015261014087015215156101608601526101808501526101a084015260ff8181166101c0850152600882901c6001600160a01b03166101e08501526123f89060a883901c166145ef565b60a81c60ff166102008301520390f35b3461065257602036600319011261065257612421614573565b612429615d79565b600b54906001600160a01b0382166124b9576001600160a01b031690811561246a576001600160a01b03199081168217600b55600e80549091169091179055005b60405162461bcd60e51b815260206004820152602160248201527f476f7665726e616e636520616464726573732063616e6e6f74206265207a65726044820152606f60f81b6064820152608490fd5b60405162461bcd60e51b815260206004820152601660248201527511dbdd995c9b985b98d948185b1c9958591e481cd95d60521b6044820152606490fd5b346106525761250536614966565b9060018060a01b036012541633148015612542575b61252390614efa565b600052600960205261253e600c604060002001918254614c74565b9055005b506015546001600160a01b0316331461251a565b34610652576125643661497c565b600061016060405161257581614708565b8281528260208201528260408201528260608201528260808201528260a08201528260c08201528260e0820152826101008201528261012082015282610140820152015260018060a01b03821660005260076020526040600020836000526020526040600020906125e5816145ef565b6000526020526040600020604051926125fd846146ec565b60018060a01b0382541684526001820154926020850193845260028301549260408601938452856003820154916060820192835260ff6004820154166080830190612647816145e5565b8152600582015460a0840190815260068301549160c0850192835260ff600960078601549560e0880196875261010060088201549801978852015416956101208c0196612693816145ef565b8752886000526009602052604060002097604051986126b18a614724565b80548a526040516126c98161029181600186016149e9565b60208b01526040516126e28161029181600286016149e9565b60408b015260ff6003820154166126f8816145e5565b60608b0152600481015460808b0152600e60058201549160a08c01928352600681015460c08d0152600781015460e08d015260088101546101008d015260098101546101208d0152600a8101546101408d015260ff600b8201541615156101608d0152600c8101546101808d0152600d8101546101a08d015201549a60ff8c166101c08c015261020060ff6101e08d019d8e60018060a01b038260081c16905260a81c169b019a6127a8816145ef565b8b5286519151906201518082029180830462015180149015171561069e576127d560209261281294614eb4565b600c54604051630414960560e21b81526001600160a01b039687166004820152602481019390935290949193849290911690829081906044820190565b03915afa90811561065f57600091612a04575b50806129f4575061285f6201518061285787515b428751612845816145e5565b61284e816145e5565b6129ec57614c74565b048351614a83565b87524281116129b657506101809b600084525b519a519951905191516001600160a01b03909b169a92612891846145e5565b519351945195519651976128a4896145ef565b51986128af8a6145ef565b516040519b6001600160a01b039091169a906128ca8d614708565b8c5260208c0190815260408c0191825260608c0192835260808c01936128ef816145e5565b845260a08c0194855260c08c0195865260e08c019687526101008c019788526101208c019861291d816145ef565b89526101408c019961292e816145ef565b8a526101608c019a8b52604080519c516001600160a01b03168d52905160208d01529051908b01525160608a015251612966816145e5565b60808901525160a08801525160c08701525160e0860152516101008501525161298e816145ef565b6101208401525161299e816145ef565b610140830152516001600160a01b0316610160820152f35b6129c1904290614c74565b9b620151808d019c8d811161069e576201517f019c8d1161069e57620151806101809d048452612872565b508951614c74565b6201518061285761285f92612839565b906020823d602011612a2e575b81612a1e60209383614778565b810103126107465750518e612825565b3d9150612a11565b3461065257612a4436614966565b9060018060a01b036012541633148015612a7d575b612a6290614efa565b600052600960205261253e600c604060002001918254614eb4565b506015546001600160a01b03163314612a59565b3461065257602036600319011261065257600435612aad615d79565b806000526009602052612aca60ff600b60406000200154166156dd565b6000908152600960205260409020600b01805460ff19169055005b34610652576000366003190112610652576010546040516001600160a01b039091168152602090f35b34610652576020366003190112610652576001600160a01b03612b2f614573565b1660005260176020526020604060002054604051908152f35b34610652576020366003190112610652576020612b666004356154d5565b604051908152f35b34610652576000366003190112610652576001546040516001600160a01b039091168152602090f35b3461065257602036600319011261065257612bb36004356153a1565b6040518091602082016020835281518091526040830190602060408260051b8601019301916000905b828210612beb57505050500390f35b919360019193955060208091603f1989820301855287519081518152610180612ca2612c4e612c29868601516101a0888701526101a08601906145c0565b6040860151612c37816145e5565b6040860152606086015185820360608701526145c0565b6080850151608085015260a085015160a085015260c085015160c085015260e085015160e08501526101008501516101008501526101208501516101208501526101408501518482036101408601526145c0565b92610160810151612cb2816145ef565b61016084015281878060a01b03910151169101529601920192018594939192612bdc565b3461065257602036600319011261065257612cef614573565b612cf7615d79565b601254906001600160a01b038216612d7a576001600160a01b0316908115612d3557600c80546001600160a01b031990811684179091551617601255005b60405162461bcd60e51b815260206004820152601c60248201527f436f76657220616464726573732063616e6e6f74206265207a65726f000000006044820152606490fd5b60405162461bcd60e51b815260206004820152601160248201527010dbdd995c88185b1c9958591e481cd95d607a1b6044820152606490fd5b3461065257600036600319011261065257612dcc615d79565b600180546001600160a01b031981169091556000906001600160a01b03167f8be0079c531659141344cd1fd0a4f28419497f9722a3daafe3b4186f6b6457e08280a3005b3461065257600036600319011261065257600d546040516001600160a01b039091168152602090f35b3461065257602036600319011261065257612e52614573565b612e5a615d79565b601354906001600160a01b038216612edd576001600160a01b0316908115612e9857600d80546001600160a01b031990811684179091551617601355005b60405162461bcd60e51b815260206004820152601c60248201527f5661756c7420616464726573732063616e6e6f74206265207a65726f000000006044820152606490fd5b60405162461bcd60e51b815260206004820152601160248201527015985d5b1d08185b1c9958591e481cd95d607a1b6044820152606490fd5b34610652576000366003190112610652576014546040516001600160a01b039091168152602090f35b3461065257600036600319011261065257600b546040516001600160a01b039091168152602090f35b34610652576020366003190112610652576004356001600160401b0381116106525761014060031982360301126106525760405190612fa6826146ec565b8060040135825260248101356003811015610652576020830190815260448201356001600160401b03811161065257612fe590600436918501016147b4565b926040810193845260648301356001600160401b0381116106525761301090600436918601016147b4565b6060820190815260808201926084850135845260a0830160a4860135815260c48601359160ff831683036106525760c0850192835260e085019160e48801358352610104880135976002891015610652576101246130769161010089019a8b5201614589565b966101208701978852613087615d79565b8851613092816145ef565b61309b816145ef565b158015613473575b1561342e57600a546001810180911161069e57600a5586516000526009602052604060002095875187558a5160018801908051906001600160401b0382116133555781906130f184546149af565b601f81116133db575b50602090601f83116001146133765760009261336b575b50508160011b916000199060031b1c19161790555b51805160028801916001600160401b0382116133555761314683546149af565b601f811161330d575b50602090601f831160011461329c5791806131d296949260ff99989694600092613291575b50508160011b916000199060031b1c19161790555b51600488015560006006880155516005870155600060078701556000600987015560006008870155600b860160018519825416179055516131c9816145e5565b60038601614ece565b519182600d850155511693600e830191825490606403956064871161069e577ff01906dc0ac306fa816e50166a7ed46af1f05721cb90cea30beebdd8dede3a6d9761328c97600c61327597015551613229816145ef565b613232816145ef565b9251610100600160a81b0360089190911b1660ff60a81b60a89490941b939093166001600160b01b031992909216610100600160a81b0319919091161717179055565b5192516040519182916020835260208301906145c0565b0390a2005b015190508f80613174565b90601f1983169184600052816000209260005b8181106132f5575092600192859260ff9b9a98966131d29a9896106132dc575b505050811b019055613189565b015160001960f88460031b161c191690558f80806132cf565b929360206001819287860151815501950193016132af565b836000526020600020601f840160051c8101916020851061334b575b601f0160051c01905b81811061333f575061314f565b60008155600101613332565b9091508190613329565b634e487b7160e01b600052604160045260246000fd5b015190508e80613111565b60008581528281209350601f198516905b8181106133c357509084600195949392106133aa575b505050811b019055613126565b015160001960f88460031b161c191690558e808061339d565b92936020600181928786015181550195019301613387565b909150836000526020600020601f840160051c81019160208510613424575b90601f859493920160051c01905b81811061341557506130fa565b60008155849350600101613408565b90915081906133fa565b60405162461bcd60e51b815260206004820152601760248201527f57726f6e6720417373657420666f72204465706f7369740000000000000000006044820152606490fd5b5087516001600160a01b031615156130a3565b3461065257613494366147fb565b9060018060a01b0360125416331480156134ea575b6134b290614efa565b6000526008602052604060002090815491600160401b83101561335557826134e29160016134e895018155614f45565b90614f61565b005b506015546001600160a01b031633146134a9565b346106525760203660031901126106525760043560165481101561065257613527602091614935565b905460405160039290921b1c6001600160a01b03168152f35b3461065257600036600319011261065257600f546040516001600160a01b039091168152602090f35b3461065257602036600319011261065257613582614573565b600a54600091906001600160a01b03821660015b8281111561397a57506135a88461538a565b936135b66040519586614778565b8085526135c5601f199161538a565b0160005b818110613915575050600c546001600160a01b03169260009060015b848111156136bf57866040518091602082016020835281518091526040830190602060408260051b8601019301916000905b82821061362657505050500390f35b919360019193955060208091603f1989820301855287519061012080613657845161014085526101408501906145c0565b93858101518685015260408101516040850152606081015160608501526080810151608085015260a081015160a085015260c081015160c085015260e081015160e0850152610100810151151561010085015201519101529601920192018594939192613617565b806000526009602052604060002084600052600760205260406000208260005260205260406000206000805260205260406000206040516136ff816146ec565b60018060a01b038254168152600182015460208201526002820154604082015261012060ff60096003850154946060850195865282600482015416613743816145e5565b6080860152600581015460a0860152600681015460c0860152600781015460e086015260088101546101008601520154169161377e836145ef565b01526040516339e671f760e11b81526001600160a01b0385166004820152602481018490526020816044818c5afa90811561065f576000916138e2575b506137c69151614a83565b856000526007602052604060002083600052602052604060002060008052602052600160406000200154613805575b505061380090614ea5565b6135e5565b60008681526007602090815260408083208684528252808320838052909152908190206003810154600190910154600485015460058601546006870154600a880154600b89015496519b9860ff909716969095919492939291906138688d6146ec565b6040518060018193019061387b916149e9565b036138869082614778565b8c528960208d015260408c015260608b015260808a015260a089015260c088015260e08701521515610100860152610120850152806138c490614ea5565b936138cf828a614ee6565b526138da9088614ee6565b5087806137f5565b906020823d821161390d575b816138fb60209383614778565b810103126107465750516137c66137bb565b3d91506138ee565b602090604095949551613927816146ec565b60608152600083820152600060408201526000606082015260006080820152600060a0820152600060c0820152600060e082015260006101008201526000610120820152828289010152019392936135c9565b8160009493945260076020526040600020816000526020526040600020600080526020526001604060002001546139bd575b6139b590614ea5565b929192613596565b936139ca6139b591614ea5565b9490506139ac565b34610652576000366003190112610652576015546040516001600160a01b039091168152602090f35b34610652576020366003190112610652576004356000526009602052602060ff600b60406000200154166040519015158152f35b34610652576000366003190112610652576012546040516001600160a01b039091168152602090f35b34610652576000366003190112610652576013546040516001600160a01b039091168152602090f35b3461065257613a8f366147fb565b6012546001600160a01b031633148015613b08575b613aad90614efa565b60005b8260005260086020526040600020548110156134e857826000526008602052613add816040600020614f45565b5054825114613aee57600101613ab0565b6134e2906134e89360005260086020526040600020614f45565b506015546001600160a01b03163314613aa4565b34610652576000366003190112610652576040518060206016549283815201809260166000527fd833147d7dc355ba459fc788f669e58cfaf9dc25ddcd0702e87d69c7b51242899060005b818110613bc95750505081613b7d910382614778565b6040519182916020830190602084525180915260408301919060005b818110613ba7575050500390f35b82516001600160a01b0316845285945060209384019390920191600101613b99565b82546001600160a01b0316845260209093019260019283019201613b67565b60c036600319011261065257604051600060c082016001600160401b038111838210176144b457604052613c1a614573565b82526020820191602435835260408101604435815260643560028110156104fc57606083019081526084359060028210156144b0576080840191825260a435926001600160a01b0384168403610cde5760a08501938452613c79615d57565b865186526009602052604086209360ff600b860154161561446057600e850193845460ff8160a81c169151613cad816145ef565b613cb6816145ef565b613cbf836145ef565b820361440c5782516001600160a01b0390811660089290921c16036143c75786516001600160a01b03168852600760209081526040808a208b518b5290915288208451613d0b816145ef565b613d14816145ef565b8952602052600160408920015461437057600190613d31816145ef565b036142fa578151156142b55751855182516040516323b872dd60e01b81526001600160a01b039283166004820152306024820152604481019190915291602091839160649183918c91165af180156142aa5761426f575b508051613d9a60068601918254614eb4565b905580519260018060a01b03815460081c169060046020613dba84614a96565b936040519283809263313ce56760e01b82525afa801561426457899061422a575b60ff915016915b600d613e1160ff613e086064613e018c60068101549687910154614a83565b0484614c74565b94541684614a83565b936012036012811161421657613e41613fae95936105608d9e96946105609d9e9d670de0b6b3a764000095614c81565b049160098901556008880155600787015561016d6064613e65600489015488614a83565b040493600960018060a01b038a51168351928b60058b015494825195613e8a876145ef565b60405194613e97866146ec565b85528d60208601928d845260408701908152606087018d8152608088019183835260a0890194855260c08901954287528c60e08b0198868a526101008c019a878c526101208d019e8f613ee9826145ef565b5251613ef4816145ef565b613efd816145ef565b61416f57516001600160a01b039081168752600760209081526040808920935189529281528288208880529052952099518a546001600160a01b031916951694909417895592516001890155915160028801559051600387015551613f6e90613f65816145e5565b60048701614ece565b516005850155516006840155516007830155516008820155019051613f92816145ef565b613f9b816145ef565b60ff801983541691161790555b516153a1565b93855b855181101561402157600c546001600160a01b031690613fd18188614ee6565b5151823b15610cd257889260248492604051958693849263106b5da160e01b845260048401525af19182156114fc5788600193614011575b505001613fb1565b61401a91614778565b8a88614009565b50601654869550879086805b828110614137575b50156140d7575b5080516001600160a01b03168652601760205260408620805460018101919082106140c35792600194927f6f85d9948d6ca3dd6ce6ce7d175da22b4e865827ae6fcd530ec7edac1240f928926040999555858060a01b0390511692516140b3895192839283528a6020840152878b840191016149e9565b0390a25582519182526020820152f35b634e487b7160e01b88526011600452602488fd5b81516001600160a01b031690600160401b811015614123578060016140ff9201601655614935565b81546001600160a01b0360039290921b91821b191692901b9190911790558661403c565b634e487b7160e01b88526041600452602488fd5b61414081614935565b9054855160039290921b1c6001600160a01b039081169116146141655760010161402d565b5050600188614035565b516001600160a01b039081168752600760209081526040808920935189529281528288206001808a529152919096209a518b546001600160a01b0319169616959095178a5551938901939093559151600288015590516003870155516141d890613f65816145e5565b5160058501555160068401555160078301555160088201550190516141fc816145ef565b614205816145ef565b60ff80198354169116179055613fa8565b634e487b7160e01b8b52601160045260248bfd5b506020813d60201161425c575b8161424460209383614778565b81010312610cd25761425760ff91614c66565b613ddb565b3d9150614237565b6040513d8b823e3d90fd5b6020813d6020116142a2575b8161428860209383614778565b8101031261429e5761429990614ec1565b613d88565b8680fd5b3d915061427b565b6040513d89823e3d90fd5b60405162461bcd60e51b815260206004820152601d60248201527f416d6f756e74206d7573742062652067726561746572207468616e20300000006044820152606490fd5b50341561433257601154614316906001600160a01b0316614a96565b9260129060068601614329348254614eb4565b90553494613de2565b60405162461bcd60e51b81526020600482015260166024820152754465706f7369742063616e6e6f74206265207a65726f60501b6044820152606490fd5b60405162461bcd60e51b815260206004820152602960248201527f557365722068617320616c7265616479206465706f736974656420696e746f206044820152681d1a1a5cc81c1bdbdb60ba1b6064820152608490fd5b60405162461bcd60e51b815260206004820152601f60248201527f506f6f6c20646f6573206e6f74206163636570742074686973206173736574006044820152606490fd5b60405162461bcd60e51b815260206004820152602660248201527f506f6f6c20646f6573206e6f74206163636570742074686973206465706f736960448201526574207479706560d01b6064820152608490fd5b60405162461bcd60e51b815260206004820152602260248201527f506f6f6c20697320696e616374697665206f7220646f6573206e6f74206578696044820152611cdd60f21b6064820152608490fd5b8480fd5b634e487b7160e01b82526041600452602482fd5b34610652576000366003190112610652576000600190600a545b808311156144f557602082604051908152f35b9061450c61451291614506856154d5565b90614eb4565b92614ea5565b91906144e2565b346106525760203660031901126106525761454c614538600435614c8f565b6040519182916020835260208301906145f9565b0390f35b34610652576020366003190112610652576020612b6661456e614573565b614a96565b600435906001600160a01b038216820361065257565b35906001600160a01b038216820361065257565b60005b8381106145b05750506000910152565b81810151838201526020016145a0565b906020916145d98151809281855285808601910161459d565b601f01601f1916010190565b600311156117f557565b600211156117f557565b908151815261020080614632614620602086015161022060208701526102208601906145c0565b604086015185820360408701526145c0565b936060810151614641816145e5565b60608501526080810151608085015260a081015160a085015260c081015160c085015260e081015160e085015261010081015161010085015261012081015161012085015261014081015161014085015261016081015115156101608501526101808101516101808501526101a08101516101a085015260ff6101c0820151166101c085015260018060a01b036101e0820151166101e08501520151916146e7836145ef565b015290565b61014081019081106001600160401b0382111761335557604052565b61018081019081106001600160401b0382111761335557604052565b61022081019081106001600160401b0382111761335557604052565b6101a081019081106001600160401b0382111761335557604052565b61012081019081106001600160401b0382111761335557604052565b90601f801991011681019081106001600160401b0382111761335557604052565b6001600160401b03811161335557601f01601f191660200190565b81601f82011215610652578035906147cb82614799565b926147d96040519485614778565b8284526020838301011161065257816000926020809301838601378301015290565b90604060031983011261065257600435916024356001600160401b038111610652576101a08183036003190112610652576040519161483983614740565b8160040135835260248201356001600160401b03811161065257816004614862928501016147b4565b60208401526044820135600381101561065257604084015260648201356001600160401b0381116106525781600461489c928501016147b4565b60608401526084820135608084015260a482013560a084015260c482013560c084015260e482013560e0840152610104820135610100840152610124820135610120840152610144820135906001600160401b038211610652576004614904928401016147b4565b61014083015261016481013560028110156106525761016083015261492c9061018401614589565b61018082015290565b60165481101561495057601660005260206000200190600090565b634e487b7160e01b600052603260045260246000fd5b6040906003190112610652576004359060243590565b606090600319011261065257600435906024356001600160a01b0381168103610652579060443560028110156106525790565b90600182811c921680156149df575b60208310146149c957565b634e487b7160e01b600052602260045260246000fd5b91607f16916149be565b600092918154916149f9836149af565b8083529260018116908115614a4f5750600114614a1557505050565b60009081526020812093945091925b838310614a35575060209250010190565b600181602092949394548385870101520191019190614a24565b915050602093945060ff929192191683830152151560051b010190565b519069ffffffffffffffffffff8216820361065257565b8181029291811591840414171561069e57565b6001600160a01b03908116600090815260066020526040902054168015614b985760a060049160405192838092633fabe5a360e21b82525afa90811561065f57600091614b4b575b506000811315614b06576402540be4008102908082046402540be400149015171561069e5790565b60405162461bcd60e51b815260206004820152601960248201527f496e76616c69642070726963652066726f6d206f7261636c65000000000000006044820152606490fd5b9060a0823d60a011614b90575b81614b6560a09383614778565b810103126107465750614b7781614a6c565b50614b89608060208301519201614a6c565b5038614ade565b3d9150614b58565b60405162461bcd60e51b815260206004820152602260248201527f50726963652066656564206e6f7420617661696c61626c6520666f7220617373604482015261195d60f21b6064820152608490fd5b60405190614bf582614724565b60006102008382815260606020820152606060408201528260608201528260808201528260a08201528260c08201528260e08201528261010082015282610120820152826101408201528261016082015282610180820152826101a0820152826101c0820152826101e08201520152565b519060ff8216820361065257565b9190820391821161069e57565b604d811161069e57600a0a90565b614c97614be8565b506000526009602052604060002060405190614cb282614724565b80548252604051614cca8161029181600186016149e9565b6020830152604051614ce38161029181600286016149e9565b604083015260ff600382015416614cf9816145e5565b606083015260048101546080830152600581015460a0830152600681015460c0830190815260078201549160e0840192835260088101546101008501526009810154610120850152600a810154610140850152600e60ff600b830154169161016086019215158352600c810154610180870152600d8101546101a087015201549060ff82166101c086015260ff6101e086019260018060a01b038160081c16845260a81c16614da7816145ef565b61020086015251151580614e8c575b15614e035750601154614dd1906001600160a01b0316614a96565b906012905b5190601203916012831161069e57610560614dfd92610560670de0b6b3a764000095614c81565b04905290565b9060046020614e1a60018060a01b03855116614a96565b935160405163313ce56760e01b815292839182906001600160a01b03165afa801561065f57600090614e52575b60ff91501690614dd6565b506020813d602011614e84575b81614e6c60209383614778565b8101031261065257614e7f60ff91614c66565b614e47565b3d9150614e5f565b5080516011546001600160a01b03908116911614614db6565b600019811461069e5760010190565b9190820180921161069e57565b5190811515820361065257565b90614ed8816145e5565b60ff80198354169116179055565b80518210156149505760209160051b010190565b15614f0157565b606460405162461bcd60e51b815260206004820152602060248201527f43616c6c6572206973206e6f742074686520636f76657220636f6e74726163746044820152fd5b805482101561495057600052600c602060002091020190600090565b9061537457815181556001810160208301518051906001600160401b038211613355578190614f9084546149af565b601f8111615321575b50602090601f83116001146152bc576000926152b1575b50508160011b916000199060031b1c19161790555b614fdf6040830151614fd6816145e5565b60028301614ece565b6003810160608301518051906001600160401b03821161335557819061500584546149af565b601f811161525e575b50602090601f83116001146151f9576000926151ee575b50508160011b916000199060031b1c19161790555b6080820151600482015560a0820151600582015560c0820151600682015560e0820151600782015561010082015160088201556101208201516009820155600a81016101408301518051906001600160401b0382116133555761509d83546149af565b601f81116151a6575b50602090601f8311600114615137579180600b949261512a97969460009261512c575b50508160011b916000199060031b1c19161790555b01906101608101516150ef816145ef565b6150f8816145ef565b825461018092909201516001600160a81b031990921660ff919091161760089190911b610100600160a81b0316179055565b565b0151905038806150c9565b90601f1983169184600052816000209260005b81811061518e575092600192859261512a999896600b989610615175575b505050811b0190556150de565b015160001960f88460031b161c19169055388080615168565b9293602060018192878601518155019501930161514a565b836000526020600020601f840160051c810191602085106151e4575b601f0160051c01905b8181106151d857506150a6565b600081556001016151cb565b90915081906151c2565b015190503880615025565b60008581528281209350601f198516905b818110615246575090846001959493921061522d575b505050811b01905561503a565b015160001960f88460031b161c19169055388080615220565b9293602060018192878601518155019501930161520a565b909150836000526020600020601f840160051c810191602085106152a7575b90601f859493920160051c01905b818110615298575061500e565b6000815584935060010161528b565b909150819061527d565b015190503880614fb0565b60008581528281209350601f198516905b81811061530957509084600195949392106152f0575b505050811b019055614fc5565b015160001960f88460031b161c191690553880806152e3565b929360206001819287860151815501950193016152cd565b909150836000526020600020601f840160051c8101916020851061536a575b90601f859493920160051c01905b81811061535b5750614f99565b6000815584935060010161534e565b9091508190615340565b634e487b7160e01b600052600060045260246000fd5b6001600160401b0381116133555760051b60200190565b6000526008602052604060002080546153b98161538a565b916153c76040519384614778565b818352602083019060005260206000206000915b8383106153e9575050505090565b600c60206001926040516153fc81614740565b855481526040516154138161029181898b016149e9565b8382015260ff600287015416615428816145e5565b6040820152604051615441816102918160038b016149e9565b606082015260048601546080820152600586015460a0820152600686015460c0820152600786015460e0820152600886015461010082015260098601546101208201526040516154988161029181600a8b016149e9565b610140820152600b86015460ff81166154b0816145ef565b610160830152858060a01b039060081c166101808201528152019201920191906153db565b600052600960205260406000206040516154ee81614724565b815481526040516155068161029181600187016149e9565b602082015260405161551f8161029181600287016149e9565b604082015260ff600383015416615535816145e5565b606082015260048201546080820152600582015460a082015260068201549160c08201928352600781015460e083015260088101546101008301526009810154610120830152600a810154610140830152600e60ff600b830154169161016084019215158352600c810154610180850152600d8101546101a085015201549160ff83166101c082015261020060ff6101e083019460018060a01b038160081c16865260a81c16916155e5836145ef565b0152511515806156c4575b1561563b575060115461560b906001600160a01b0316614a96565b906012905b5190601203916012831161069e5761056061563792610560670de0b6b3a764000095614c81565b0490565b906004602061565260018060a01b03855116614a96565b935160405163313ce56760e01b815292839182906001600160a01b03165afa801561065f5760009061568a575b60ff91501690615610565b506020813d6020116156bc575b816156a460209383614778565b81010312610652576156b760ff91614c66565b61567f565b3d9150615697565b5080516011546001600160a01b039081169116146155f0565b156156e457565b60405162461bcd60e51b8152602060048201526012602482015271506f6f6c206973206e6f742061637469766560701b6044820152606490fd5b1561572557565b60405162461bcd60e51b815260206004820152602160248201527f4e6f206465706f73697420666f756e6420666f722074686973206164647265736044820152607360f81b6064820152608490fd5b1561577b57565b60405162461bcd60e51b81526020600482015260156024820152744465706f736974206973206e6f742061637469766560581b6044820152606490fd5b156157bf57565b60405162461bcd60e51b815260206004820152601c60248201527f4465706f73697420706572696f6420686173206e6f7420656e646564000000006044820152606490fd5b60409061581b9392815281602082015201906145c0565b90565b51906001600160a01b038216820361065257565b81601f8201121561065257805161584881614799565b926158566040519485614778565b818452602082840101116106525761581b916020808501910161459d565b3d1561589f573d9061588582614799565b916158936040519384614778565b82523d6000602084013e565b606090565b156158ab57565b60405162461bcd60e51b815260206004820152601c60248201527f4e6174697665206173736574207472616e73666572206661696c6564000000006044820152606490fd5b156158f757565b60405162461bcd60e51b8152602060048201526015602482015274115490cc8c081d1c985b9cd9995c8819985a5b1959605a1b6044820152606490fd5b6000610120604051615945816146ec565b8281528260208201528260408201528260608201528260808201528260a08201528260c08201528260e082015282610100820152015260018060a01b0382166000526007602052604060002081600052602052604060002060008052602052604060002091604051926159b7846146ec565b80546001600160a01b031684526001810154602085015260028101546040850152600381015460608501908152600482015460808601949060ff166159fb816145e5565b855260058301549460a08701958652600684015460c0880190815260078501549260e0890193845260ff60096008880154976101008c01988952015416615a41816145ef565b6101208a0152806000526009602052604060002090604051615a6281614724565b82548152604051615a7a8161029181600188016149e9565b6020820152604051615a938161029181600288016149e9565b604082015260ff600384015416615aa9816145e5565b60608201526004830154608082015261020060ff600e60058601549560a08501968752600681015460c0860152600781015460e086015260088101546101008601526009810154610120860152600a81015461014086015282600b820154161515610160860152600c810154610180860152600d8101546101a086015201548181166101c085015260018060a01b038160081c166101e085015260a81c1691615b51836145ef565b015282519151906201518082029180830462015180149015171561069e57615b7e602092615bbb94614eb4565b600c54604051630414960560e21b81526001600160a01b039b8c166004820152602481019390935290999193849290911690829081906044820190565b03915afa90811561065f57600091615c65575b50926201518092615c0b92615c1396958015600014615c5d575051915b429151615bf7816145e5565b615c00816145e5565b615c54575b50614c74565b049051614a83565b9052428111615c2457506000905290565b615c2f904290614c74565b6201518081019081811161069e576201517f0190811161069e57620151809004905290565b90505138615c05565b905091615beb565b906020823d602011615c92575b81615c7f60209383614778565b8101031261074657505162015180615bce565b3d9150615c72565b90816101a091031261065257604051906000615cb583614740565b615cbe8261581e565b83526020820151602084015260408201516040840152606082015160608401526080820151608084015260a08201516003811015610ce65760a084015260c082015160c084015260e082015160e0840152610100820151610100840152610120820151610120840152610140820151610140840152610160820151906002821015610746575061016083015261492c906101800161581e565b600260005414615d68576002600055565b633ee5aeb560e01b60005260046000fd5b6001546001600160a01b03163303615d8d57565b63118cdaa760e01b6000523360045260246000fdfe485f1bb6524c663555797e00171a10f341656e59b02d6b557a0a38ba7d5d9751a2646970667358221220d2f6feb9e6fc1dc2b6e509bc4580d70f2c2ad31f40bc41b47d6450ae2917559c64736f6c634300081c0033",
  "linkReferences": {},
  "deployedLinkReferences": {}
}