{
  "_format": "hh-sol-artifact-1",
  "contractName": "InsuranceCover",
  "sourceName": "contracts/InsuranceCover.sol",
  "abi": [
    {
      "inputs": [
        {
          "internalType": "address",
          "name": "_lpContract",
          "type": "address"
        },
        {
          "internalType": "address",
          "name": "_vaultContract",
          "type": "address"
        },
        {
          "internalType": "address",
          "name": "_initialOwner",
          "type": "address"
        },
        {
          "internalType": "address",
          "name": "_bqBTC",
          "type": "address"
        },
        {
          "internalType": "address",
          "name": "_gov",
          "type": "address"
        }
      ],
      "stateMutability": "nonpayable",
      "type": "constructor"
    },
    {
      "inputs": [],
      "name": "CoverNotAvailable",
      "type": "error"
    },
    {
      "inputs": [],
      "name": "InsufficientPoolBalance",
      "type": "error"
    },
    {
      "inputs": [],
      "name": "InvalidAmount",
      "type": "error"
    },
    {
      "inputs": [],
      "name": "InvalidCoverDuration",
      "type": "error"
    },
    {
      "inputs": [],
      "name": "LpNotActive",
      "type": "error"
    },
    {
      "inputs": [],
      "name": "NameAlreadyExists",
      "type": "error"
    },
    {
      "inputs": [],
      "name": "NoClaimableReward",
      "type": "error"
    },
    {
      "inputs": [
        {
          "internalType": "address",
          "name": "owner",
          "type": "address"
        }
      ],
      "name": "OwnableInvalidOwner",
      "type": "error"
    },
    {
      "inputs": [
        {
          "internalType": "address",
          "name": "account",
          "type": "address"
        }
      ],
      "name": "OwnableUnauthorizedAccount",
      "type": "error"
    },
    {
      "inputs": [],
      "name": "ReentrancyGuardReentrantCall",
      "type": "error"
    },
    {
      "inputs": [],
      "name": "UnsupportedCoverType",
      "type": "error"
    },
    {
      "inputs": [],
      "name": "UserHaveAlreadyPurchasedCover",
      "type": "error"
    },
    {
      "inputs": [],
      "name": "WrongPool",
      "type": "error"
    },
    {
      "anonymous": false,
      "inputs": [
        {
          "indexed": true,
          "internalType": "uint256",
          "name": "coverId",
          "type": "uint256"
        },
        {
          "indexed": false,
          "internalType": "string",
          "name": "name",
          "type": "string"
        },
        {
          "indexed": false,
          "internalType": "enum CoverLib.RiskType",
          "name": "riskType",
          "type": "uint8"
        }
      ],
      "name": "CoverCreated",
      "type": "event"
    },
    {
      "anonymous": false,
      "inputs": [
        {
          "indexed": true,
          "internalType": "address",
          "name": "user",
          "type": "address"
        },
        {
          "indexed": false,
          "internalType": "uint256",
          "name": "coverValue",
          "type": "uint256"
        },
        {
          "indexed": false,
          "internalType": "uint256",
          "name": "coverFee",
          "type": "uint256"
        },
        {
          "indexed": false,
          "internalType": "enum CoverLib.RiskType",
          "name": "riskType",
          "type": "uint8"
        }
      ],
      "name": "CoverPurchased",
      "type": "event"
    },
    {
      "anonymous": false,
      "inputs": [
        {
          "indexed": true,
          "internalType": "uint256",
          "name": "coverId",
          "type": "uint256"
        },
        {
          "indexed": false,
          "internalType": "string",
          "name": "coverName",
          "type": "string"
        },
        {
          "indexed": false,
          "internalType": "enum CoverLib.RiskType",
          "name": "riskType",
          "type": "uint8"
        }
      ],
      "name": "CoverUpdated",
      "type": "event"
    },
    {
      "anonymous": false,
      "inputs": [
        {
          "indexed": true,
          "internalType": "address",
          "name": "previousOwner",
          "type": "address"
        },
        {
          "indexed": true,
          "internalType": "address",
          "name": "newOwner",
          "type": "address"
        }
      ],
      "name": "OwnershipTransferred",
      "type": "event"
    },
    {
      "anonymous": false,
      "inputs": [
        {
          "indexed": true,
          "internalType": "address",
          "name": "user",
          "type": "address"
        },
        {
          "indexed": true,
          "internalType": "uint256",
          "name": "poolId",
          "type": "uint256"
        },
        {
          "indexed": false,
          "internalType": "uint256",
          "name": "amount",
          "type": "uint256"
        }
      ],
      "name": "PayoutClaimed",
      "type": "event"
    },
    {
      "inputs": [
        {
          "internalType": "address",
          "name": "",
          "type": "address"
        },
        {
          "internalType": "uint256",
          "name": "",
          "type": "uint256"
        }
      ],
      "name": "LastVaultClaimTime",
      "outputs": [
        {
          "internalType": "uint256",
          "name": "",
          "type": "uint256"
        }
      ],
      "stateMutability": "view",
      "type": "function"
    },
    {
      "inputs": [
        {
          "internalType": "address",
          "name": "",
          "type": "address"
        },
        {
          "internalType": "uint256",
          "name": "",
          "type": "uint256"
        }
      ],
      "name": "NextLpClaimTime",
      "outputs": [
        {
          "internalType": "uint256",
          "name": "",
          "type": "uint256"
        }
      ],
      "stateMutability": "view",
      "type": "function"
    },
    {
      "inputs": [],
      "name": "bqBTC",
      "outputs": [
        {
          "internalType": "contract IbqBTC",
          "name": "",
          "type": "address"
        }
      ],
      "stateMutability": "view",
      "type": "function"
    },
    {
      "inputs": [],
      "name": "bqBTCAddress",
      "outputs": [
        {
          "internalType": "address",
          "name": "",
          "type": "address"
        }
      ],
      "stateMutability": "view",
      "type": "function"
    },
    {
      "inputs": [
        {
          "internalType": "uint256",
          "name": "_poolId",
          "type": "uint256"
        }
      ],
      "name": "claimPayoutForLP",
      "outputs": [],
      "stateMutability": "nonpayable",
      "type": "function"
    },
    {
      "inputs": [
        {
          "internalType": "uint256",
          "name": "vaultId",
          "type": "uint256"
        }
      ],
      "name": "clamPayoutForVault",
      "outputs": [],
      "stateMutability": "nonpayable",
      "type": "function"
    },
    {
      "inputs": [],
      "name": "coverCount",
      "outputs": [
        {
          "internalType": "uint256",
          "name": "",
          "type": "uint256"
        }
      ],
      "stateMutability": "view",
      "type": "function"
    },
    {
      "inputs": [
        {
          "internalType": "uint256",
          "name": "",
          "type": "uint256"
        }
      ],
      "name": "coverExists",
      "outputs": [
        {
          "internalType": "bool",
          "name": "",
          "type": "bool"
        }
      ],
      "stateMutability": "view",
      "type": "function"
    },
    {
      "inputs": [],
      "name": "coverFeeBalance",
      "outputs": [
        {
          "internalType": "uint256",
          "name": "",
          "type": "uint256"
        }
      ],
      "stateMutability": "view",
      "type": "function"
    },
    {
      "inputs": [
        {
          "internalType": "uint256",
          "name": "",
          "type": "uint256"
        }
      ],
      "name": "coverIds",
      "outputs": [
        {
          "internalType": "uint256",
          "name": "",
          "type": "uint256"
        }
      ],
      "stateMutability": "view",
      "type": "function"
    },
    {
      "inputs": [
        {
          "internalType": "uint256",
          "name": "",
          "type": "uint256"
        }
      ],
      "name": "covers",
      "outputs": [
        {
          "internalType": "uint256",
          "name": "id",
          "type": "uint256"
        },
        {
          "internalType": "string",
          "name": "coverName",
          "type": "string"
        },
        {
          "internalType": "enum CoverLib.RiskType",
          "name": "riskType",
          "type": "uint8"
        },
        {
          "internalType": "string",
          "name": "chains",
          "type": "string"
        },
        {
          "internalType": "uint256",
          "name": "capacity",
          "type": "uint256"
        },
        {
          "internalType": "uint256",
          "name": "cost",
          "type": "uint256"
        },
        {
          "internalType": "uint256",
          "name": "capacityAmount",
          "type": "uint256"
        },
        {
          "internalType": "uint256",
          "name": "coverValues",
          "type": "uint256"
        },
        {
          "internalType": "uint256",
          "name": "maxAmount",
          "type": "uint256"
        },
        {
          "internalType": "uint256",
          "name": "poolId",
          "type": "uint256"
        },
        {
          "internalType": "string",
          "name": "CID",
          "type": "string"
        },
        {
          "internalType": "enum CoverLib.AssetDepositType",
          "name": "adt",
          "type": "uint8"
        },
        {
          "internalType": "address",
          "name": "asset",
          "type": "address"
        }
      ],
      "stateMutability": "view",
      "type": "function"
    },
    {
      "inputs": [
        {
          "internalType": "uint256",
          "name": "coverId",
          "type": "uint256"
        },
        {
          "internalType": "string",
          "name": "_cid",
          "type": "string"
        },
        {
          "internalType": "enum CoverLib.RiskType",
          "name": "_riskType",
          "type": "uint8"
        },
        {
          "internalType": "string",
          "name": "_coverName",
          "type": "string"
        },
        {
          "internalType": "string",
          "name": "_chains",
          "type": "string"
        },
        {
          "internalType": "uint256",
          "name": "_capacity",
          "type": "uint256"
        },
        {
          "internalType": "uint256",
          "name": "_cost",
          "type": "uint256"
        },
        {
          "internalType": "uint256",
          "name": "_poolId",
          "type": "uint256"
        }
      ],
      "name": "createCover",
      "outputs": [],
      "stateMutability": "nonpayable",
      "type": "function"
    },
    {
      "inputs": [
        {
          "internalType": "address",
          "name": "_user",
          "type": "address"
        }
      ],
      "name": "deleteExpiredUserCovers",
      "outputs": [],
      "stateMutability": "nonpayable",
      "type": "function"
    },
    {
      "inputs": [],
      "name": "getAllAvailableCovers",
      "outputs": [
        {
          "components": [
            {
              "internalType": "uint256",
              "name": "id",
              "type": "uint256"
            },
            {
              "internalType": "string",
              "name": "coverName",
              "type": "string"
            },
            {
              "internalType": "enum CoverLib.RiskType",
              "name": "riskType",
              "type": "uint8"
            },
            {
              "internalType": "string",
              "name": "chains",
              "type": "string"
            },
            {
              "internalType": "uint256",
              "name": "capacity",
              "type": "uint256"
            },
            {
              "internalType": "uint256",
              "name": "cost",
              "type": "uint256"
            },
            {
              "internalType": "uint256",
              "name": "capacityAmount",
              "type": "uint256"
            },
            {
              "internalType": "uint256",
              "name": "coverValues",
              "type": "uint256"
            },
            {
              "internalType": "uint256",
              "name": "maxAmount",
              "type": "uint256"
            },
            {
              "internalType": "uint256",
              "name": "poolId",
              "type": "uint256"
            },
            {
              "internalType": "string",
              "name": "CID",
              "type": "string"
            },
            {
              "internalType": "enum CoverLib.AssetDepositType",
              "name": "adt",
              "type": "uint8"
            },
            {
              "internalType": "address",
              "name": "asset",
              "type": "address"
            }
          ],
          "internalType": "struct CoverLib.Cover[]",
          "name": "",
          "type": "tuple[]"
        }
      ],
      "stateMutability": "view",
      "type": "function"
    },
    {
      "inputs": [],
      "name": "getAllParticipants",
      "outputs": [
        {
          "internalType": "address[]",
          "name": "",
          "type": "address[]"
        }
      ],
      "stateMutability": "view",
      "type": "function"
    },
    {
      "inputs": [
        {
          "internalType": "address",
          "name": "user",
          "type": "address"
        }
      ],
      "name": "getAllUserCovers",
      "outputs": [
        {
          "components": [
            {
              "internalType": "address",
              "name": "user",
              "type": "address"
            },
            {
              "internalType": "uint256",
              "name": "coverId",
              "type": "uint256"
            },
            {
              "internalType": "enum CoverLib.RiskType",
              "name": "riskType",
              "type": "uint8"
            },
            {
              "internalType": "string",
              "name": "coverName",
              "type": "string"
            },
            {
              "internalType": "uint256",
              "name": "coverValue",
              "type": "uint256"
            },
            {
              "internalType": "uint256",
              "name": "claimPaid",
              "type": "uint256"
            },
            {
              "internalType": "uint256",
              "name": "coverPeriod",
              "type": "uint256"
            },
            {
              "internalType": "uint256",
              "name": "endDay",
              "type": "uint256"
            },
            {
              "internalType": "bool",
              "name": "isActive",
              "type": "bool"
            }
          ],
          "internalType": "struct CoverLib.GenericCoverInfo[]",
          "name": "",
          "type": "tuple[]"
        }
      ],
      "stateMutability": "view",
      "type": "function"
    },
    {
      "inputs": [],
      "name": "getCoverFeeBalance",
      "outputs": [
        {
          "internalType": "uint256",
          "name": "",
          "type": "uint256"
        }
      ],
      "stateMutability": "view",
      "type": "function"
    },
    {
      "inputs": [
        {
          "internalType": "uint256",
          "name": "_coverId",
          "type": "uint256"
        }
      ],
      "name": "getCoverInfo",
      "outputs": [
        {
          "components": [
            {
              "internalType": "uint256",
              "name": "id",
              "type": "uint256"
            },
            {
              "internalType": "string",
              "name": "coverName",
              "type": "string"
            },
            {
              "internalType": "enum CoverLib.RiskType",
              "name": "riskType",
              "type": "uint8"
            },
            {
              "internalType": "string",
              "name": "chains",
              "type": "string"
            },
            {
              "internalType": "uint256",
              "name": "capacity",
              "type": "uint256"
            },
            {
              "internalType": "uint256",
              "name": "cost",
              "type": "uint256"
            },
            {
              "internalType": "uint256",
              "name": "capacityAmount",
              "type": "uint256"
            },
            {
              "internalType": "uint256",
              "name": "coverValues",
              "type": "uint256"
            },
            {
              "internalType": "uint256",
              "name": "maxAmount",
              "type": "uint256"
            },
            {
              "internalType": "uint256",
              "name": "poolId",
              "type": "uint256"
            },
            {
              "internalType": "string",
              "name": "CID",
              "type": "string"
            },
            {
              "internalType": "enum CoverLib.AssetDepositType",
              "name": "adt",
              "type": "uint8"
            },
            {
              "internalType": "address",
              "name": "asset",
              "type": "address"
            }
          ],
          "internalType": "struct CoverLib.Cover",
          "name": "",
          "type": "tuple"
        }
      ],
      "stateMutability": "view",
      "type": "function"
    },
    {
      "inputs": [
        {
          "internalType": "address",
          "name": "user",
          "type": "address"
        },
        {
          "internalType": "uint256",
          "name": "_poolId",
          "type": "uint256"
        }
      ],
      "name": "getDepositClaimableDays",
      "outputs": [
        {
          "internalType": "uint256",
          "name": "",
          "type": "uint256"
        }
      ],
      "stateMutability": "view",
      "type": "function"
    },
    {
      "inputs": [
        {
          "internalType": "address",
          "name": "user",
          "type": "address"
        },
        {
          "internalType": "uint256",
          "name": "_poolId",
          "type": "uint256"
        }
      ],
      "name": "getLastClaimTime",
      "outputs": [
        {
          "internalType": "uint256",
          "name": "",
          "type": "uint256"
        }
      ],
      "stateMutability": "view",
      "type": "function"
    },
    {
      "inputs": [
        {
          "internalType": "address",
          "name": "user",
          "type": "address"
        },
        {
          "internalType": "uint256",
          "name": "_coverId",
          "type": "uint256"
        }
      ],
      "name": "getUserCoverInfo",
      "outputs": [
        {
          "components": [
            {
              "internalType": "address",
              "name": "user",
              "type": "address"
            },
            {
              "internalType": "uint256",
              "name": "coverId",
              "type": "uint256"
            },
            {
              "internalType": "enum CoverLib.RiskType",
              "name": "riskType",
              "type": "uint8"
            },
            {
              "internalType": "string",
              "name": "coverName",
              "type": "string"
            },
            {
              "internalType": "uint256",
              "name": "coverValue",
              "type": "uint256"
            },
            {
              "internalType": "uint256",
              "name": "claimPaid",
              "type": "uint256"
            },
            {
              "internalType": "uint256",
              "name": "coverPeriod",
              "type": "uint256"
            },
            {
              "internalType": "uint256",
              "name": "endDay",
              "type": "uint256"
            },
            {
              "internalType": "bool",
              "name": "isActive",
              "type": "bool"
            }
          ],
          "internalType": "struct CoverLib.GenericCoverInfo",
          "name": "",
          "type": "tuple"
        }
      ],
      "stateMutability": "view",
      "type": "function"
    },
    {
      "inputs": [
        {
          "internalType": "address",
          "name": "user",
          "type": "address"
        }
      ],
      "name": "getUserParticipation",
      "outputs": [
        {
          "internalType": "uint256",
          "name": "",
          "type": "uint256"
        }
      ],
      "stateMutability": "view",
      "type": "function"
    },
    {
      "inputs": [],
      "name": "governance",
      "outputs": [
        {
          "internalType": "address",
          "name": "",
          "type": "address"
        }
      ],
      "stateMutability": "view",
      "type": "function"
    },
    {
      "inputs": [],
      "name": "lpAddress",
      "outputs": [
        {
          "internalType": "address",
          "name": "",
          "type": "address"
        }
      ],
      "stateMutability": "view",
      "type": "function"
    },
    {
      "inputs": [],
      "name": "lpContract",
      "outputs": [
        {
          "internalType": "contract ILP",
          "name": "",
          "type": "address"
        }
      ],
      "stateMutability": "view",
      "type": "function"
    },
    {
      "inputs": [],
      "name": "owner",
      "outputs": [
        {
          "internalType": "address",
          "name": "",
          "type": "address"
        }
      ],
      "stateMutability": "view",
      "type": "function"
    },
    {
      "inputs": [
        {
          "internalType": "uint256",
          "name": "",
          "type": "uint256"
        }
      ],
      "name": "participants",
      "outputs": [
        {
          "internalType": "address",
          "name": "",
          "type": "address"
        }
      ],
      "stateMutability": "view",
      "type": "function"
    },
    {
      "inputs": [
        {
          "internalType": "address",
          "name": "",
          "type": "address"
        }
      ],
      "name": "participation",
      "outputs": [
        {
          "internalType": "uint256",
          "name": "",
          "type": "uint256"
        }
      ],
      "stateMutability": "view",
      "type": "function"
    },
    {
      "inputs": [
        {
          "internalType": "uint256",
          "name": "_coverId",
          "type": "uint256"
        },
        {
          "internalType": "uint256",
          "name": "_coverValue",
          "type": "uint256"
        },
        {
          "internalType": "uint256",
          "name": "_coverPeriod",
          "type": "uint256"
        },
        {
          "internalType": "uint256",
          "name": "_coverFee",
          "type": "uint256"
        }
      ],
      "name": "purchaseCover",
      "outputs": [],
      "stateMutability": "payable",
      "type": "function"
    },
    {
      "inputs": [],
      "name": "renounceOwnership",
      "outputs": [],
      "stateMutability": "nonpayable",
      "type": "function"
    },
    {
      "inputs": [
        {
          "internalType": "address",
          "name": "newOwner",
          "type": "address"
        }
      ],
      "name": "transferOwnership",
      "outputs": [],
      "stateMutability": "nonpayable",
      "type": "function"
    },
    {
      "inputs": [
        {
          "internalType": "uint256",
          "name": "_coverId",
          "type": "uint256"
        },
        {
          "internalType": "string",
          "name": "_coverName",
          "type": "string"
        },
        {
          "internalType": "enum CoverLib.RiskType",
          "name": "_riskType",
          "type": "uint8"
        },
        {
          "internalType": "string",
          "name": "_cid",
          "type": "string"
        },
        {
          "internalType": "string",
          "name": "_chains",
          "type": "string"
        },
        {
          "internalType": "uint256",
          "name": "_capacity",
          "type": "uint256"
        },
        {
          "internalType": "uint256",
          "name": "_cost",
          "type": "uint256"
        },
        {
          "internalType": "uint256",
          "name": "_poolId",
          "type": "uint256"
        }
      ],
      "name": "updateCover",
      "outputs": [],
      "stateMutability": "nonpayable",
      "type": "function"
    },
    {
      "inputs": [
        {
          "internalType": "uint256",
          "name": "_coverId",
          "type": "uint256"
        }
      ],
      "name": "updateMaxAmount",
      "outputs": [],
      "stateMutability": "nonpayable",
      "type": "function"
    },
    {
      "inputs": [
        {
          "internalType": "address",
          "name": "user",
          "type": "address"
        },
        {
          "internalType": "uint256",
          "name": "_coverId",
          "type": "uint256"
        },
        {
          "internalType": "uint256",
          "name": "_claimPaid",
          "type": "uint256"
        }
      ],
      "name": "updateUserCoverValue",
      "outputs": [],
      "stateMutability": "nonpayable",
      "type": "function"
    },
    {
      "inputs": [
        {
          "internalType": "address",
          "name": "",
          "type": "address"
        },
        {
          "internalType": "uint256",
          "name": "",
          "type": "uint256"
        }
      ],
      "name": "userCovers",
      "outputs": [
        {
          "internalType": "address",
          "name": "user",
          "type": "address"
        },
        {
          "internalType": "uint256",
          "name": "coverId",
          "type": "uint256"
        },
        {
          "internalType": "enum CoverLib.RiskType",
          "name": "riskType",
          "type": "uint8"
        },
        {
          "internalType": "string",
          "name": "coverName",
          "type": "string"
        },
        {
          "internalType": "uint256",
          "name": "coverValue",
          "type": "uint256"
        },
        {
          "internalType": "uint256",
          "name": "claimPaid",
          "type": "uint256"
        },
        {
          "internalType": "uint256",
          "name": "coverPeriod",
          "type": "uint256"
        },
        {
          "internalType": "uint256",
          "name": "endDay",
          "type": "uint256"
        },
        {
          "internalType": "bool",
          "name": "isActive",
          "type": "bool"
        }
      ],
      "stateMutability": "view",
      "type": "function"
    },
    {
      "inputs": [],
      "name": "vaultAddress",
      "outputs": [
        {
          "internalType": "address",
          "name": "",
          "type": "address"
        }
      ],
      "stateMutability": "view",
      "type": "function"
    },
    {
      "inputs": [],
      "name": "vaultContract",
      "outputs": [
        {
          "internalType": "contract IVault",
          "name": "",
          "type": "address"
        }
      ],
      "stateMutability": "view",
      "type": "function"
    }
  ],
  "bytecode": "0x60803461016957601f613dbe38819003918201601f19168301916001600160401b0383118484101761016e5780849260a0946040528339810103126101695761004781610184565b9061005460208201610184565b9061006160408201610184565b9161007a608061007360608501610184565b9301610184565b60016000556001600160a01b0390931693841561015357600180546001600160a01b03198116871790915560405195906001600160a01b03167f8be0079c531659141344cd1fd0a4f28419497f9722a3daafe3b4186f6b6457e0600080a3600380546001600160a01b039283166001600160a01b0319918216811790925560058054948416948216851790556009805482169094179093556007805484169091179055600480549382169383168417905560068054831690931790925560088054939092169216919091179055613c2590816101998239f35b631e4fbdf760e01b600052600060045260246000fd5b600080fd5b634e487b7160e01b600052604160045260246000fd5b51906001600160a01b03821682036101695756fe608080604052600436101561001357600080fd5b600090813560e01c9081630db981a014613063575080631052581414611e64578063106b5da114612f1c578063195ec9ee14612e545780632274346b14612e2b5780632d8a340c14612b8057806334808ec314612b57578063357917b7146124ef57806335c1d34914612b13578063430bf08a14612aea57806346f847951461133b5780635aa6e67514612ac1578063602710a41461250d578063609c7604146124ef57806362858bfa146123d55780636299df6c1461228d578063649718b214612060578063715018a61461200357806373cce3ee14611ed6578063782ea61914611ea75780637a728e7f14611e645780637ceb4a6914611dcc5780638acee3cf14611da35780638da5cb5b14611d7a5780638de4d101146115c757806393b1ad381461137457806396f3a8ad1461133b5780639732bdb514610b68578063996b8a6f14610b3f5780639b4dc8cc14610b165780639e7b399e14610a39578063a650c232146104c4578063bfc664f314610386578063cadcb4711461029b578063f2fde38b14610212578063fb643583146101d85763feb0b8f5146101b857600080fd5b346101d557806003193601126101d5576020601154604051908152f35b80fd5b50346101d55760203660031901126101d557600435906012548210156101d5576020610203836130ea565b90549060031b1c604051908152f35b50346101d55760203660031901126101d55761022c6130a3565b610234613bc6565b6001600160a01b0316801561028757600180546001600160a01b0319811683179091556001600160a01b03167f8be0079c531659141344cd1fd0a4f28419497f9722a3daafe3b4186f6b6457e08380a380f35b631e4fbdf760e01b82526004829052602482fd5b50346101d55760403660031901126101d5576040610382916102bb6130a3565b6102c3613976565b5060018060a01b03168152600f60205281812060243582526020522060ff6008604051926102f084613300565b80546001600160a01b0316845260018101546020850152600281015461031b908416604086016138b3565b6040516103368161032f816003860161327d565b038261334e565b606085015260048101546080850152600581015460a0850152600681015460c0850152600781015460e0850152015416151561010082015260405191829160208352602083019061336f565b0390f35b50346101d55760203660031901126101d5576103a06130a3565b6103a8613ba4565b6001600160a01b031660015b6012548110156104bc57806103ca6001926130ea565b90549060031b1c838552600f6020526040852081865260205260408520600881019081549060ff821690816104ae575b50610409575b505050016103b4565b60ff19169055838552600f6020526040852090855260205283600860408220828155828582015582600282015582600382016104458154613243565b8061046e575b505060048201558260058201558260068201558260078201550155388080610400565b601f811188146104835750555b82388061044b565b8183526020832061049e91601f0160051c81019089016138d7565b808252816020812091555561047b565b6007915001544211386103fa565b826001815580f35b50346101d55760203660031901126101d5576004356104e1613ba4565b600354604051634122bbb360e11b815260048101839052336024820152908390829060449082906001600160a01b03165afa908115610a2e578391610991575b508290338452600e6020526040842083855260205260408420541560001461096f5761012c61057260c0610554846139ba565b5101515b4260e0610564866139ba565b510151421161095b5761370b565b049380925b82518410156105ac576105a460019161059e88606061059689896139c7565b5101516136e2565b906138a6565b930192610577565b600554604051632500ed8d60e21b8152600481018790528692918490829060249082906001600160a01b03165afa9081156107475784916107d4575b5060c08101600181516105fa81613170565b61060381613170565b036107c65760e08201516040516370a0823160e01b81523060048201529190602090839060249082906001600160a01b03165afa9182156107bb578692610780575b506106556001925b85111561379a565b338652600e602052604086208587526020524260408720555161067781613170565b61068081613170565b036107525760e0015160405163a9059cbb60e01b8152336004820152602481018390529060209082906001600160a01b0316818781604481015b03925af18015610747578490610708575b6106d59150613862565b6040519081527f0408e6e0b73daf4c873106e95fd067260fbff8bf9d1b499cad563d4480d45bac60203392a36001815580f35b506020813d60201161073f575b816107226020938361334e565b8101031261073b576107366106d591613557565b6106cb565b8380fd5b3d9150610715565b6040513d86823e3d90fd5b5061076c8380808085335af16107666137e6565b50613816565b6107788160025461370b565b6002556106d5565b91506020823d6020116107b3575b8161079b6020938361334e565b810103126107ae57905190610655610645565b600080fd5b3d915061078e565b6040513d88823e3d90fd5b60019061065560025461064d565b90503d8085833e6107e5818361334e565b810190602081830312610957578051906001600160401b038211610906570161010081830312610957576040519161010083018381106001600160401b03821117610943576040528151835260208201516001600160401b03811161093f5781610850918401613512565b602084015260408201516001600160401b03811161093f5782019080601f8301121561093f578151916108828361395f565b92610890604051948561334e565b80845260208085019160051b8301019183831161093b5760208101915b83831061090a5750505050506040830152606081015160608301526080810151608083015260a081015160a083015260c081015160028110156109065760c08301526108fb9060e001613564565b60e0820152846105e8565b8580fd5b82516001600160401b0381116109375760209161092c87848094870101613578565b8152019201916108ad565b8b80fd5b8980fd5b8680fd5b634e487b7160e01b87526041600452602487fd5b8480fd5b5060e0610967856139ba565b51015161370b565b338452600e6020526040842083855260205261012c6105726040862054610558565b90503d8084833e6109a2818361334e565b81019060208183031261073b578051906001600160401b038211610957570181601f8201121561073b5780516109d78161395f565b926109e5604051948561334e565b818452602061012081860193028401019281841161093f57602001915b838310610a13575050505038610521565b602061012091610a238486613718565b815201920191610a02565b6040513d85823e3d90fd5b50346101d55760403660031901126101d5576040906001600160a01b03610a5e6130a3565b168152600f60205281812060243582526020522060018060a01b0381541660018201549160ff60028201541660405191610aa683610a9f816003850161327d565b038461334e565b6004810154926005820154610af5600684015492610ae260ff6008600788015497015416966040519a8b9a8b5260208b015260408a019061314d565b6101206060890152610120880190613128565b94608087015260a086015260c085015260e084015215156101008301520390f35b50346101d557806003193601126101d5576007546040516001600160a01b039091168152602090f35b50346101d557806003193601126101d5576006546040516001600160a01b039091168152602090f35b50346101d557610b773661344c565b610b88989793949698959295613bc6565b6003546040516307eb111f60e41b8152600481018390526001600160a01b0390911696909589876024818b5afa968715611330578a9761130c575b5096996020890197908a5b8851811015610c54576020610be3828b6139c7565b510151604051610c1460208281610c038183019687815193849201613105565b81010301601f19810183528261334e565b5190208a8c610c3560206040518093610c0383830196879251928391613105565b51902014610c4557600101610bce565b633480a50360e21b8c5260048cfd5b508a9850899697508b6040519163068bcd8d60e01b83528560048401528a83602481855afa928315611301578b936112dd575b50606083015160038110156112c95760038910156112c95788148015906112bb575b6112ac576064610cbd8660c08601516136e2565b048b61020060018060a01b036101e08701511695015193610cdd85613170565b803b156112a85781809160448b604051948593849263a4948d8560e01b845260048401528d60248401525af1801561105157611293575b5050610d21601154613950565b60115560405197610d3189613332565b8b895260208901968b885260408a0196610d4b8c896138b3565b60608b015260808a015260a08901528060c08901528b60e089015261010088015285610120880152610140870152610d8281613170565b6101608601526101808501528688526010602052604088209184518355518051906001600160401b03821161110957610dbe6001850154613243565b601f8111611260575b50602090601f83116001146111f757610df892918b91836111ec575b50508160011b916000199060031b1c19161790565b60018301555b5160038110156111d857610e1590600283016138bf565b60608301518051906001600160401b0382116111c457610e386003840154613243565b601f8111611191575b50602090601f831160011461112857610e7192918a918361111d5750508160011b916000199060031b1c19161790565b60038201555b6080830151600482015560a0830151600582015560c0830151600682015560e0830151600782015561010083015160088201556101208301516009820155600a81016101408401518051906001600160401b03821161110957610eda8354613243565b601f81116110ce575b50602090601f8311600114611067579180610f1892600b9695948d9261105c5750508160011b916000199060031b1c19161790565b90555b01610160830151610f2b81613170565b610f3481613170565b815460ff610100600160a81b0361018087015160081b169216906affffffffffffffffffffff60a81b1617179055601254600160401b8110156109435790610f84826001899594016012556130ea565b8154600391821b89811b60001990911b1990911617909155546001600160a01b031691823b1561073b57610fde92849283604051809681958294630922950f60e31b8452600484015260406024840152604483019061317a565b03925af180156110515761103c575b5091837f5928d65cc6ae9f07a7673f1a5a2f98d81f1bb0c2bc53bcaa33d6f11cf426f25e9352600c60205260408520600160ff1982541617905561103660405192839283613b81565b0390a280f35b816110469161334e565b61073b578385610fed565b6040513d84823e3d90fd5b015190508c80610de3565b838b52818b209190601f1984168c5b8181106110b65750916001939185600b989796941061109d575b505050811b019055610f1b565b015160001960f88460031b161c191690558b8080611090565b92936020600181928786015181550195019301611076565b6110f990848c5260208c20601f850160051c810191602086106110ff575b601f0160051c01906138d7565b8a610ee3565b90915081906110ec565b634e487b7160e01b8a52604160045260248afd5b015190508a80610de3565b600384018a52818a209190601f1984168b5b8181106111795750908460019594939210611160575b505050811b016003820155610e77565b015160001960f88460031b161c19169055898080611150565b9293602060018192878601518155019501930161113a565b6111be90600385018b5260208b20601f850160051c810191602086106110ff57601f0160051c01906138d7565b89610e41565b634e487b7160e01b89526041600452602489fd5b634e487b7160e01b88526021600452602488fd5b015190508b80610de3565b600185018b52818b209190601f1984168c5b818110611248575090846001959493921061122f575b505050811b016001830155610dfe565b015160001960f88460031b161c191690558a808061121f565b92936020600181928786015181550195019301611209565b61128d90600186018c5260208c20601f850160051c810191602086106110ff57601f0160051c01906138d7565b8a610dc7565b8161129d9161334e565b610937578b8d610d14565b5080fd5b6369e489f560e11b8b5260048bfd5b506101808301518511610ca9565b634e487b7160e01b8c52602160045260248cfd5b6112fa9193503d808d833e6112f2818361334e565b8101906136bd565b918b610c87565b6040513d8d823e3d90fd5b6113299197503d808c833e611321818361334e565b8101906139db565b9538610bc3565b6040513d8c823e3d90fd5b50346101d55760203660031901126101d5576020906040906001600160a01b036113636130a3565b168152600b83522054604051908152f35b50346101d557806003193601126101d5578081601254905b818110611587575061139d8261395f565b916113ab604051938461334e565b8083526113ba601f199161395f565b01835b81811061157057505082835b8281106114375783856040519182916020830160208452825180915260408401602060408360051b870101940192905b82821061140857505050500390f35b919360019193955060206114278192603f198a8203018652885161317a565b96019201920185949391926113f9565b611440816130ea565b90549060031b1c808652600c60205260ff604087205416611465575b506001016113c9565b60019192611569918752601060205260408720600b6040519161148783613332565b8054835260405161149e8161032f818a860161327d565b60208401526114b760ff600283015416604085016138b3565b6040516114cb8161032f816003860161327d565b606084015260048101546080840152600581015460a0840152600681015460c0840152600781015460e0840152600881015461010084015260098101546101208401526040516115228161032f81600a860161327d565b610140840152015460ff811661153781613170565b610160830152848060a01b039060081c1661018082015261155882886139c7565b5261156381876139c7565b50613950565b919061145c565b60209061157b6138ee565b828287010152016113bd565b611590816130ea565b90549060031b1c8452600c60205260ff6040852054166115b3575b60010161138c565b916115bf600191613950565b9290506115ab565b50346101d55760246115d83661344c565b6115ea99979695929891949399613bc6565b60018060a01b036003541699888b6040519485809263068bcd8d60e01b82528660048301525afa928315611d6f578993611d53575b5060608301516003811015611d3f576003851015611d3f578414801590611d31575b611d2257878952601060205260646116618b60c060408d209601516136e2565b04998a600785015411611d13578960249a9b9c6040519b8c80926307eb111f60e41b82528760048301525afa998a15611301578b9a611cf7575b50959a6020880196908b5b8b51811015611740578b8b828c8c60206116c084876139c7565b5101516040516116e060208281610c038183019687815193849201613105565b5190209161170060206040518093610c0383830196879251928391613105565b519020149283611729575b50505061171a576001016116a6565b633480a50360e21b8d5260048dfd5b6117349293506139c7565b515114158b828e61170b565b508b98969997508c60048601549388516001600160401b038111611c3d578b61176c60018a0154613243565b601f8111611cc4575b505060208c601f8311600114611c5c576117a4929182611c51575b508160011b916000199060031b1c19161790565b60018801555b80516001600160401b038111611c3d578b6117c860038a0154613243565b601f8111611c0a575b505060208c601f8311600114611ba157906118009383611af05750508160011b916000199060031b1c19161790565b60038701555b826004870155600586015589516001600160401b03811161110957899a611835600a889c999a9b9c0154613243565b601f8111611b6e575b50602090601f8311600114611afb5791806118739261189095948b92611af05750508160011b916000199060031b1c19161790565b600a8701555b80600687015584600987015560078601549061370b565b600885015580821115611a67576118a69161370b565b6003546001600160a01b031690813b15610957578491604483926040519485938492639fd36b1560e01b845288600485015260248401525af1908115610747578491611a4e575b50505b6003546001600160a01b031691823b1561073b5783928392604051948580948193630eb4c14960e11b8352600483015260406024830152805460448301526101a06064830152600b6119cf61197961194f6101e486016001860161327d565b61196460ff600287015416608488019061314d565b8581036043190160a48701526003850161327d565b600484015460c4860152600584015460e4860152600684015461010486015260078401546101248601526008840154610144860152600984015461016486015284810360431901610184860152600a840161327d565b91015460ff81166119df81613170565b6101a484015260081c6001600160a01b03166101c483015203925af1801561105157611a39575b50507f758a67328ba53c1867c0272bbd2ca10d6fe71d37120188c523fe7ae7bdbbe4699161103660405192839283613b81565b81611a439161334e565b61073b578385611a06565b81611a589161334e565b611a635782886118ed565b8280fd5b808210611a76575b50506118f0565b90611a84919492939461370b565b6003546001600160a01b0316803b15611a635760448392604051948593849263a4948d8560e01b845288600485015260248401525af18015611ae557611acf575b9081879392611a6f565b86611add919792939761334e565b949086611ac5565b6040513d89823e3d90fd5b015190508e80610de3565b90600a8801895280892091895b601f1985168110611b5357509183916001936118909695601f19811610611b3a575b505050811b01600a870155611879565b015160001960f88460031b161c191690558d8080611b2a565b8183015184558e9a5060019093019260209283019201611b08565b611b9b90600a89018a5260208a20601f850160051c810191602086106110ff57601f0160051c01906138d7565b8c61183e565b9192601f19841660038b018452828420935b818110611bf25750908460019594939210611bd9575b505050811b016003870155611806565b015160001960f88460031b161c191690558d8080611bc9565b92936020600181928786015181550195019301611bb3565b6020611c369260038c01815220601f840160051c810191602085106110ff57601f0160051c01906138d7565b8b8e6117d1565b634e487b7160e01b8c52604160045260248cfd5b90508b01518f611790565b90601f19831660018b018352818320925b8d828210611cac5750509083600194939210611c93575b5050811b0160018801556117aa565b8c015160001960f88460031b161c191690558e80611c84565b60018495602093958493015181550194019201611c6d565b6020611cf09260018c01815220601f840160051c810191602085106110ff57601f0160051c01906138d7565b8b8e611775565b611d0c919a503d808d833e611321818361334e565b983861169b565b6369e489f560e11b8a5260048afd5b6369e489f560e11b8952600489fd5b506101808301518a11611641565b634e487b7160e01b8a52602160045260248afd5b611d689193503d808b833e6112f2818361334e565b913861161f565b6040513d8b823e3d90fd5b50346101d557806003193601126101d5576001546040516001600160a01b039091168152602090f35b50346101d557806003193601126101d5576003546040516001600160a01b039091168152602090f35b50346101d55760603660031901126101d557611de66130a3565b60243560443591611e0260018060a01b036008541633146134d5565b611e0a613ba4565b60018060a01b0316808452600f6020526040842082855260205260046040852001611e3684825461370b565b90558352600f60205260408320908352602052611e5b600560408420019182546138a6565b90556001815580f35b50346101d55760403660031901126101d5576020906040906001600160a01b03611e8c6130a3565b168152600d8352818120602435825283522054604051908152f35b50346101d55760203660031901126101d55760ff60406020926004358152600c84522054166040519015158152f35b50346101d55760403660031901126101d557611ef06130a3565b600354604051631381549160e21b815260248035600483018190526001600160a01b0385811692840192909252919391926101209185916044918391165afa928315610747578493611fb7575b506001600160a01b0316808452600d602090815260408086208487528252852054909461012c94611f8d94909392611f9e5750505060c0810151905b60e042910151804211611f96575b5061370b565b04604051908152f35b905038611f87565b6040928252600d87528282209082528652205490611f79565b9092506101203d8111611ffc575b611fcf818361334e565b810190610120818303126109575791602094611ff261012c9593611f8d95613718565b9450945091611f3d565b503d611fc5565b50346101d557806003193601126101d55761201c613bc6565b600180546001600160a01b0319811690915581906001600160a01b03167f8be0079c531659141344cd1fd0a4f28419497f9722a3daafe3b4186f6b6457e08280a380f35b50346101d55760203660031901126101d55761207a6130a3565b60125482916001600160a01b0316825b828110612242575061209b8361395f565b926120a9604051948561334e565b8084526120b8601f199161395f565b01845b81811061222b57505083845b8381106121355784866040519182916020830160208452825180915260408401602060408360051b870101940192905b82821061210657505050500390f35b919360019193955060206121258192603f198a8203018652885161336f565b96019201920185949391926120f7565b61213e816130ea565b90549060031b1c838752600f60205260408720818852602052600460408820015461216d575b506001016120c7565b6001919261222491858952600f602052604089209089526020526040882060ff60086040519261219c84613300565b868060a01b0381541684528681015460208501526121c383600283015416604086016138b3565b6040516121d78161032f816003860161327d565b606085015260048101546080850152600581015460a0850152600681015460c0850152600781015460e0850152015416151561010082015261221982896139c7565b5261156381886139c7565b9190612164565b602090612236613976565b828288010152016120bb565b61224b816130ea565b90549060031b1c828652600f602052604086209086526020526004604086200154612279575b60010161208a565b92612285600191613950565b939050612271565b50346101d55760203660031901126101d5576004358152601060205260409020805460405191828060018301906122c39161327d565b036122ce908461334e565b600281015460405160ff90911691816122ea816003840161327d565b036122f5908361334e565b6004810154600582015460068301546007840154600885015491600986015493604051968780600a8301906123299161327d565b03612334908961334e565b600b01549760ff8916996040519c8d9c8d5260208d016101a090526101a08d0161235d91613128565b9060408d0161236b9161314d565b8b810360608d015261237c91613128565b9560808b015260a08a015260c089015260e08801526101008701526101208601528481036101408601526123af91613128565b916123b981613170565b61016084015260081c6001600160a01b03166101808301520390f35b50346101d55760203660031901126101d5576040610382916123f56138ee565b506004358152601060205220600b6040519161241083613332565b805483526040516124288161032f816001860161327d565b602084015261244160ff600283015416604085016138b3565b6040516124558161032f816003860161327d565b606084015260048101546080840152600581015460a0840152600681015460c0840152600781015460e0840152600881015461010084015260098101546101208401526040516124ac8161032f81600a860161327d565b610140840152015460ff81166124c181613170565b61016083015260081c6001600160a01b0316610180820152604051602080825290928392909183019061317a565b50346101d557806003193601126101d5576020600254604051908152f35b5060803660031901126101d557604435600435612528613ba4565b60643515612ab257601b8211801590612aa6575b612a9757808352600c60205260ff60408420541615612a88578083526010602052604083209160088301805460243511612a79576007840161258160243582546138a6565b6006860180548211612a6a5787600b8801600160ff8254166125a281613170565b03612a0257546040516323b872dd60e01b81523360048201523060248201526064803560448301529092602092849291839160081c6001600160a01b03165af1908115611d6f5789916129b9575b5061260b936125ff8492613862565b5554611f87828261370b565b9055338452600f602052604084208285526020526004604085200154156000146129aa5760ff600284015416906201518081028181046201518014821517156129965761265890426138a6565b6040519361266585613300565b338552602085019381855261267e6040870191826138b3565b6040519061269a826126938160018c0161327d565b038361334e565b606087019182526080870192602435845260a08801948a865260c0890196875260e08901526001610100890152338a52600f60205260408a20908a52602052604089209560018060a01b038851166bffffffffffffffffffffffff60a01b8854161787555160018701555160038110156129825761271b90600287016138bf565b518051906001600160401b0382116111c45761273a6003870154613243565b601f811161294f575b50602090601f83116001146128da5782610100979593600897959361277d938d926128cf5750508160011b916000199060031b1c19161790565b60038501555b51600484015551600583015551600682015560e0840151600782015501910151151560ff80198354169116179055818290600a54915b82811061289c575b501561284a575b50338252600b60205260408220805490600182018092116128365755600201546040805160243581526064356020820152916128099183019060ff1661314d565b7f23b0f39e0762759ffb18632a1a2b79c9eb58571454e5f7c36e0a2f81759e0a3460603392a26001815580f35b634e487b7160e01b84526011600452602484fd5b600160401b811015612888578060016128669201600a556130b9565b81546001600160a01b0360039290921b91821b19163390911b179055386127c8565b634e487b7160e01b83526041600452602483fd5b6128a5816130b9565b905460039190911b1c6001600160a01b031633146128c5576001016127b9565b50506001386127c1565b015190503880610de3565b90600387018a52808a20918a5b601f1985168110612937575092600896949260019261010099979583601f1981161061291e575b505050811b016003850155612783565b015160001960f88460031b161c1916905538808061290e565b919260206001819286850151815501940192016128e7565b61297c90600388018b5260208b20601f850160051c810191602086106110ff57601f0160051c01906138d7565b38612743565b634e487b7160e01b89526021600452602489fd5b634e487b7160e01b86526011600452602486fd5b639857cbd960e01b8452600484fd5b90506020813d6020116129fa575b816129d46020938361334e565b810103126129f65761260b936125ff6129ed8593613557565b925050936125f0565b8880fd5b3d91506129c7565b50503415612a25578161260b93612a1d6064356002546138a6565b6002556125ff565b60405162461bcd60e51b815260206004820152601a60248201527f436f7665722076616c75652063616e6e6f74206265207a65726f0000000000006044820152606490fd5b63bc6072f160e01b8852600488fd5b63bc6072f160e01b8552600485fd5b63bccd404360e01b8352600483fd5b631f89958960e11b8352600483fd5b5061016e82101561253c565b63162908e360e11b8352600483fd5b50346101d557806003193601126101d5576008546040516001600160a01b039091168152602090f35b50346101d557806003193601126101d5576009546040516001600160a01b039091168152602090f35b50346101d55760203660031901126101d55760043590600a548210156101d5576020612b3e836130b9565b905460405160039290921b1c6001600160a01b03168152f35b50346101d557806003193601126101d5576004546040516001600160a01b039091168152602090f35b50346101d55760203660031901126101d557600435612b9d613ba4565b600354604051631381549160e21b8152600481018390523360248201526001600160a01b039091169061012081604481855afa908115610747578491612df1575b506080810151612bed81613170565b612bf681613170565b612de257338452600d60205260408420838552602052604084205415600014612dbf5762015180612c3960c08301515b4260e0850151804211611f96575061370b565b04908115612db057612c526024926060879301516136e2565b926040519283809263068bcd8d60e01b82528760048301525afa908115610747578491612d96575b50610200810160018151612c8d81613170565b612c9681613170565b03612d88576101e08201516040516370a0823160e01b81523060048201529190602090839060249082906001600160a01b03165afa9182156107bb578692612d52575b50612ce860019285111561379a565b338652600d6020526040862085875260205242604087205551612d0a81613170565b612d1381613170565b03610752576101e0015160405163a9059cbb60e01b8152336004820152602481018390529060209082906001600160a01b0316818781604481016106ba565b91506020823d602011612d80575b81612d6d6020938361334e565b8101031261090657905190612ce8612cd9565b3d9150612d60565b600190612ce860025461064d565b612daa91503d8086833e6112f2818361334e565b38612c7a565b63ed700a6760e01b8552600485fd5b338452600d6020526040842083855260205262015180612c396040862054612c26565b63e067835f60e01b8452600484fd5b90506101203d8111612e24575b612e08818361334e565b81016101208282031261095757612e1e91613718565b38612bde565b503d612dfe565b50346101d557806003193601126101d5576005546040516001600160a01b039091168152602090f35b50346101d557806003193601126101d557604051806020600a5491828152018091600a85527fc65a7bb8d6351c1cf70c95a316cc6a92839c986682d98bc35f958f4883f9d2a890855b818110612efd5750505082612eb391038361334e565b604051928392602084019060208552518091526040840192915b818110612edb575050500390f35b82516001600160a01b0316845285945060209384019390920191600101612ecd565b82546001600160a01b0316845260209093019260019283019201612e9d565b50346101d55760203660031901126101d557600435612f4660018060a01b036007541633146134d5565b612f4e613ba4565b808252601060205260408083206003546009820154925163068bcd8d60e01b815260048101939093528490839060249082906001600160a01b03165afa918215610747578492613044575b50600401549081156130065760649160c0612fb59201516136e2565b04818352601060205260066040842001558082526010602052612fef6006604084200154828452601060205260076040852001549061370b565b908252601060205260086040832001556001815580f35b60405162461bcd60e51b8152602060048201526016602482015275496e76616c696420636f76657220636170616369747960501b6044820152606490fd5b600491925061305c903d8087833e6112f2818361334e565b9190612f99565b9050346112a85760403660031901126112a8576020916040906001600160a01b0361308c6130a3565b168152600e84528181206024358252845220548152f35b600435906001600160a01b03821682036107ae57565b600a548110156130d457600a60005260206000200190600090565b634e487b7160e01b600052603260045260246000fd5b6012548110156130d457601260005260206000200190600090565b60005b8381106131185750506000910152565b8181015183820152602001613108565b9060209161314181518092818552858086019101613105565b601f01601f1916010190565b90600382101561315a5752565b634e487b7160e01b600052602160045260246000fd5b6002111561315a57565b908151815261018061321b6131c76131a360208601516101a060208701526101a0860190613128565b6131b56040870151604087019061314d565b60608601518582036060870152613128565b6080850151608085015260a085015160a085015260c085015160c085015260e085015160e0850152610100850151610100850152610120850151610120850152610140850151848203610140860152613128565b9261016081015161322b81613170565b6101608401528101516001600160a01b031691015290565b90600182811c92168015613273575b602083101461325d57565b634e487b7160e01b600052602260045260246000fd5b91607f1691613252565b6000929181549161328d83613243565b80835292600181169081156132e357506001146132a957505050565b60009081526020812093945091925b8383106132c9575060209250010190565b6001816020929493945483858701015201910191906132b8565b915050602093945060ff929192191683830152151560051b010190565b61012081019081106001600160401b0382111761331c57604052565b634e487b7160e01b600052604160045260246000fd5b6101a081019081106001600160401b0382111761331c57604052565b90601f801991011681019081106001600160401b0382111761331c57604052565b9060018060a01b038251168152602082015160208201526133986040830151604083019061314d565b610100806133b760608501516101206060860152610120850190613128565b936080810151608085015260a081015160a085015260c081015160c085015260e081015160e08501520151151591015290565b6001600160401b03811161331c57601f01601f191660200190565b81601f820112156107ae5780359061341c826133ea565b9261342a604051948561334e565b828452602083830101116107ae57816000926020809301838601378301015290565b6101006003198201126107ae57600435916024356001600160401b0381116107ae578261347b91600401613405565b9160443560038110156107ae57916064356001600160401b0381116107ae57826134a791600401613405565b91608435906001600160401b0382116107ae576134c691600401613405565b9060a4359060c4359060e43590565b156134dc57565b60405162461bcd60e51b815260206004820152600e60248201526d139bdd08185d5d1a1bdc9a5e995960921b6044820152606490fd5b81601f820112156107ae578051613528816133ea565b92613536604051948561334e565b818452602082840101116107ae576135549160208085019101613105565b90565b519081151582036107ae57565b51906001600160a01b03821682036107ae57565b919091610220818403126107ae576040519061022082018281106001600160401b0382111761331c5760405281938151835260208201516001600160401b0381116107ae57816135c9918401613512565b60208401526040820151906001600160401b0382116107ae576135ed918301613512565b6040830152606081015160038110156107ae5760608301526080810151608083015260a081015160a083015260c081015160c083015260e081015160e083015261010081015161010083015261012081015161012083015261014081015161014083015261365e6101608201613557565b6101608301526101808101516101808301526101a08101516101a08301526101c08101519060ff821682036107ae57610200916101c08401526136a46101e08201613564565b6101e084015201519060028210156107ae576102000152565b906020828203126107ae5781516001600160401b0381116107ae576135549201613578565b818102929181159184041417156136f557565b634e487b7160e01b600052601160045260246000fd5b919082039182116136f557565b9190826101209103126107ae5760405161373181613300565b809261373c81613564565b8252602081015160208301526040810151604083015260608101516060830152608081015160028110156107ae57610100918291608085015260a081015160a085015260c081015160c085015260e081015160e08501520151910152565b156137a157565b60405162461bcd60e51b815260206004820152601a60248201527f496e73756666696369656e7420636f7665722062616c616e63650000000000006044820152606490fd5b3d15613811573d906137f7826133ea565b91613805604051938461334e565b82523d6000602084013e565b606090565b1561381d57565b60405162461bcd60e51b815260206004820152601c60248201527f4e6174697665206173736574207472616e73666572206661696c6564000000006044820152606490fd5b1561386957565b60405162461bcd60e51b8152602060048201526015602482015274115490cc8c081d1c985b9cd9995c8819985a5b1959605a1b6044820152606490fd5b919082018092116136f557565b600382101561315a5752565b90600381101561315a5760ff80198354169116179055565b8181106138e2575050565b600081556001016138d7565b604051906138fb82613332565b600061018083828152606060208201528260408201526060808201528260808201528260a08201528260c08201528260e082015282610100820152826101208201526060610140820152826101608201520152565b60001981146136f55760010190565b6001600160401b03811161331c5760051b60200190565b6040519061398382613300565b6000610100838281528260208201528260408201526060808201528260808201528260a08201528260c08201528260e08201520152565b8051156130d45760200190565b80518210156130d45760209160051b010190565b6020818303126107ae578051906001600160401b0382116107ae570181601f820112156107ae57805190613a0e8261395f565b92613a1c604051948561334e565b82845260208085019360051b830101918183116107ae5760208101935b838510613a4857505050505090565b84516001600160401b0381116107ae578201906101a0828503601f1901126107ae5760405190613a7782613332565b6020830151825260408301516001600160401b0381116107ae57856020613aa092860101613512565b6020830152606083015160038110156107ae57604083015260808301516001600160401b0381116107ae57856020613ada92860101613512565b606083015260a0830151608083015260c083015160a083015260e083015160c083015261010083015160e08301526101208301516101008301526101408301516101208301526101608301516001600160401b0381116107ae57856020613b4392860101613512565b6101408301526101808301519160028310156107ae57613b706101a0602095869561016085015201613564565b610180820152815201940193613a39565b92916020613b9a613ba293604087526040870190613128565b94019061314d565b565b600260005414613bb5576002600055565b633ee5aeb560e01b60005260046000fd5b6001546001600160a01b03163303613bda57565b63118cdaa760e01b6000523360045260246000fdfea2646970667358221220df592a37909c44ab7df1b442342ab151483168fa8a2fae6ee88a522f87f5286264736f6c634300081c0033",
  "linkReferences": {},
  "deployedLinkReferences": {}
}