{
  "_format": "hh-sol-artifact-1",
  "contractName": "InsuranceCover",
  "sourceName": "contracts/InsuranceCover.sol",
  "abi": [
    {
      "inputs": [
        {
          "internalType": "address",
          "name": "_lpContract",
          "type": "address"
        },
        {
          "internalType": "address",
          "name": "_vaultContract",
          "type": "address"
        },
        {
          "internalType": "address",
          "name": "_initialOwner",
          "type": "address"
        },
        {
          "internalType": "address",
          "name": "_bqBTC",
          "type": "address"
        },
        {
          "internalType": "address",
          "name": "_gov",
          "type": "address"
        }
      ],
      "stateMutability": "nonpayable",
      "type": "constructor"
    },
    {
      "inputs": [],
      "name": "CoverNotAvailable",
      "type": "error"
    },
    {
      "inputs": [],
      "name": "InsufficientPoolBalance",
      "type": "error"
    },
    {
      "inputs": [],
      "name": "InvalidAmount",
      "type": "error"
    },
    {
      "inputs": [],
      "name": "InvalidCoverDuration",
      "type": "error"
    },
    {
      "inputs": [],
      "name": "LpNotActive",
      "type": "error"
    },
    {
      "inputs": [],
      "name": "NameAlreadyExists",
      "type": "error"
    },
    {
      "inputs": [],
      "name": "NoClaimableReward",
      "type": "error"
    },
    {
      "inputs": [
        {
          "internalType": "address",
          "name": "owner",
          "type": "address"
        }
      ],
      "name": "OwnableInvalidOwner",
      "type": "error"
    },
    {
      "inputs": [
        {
          "internalType": "address",
          "name": "account",
          "type": "address"
        }
      ],
      "name": "OwnableUnauthorizedAccount",
      "type": "error"
    },
    {
      "inputs": [],
      "name": "ReentrancyGuardReentrantCall",
      "type": "error"
    },
    {
      "inputs": [],
      "name": "UnsupportedCoverType",
      "type": "error"
    },
    {
      "inputs": [],
      "name": "UserHaveAlreadyPurchasedCover",
      "type": "error"
    },
    {
      "inputs": [],
      "name": "WrongPool",
      "type": "error"
    },
    {
      "anonymous": false,
      "inputs": [
        {
          "indexed": true,
          "internalType": "uint256",
          "name": "coverId",
          "type": "uint256"
        },
        {
          "indexed": false,
          "internalType": "string",
          "name": "name",
          "type": "string"
        },
        {
          "indexed": false,
          "internalType": "enum CoverLib.RiskType",
          "name": "riskType",
          "type": "uint8"
        }
      ],
      "name": "CoverCreated",
      "type": "event"
    },
    {
      "anonymous": false,
      "inputs": [
        {
          "indexed": true,
          "internalType": "address",
          "name": "user",
          "type": "address"
        },
        {
          "indexed": false,
          "internalType": "uint256",
          "name": "coverValue",
          "type": "uint256"
        },
        {
          "indexed": false,
          "internalType": "uint256",
          "name": "coverFee",
          "type": "uint256"
        },
        {
          "indexed": false,
          "internalType": "enum CoverLib.RiskType",
          "name": "riskType",
          "type": "uint8"
        }
      ],
      "name": "CoverPurchased",
      "type": "event"
    },
    {
      "anonymous": false,
      "inputs": [
        {
          "indexed": true,
          "internalType": "uint256",
          "name": "coverId",
          "type": "uint256"
        },
        {
          "indexed": false,
          "internalType": "string",
          "name": "coverName",
          "type": "string"
        },
        {
          "indexed": false,
          "internalType": "enum CoverLib.RiskType",
          "name": "riskType",
          "type": "uint8"
        }
      ],
      "name": "CoverUpdated",
      "type": "event"
    },
    {
      "anonymous": false,
      "inputs": [
        {
          "indexed": true,
          "internalType": "address",
          "name": "previousOwner",
          "type": "address"
        },
        {
          "indexed": true,
          "internalType": "address",
          "name": "newOwner",
          "type": "address"
        }
      ],
      "name": "OwnershipTransferred",
      "type": "event"
    },
    {
      "anonymous": false,
      "inputs": [
        {
          "indexed": true,
          "internalType": "address",
          "name": "user",
          "type": "address"
        },
        {
          "indexed": true,
          "internalType": "uint256",
          "name": "poolId",
          "type": "uint256"
        },
        {
          "indexed": false,
          "internalType": "uint256",
          "name": "amount",
          "type": "uint256"
        }
      ],
      "name": "PayoutClaimed",
      "type": "event"
    },
    {
      "inputs": [
        {
          "internalType": "address",
          "name": "",
          "type": "address"
        },
        {
          "internalType": "uint256",
          "name": "",
          "type": "uint256"
        }
      ],
      "name": "LastVaultClaimTime",
      "outputs": [
        {
          "internalType": "uint256",
          "name": "",
          "type": "uint256"
        }
      ],
      "stateMutability": "view",
      "type": "function"
    },
    {
      "inputs": [
        {
          "internalType": "address",
          "name": "",
          "type": "address"
        },
        {
          "internalType": "uint256",
          "name": "",
          "type": "uint256"
        }
      ],
      "name": "NextLpClaimTime",
      "outputs": [
        {
          "internalType": "uint256",
          "name": "",
          "type": "uint256"
        }
      ],
      "stateMutability": "view",
      "type": "function"
    },
    {
      "inputs": [],
      "name": "bqBTC",
      "outputs": [
        {
          "internalType": "contract IbqBTC",
          "name": "",
          "type": "address"
        }
      ],
      "stateMutability": "view",
      "type": "function"
    },
    {
      "inputs": [],
      "name": "bqBTCAddress",
      "outputs": [
        {
          "internalType": "address",
          "name": "",
          "type": "address"
        }
      ],
      "stateMutability": "view",
      "type": "function"
    },
    {
      "inputs": [
        {
          "internalType": "uint256",
          "name": "_poolId",
          "type": "uint256"
        }
      ],
      "name": "claimPayoutForLP",
      "outputs": [],
      "stateMutability": "nonpayable",
      "type": "function"
    },
    {
      "inputs": [
        {
          "internalType": "uint256",
          "name": "vaultId",
          "type": "uint256"
        }
      ],
      "name": "clamPayoutForVault",
      "outputs": [],
      "stateMutability": "nonpayable",
      "type": "function"
    },
    {
      "inputs": [],
      "name": "coverCount",
      "outputs": [
        {
          "internalType": "uint256",
          "name": "",
          "type": "uint256"
        }
      ],
      "stateMutability": "view",
      "type": "function"
    },
    {
      "inputs": [
        {
          "internalType": "uint256",
          "name": "",
          "type": "uint256"
        }
      ],
      "name": "coverExists",
      "outputs": [
        {
          "internalType": "bool",
          "name": "",
          "type": "bool"
        }
      ],
      "stateMutability": "view",
      "type": "function"
    },
    {
      "inputs": [],
      "name": "coverFeeBalance",
      "outputs": [
        {
          "internalType": "uint256",
          "name": "",
          "type": "uint256"
        }
      ],
      "stateMutability": "view",
      "type": "function"
    },
    {
      "inputs": [
        {
          "internalType": "uint256",
          "name": "",
          "type": "uint256"
        }
      ],
      "name": "coverIds",
      "outputs": [
        {
          "internalType": "uint256",
          "name": "",
          "type": "uint256"
        }
      ],
      "stateMutability": "view",
      "type": "function"
    },
    {
      "inputs": [
        {
          "internalType": "uint256",
          "name": "",
          "type": "uint256"
        }
      ],
      "name": "covers",
      "outputs": [
        {
          "internalType": "uint256",
          "name": "id",
          "type": "uint256"
        },
        {
          "internalType": "string",
          "name": "coverName",
          "type": "string"
        },
        {
          "internalType": "enum CoverLib.RiskType",
          "name": "riskType",
          "type": "uint8"
        },
        {
          "internalType": "string",
          "name": "chains",
          "type": "string"
        },
        {
          "internalType": "uint256",
          "name": "capacity",
          "type": "uint256"
        },
        {
          "internalType": "uint256",
          "name": "cost",
          "type": "uint256"
        },
        {
          "internalType": "uint256",
          "name": "capacityAmount",
          "type": "uint256"
        },
        {
          "internalType": "uint256",
          "name": "coverValues",
          "type": "uint256"
        },
        {
          "internalType": "uint256",
          "name": "maxAmount",
          "type": "uint256"
        },
        {
          "internalType": "uint256",
          "name": "poolId",
          "type": "uint256"
        },
        {
          "internalType": "string",
          "name": "CID",
          "type": "string"
        },
        {
          "internalType": "enum CoverLib.AssetDepositType",
          "name": "adt",
          "type": "uint8"
        },
        {
          "internalType": "address",
          "name": "asset",
          "type": "address"
        }
      ],
      "stateMutability": "view",
      "type": "function"
    },
    {
      "inputs": [
        {
          "internalType": "uint256",
          "name": "coverId",
          "type": "uint256"
        },
        {
          "internalType": "string",
          "name": "_cid",
          "type": "string"
        },
        {
          "internalType": "enum CoverLib.RiskType",
          "name": "_riskType",
          "type": "uint8"
        },
        {
          "internalType": "string",
          "name": "_coverName",
          "type": "string"
        },
        {
          "internalType": "string",
          "name": "_chains",
          "type": "string"
        },
        {
          "internalType": "uint256",
          "name": "_capacity",
          "type": "uint256"
        },
        {
          "internalType": "uint256",
          "name": "_cost",
          "type": "uint256"
        },
        {
          "internalType": "uint256",
          "name": "_poolId",
          "type": "uint256"
        }
      ],
      "name": "createCover",
      "outputs": [],
      "stateMutability": "nonpayable",
      "type": "function"
    },
    {
      "inputs": [
        {
          "internalType": "address",
          "name": "_user",
          "type": "address"
        }
      ],
      "name": "deleteExpiredUserCovers",
      "outputs": [],
      "stateMutability": "nonpayable",
      "type": "function"
    },
    {
      "inputs": [],
      "name": "getAllAvailableCovers",
      "outputs": [
        {
          "components": [
            {
              "internalType": "uint256",
              "name": "id",
              "type": "uint256"
            },
            {
              "internalType": "string",
              "name": "coverName",
              "type": "string"
            },
            {
              "internalType": "enum CoverLib.RiskType",
              "name": "riskType",
              "type": "uint8"
            },
            {
              "internalType": "string",
              "name": "chains",
              "type": "string"
            },
            {
              "internalType": "uint256",
              "name": "capacity",
              "type": "uint256"
            },
            {
              "internalType": "uint256",
              "name": "cost",
              "type": "uint256"
            },
            {
              "internalType": "uint256",
              "name": "capacityAmount",
              "type": "uint256"
            },
            {
              "internalType": "uint256",
              "name": "coverValues",
              "type": "uint256"
            },
            {
              "internalType": "uint256",
              "name": "maxAmount",
              "type": "uint256"
            },
            {
              "internalType": "uint256",
              "name": "poolId",
              "type": "uint256"
            },
            {
              "internalType": "string",
              "name": "CID",
              "type": "string"
            },
            {
              "internalType": "enum CoverLib.AssetDepositType",
              "name": "adt",
              "type": "uint8"
            },
            {
              "internalType": "address",
              "name": "asset",
              "type": "address"
            }
          ],
          "internalType": "struct CoverLib.Cover[]",
          "name": "",
          "type": "tuple[]"
        }
      ],
      "stateMutability": "view",
      "type": "function"
    },
    {
      "inputs": [],
      "name": "getAllParticipants",
      "outputs": [
        {
          "internalType": "address[]",
          "name": "",
          "type": "address[]"
        }
      ],
      "stateMutability": "view",
      "type": "function"
    },
    {
      "inputs": [
        {
          "internalType": "address",
          "name": "user",
          "type": "address"
        }
      ],
      "name": "getAllUserCovers",
      "outputs": [
        {
          "components": [
            {
              "internalType": "address",
              "name": "user",
              "type": "address"
            },
            {
              "internalType": "uint256",
              "name": "coverId",
              "type": "uint256"
            },
            {
              "internalType": "enum CoverLib.RiskType",
              "name": "riskType",
              "type": "uint8"
            },
            {
              "internalType": "string",
              "name": "coverName",
              "type": "string"
            },
            {
              "internalType": "uint256",
              "name": "coverValue",
              "type": "uint256"
            },
            {
              "internalType": "uint256",
              "name": "claimPaid",
              "type": "uint256"
            },
            {
              "internalType": "uint256",
              "name": "coverPeriod",
              "type": "uint256"
            },
            {
              "internalType": "uint256",
              "name": "endDay",
              "type": "uint256"
            },
            {
              "internalType": "bool",
              "name": "isActive",
              "type": "bool"
            }
          ],
          "internalType": "struct CoverLib.GenericCoverInfo[]",
          "name": "",
          "type": "tuple[]"
        }
      ],
      "stateMutability": "view",
      "type": "function"
    },
    {
      "inputs": [],
      "name": "getCoverFeeBalance",
      "outputs": [
        {
          "internalType": "uint256",
          "name": "",
          "type": "uint256"
        }
      ],
      "stateMutability": "view",
      "type": "function"
    },
    {
      "inputs": [
        {
          "internalType": "uint256",
          "name": "_coverId",
          "type": "uint256"
        }
      ],
      "name": "getCoverInfo",
      "outputs": [
        {
          "components": [
            {
              "internalType": "uint256",
              "name": "id",
              "type": "uint256"
            },
            {
              "internalType": "string",
              "name": "coverName",
              "type": "string"
            },
            {
              "internalType": "enum CoverLib.RiskType",
              "name": "riskType",
              "type": "uint8"
            },
            {
              "internalType": "string",
              "name": "chains",
              "type": "string"
            },
            {
              "internalType": "uint256",
              "name": "capacity",
              "type": "uint256"
            },
            {
              "internalType": "uint256",
              "name": "cost",
              "type": "uint256"
            },
            {
              "internalType": "uint256",
              "name": "capacityAmount",
              "type": "uint256"
            },
            {
              "internalType": "uint256",
              "name": "coverValues",
              "type": "uint256"
            },
            {
              "internalType": "uint256",
              "name": "maxAmount",
              "type": "uint256"
            },
            {
              "internalType": "uint256",
              "name": "poolId",
              "type": "uint256"
            },
            {
              "internalType": "string",
              "name": "CID",
              "type": "string"
            },
            {
              "internalType": "enum CoverLib.AssetDepositType",
              "name": "adt",
              "type": "uint8"
            },
            {
              "internalType": "address",
              "name": "asset",
              "type": "address"
            }
          ],
          "internalType": "struct CoverLib.Cover",
          "name": "",
          "type": "tuple"
        }
      ],
      "stateMutability": "view",
      "type": "function"
    },
    {
      "inputs": [
        {
          "internalType": "address",
          "name": "user",
          "type": "address"
        },
        {
          "internalType": "uint256",
          "name": "_poolId",
          "type": "uint256"
        }
      ],
      "name": "getDepositClaimableDays",
      "outputs": [
        {
          "internalType": "uint256",
          "name": "",
          "type": "uint256"
        }
      ],
      "stateMutability": "view",
      "type": "function"
    },
    {
      "inputs": [
        {
          "internalType": "address",
          "name": "user",
          "type": "address"
        },
        {
          "internalType": "uint256",
          "name": "_poolId",
          "type": "uint256"
        }
      ],
      "name": "getLastClaimTime",
      "outputs": [
        {
          "internalType": "uint256",
          "name": "",
          "type": "uint256"
        }
      ],
      "stateMutability": "view",
      "type": "function"
    },
    {
      "inputs": [
        {
          "internalType": "address",
          "name": "user",
          "type": "address"
        },
        {
          "internalType": "uint256",
          "name": "_coverId",
          "type": "uint256"
        }
      ],
      "name": "getUserCoverInfo",
      "outputs": [
        {
          "components": [
            {
              "internalType": "address",
              "name": "user",
              "type": "address"
            },
            {
              "internalType": "uint256",
              "name": "coverId",
              "type": "uint256"
            },
            {
              "internalType": "enum CoverLib.RiskType",
              "name": "riskType",
              "type": "uint8"
            },
            {
              "internalType": "string",
              "name": "coverName",
              "type": "string"
            },
            {
              "internalType": "uint256",
              "name": "coverValue",
              "type": "uint256"
            },
            {
              "internalType": "uint256",
              "name": "claimPaid",
              "type": "uint256"
            },
            {
              "internalType": "uint256",
              "name": "coverPeriod",
              "type": "uint256"
            },
            {
              "internalType": "uint256",
              "name": "endDay",
              "type": "uint256"
            },
            {
              "internalType": "bool",
              "name": "isActive",
              "type": "bool"
            }
          ],
          "internalType": "struct CoverLib.GenericCoverInfo",
          "name": "",
          "type": "tuple"
        }
      ],
      "stateMutability": "view",
      "type": "function"
    },
    {
      "inputs": [
        {
          "internalType": "address",
          "name": "user",
          "type": "address"
        }
      ],
      "name": "getUserParticipation",
      "outputs": [
        {
          "internalType": "uint256",
          "name": "",
          "type": "uint256"
        }
      ],
      "stateMutability": "view",
      "type": "function"
    },
    {
      "inputs": [],
      "name": "governance",
      "outputs": [
        {
          "internalType": "address",
          "name": "",
          "type": "address"
        }
      ],
      "stateMutability": "view",
      "type": "function"
    },
    {
      "inputs": [],
      "name": "lpAddress",
      "outputs": [
        {
          "internalType": "address",
          "name": "",
          "type": "address"
        }
      ],
      "stateMutability": "view",
      "type": "function"
    },
    {
      "inputs": [],
      "name": "lpContract",
      "outputs": [
        {
          "internalType": "contract ILP",
          "name": "",
          "type": "address"
        }
      ],
      "stateMutability": "view",
      "type": "function"
    },
    {
      "inputs": [],
      "name": "owner",
      "outputs": [
        {
          "internalType": "address",
          "name": "",
          "type": "address"
        }
      ],
      "stateMutability": "view",
      "type": "function"
    },
    {
      "inputs": [
        {
          "internalType": "uint256",
          "name": "",
          "type": "uint256"
        }
      ],
      "name": "participants",
      "outputs": [
        {
          "internalType": "address",
          "name": "",
          "type": "address"
        }
      ],
      "stateMutability": "view",
      "type": "function"
    },
    {
      "inputs": [
        {
          "internalType": "address",
          "name": "",
          "type": "address"
        }
      ],
      "name": "participation",
      "outputs": [
        {
          "internalType": "uint256",
          "name": "",
          "type": "uint256"
        }
      ],
      "stateMutability": "view",
      "type": "function"
    },
    {
      "inputs": [
        {
          "internalType": "uint256",
          "name": "_coverId",
          "type": "uint256"
        },
        {
          "internalType": "uint256",
          "name": "_coverValue",
          "type": "uint256"
        },
        {
          "internalType": "uint256",
          "name": "_coverPeriod",
          "type": "uint256"
        },
        {
          "internalType": "uint256",
          "name": "_coverFee",
          "type": "uint256"
        }
      ],
      "name": "purchaseCover",
      "outputs": [],
      "stateMutability": "payable",
      "type": "function"
    },
    {
      "inputs": [],
      "name": "renounceOwnership",
      "outputs": [],
      "stateMutability": "nonpayable",
      "type": "function"
    },
    {
      "inputs": [
        {
          "internalType": "address",
          "name": "newOwner",
          "type": "address"
        }
      ],
      "name": "transferOwnership",
      "outputs": [],
      "stateMutability": "nonpayable",
      "type": "function"
    },
    {
      "inputs": [
        {
          "internalType": "uint256",
          "name": "_coverId",
          "type": "uint256"
        },
        {
          "internalType": "string",
          "name": "_coverName",
          "type": "string"
        },
        {
          "internalType": "enum CoverLib.RiskType",
          "name": "_riskType",
          "type": "uint8"
        },
        {
          "internalType": "string",
          "name": "_cid",
          "type": "string"
        },
        {
          "internalType": "string",
          "name": "_chains",
          "type": "string"
        },
        {
          "internalType": "uint256",
          "name": "_capacity",
          "type": "uint256"
        },
        {
          "internalType": "uint256",
          "name": "_cost",
          "type": "uint256"
        },
        {
          "internalType": "uint256",
          "name": "_poolId",
          "type": "uint256"
        }
      ],
      "name": "updateCover",
      "outputs": [],
      "stateMutability": "nonpayable",
      "type": "function"
    },
    {
      "inputs": [
        {
          "internalType": "uint256",
          "name": "_coverId",
          "type": "uint256"
        }
      ],
      "name": "updateMaxAmount",
      "outputs": [],
      "stateMutability": "nonpayable",
      "type": "function"
    },
    {
      "inputs": [
        {
          "internalType": "address",
          "name": "user",
          "type": "address"
        },
        {
          "internalType": "uint256",
          "name": "_coverId",
          "type": "uint256"
        },
        {
          "internalType": "uint256",
          "name": "_claimPaid",
          "type": "uint256"
        }
      ],
      "name": "updateUserCoverValue",
      "outputs": [],
      "stateMutability": "nonpayable",
      "type": "function"
    },
    {
      "inputs": [
        {
          "internalType": "address",
          "name": "",
          "type": "address"
        },
        {
          "internalType": "uint256",
          "name": "",
          "type": "uint256"
        }
      ],
      "name": "userCovers",
      "outputs": [
        {
          "internalType": "address",
          "name": "user",
          "type": "address"
        },
        {
          "internalType": "uint256",
          "name": "coverId",
          "type": "uint256"
        },
        {
          "internalType": "enum CoverLib.RiskType",
          "name": "riskType",
          "type": "uint8"
        },
        {
          "internalType": "string",
          "name": "coverName",
          "type": "string"
        },
        {
          "internalType": "uint256",
          "name": "coverValue",
          "type": "uint256"
        },
        {
          "internalType": "uint256",
          "name": "claimPaid",
          "type": "uint256"
        },
        {
          "internalType": "uint256",
          "name": "coverPeriod",
          "type": "uint256"
        },
        {
          "internalType": "uint256",
          "name": "endDay",
          "type": "uint256"
        },
        {
          "internalType": "bool",
          "name": "isActive",
          "type": "bool"
        }
      ],
      "stateMutability": "view",
      "type": "function"
    },
    {
      "inputs": [],
      "name": "vaultAddress",
      "outputs": [
        {
          "internalType": "address",
          "name": "",
          "type": "address"
        }
      ],
      "stateMutability": "view",
      "type": "function"
    },
    {
      "inputs": [],
      "name": "vaultContract",
      "outputs": [
        {
          "internalType": "contract IVault",
          "name": "",
          "type": "address"
        }
      ],
      "stateMutability": "view",
      "type": "function"
    }
  ],
  "bytecode": "0x60803461016957601f613ddb38819003918201601f19168301916001600160401b0383118484101761016e5780849260a0946040528339810103126101695761004781610184565b9061005460208201610184565b9061006160408201610184565b9161007a608061007360608501610184565b9301610184565b60016000556001600160a01b0390931693841561015357600180546001600160a01b03198116871790915560405195906001600160a01b03167f8be0079c531659141344cd1fd0a4f28419497f9722a3daafe3b4186f6b6457e0600080a3600380546001600160a01b039283166001600160a01b0319918216811790925560058054948416948216851790556009805482169094179093556007805484169091179055600480549382169383168417905560068054831690931790925560088054939092169216919091179055613c4290816101998239f35b631e4fbdf760e01b600052600060045260246000fd5b600080fd5b634e487b7160e01b600052604160045260246000fd5b51906001600160a01b03821682036101695756fe608080604052600436101561001357600080fd5b600090813560e01c9081630db981a014613052575080631052581414611e58578063106b5da114612f0b578063195ec9ee14612e435780632274346b14612e1a5780632d8a340c14612b7557806334808ec314612b4c578063357917b7146124fe57806335c1d34914612b08578063430bf08a14612adf57806346f847951461133f5780635aa6e67514612ab6578063602710a41461251c578063609c7604146124fe57806362858bfa146123e45780636299df6c1461229c578063649718b21461206d578063715018a61461201057806373cce3ee14611eca578063782ea61914611e9b5780637a728e7f14611e585780637ceb4a6914611dc05780638acee3cf14611d975780638da5cb5b14611d6e5780638de4d101146115cb57806393b1ad381461137857806396f3a8ad1461133f5780639732bdb514610b7d578063996b8a6f14610b545780639b4dc8cc14610b2b5780639e7b399e14610a4d578063a650c232146104c5578063bfc664f314610387578063cadcb4711461029b578063f2fde38b14610212578063fb643583146101d85763feb0b8f5146101b857600080fd5b346101d557806003193601126101d5576020601154604051908152f35b80fd5b50346101d55760203660031901126101d557600435906012548210156101d5576020610203836130d9565b90549060031b1c604051908152f35b50346101d55760203660031901126101d55761022c613092565b610234613be3565b6001600160a01b0316801561028757600180546001600160a01b0319811683179091556001600160a01b03167f8be0079c531659141344cd1fd0a4f28419497f9722a3daafe3b4186f6b6457e08380a380f35b631e4fbdf760e01b82526004829052602482fd5b50346101d55760403660031901126101d5576040610383916102bb613092565b6102c3613991565b5060018060a01b03168152600f60205281812060243582526020522060ff6008604051926102f0846132ef565b80546001600160a01b0316845260018101546020850152600281015483166103178161313c565b604085015260405161033781610330816003860161326c565b038261333d565b606085015260048101546080850152600581015460a0850152600681015460c0850152600781015460e0850152015416151561010082015260405191829160208352602083019061335e565b0390f35b50346101d55760203660031901126101d5576103a1613092565b6103a9613bc1565b6001600160a01b031660015b6012548110156104bd57806103cb6001926130d9565b90549060031b1c838552600f6020526040852081865260205260408520600881019081549060ff821690816104af575b5061040a575b505050016103b5565b60ff19169055838552600f6020526040852090855260205283600860408220828155828582015582600282015582600382016104468154613232565b8061046f575b505060048201558260058201558260068201558260078201550155388080610401565b601f811188146104845750555b82388061044c565b8183526020832061049f91601f0160051c81019089016138e6565b808252816020812091555561047c565b6007915001544211386103fb565b826001815580f35b50346101d55760203660031901126101d557600435906104e3613bc1565b60055460405163395d7def60e11b8152600481018490523360248201526001600160a01b0390911691908181604481865afa908115610a425782916109a1575b5081338152600e6020526040812085825260205260408120541560001461097e576201518061058460c0610556856139d5565b5101515b426080610566876139d5565b5101516105728161313c565b61057b8161313c565b61096a576136fe565b049481935b83518510156105be576105b66001916105b08960606105a88a8a6139e2565b5101516136d5565b906138c1565b940193610589565b604051632500ed8d60e21b81526004810183905283816024818a5afa9081156107335784916107e3575b5060c08101805160028110156107cf576001036107c45760e08201516040516370a0823160e01b815230600482015290602090829060249082906001600160a01b03165afa80156107b9578690610780575b61064891505b8411156137b5565b338552600e6020526040852084865260205242604086205551600281101561076c5760010361073e5760e0015160405163a9059cbb60e01b8152336004820152602481018390529060209082906001600160a01b0316818781604481015b03925af180156107335784906106f4575b6106c1915061387d565b6040519081527f0408e6e0b73daf4c873106e95fd067260fbff8bf9d1b499cad563d4480d45bac60203392a36001815580f35b506020813d60201161072b575b8161070e6020938361333d565b81010312610727576107226106c19161354a565b6106b7565b8380fd5b3d9150610701565b6040513d86823e3d90fd5b506107588380808085335af1610752613801565b50613831565b610764816002546136fe565b6002556106c1565b634e487b7160e01b85526021600452602485fd5b506020813d6020116107b1575b8161079a6020938361333d565b810103126107ac57610648905161063a565b600080fd5b3d915061078d565b6040513d88823e3d90fd5b610648600254610640565b634e487b7160e01b86526021600452602486fd5b90503d8085833e6107f4818361333d565b810190602081830312610966578051906001600160401b038211610915570161010081830312610966576040519161010083018381106001600160401b03821117610952576040528151835260208201516001600160401b03811161094e578161085f918401613505565b602084015260408201516001600160401b03811161094e5782019080601f8301121561094e578151916108918361397a565b9261089f604051948561333d565b80845260208085019160051b8301019183831161094a5760208101915b8383106109195750505050506040830152606081015160608301526080810151608083015260a081015160a083015260c081015160028110156109155760c083015261090a9060e001613557565b60e0820152846105e8565b8580fd5b82516001600160401b0381116109465760209161093b8784809487010161356b565b8152019201916108bc565b8b80fd5b8980fd5b8680fd5b634e487b7160e01b87526041600452602487fd5b8480fd5b5060e0610976866139d5565b5101516136fe565b338152600e6020526040812085825260205262015180610584604083205461055a565b90503d8083833e6109b2818361333d565b810190602081830312610a3e578051906001600160401b038211610727570181601f82011215610a3e5780516109e78161397a565b926109f5604051948561333d565b818452602061014081860193028401019281841161091557602001915b838310610a23575050505038610523565b602061014091610a33848661370b565b815201920191610a12565b8280fd5b6040513d84823e3d90fd5b50346101d55760403660031901126101d5576040906001600160a01b03610a72613092565b168152600f60205281812060243582526020522060018060a01b0381541660018201549160ff60028201541660405191610aba83610ab3816003850161326c565b038461333d565b6004810154926005820154610b0a60068401549260ff600860078701549601541695604051998a998a5260208a0152610af28161313c565b60408901526101206060890152610120880190613117565b94608087015260a086015260c085015260e084015215156101008301520390f35b50346101d557806003193601126101d5576007546040516001600160a01b039091168152602090f35b50346101d557806003193601126101d5576006546040516001600160a01b039091168152602090f35b50346101d557602490610b8f3661343f565b9091610ba099959399979497613be3565b60018060a01b036003541699898b604051988980926307eb111f60e41b82528760048301525afa968715611334578a97611310575b5096996020890197908a5b8851811015610c66576020610bf5828b6139e2565b510151604051610c2660208281610c1581830196878151938492016130f4565b81010301601f19810183528261333d565b5190208a8c610c4760206040518093610c15838301968792519283916130f4565b51902014610c5757600101610be0565b633480a50360e21b8c5260048cfd5b508a9850899697508b6040519163068bcd8d60e01b83528560048401528a83602481845afa928315611305578b936112e1575b50876060840151610ca98161313c565b610cb28261313c565b610cbb8161313c565b148015906112d3575b6112c4576064610cd88660c08601516136d5565b049161020060018060a01b036101e0860151169401519160028310156112b057808d913b156112ac5781809160448b604051948593849263a4948d8560e01b845260048401528d60248401525af18015610a4257611297575b5050610da692610d4260115461396b565b60115560405198610d528a613321565b8c8a5260208a01978c895260408b0197610d6b8d61313c565b8c895260608c015260808b015260a08a01528060c08a01528c60e08a015261010089015286610120890152610140880152610160870161395f565b6101808501528688526010602052604088209184518355518051906001600160401b03821161112857610ddc6001850154613232565b601f8111611264575b50602090601f83116001146111f7579180610e1b92610e3495948d9261107b575b50508160011b916000199060031b1c19161790565b60018401555b51610e2b8161313c565b600283016138ce565b60608301518051906001600160401b0382116111e357610e576003840154613232565b601f81116111b0575b50602090601f831160011461114757610e9092918a918361113c5750508160011b916000199060031b1c19161790565b60038201555b6080830151600482015560a0830151600582015560c0830151600682015560e0830151600782015561010083015160088201556101208301516009820155600a81016101408401518051906001600160401b03821161112857610ef98354613232565b601f81116110ed575b50602090601f8311600114611086579180610f3792600b9695948d9261107b5750508160011b916000199060031b1c19161790565b90555b01610160830151600281101561106757815460ff610100600160a81b0361018087015160081b169216906affffffffffffffffffffff60a81b1617179055601254600160401b8110156109525790610f9a826001899594016012556130d9565b8154600391821b89811b60001990911b1990911617909155546001600160a01b031691823b1561072757610ff492849283604051809681958294630922950f60e31b84526004840152604060248401526044830190613169565b03925af18015610a4257611052575b5091837f5928d65cc6ae9f07a7673f1a5a2f98d81f1bb0c2bc53bcaa33d6f11cf426f25e9352600c60205260408520600160ff1982541617905561104c60405192839283613b9c565b0390a280f35b8161105c9161333d565b610727578385611003565b634e487b7160e01b88526021600452602488fd5b015190508c80610e06565b838b52818b209190601f1984168c5b8181106110d55750916001939185600b98979694106110bc575b505050811b019055610f3a565b015160001960f88460031b161c191690558b80806110af565b92936020600181928786015181550195019301611095565b61111890848c5260208c20601f850160051c8101916020861061111e575b601f0160051c01906138e6565b8a610f02565b909150819061110b565b634e487b7160e01b8a52604160045260248afd5b015190508a80610e06565b600384018a52818a209190601f1984168b5b818110611198575090846001959493921061117f575b505050811b016003820155610e96565b015160001960f88460031b161c1916905589808061116f565b92936020600181928786015181550195019301611159565b6111dd90600385018b5260208b20601f850160051c8101916020861061111e57601f0160051c01906138e6565b89610e60565b634e487b7160e01b89526041600452602489fd5b600185018b52818b209190601f1984168c5b81811061124c5750916001939185610e3497969410611233575b505050811b016001840155610e21565b015160001960f88460031b161c191690558b8080611223565b92936020600181928786015181550195019301611209565b61129190600186018c5260208c20601f850160051c8101916020861061111e57601f0160051c01906138e6565b8a610de5565b816112a19161333d565b610946578b8d610d31565b5080fd5b634e487b7160e01b8d52602160045260248dfd5b6369e489f560e11b8b5260048bfd5b506101808301518511610cc4565b6112fe9193503d808d833e6112f6818361333d565b8101906136b0565b918b610c99565b6040513d8d823e3d90fd5b61132d9197503d808c833e611325818361333d565b8101906139f6565b9538610bd5565b6040513d8c823e3d90fd5b50346101d55760203660031901126101d5576020906040906001600160a01b03611367613092565b168152600b83522054604051908152f35b50346101d557806003193601126101d5578081601254905b81811061158b57506113a18261397a565b916113af604051938461333d565b8083526113be601f199161397a565b01835b81811061157457505082835b82811061143b5783856040519182916020830160208452825180915260408401602060408360051b870101940192905b82821061140c57505050500390f35b9193600191939550602061142b8192603f198a82030186528851613169565b96019201920185949391926113fd565b611444816130d9565b90549060031b1c808652600c60205260ff604087205416611469575b506001016113cd565b6001919261156d918752601060205260408720600b6040519161148b83613321565b805483526040516114a281610330818a860161326c565b602084015260ff6002820154166114b88161313c565b60408401526040516114d181610330816003860161326c565b606084015260048101546080840152600581015460a0840152600681015460c0840152600781015460e0840152600881015461010084015260098101546101208401526040516115288161033081600a860161326c565b610140840152015461154160ff8216610160840161395f565b848060a01b039060081c1661018082015261155c82886139e2565b5261156781876139e2565b5061396b565b9190611460565b60209061157f6138fd565b828287010152016113c1565b611594816130d9565b90549060031b1c8452600c60205260ff6040852054166115b7575b600101611390565b916115c360019161396b565b9290506115af565b50346101d55760246115dc3661343f565b6115ee99979695929891949399613be3565b60018060a01b036003541699888b6040519485809263068bcd8d60e01b82528660048301525afa928315611d63578993611d47575b508360608401516116338161313c565b61163c8261313c565b6116458161313c565b14801590611d39575b611d2a578789526010602052606461166e8b60c060408d209601516136d5565b04998a600785015411611d1b578960249a9b9c6040519b8c80926307eb111f60e41b82528760048301525afa998a15611305578b9a611cff575b50959a6020880196908b5b8b5181101561174d578b8b828c8c60206116cd84876139e2565b5101516040516116ed60208281610c1581830196878151938492016130f4565b5190209161170d60206040518093610c15838301968792519283916130f4565b519020149283611736575b505050611727576001016116b3565b633480a50360e21b8d5260048dfd5b6117419293506139e2565b515114158b828e611718565b508b98969997508c60048601549388516001600160401b038111611c45578b61177960018a0154613232565b601f8111611ccc575b505060208c601f8311600114611c64576117b1929182611c59575b508160011b916000199060031b1c19161790565b60018801555b80516001600160401b038111611c45578b6117d560038a0154613232565b601f8111611c12575b505060208c601f8311600114611ba9579061180d9383611af85750508160011b916000199060031b1c19161790565b60038701555b826004870155600586015589516001600160401b03811161112857899a611842600a889c999a9b9c0154613232565b601f8111611b76575b50602090601f8311600114611b035791806118809261189d95948b92611af85750508160011b916000199060031b1c19161790565b600a8701555b8060068701558460098701556007860154906136fe565b600885015580821115611a6f576118b3916136fe565b6003546001600160a01b031690813b15610966578491604483926040519485938492639fd36b1560e01b845288600485015260248401525af1908115610733578491611a5a575b50505b6003546001600160a01b031691823b156107275783928392604051948580948193630eb4c14960e11b8352600483015260406024830152805460448301526101a06064830152600b6119dd61198761195c6101e486016001860161326c565b60ff60028601541661196d8161313c565b60848701528581036043190160a48701526003850161326c565b600484015460c4860152600584015460e4860152600684015461010486015260078401546101248601526008840154610144860152600984015461016486015284810360431901610184860152600a840161326c565b9101546119f16101a4840160ff831661315c565b60081c6001600160a01b03166101c483015203925af18015610a4257611a45575b50507f758a67328ba53c1867c0272bbd2ca10d6fe71d37120188c523fe7ae7bdbbe4699161104c60405192839283613b9c565b81611a4f9161333d565b610727578385611a12565b81611a649161333d565b610a3e5782886118fa565b808210611a7e575b50506118fd565b90611a8c91949293946136fe565b6003546001600160a01b0316803b15610a3e5760448392604051948593849263a4948d8560e01b845288600485015260248401525af18015611aed57611ad7575b9081879392611a77565b86611ae5919792939761333d565b949086611acd565b6040513d89823e3d90fd5b015190508e80610e06565b90600a8801895280892091895b601f1985168110611b5b575091839160019361189d9695601f19811610611b42575b505050811b01600a870155611886565b015160001960f88460031b161c191690558d8080611b32565b8183015184558e9a5060019093019260209283019201611b10565b611ba390600a89018a5260208a20601f850160051c8101916020861061111e57601f0160051c01906138e6565b8c61184b565b9192601f19841660038b018452828420935b818110611bfa5750908460019594939210611be1575b505050811b016003870155611813565b015160001960f88460031b161c191690558d8080611bd1565b92936020600181928786015181550195019301611bbb565b6020611c3e9260038c01815220601f840160051c8101916020851061111e57601f0160051c01906138e6565b8b8e6117de565b634e487b7160e01b8c52604160045260248cfd5b90508b01518f61179d565b90601f19831660018b018352818320925b8d828210611cb45750509083600194939210611c9b575b5050811b0160018801556117b7565b8c015160001960f88460031b161c191690558e80611c8c565b60018495602093958493015181550194019201611c75565b6020611cf89260018c01815220601f840160051c8101916020851061111e57601f0160051c01906138e6565b8b8e611782565b611d14919a503d808d833e611325818361333d565b98386116a8565b6369e489f560e11b8a5260048afd5b6369e489f560e11b8952600489fd5b506101808301518a1161164e565b611d5c9193503d808b833e6112f6818361333d565b9138611623565b6040513d8b823e3d90fd5b50346101d557806003193601126101d5576001546040516001600160a01b039091168152602090f35b50346101d557806003193601126101d5576003546040516001600160a01b039091168152602090f35b50346101d55760603660031901126101d557611dda613092565b60243560443591611df660018060a01b036008541633146134c8565b611dfe613bc1565b60018060a01b0316808452600f6020526040842082855260205260046040852001611e2a8482546136fe565b90558352600f60205260408320908352602052611e4f600560408420019182546138c1565b90556001815580f35b50346101d55760403660031901126101d5576020906040906001600160a01b03611e80613092565b168152600d8352818120602435825283522054604051908152f35b50346101d55760203660031901126101d55760ff60406020926004358152600c84522054166040519015158152f35b50346101d55760403660031901126101d557611ee4613092565b6003546040516374f0645b60e11b815260248035600483018190526001600160a01b0385811692840192909252919391926101409185916044918391165afa928315610733578493611fc3575b509183611f949262015180946020965060018060a01b0316808352600d8752604083208284528752604083205415600014611fa957505060c0820151915b60808101514292611f7f8261313c565b50611f898161313c565b611f9d575b506136fe565b04604051908152f35b60e09150015138611f8e565b8252600d8652604082209082528552604081205491611f6f565b9092506101403d8111612009575b611fdb818361333d565b810190610140818303126109665793611f9492611fff62015180959360209761370b565b9450925093611f31565b503d611fd1565b50346101d557806003193601126101d557612029613be3565b600180546001600160a01b0319811690915581906001600160a01b03167f8be0079c531659141344cd1fd0a4f28419497f9722a3daafe3b4186f6b6457e08280a380f35b50346101d55760203660031901126101d557612087613092565b60125482916001600160a01b0316825b82811061225157506120a88361397a565b926120b6604051948561333d565b8084526120c5601f199161397a565b01845b81811061223a57505083845b8381106121425784866040519182916020830160208452825180915260408401602060408360051b870101940192905b82821061211357505050500390f35b919360019193955060206121328192603f198a8203018652885161335e565b9601920192018594939192612104565b61214b816130d9565b90549060031b1c838752600f60205260408720818852602052600460408820015461217a575b506001016120d4565b6001919261223391858952600f602052604089209089526020526040882060ff6008604051926121a9846132ef565b868060a01b038154168452868101546020850152826002820154166121cd8161313c565b60408501526040516121e681610330816003860161326c565b606085015260048101546080850152600581015460a0850152600681015460c0850152600781015460e0850152015416151561010082015261222882896139e2565b5261156781886139e2565b9190612171565b602090612245613991565b828288010152016120c8565b61225a816130d9565b90549060031b1c828652600f602052604086209086526020526004604086200154612288575b600101612097565b9261229460019161396b565b939050612280565b50346101d55760203660031901126101d5576004358152601060205260409020805460405191828060018301906122d29161326c565b036122dd908461333d565b600281015460ff1690604051808060038401906122f99161326c565b03612304908261333d565b60048201549060058301546006840154600785015490600886015492600987015494604051978880600a83019061233a9161326c565b03612345908a61333d565b600b0154986040519b8c9b8c5260208c016101a090526101a08c0161236991613117565b906123738161313c565b60408c01528a810360608c015261238991613117565b9560808a015260a089015260c088015260e08701526101008601526101208501528381036101408501526123bc91613117565b906123ce610160840160ff831661315c565b60081c6001600160a01b03166101808301520390f35b50346101d55760203660031901126101d5576040610383916124046138fd565b506004358152601060205220600b6040519161241f83613321565b8054835260405161243781610330816001860161326c565b602084015260ff60028201541661244d8161313c565b604084015260405161246681610330816003860161326c565b606084015260048101546080840152600581015460a0840152600681015460c0840152600781015460e0840152600881015461010084015260098101546101208401526040516124bd8161033081600a860161326c565b61014084015201546124d660ff8216610160840161395f565b60081c6001600160a01b03166101808201526040516020808252909283929091830190613169565b50346101d557806003193601126101d5576020600254604051908152f35b5060803660031901126101d557604435600435612537613bc1565b601b8211801590612aaa575b612a9b57808352600c60205260ff60408420541615612a8c578083526010602052604083209160088301805460243511612a7d576007840161258860243582546138c1565b6006860180548211612a6e57600b870160ff8154166002811015612a5a578991906001036129f257546040516323b872dd60e01b81523360048201523060248201526064803560448301529092602092849291839160081c6001600160a01b03165af1908115611d635789916129a9575b5061261493612608849261387d565b5554611f8e82826136fe565b9055338452600f6020526040842082855260205260046040852001541560001461299a5760ff600284015416906201518081028181046201518014821517156129865761266190426138c1565b6040519361266e856132ef565b338552602085019381855260408601906126878161313c565b815261271e604051916126a183610ab38160018d0161326c565b606088019283526080880193602435855260a08901958b875260c08a0197885260e08a015260016101008a0152338b52600f60205260408b20908b5260205260408a209660018060a01b038951166bffffffffffffffffffffffff60a01b895416178855516001880155516127158161313c565b600287016138ce565b518051906001600160401b0382116111e35761273d6003870154613232565b601f8111612953575b50602090601f83116001146128de57826101009795936008979593612780938d926128d35750508160011b916000199060031b1c19161790565b60038501555b51600484015551600583015551600682015560e0840151600782015501910151151560ff80198354169116179055818290600a54915b8281106128a0575b501561284e575b50338252600b602052604082208054906001820180921161283a575560020154604051602435815260643560208201529060ff166128088161313c565b60408201527f23b0f39e0762759ffb18632a1a2b79c9eb58571454e5f7c36e0a2f81759e0a3460603392a26001815580f35b634e487b7160e01b84526011600452602484fd5b600160401b81101561288c5780600161286a9201600a556130a8565b81546001600160a01b0360039290921b91821b19163390911b179055386127cb565b634e487b7160e01b83526041600452602483fd5b6128a9816130a8565b905460039190911b1c6001600160a01b031633146128c9576001016127bc565b50506001386127c4565b015190503880610e06565b90600387018a52808a20918a5b601f198516811061293b575092600896949260019261010099979583601f19811610612922575b505050811b016003850155612786565b015160001960f88460031b161c19169055388080612912565b919260206001819286850151815501940192016128eb565b61298090600388018b5260208b20601f850160051c8101916020861061111e57601f0160051c01906138e6565b38612746565b634e487b7160e01b86526011600452602486fd5b639857cbd960e01b8452600484fd5b90506020813d6020116129ea575b816129c46020938361333d565b810103126129e657612614936126086129dd859361354a565b925050936125f9565b8880fd5b3d91506129b7565b50503415612a15578161261493612a0d6064356002546138c1565b600255612608565b60405162461bcd60e51b815260206004820152601a60248201527f436f7665722076616c75652063616e6e6f74206265207a65726f0000000000006044820152606490fd5b634e487b7160e01b8a52602160045260248afd5b63bc6072f160e01b8852600488fd5b63bc6072f160e01b8552600485fd5b63bccd404360e01b8352600483fd5b631f89958960e11b8352600483fd5b5061016e821015612543565b50346101d557806003193601126101d5576008546040516001600160a01b039091168152602090f35b50346101d557806003193601126101d5576009546040516001600160a01b039091168152602090f35b50346101d55760203660031901126101d55760043590600a548210156101d5576020612b33836130a8565b905460405160039290921b1c6001600160a01b03168152f35b50346101d557806003193601126101d5576004546040516001600160a01b039091168152602090f35b50346101d55760203660031901126101d557600435612b92613bc1565b6003546040516374f0645b60e11b8152600481018390523360248201526001600160a01b039091169061014081604481855afa908115610733578491612de0575b50608081018051612be38161313c565b612bec8161313c565b612dd157612c3c6201518091338752600d60205260408720868852602052604087205415600014612db45760c0840151905b429051612c2a8161313c565b612c338161313c565b612da9576136fe565b04908115612d9a57612c556024926060879301516136d5565b926040519283809263068bcd8d60e01b82528760048301525afa908115610733578491612d80575b506102008101805160028110156107cf57600103612d75576101e08201516040516370a0823160e01b815230600482015290602090829060249082906001600160a01b03165afa80156107b9578690612d41575b612cde91508411156137b5565b338552600d6020526040852084865260205242604086205551600281101561076c5760010361073e576101e0015160405163a9059cbb60e01b8152336004820152602481018390529060209082906001600160a01b0316818781604481016106a6565b506020813d602011612d6d575b81612d5b6020938361333d565b8101031261091557612cde9051612cd1565b3d9150612d4e565b612cde600254610640565b612d9491503d8086833e6112f6818361333d565b38612c7d565b63ed700a6760e01b8552600485fd5b5060e08401516136fe565b338752600d60205260408720868852602052604087205490612c1e565b63e067835f60e01b8552600485fd5b90506101403d8111612e13575b612df7818361333d565b81016101408282031261096657612e0d9161370b565b38612bd3565b503d612ded565b50346101d557806003193601126101d5576005546040516001600160a01b039091168152602090f35b50346101d557806003193601126101d557604051806020600a5491828152018091600a85527fc65a7bb8d6351c1cf70c95a316cc6a92839c986682d98bc35f958f4883f9d2a890855b818110612eec5750505082612ea291038361333d565b604051928392602084019060208552518091526040840192915b818110612eca575050500390f35b82516001600160a01b0316845285945060209384019390920191600101612ebc565b82546001600160a01b0316845260209093019260019283019201612e8c565b50346101d55760203660031901126101d557600435612f3560018060a01b036007541633146134c8565b612f3d613bc1565b808252601060205260408083206003546009820154925163068bcd8d60e01b815260048101939093528490839060249082906001600160a01b03165afa918215610733578492613033575b5060040154908115612ff55760649160c0612fa49201516136d5565b04818352601060205260066040842001558082526010602052612fde600660408420015482845260106020526007604085200154906136fe565b908252601060205260086040832001556001815580f35b60405162461bcd60e51b8152602060048201526016602482015275496e76616c696420636f76657220636170616369747960501b6044820152606490fd5b600491925061304b903d8087833e6112f6818361333d565b9190612f88565b9050346112ac5760403660031901126112ac576020916040906001600160a01b0361307b613092565b168152600e84528181206024358252845220548152f35b600435906001600160a01b03821682036107ac57565b600a548110156130c357600a60005260206000200190600090565b634e487b7160e01b600052603260045260246000fd5b6012548110156130c357601260005260206000200190600090565b60005b8381106131075750506000910152565b81810151838201526020016130f7565b90602091613130815180928185528580860191016130f4565b601f01601f1916010190565b6003111561314657565b634e487b7160e01b600052602160045260246000fd5b9060028210156131465752565b908151815261018061320b6131b761319260208601516101a060208701526101a0860190613117565b60408601516131a08161313c565b604086015260608601518582036060870152613117565b6080850151608085015260a085015160a085015260c085015160c085015260e085015160e0850152610100850151610100850152610120850151610120850152610140850151848203610140860152613117565b9261322061016082015161016085019061315c565b8101516001600160a01b031691015290565b90600182811c92168015613262575b602083101461324c57565b634e487b7160e01b600052602260045260246000fd5b91607f1691613241565b6000929181549161327c83613232565b80835292600181169081156132d2575060011461329857505050565b60009081526020812093945091925b8383106132b8575060209250010190565b6001816020929493945483858701015201910191906132a7565b915050602093945060ff929192191683830152151560051b010190565b61012081019081106001600160401b0382111761330b57604052565b634e487b7160e01b600052604160045260246000fd5b6101a081019081106001600160401b0382111761330b57604052565b90601f801991011681019081106001600160401b0382111761330b57604052565b80516001600160a01b031682526020808201519083015260408101519091906133868161313c565b6040820152610100806133aa60608501516101206060860152610120850190613117565b936080810151608085015260a081015160a085015260c081015160c085015260e081015160e08501520151151591015290565b6001600160401b03811161330b57601f01601f191660200190565b81601f820112156107ac5780359061340f826133dd565b9261341d604051948561333d565b828452602083830101116107ac57816000926020809301838601378301015290565b6101006003198201126107ac57600435916024356001600160401b0381116107ac578261346e916004016133f8565b9160443560038110156107ac57916064356001600160401b0381116107ac578261349a916004016133f8565b91608435906001600160401b0382116107ac576134b9916004016133f8565b9060a4359060c4359060e43590565b156134cf57565b60405162461bcd60e51b815260206004820152600e60248201526d139bdd08185d5d1a1bdc9a5e995960921b6044820152606490fd5b81601f820112156107ac57805161351b816133dd565b92613529604051948561333d565b818452602082840101116107ac5761354791602080850191016130f4565b90565b519081151582036107ac57565b51906001600160a01b03821682036107ac57565b919091610220818403126107ac576040519061022082018281106001600160401b0382111761330b5760405281938151835260208201516001600160401b0381116107ac57816135bc918401613505565b60208401526040820151906001600160401b0382116107ac576135e0918301613505565b6040830152606081015160038110156107ac5760608301526080810151608083015260a081015160a083015260c081015160c083015260e081015160e0830152610100810151610100830152610120810151610120830152610140810151610140830152613651610160820161354a565b6101608301526101808101516101808301526101a08101516101a08301526101c08101519060ff821682036107ac57610200916101c08401526136976101e08201613557565b6101e084015201519060028210156107ac576102000152565b906020828203126107ac5781516001600160401b0381116107ac57613547920161356b565b818102929181159184041417156136e857565b634e487b7160e01b600052601160045260246000fd5b919082039182116136e857565b9190826101409103126107ac5760405161014081018181106001600160401b0382111761330b57604052809261374081613557565b825260208101516020830152604081015160408301526060810151606083015260808101519060038210156107ac5761012091608084015260a081015160a084015260c081015160c084015260e081015160e084015261010081015161010084015201519060028210156107ac576101200152565b156137bc57565b60405162461bcd60e51b815260206004820152601a60248201527f496e73756666696369656e7420636f7665722062616c616e63650000000000006044820152606490fd5b3d1561382c573d90613812826133dd565b91613820604051938461333d565b82523d6000602084013e565b606090565b1561383857565b60405162461bcd60e51b815260206004820152601c60248201527f4e6174697665206173736574207472616e73666572206661696c6564000000006044820152606490fd5b1561388457565b60405162461bcd60e51b8152602060048201526015602482015274115490cc8c081d1c985b9cd9995c8819985a5b1959605a1b6044820152606490fd5b919082018092116136e857565b906138d88161313c565b60ff80198354169116179055565b8181106138f1575050565b600081556001016138e6565b6040519061390a82613321565b600061018083828152606060208201528260408201526060808201528260808201528260a08201528260c08201528260e082015282610100820152826101208201526060610140820152826101608201520152565b60028210156131465752565b60001981146136e85760010190565b6001600160401b03811161330b5760051b60200190565b6040519061399e826132ef565b6000610100838281528260208201528260408201526060808201528260808201528260a08201528260c08201528260e08201520152565b8051156130c35760200190565b80518210156130c35760209160051b010190565b6020818303126107ac578051906001600160401b0382116107ac570181601f820112156107ac57805190613a298261397a565b92613a37604051948561333d565b82845260208085019360051b830101918183116107ac5760208101935b838510613a6357505050505090565b84516001600160401b0381116107ac578201906101a0828503601f1901126107ac5760405190613a9282613321565b6020830151825260408301516001600160401b0381116107ac57856020613abb92860101613505565b6020830152606083015160038110156107ac57604083015260808301516001600160401b0381116107ac57856020613af592860101613505565b606083015260a0830151608083015260c083015160a083015260e083015160c083015261010083015160e08301526101208301516101008301526101408301516101208301526101608301516001600160401b0381116107ac57856020613b5e92860101613505565b6101408301526101808301519160028310156107ac57613b8b6101a0602095869561016085015201613557565b610180820152815201940193613a54565b929190613bb3602091604086526040860190613117565b93613bbd8361313c565b0152565b600260005414613bd2576002600055565b633ee5aeb560e01b60005260046000fd5b6001546001600160a01b03163303613bf757565b63118cdaa760e01b6000523360045260246000fdfea26469706673582212206288ff9fa4fefde2dca3997a997984f6ea33008dbc213d1ddfc6fc539ac284db64736f6c634300081c0033",
  "linkReferences": {},
  "deployedLinkReferences": {}
}