{
  "_format": "hh-sol-artifact-1",
  "contractName": "InsurancePool",
  "sourceName": "contracts/InsurancePool.sol",
  "abi": [
    {
      "inputs": [
        {
          "internalType": "address",
          "name": "_initialOwner",
          "type": "address"
        },
        {
          "internalType": "address",
          "name": "_bqBtc",
          "type": "address"
        }
      ],
      "stateMutability": "nonpayable",
      "type": "constructor"
    },
    {
      "inputs": [
        {
          "internalType": "address",
          "name": "owner",
          "type": "address"
        }
      ],
      "name": "OwnableInvalidOwner",
      "type": "error"
    },
    {
      "inputs": [
        {
          "internalType": "address",
          "name": "account",
          "type": "address"
        }
      ],
      "name": "OwnableUnauthorizedAccount",
      "type": "error"
    },
    {
      "inputs": [],
      "name": "ReentrancyGuardReentrantCall",
      "type": "error"
    },
    {
      "anonymous": false,
      "inputs": [
        {
          "indexed": false,
          "internalType": "uint256",
          "name": "",
          "type": "uint256"
        },
        {
          "indexed": false,
          "internalType": "uint256",
          "name": "",
          "type": "uint256"
        },
        {
          "indexed": false,
          "internalType": "address",
          "name": "",
          "type": "address"
        }
      ],
      "name": "ClaimAttempt",
      "type": "event"
    },
    {
      "anonymous": false,
      "inputs": [
        {
          "indexed": true,
          "internalType": "address",
          "name": "recipient",
          "type": "address"
        },
        {
          "indexed": false,
          "internalType": "string",
          "name": "pool",
          "type": "string"
        },
        {
          "indexed": false,
          "internalType": "uint256",
          "name": "amount",
          "type": "uint256"
        }
      ],
      "name": "ClaimPaid",
      "type": "event"
    },
    {
      "anonymous": false,
      "inputs": [
        {
          "indexed": true,
          "internalType": "address",
          "name": "user",
          "type": "address"
        },
        {
          "indexed": false,
          "internalType": "uint256",
          "name": "amount",
          "type": "uint256"
        },
        {
          "indexed": false,
          "internalType": "string",
          "name": "pool",
          "type": "string"
        }
      ],
      "name": "Deposited",
      "type": "event"
    },
    {
      "anonymous": false,
      "inputs": [
        {
          "indexed": true,
          "internalType": "address",
          "name": "previousOwner",
          "type": "address"
        },
        {
          "indexed": true,
          "internalType": "address",
          "name": "newOwner",
          "type": "address"
        }
      ],
      "name": "OwnershipTransferred",
      "type": "event"
    },
    {
      "anonymous": false,
      "inputs": [
        {
          "indexed": true,
          "internalType": "uint256",
          "name": "id",
          "type": "uint256"
        },
        {
          "indexed": false,
          "internalType": "string",
          "name": "poolName",
          "type": "string"
        }
      ],
      "name": "PoolCreated",
      "type": "event"
    },
    {
      "anonymous": false,
      "inputs": [
        {
          "indexed": true,
          "internalType": "uint256",
          "name": "poolId",
          "type": "uint256"
        },
        {
          "indexed": false,
          "internalType": "uint256",
          "name": "apy",
          "type": "uint256"
        },
        {
          "indexed": false,
          "internalType": "uint256",
          "name": "_minPeriod",
          "type": "uint256"
        }
      ],
      "name": "PoolUpdated",
      "type": "event"
    },
    {
      "anonymous": false,
      "inputs": [
        {
          "indexed": true,
          "internalType": "address",
          "name": "user",
          "type": "address"
        },
        {
          "indexed": false,
          "internalType": "uint256",
          "name": "amount",
          "type": "uint256"
        },
        {
          "indexed": false,
          "internalType": "string",
          "name": "pool",
          "type": "string"
        }
      ],
      "name": "Withdraw",
      "type": "event"
    },
    {
      "inputs": [],
      "name": "ICoverContract",
      "outputs": [
        {
          "internalType": "contract ICover",
          "name": "",
          "type": "address"
        }
      ],
      "stateMutability": "view",
      "type": "function"
    },
    {
      "inputs": [],
      "name": "IGovernanceContract",
      "outputs": [
        {
          "internalType": "contract IGov",
          "name": "",
          "type": "address"
        }
      ],
      "stateMutability": "view",
      "type": "function"
    },
    {
      "inputs": [],
      "name": "IVaultContract",
      "outputs": [
        {
          "internalType": "contract IVault",
          "name": "",
          "type": "address"
        }
      ],
      "stateMutability": "view",
      "type": "function"
    },
    {
      "inputs": [
        {
          "internalType": "uint256",
          "name": "_poolId",
          "type": "uint256"
        },
        {
          "components": [
            {
              "internalType": "uint256",
              "name": "id",
              "type": "uint256"
            },
            {
              "internalType": "string",
              "name": "coverName",
              "type": "string"
            },
            {
              "internalType": "enum CoverLib.RiskType",
              "name": "riskType",
              "type": "uint8"
            },
            {
              "internalType": "string",
              "name": "chains",
              "type": "string"
            },
            {
              "internalType": "uint256",
              "name": "capacity",
              "type": "uint256"
            },
            {
              "internalType": "uint256",
              "name": "cost",
              "type": "uint256"
            },
            {
              "internalType": "uint256",
              "name": "capacityAmount",
              "type": "uint256"
            },
            {
              "internalType": "uint256",
              "name": "coverValues",
              "type": "uint256"
            },
            {
              "internalType": "uint256",
              "name": "maxAmount",
              "type": "uint256"
            },
            {
              "internalType": "uint256",
              "name": "poolId",
              "type": "uint256"
            },
            {
              "internalType": "string",
              "name": "CID",
              "type": "string"
            },
            {
              "internalType": "enum CoverLib.AssetDepositType",
              "name": "adt",
              "type": "uint8"
            },
            {
              "internalType": "address",
              "name": "asset",
              "type": "address"
            }
          ],
          "internalType": "struct CoverLib.Cover",
          "name": "_cover",
          "type": "tuple"
        }
      ],
      "name": "addPoolCover",
      "outputs": [],
      "stateMutability": "nonpayable",
      "type": "function"
    },
    {
      "inputs": [
        {
          "internalType": "address",
          "name": "",
          "type": "address"
        }
      ],
      "name": "assetPriceFeeds",
      "outputs": [
        {
          "internalType": "contract AggregatorV3Interface",
          "name": "",
          "type": "address"
        }
      ],
      "stateMutability": "view",
      "type": "function"
    },
    {
      "inputs": [],
      "name": "bqBTC",
      "outputs": [
        {
          "internalType": "contract IbqBTC",
          "name": "",
          "type": "address"
        }
      ],
      "stateMutability": "view",
      "type": "function"
    },
    {
      "inputs": [],
      "name": "bqBTCAddress",
      "outputs": [
        {
          "internalType": "address",
          "name": "",
          "type": "address"
        }
      ],
      "stateMutability": "view",
      "type": "function"
    },
    {
      "inputs": [
        {
          "internalType": "uint256",
          "name": "_proposalId",
          "type": "uint256"
        }
      ],
      "name": "claimProposalFunds",
      "outputs": [],
      "stateMutability": "nonpayable",
      "type": "function"
    },
    {
      "inputs": [],
      "name": "coverContract",
      "outputs": [
        {
          "internalType": "address",
          "name": "",
          "type": "address"
        }
      ],
      "stateMutability": "view",
      "type": "function"
    },
    {
      "inputs": [
        {
          "components": [
            {
              "internalType": "uint256",
              "name": "poolId",
              "type": "uint256"
            },
            {
              "internalType": "enum CoverLib.RiskType",
              "name": "riskType",
              "type": "uint8"
            },
            {
              "internalType": "string",
              "name": "poolName",
              "type": "string"
            },
            {
              "internalType": "string",
              "name": "rating",
              "type": "string"
            },
            {
              "internalType": "uint256",
              "name": "apy",
              "type": "uint256"
            },
            {
              "internalType": "uint256",
              "name": "minPeriod",
              "type": "uint256"
            },
            {
              "internalType": "uint8",
              "name": "leverage",
              "type": "uint8"
            },
            {
              "internalType": "uint256",
              "name": "investmentArm",
              "type": "uint256"
            },
            {
              "internalType": "enum CoverLib.AssetDepositType",
              "name": "adt",
              "type": "uint8"
            },
            {
              "internalType": "address",
              "name": "asset",
              "type": "address"
            }
          ],
          "internalType": "struct CoverLib.PoolParams",
          "name": "params",
          "type": "tuple"
        }
      ],
      "name": "createPool",
      "outputs": [],
      "stateMutability": "nonpayable",
      "type": "function"
    },
    {
      "inputs": [
        {
          "internalType": "uint256",
          "name": "_poolId",
          "type": "uint256"
        }
      ],
      "name": "deactivatePool",
      "outputs": [],
      "stateMutability": "nonpayable",
      "type": "function"
    },
    {
      "inputs": [
        {
          "components": [
            {
              "internalType": "address",
              "name": "depositor",
              "type": "address"
            },
            {
              "internalType": "uint256",
              "name": "poolId",
              "type": "uint256"
            },
            {
              "internalType": "uint256",
              "name": "amount",
              "type": "uint256"
            },
            {
              "internalType": "enum CoverLib.DepositType",
              "name": "pdt",
              "type": "uint8"
            },
            {
              "internalType": "enum CoverLib.AssetDepositType",
              "name": "adt",
              "type": "uint8"
            },
            {
              "internalType": "address",
              "name": "asset",
              "type": "address"
            }
          ],
          "internalType": "struct CoverLib.DepositParams",
          "name": "depositParam",
          "type": "tuple"
        }
      ],
      "name": "deposit",
      "outputs": [
        {
          "internalType": "uint256",
          "name": "",
          "type": "uint256"
        },
        {
          "internalType": "uint256",
          "name": "",
          "type": "uint256"
        }
      ],
      "stateMutability": "payable",
      "type": "function"
    },
    {
      "inputs": [
        {
          "internalType": "uint256",
          "name": "_poolId",
          "type": "uint256"
        }
      ],
      "name": "finalPoollWithdrawal",
      "outputs": [],
      "stateMutability": "nonpayable",
      "type": "function"
    },
    {
      "inputs": [
        {
          "internalType": "address",
          "name": "depositor",
          "type": "address"
        },
        {
          "internalType": "uint256",
          "name": "_poolId",
          "type": "uint256"
        },
        {
          "internalType": "enum CoverLib.DepositType",
          "name": "pdt",
          "type": "uint8"
        }
      ],
      "name": "finalVaultWithdrawUpdate",
      "outputs": [],
      "stateMutability": "nonpayable",
      "type": "function"
    },
    {
      "inputs": [],
      "name": "getAllParticipants",
      "outputs": [
        {
          "internalType": "address[]",
          "name": "",
          "type": "address[]"
        }
      ],
      "stateMutability": "view",
      "type": "function"
    },
    {
      "inputs": [],
      "name": "getAllPools",
      "outputs": [
        {
          "components": [
            {
              "internalType": "uint256",
              "name": "id",
              "type": "uint256"
            },
            {
              "internalType": "string",
              "name": "poolName",
              "type": "string"
            },
            {
              "internalType": "string",
              "name": "rating",
              "type": "string"
            },
            {
              "internalType": "enum CoverLib.RiskType",
              "name": "riskType",
              "type": "uint8"
            },
            {
              "internalType": "uint256",
              "name": "apy",
              "type": "uint256"
            },
            {
              "internalType": "uint256",
              "name": "minPeriod",
              "type": "uint256"
            },
            {
              "internalType": "uint256",
              "name": "totalUnit",
              "type": "uint256"
            },
            {
              "internalType": "uint256",
              "name": "tvl",
              "type": "uint256"
            },
            {
              "internalType": "uint256",
              "name": "baseValue",
              "type": "uint256"
            },
            {
              "internalType": "uint256",
              "name": "coverUnits",
              "type": "uint256"
            },
            {
              "internalType": "uint256",
              "name": "tcp",
              "type": "uint256"
            },
            {
              "internalType": "bool",
              "name": "isActive",
              "type": "bool"
            },
            {
              "internalType": "uint256",
              "name": "percentageSplitBalance",
              "type": "uint256"
            },
            {
              "internalType": "uint256",
              "name": "investmentArmPercent",
              "type": "uint256"
            },
            {
              "internalType": "uint8",
              "name": "leverage",
              "type": "uint8"
            },
            {
              "internalType": "address",
              "name": "asset",
              "type": "address"
            },
            {
              "internalType": "enum CoverLib.AssetDepositType",
              "name": "assetType",
              "type": "uint8"
            }
          ],
          "internalType": "struct CoverLib.Pool[]",
          "name": "",
          "type": "tuple[]"
        }
      ],
      "stateMutability": "view",
      "type": "function"
    },
    {
      "inputs": [
        {
          "internalType": "uint256",
          "name": "_poolId",
          "type": "uint256"
        }
      ],
      "name": "getPool",
      "outputs": [
        {
          "components": [
            {
              "internalType": "uint256",
              "name": "id",
              "type": "uint256"
            },
            {
              "internalType": "string",
              "name": "poolName",
              "type": "string"
            },
            {
              "internalType": "string",
              "name": "rating",
              "type": "string"
            },
            {
              "internalType": "enum CoverLib.RiskType",
              "name": "riskType",
              "type": "uint8"
            },
            {
              "internalType": "uint256",
              "name": "apy",
              "type": "uint256"
            },
            {
              "internalType": "uint256",
              "name": "minPeriod",
              "type": "uint256"
            },
            {
              "internalType": "uint256",
              "name": "totalUnit",
              "type": "uint256"
            },
            {
              "internalType": "uint256",
              "name": "tvl",
              "type": "uint256"
            },
            {
              "internalType": "uint256",
              "name": "baseValue",
              "type": "uint256"
            },
            {
              "internalType": "uint256",
              "name": "coverUnits",
              "type": "uint256"
            },
            {
              "internalType": "uint256",
              "name": "tcp",
              "type": "uint256"
            },
            {
              "internalType": "bool",
              "name": "isActive",
              "type": "bool"
            },
            {
              "internalType": "uint256",
              "name": "percentageSplitBalance",
              "type": "uint256"
            },
            {
              "internalType": "uint256",
              "name": "investmentArmPercent",
              "type": "uint256"
            },
            {
              "internalType": "uint8",
              "name": "leverage",
              "type": "uint8"
            },
            {
              "internalType": "address",
              "name": "asset",
              "type": "address"
            },
            {
              "internalType": "enum CoverLib.AssetDepositType",
              "name": "assetType",
              "type": "uint8"
            }
          ],
          "internalType": "struct CoverLib.Pool",
          "name": "",
          "type": "tuple"
        }
      ],
      "stateMutability": "view",
      "type": "function"
    },
    {
      "inputs": [
        {
          "internalType": "uint256",
          "name": "_poolId",
          "type": "uint256"
        }
      ],
      "name": "getPoolCovers",
      "outputs": [
        {
          "components": [
            {
              "internalType": "uint256",
              "name": "id",
              "type": "uint256"
            },
            {
              "internalType": "string",
              "name": "coverName",
              "type": "string"
            },
            {
              "internalType": "enum CoverLib.RiskType",
              "name": "riskType",
              "type": "uint8"
            },
            {
              "internalType": "string",
              "name": "chains",
              "type": "string"
            },
            {
              "internalType": "uint256",
              "name": "capacity",
              "type": "uint256"
            },
            {
              "internalType": "uint256",
              "name": "cost",
              "type": "uint256"
            },
            {
              "internalType": "uint256",
              "name": "capacityAmount",
              "type": "uint256"
            },
            {
              "internalType": "uint256",
              "name": "coverValues",
              "type": "uint256"
            },
            {
              "internalType": "uint256",
              "name": "maxAmount",
              "type": "uint256"
            },
            {
              "internalType": "uint256",
              "name": "poolId",
              "type": "uint256"
            },
            {
              "internalType": "string",
              "name": "CID",
              "type": "string"
            },
            {
              "internalType": "enum CoverLib.AssetDepositType",
              "name": "adt",
              "type": "uint8"
            },
            {
              "internalType": "address",
              "name": "asset",
              "type": "address"
            }
          ],
          "internalType": "struct CoverLib.Cover[]",
          "name": "",
          "type": "tuple[]"
        }
      ],
      "stateMutability": "view",
      "type": "function"
    },
    {
      "inputs": [
        {
          "internalType": "uint256",
          "name": "_poolId",
          "type": "uint256"
        }
      ],
      "name": "getPoolTVL",
      "outputs": [
        {
          "internalType": "uint256",
          "name": "",
          "type": "uint256"
        }
      ],
      "stateMutability": "view",
      "type": "function"
    },
    {
      "inputs": [
        {
          "internalType": "address",
          "name": "_userAddress",
          "type": "address"
        }
      ],
      "name": "getPoolsByAddress",
      "outputs": [
        {
          "components": [
            {
              "internalType": "string",
              "name": "poolName",
              "type": "string"
            },
            {
              "internalType": "uint256",
              "name": "poolId",
              "type": "uint256"
            },
            {
              "internalType": "uint256",
              "name": "dailyPayout",
              "type": "uint256"
            },
            {
              "internalType": "uint256",
              "name": "depositAmount",
              "type": "uint256"
            },
            {
              "internalType": "uint256",
              "name": "apy",
              "type": "uint256"
            },
            {
              "internalType": "uint256",
              "name": "minPeriod",
              "type": "uint256"
            },
            {
              "internalType": "uint256",
              "name": "totalUnit",
              "type": "uint256"
            },
            {
              "internalType": "uint256",
              "name": "tcp",
              "type": "uint256"
            },
            {
              "internalType": "bool",
              "name": "isActive",
              "type": "bool"
            },
            {
              "internalType": "uint256",
              "name": "accruedPayout",
              "type": "uint256"
            }
          ],
          "internalType": "struct CoverLib.PoolInfo[]",
          "name": "",
          "type": "tuple[]"
        }
      ],
      "stateMutability": "view",
      "type": "function"
    },
    {
      "inputs": [
        {
          "internalType": "address",
          "name": "asset",
          "type": "address"
        }
      ],
      "name": "getPriceInUSD",
      "outputs": [
        {
          "internalType": "uint256",
          "name": "",
          "type": "uint256"
        }
      ],
      "stateMutability": "view",
      "type": "function"
    },
    {
      "inputs": [
        {
          "internalType": "uint256",
          "name": "_poolId",
          "type": "uint256"
        },
        {
          "internalType": "address",
          "name": "_user",
          "type": "address"
        },
        {
          "internalType": "enum CoverLib.DepositType",
          "name": "pdt",
          "type": "uint8"
        }
      ],
      "name": "getUserGenericDeposit",
      "outputs": [
        {
          "components": [
            {
              "internalType": "address",
              "name": "lp",
              "type": "address"
            },
            {
              "internalType": "uint256",
              "name": "amount",
              "type": "uint256"
            },
            {
              "internalType": "uint256",
              "name": "poolId",
              "type": "uint256"
            },
            {
              "internalType": "uint256",
              "name": "dailyPayout",
              "type": "uint256"
            },
            {
              "internalType": "enum CoverLib.Status",
              "name": "status",
              "type": "uint8"
            },
            {
              "internalType": "uint256",
              "name": "daysLeft",
              "type": "uint256"
            },
            {
              "internalType": "uint256",
              "name": "startDate",
              "type": "uint256"
            },
            {
              "internalType": "uint256",
              "name": "withdrawalInitiated",
              "type": "uint256"
            },
            {
              "internalType": "uint256",
              "name": "accruedPayout",
              "type": "uint256"
            },
            {
              "internalType": "enum CoverLib.DepositType",
              "name": "pdt",
              "type": "uint8"
            },
            {
              "internalType": "enum CoverLib.AssetDepositType",
              "name": "adt",
              "type": "uint8"
            },
            {
              "internalType": "address",
              "name": "asset",
              "type": "address"
            }
          ],
          "internalType": "struct CoverLib.GenericDepositDetails",
          "name": "",
          "type": "tuple"
        }
      ],
      "stateMutability": "view",
      "type": "function"
    },
    {
      "inputs": [
        {
          "internalType": "address",
          "name": "user",
          "type": "address"
        }
      ],
      "name": "getUserParticipation",
      "outputs": [
        {
          "internalType": "uint256",
          "name": "",
          "type": "uint256"
        }
      ],
      "stateMutability": "view",
      "type": "function"
    },
    {
      "inputs": [
        {
          "internalType": "uint256",
          "name": "_poolId",
          "type": "uint256"
        },
        {
          "internalType": "address",
          "name": "_user",
          "type": "address"
        }
      ],
      "name": "getUserPoolDeposit",
      "outputs": [
        {
          "components": [
            {
              "internalType": "address",
              "name": "lp",
              "type": "address"
            },
            {
              "internalType": "uint256",
              "name": "amount",
              "type": "uint256"
            },
            {
              "internalType": "uint256",
              "name": "poolId",
              "type": "uint256"
            },
            {
              "internalType": "uint256",
              "name": "dailyPayout",
              "type": "uint256"
            },
            {
              "internalType": "enum CoverLib.Status",
              "name": "status",
              "type": "uint8"
            },
            {
              "internalType": "uint256",
              "name": "daysLeft",
              "type": "uint256"
            },
            {
              "internalType": "uint256",
              "name": "startDate",
              "type": "uint256"
            },
            {
              "internalType": "uint256",
              "name": "withdrawalInitiated",
              "type": "uint256"
            },
            {
              "internalType": "uint256",
              "name": "accruedPayout",
              "type": "uint256"
            },
            {
              "internalType": "enum CoverLib.DepositType",
              "name": "pdt",
              "type": "uint8"
            }
          ],
          "internalType": "struct CoverLib.Deposits",
          "name": "",
          "type": "tuple"
        }
      ],
      "stateMutability": "view",
      "type": "function"
    },
    {
      "inputs": [],
      "name": "governance",
      "outputs": [
        {
          "internalType": "address",
          "name": "",
          "type": "address"
        }
      ],
      "stateMutability": "view",
      "type": "function"
    },
    {
      "inputs": [
        {
          "internalType": "uint256",
          "name": "_poolId",
          "type": "uint256"
        },
        {
          "internalType": "uint256",
          "name": "__poolPercentageSplit",
          "type": "uint256"
        }
      ],
      "name": "increasePercentageSplit",
      "outputs": [],
      "stateMutability": "nonpayable",
      "type": "function"
    },
    {
      "inputs": [
        {
          "internalType": "uint256",
          "name": "_poolId",
          "type": "uint256"
        }
      ],
      "name": "initalPoolWithdrawal",
      "outputs": [],
      "stateMutability": "nonpayable",
      "type": "function"
    },
    {
      "inputs": [],
      "name": "initialOwner",
      "outputs": [
        {
          "internalType": "address",
          "name": "",
          "type": "address"
        }
      ],
      "stateMutability": "view",
      "type": "function"
    },
    {
      "inputs": [
        {
          "internalType": "address",
          "name": "depositor",
          "type": "address"
        },
        {
          "internalType": "uint256",
          "name": "_poolId",
          "type": "uint256"
        },
        {
          "internalType": "enum CoverLib.DepositType",
          "name": "pdt",
          "type": "uint8"
        }
      ],
      "name": "initialVaultWithdrawUpdate",
      "outputs": [],
      "stateMutability": "nonpayable",
      "type": "function"
    },
    {
      "inputs": [],
      "name": "owner",
      "outputs": [
        {
          "internalType": "address",
          "name": "",
          "type": "address"
        }
      ],
      "stateMutability": "view",
      "type": "function"
    },
    {
      "inputs": [
        {
          "internalType": "uint256",
          "name": "",
          "type": "uint256"
        }
      ],
      "name": "participants",
      "outputs": [
        {
          "internalType": "address",
          "name": "",
          "type": "address"
        }
      ],
      "stateMutability": "view",
      "type": "function"
    },
    {
      "inputs": [
        {
          "internalType": "address",
          "name": "",
          "type": "address"
        }
      ],
      "name": "participation",
      "outputs": [
        {
          "internalType": "uint256",
          "name": "",
          "type": "uint256"
        }
      ],
      "stateMutability": "view",
      "type": "function"
    },
    {
      "inputs": [
        {
          "internalType": "uint256",
          "name": "poolId",
          "type": "uint256"
        }
      ],
      "name": "poolActive",
      "outputs": [
        {
          "internalType": "bool",
          "name": "",
          "type": "bool"
        }
      ],
      "stateMutability": "view",
      "type": "function"
    },
    {
      "inputs": [],
      "name": "poolCanister",
      "outputs": [
        {
          "internalType": "address",
          "name": "",
          "type": "address"
        }
      ],
      "stateMutability": "view",
      "type": "function"
    },
    {
      "inputs": [],
      "name": "poolCount",
      "outputs": [
        {
          "internalType": "uint256",
          "name": "",
          "type": "uint256"
        }
      ],
      "stateMutability": "view",
      "type": "function"
    },
    {
      "inputs": [
        {
          "internalType": "uint256",
          "name": "",
          "type": "uint256"
        }
      ],
      "name": "pools",
      "outputs": [
        {
          "internalType": "uint256",
          "name": "id",
          "type": "uint256"
        },
        {
          "internalType": "string",
          "name": "poolName",
          "type": "string"
        },
        {
          "internalType": "string",
          "name": "rating",
          "type": "string"
        },
        {
          "internalType": "enum CoverLib.RiskType",
          "name": "riskType",
          "type": "uint8"
        },
        {
          "internalType": "uint256",
          "name": "apy",
          "type": "uint256"
        },
        {
          "internalType": "uint256",
          "name": "minPeriod",
          "type": "uint256"
        },
        {
          "internalType": "uint256",
          "name": "totalUnit",
          "type": "uint256"
        },
        {
          "internalType": "uint256",
          "name": "tvl",
          "type": "uint256"
        },
        {
          "internalType": "uint256",
          "name": "baseValue",
          "type": "uint256"
        },
        {
          "internalType": "uint256",
          "name": "coverUnits",
          "type": "uint256"
        },
        {
          "internalType": "uint256",
          "name": "tcp",
          "type": "uint256"
        },
        {
          "internalType": "bool",
          "name": "isActive",
          "type": "bool"
        },
        {
          "internalType": "uint256",
          "name": "percentageSplitBalance",
          "type": "uint256"
        },
        {
          "internalType": "uint256",
          "name": "investmentArmPercent",
          "type": "uint256"
        },
        {
          "internalType": "uint8",
          "name": "leverage",
          "type": "uint8"
        },
        {
          "internalType": "address",
          "name": "asset",
          "type": "address"
        },
        {
          "internalType": "enum CoverLib.AssetDepositType",
          "name": "assetType",
          "type": "uint8"
        }
      ],
      "stateMutability": "view",
      "type": "function"
    },
    {
      "inputs": [
        {
          "internalType": "uint256",
          "name": "_poolId",
          "type": "uint256"
        },
        {
          "internalType": "uint256",
          "name": "__poolPercentageSplit",
          "type": "uint256"
        }
      ],
      "name": "reducePercentageSplit",
      "outputs": [],
      "stateMutability": "nonpayable",
      "type": "function"
    },
    {
      "inputs": [],
      "name": "renounceOwnership",
      "outputs": [],
      "stateMutability": "nonpayable",
      "type": "function"
    },
    {
      "inputs": [
        {
          "internalType": "address",
          "name": "_coverContract",
          "type": "address"
        }
      ],
      "name": "setCover",
      "outputs": [],
      "stateMutability": "nonpayable",
      "type": "function"
    },
    {
      "inputs": [
        {
          "internalType": "address",
          "name": "_governance",
          "type": "address"
        }
      ],
      "name": "setGovernance",
      "outputs": [],
      "stateMutability": "nonpayable",
      "type": "function"
    },
    {
      "inputs": [
        {
          "internalType": "uint256",
          "name": "poolId",
          "type": "uint256"
        },
        {
          "internalType": "address",
          "name": "user",
          "type": "address"
        },
        {
          "internalType": "enum CoverLib.DepositType",
          "name": "pdt",
          "type": "uint8"
        }
      ],
      "name": "setUserDepositToZero",
      "outputs": [],
      "stateMutability": "nonpayable",
      "type": "function"
    },
    {
      "inputs": [
        {
          "internalType": "address",
          "name": "_vaultContract",
          "type": "address"
        }
      ],
      "name": "setVault",
      "outputs": [],
      "stateMutability": "nonpayable",
      "type": "function"
    },
    {
      "inputs": [
        {
          "internalType": "address",
          "name": "newOwner",
          "type": "address"
        }
      ],
      "name": "transferOwnership",
      "outputs": [],
      "stateMutability": "nonpayable",
      "type": "function"
    },
    {
      "inputs": [
        {
          "internalType": "uint256",
          "name": "_poolId",
          "type": "uint256"
        },
        {
          "internalType": "uint256",
          "name": "_apy",
          "type": "uint256"
        },
        {
          "internalType": "uint256",
          "name": "_minPeriod",
          "type": "uint256"
        }
      ],
      "name": "updatePool",
      "outputs": [],
      "stateMutability": "nonpayable",
      "type": "function"
    },
    {
      "inputs": [
        {
          "internalType": "uint256",
          "name": "_poolId",
          "type": "uint256"
        },
        {
          "components": [
            {
              "internalType": "uint256",
              "name": "id",
              "type": "uint256"
            },
            {
              "internalType": "string",
              "name": "coverName",
              "type": "string"
            },
            {
              "internalType": "enum CoverLib.RiskType",
              "name": "riskType",
              "type": "uint8"
            },
            {
              "internalType": "string",
              "name": "chains",
              "type": "string"
            },
            {
              "internalType": "uint256",
              "name": "capacity",
              "type": "uint256"
            },
            {
              "internalType": "uint256",
              "name": "cost",
              "type": "uint256"
            },
            {
              "internalType": "uint256",
              "name": "capacityAmount",
              "type": "uint256"
            },
            {
              "internalType": "uint256",
              "name": "coverValues",
              "type": "uint256"
            },
            {
              "internalType": "uint256",
              "name": "maxAmount",
              "type": "uint256"
            },
            {
              "internalType": "uint256",
              "name": "poolId",
              "type": "uint256"
            },
            {
              "internalType": "string",
              "name": "CID",
              "type": "string"
            },
            {
              "internalType": "enum CoverLib.AssetDepositType",
              "name": "adt",
              "type": "uint8"
            },
            {
              "internalType": "address",
              "name": "asset",
              "type": "address"
            }
          ],
          "internalType": "struct CoverLib.Cover",
          "name": "_cover",
          "type": "tuple"
        }
      ],
      "name": "updatePoolCovers",
      "outputs": [],
      "stateMutability": "nonpayable",
      "type": "function"
    },
    {
      "inputs": [],
      "name": "vaultContract",
      "outputs": [
        {
          "internalType": "address",
          "name": "",
          "type": "address"
        }
      ],
      "stateMutability": "view",
      "type": "function"
    },
    {
      "inputs": [
        {
          "internalType": "uint256",
          "name": "_vaultId",
          "type": "uint256"
        }
      ],
      "name": "vaultWithdraw",
      "outputs": [],
      "stateMutability": "nonpayable",
      "type": "function"
    }
  ],
  "bytecode": "0x60803461027657601f615db438819003918201601f19168301916001600160401b0383118484101761027b57808492604094855283398101031261027657610052602061004b83610291565b9201610291565b60016000556001600160a01b0390911690811561026057600180546001600160a01b031981168417909155604051929081906001600160a01b03167f8be0079c531659141344cd1fd0a4f28419497f9722a3daafe3b4186f6b6457e0600080a3601180546001600160a01b031990811690915560158054821692909217909155600280548216732514895c72f50d8bd4b4f9b1110f0d6bd2c97526908117909155600380548316735741306c21795fdcbb9b265ea0255f499dfe515c908117909155600480548416739331b55d9830ef609a2abcfac0fbce050a52fdea17815560058054851673eca2605f0bcf2ba5966372c99837b1f182d3d62017815560066020527f54cdd369e4e8a8515e52ca72ec816c2101831ad1f18bf44102ed171459c9b4f8805486169094179093557f92599ef52398a38e84e5b15ac236af99994b80b5e390e5524198cbc8e48da63780548516831790556001600160a01b039485166000818152604081208054871690941790935590547fd1eceb50b46aea74f6b42453ba5381363a7854e4547ee8ff2fef30dd11f58cdd80548616918716919091179055915473337610d27c682e347c9cd60bd4b3b107c9d34ddd9091527f44abd9ca46b16d583f86aa1f838cb006ce9d3219783a65b570216ad498a2825a805484169190941617909255600f8054821683179055601080549091169091179055615b0e90816102a68239f35b631e4fbdf760e01b600052600060045260246000fd5b600080fd5b634e487b7160e01b600052604160045260246000fd5b51906001600160a01b03821682036102765756fe6080604052600436101561001257600080fd5b60003560e01c80630226614714614746578063068bcd8d1461470f578063173c08cc14613e4d578063195ec9ee14613d815780631ac1277714613bc95780631d69829214613b2e5780632274346b14613b05578063248a75b714613adc57806325f11e8d14613aa857806329ba7bb214613a7f578063318667631461361657806334808ec3146135ed57806335c1d349146135ab57806346f84795146125d25780634914a8781461353357806358526da3146130155780635aa6e67514612fec5780635f267c5514612fc35780636817031b14612ee65780636f60537d14612ebd578063715018a614612e60578063780969ba14612a755780637c366cc6146129985780637eb111f0146128595780638da5cb5b146128305780638f2446301461260c57806396f3a8ad146125d2578063996b8a6f146125a95780639abd9b05146125555780639fd36b15146124fa578063a2a8baaf14612057578063a4948d8514611ff8578063ab033ea914611f09578063ac4afa3814611da8578063b5d90c2814611d7f578063c039a53f14611caf578063d27e52e814611c6d578063d86c044414611b15578063d88ff1f414611a09578063e0375fc014611805578063e35f812914611202578063e9e0c8b614610e14578063f2fde38b14610d8a578063f3a100e91461089f578063f525cb6814610881578063f6e80558146108585763fb839dda1461022157600080fd5b346103b45760203660031901126103b45760043561023d615a6d565b600d54604051632bb2b24360e11b8152600481018390523360248201526001600160a01b039091169061016081604481855afa9081156103a857600091610766575b50906020820191825115610721576080600291015161029d816147e3565b6102a6816147e3565b036106d057600060249160405192838092632500ed8d60e21b82528760048301525afa9081156103a857600091610415575b50600160c08201516102e9816147ed565b6102f2816147ed565b036103f45760e00151905160405163a9059cbb60e01b8152336004820152602481019190915290602090829060449082906000906001600160a01b03165af180156103a8576000906103b9575b6103499150615a29565b600d546001600160a01b0316803b156103b4576040516307e2f9cf60e21b815260048101839052336024820152906000908290604490829084905af180156103a857610397575b6001600055005b60006103a291614976565b80610390565b6040513d6000823e3d90fd5b600080fd5b506020813d6020116103ec575b816103d360209383614976565b810103126103b4576103e7610349916150e3565b61033f565b3d91506103c6565b5060008080806104109451335af161040a6159ad565b506159dd565b610349565b903d8082843e6104258184614976565b8201916020818403126106cc578051906001600160401b0382116106b457019061010082840312610549576040519261010084018481106001600160401b038211176106b8576040528251845260208301516001600160401b0381116106b4578161049191850161596b565b602085015260408301516001600160401b0381116106b45783019080601f830112156106b4578151916104c3836156bb565b926104d16040519485614976565b80845260208085019160051b830101918383116106b05760208101915b83831061054c5750505050506040840152606082015160608401526080820151608084015260a082015160a084015260c0820151906002821015610549575060c083015261053e9060e001615957565b60e0820152386102d8565b80fd5b82516001600160401b0381116106ac578201610220818703601f1901126106ac576040519061057a82614906565b6020810151825260408101516001600160401b0381116106a8578760206105a39284010161596b565b602083015260608101516001600160401b0381116106a8578760206105ca9284010161596b565b6040830152608081015160038110156106a8579061022091606084015260a0810151608084015260c081015160a084015260e081015160c084015261010081015160e084015261012081015161010084015261014081015161012084015261016081015161014084015261064161018082016150e3565b6101608401526101a08101516101808401526101c08101516101a084015261066c6101e08201614e97565b6101c084015261067f6102008201615957565b6101e0840152015160028110156106a4576102008201528152602092830192016104ee565b8880fd5b8980fd5b8780fd5b8580fd5b8280fd5b634e487b7160e01b83526041600452602483fd5b5080fd5b60405162461bcd60e51b8152602060048201526024808201527f4465706f736974206973206e6f7420726561647920666f72207769746864726160448201526377616c7360e01b6064820152608490fd5b60405162461bcd60e51b815260206004820152601d60248201527f4e6f20616374697665207769746864726177616c20666f7220757365720000006044820152606490fd5b610160813d8211610850575b816107806101609383614976565b810103126106cc576040519161016083018381106001600160401b0382111761083c576040526107af82615957565b8352602082015160208401526040820151604084015260608201516060840152608082015160038110156106cc57608084015260a082015160a084015260c082015160c084015260e082015160e084015261010082015161010084015261012082015190600282101561054957506101208301526108309061014001615957565b6101408201523861027f565b634e487b7160e01b82526041600452602482fd5b3d9150610772565b346103b45760003660031901126103b457600c546040516001600160a01b039091168152602090f35b346103b45760003660031901126103b4576020600a54604051908152f35b346103b45760203660031901126103b4576004356108bb615a6d565b8060005260096020526040600020903360005260076020526040600020816000526020526040600020600080526020526040600020906007820154620151808101809111610bda5761090e90421061571d565b60018201926004845493610923851515615136565b0193845494610940600160ff881661093a816147e3565b146157a1565b600260009660ff191617905561097861095e60068401958654614ea5565b808655606461097182600d870154614cb4565b0490614ea5565b92600e83019361098c60ff86541682614cb4565b6009850155600884015585526008602052604085209283546109ad816156bb565b946109bb6040519687614976565b81865287526020808820889187015b838310610c975750505050855b8451811015610a5857600c548791906001600160a01b03166109f98288615108565b515190803b15610a545760248492604051958693849263106b5da160e01b845260048401525af191888315610a4857600193610a38575b5050016109d7565b610a4191614976565b8888610a30565b604051903d90823e3d90fd5b8380fd5b50848660ff600b8601541680610c79575b15610bf05750601154610a84906001600160a01b0316614cc7565b906012905b54906012039160128311610bda57610ab0610ab692610ab0670de0b6b3a764000095614eb2565b90614cb4565b046007840155600160ff825460a81c16610acf816147ed565b03610bac5754815460405163a9059cbb60e01b8152336004820152602481019190915290602090829060081c6001600160a01b0316816000816044810103925af19081156103a857600091610b59575b50600080516020615ab983398151915291610b3c610b4f92615a29565b546040519182916001339601908361511c565b0390a26001600055005b90506020813d602011610ba4575b81610b7460209383614976565b810103126103b457600080516020615ab983398151915291610b3c610b9b610b4f936150e3565b92505091610b1f565b3d9150610b67565b50610b4f81610bd56000808080600080516020615ab98339815191529754335af161040a6159ad565b610b3c565b634e487b7160e01b600052601160045260246000fd5b825460081c6001600160a01b031691906004906020610c0e85614cc7565b946040519384809263313ce56760e01b82525afa908115610a48578091610c3c575b5060ff91501690610a89565b90506020823d602011610c71575b81610c5760209383614976565b810103126105495750610c6b60ff91614e97565b87610c30565b3d9150610c4a565b5082546011546001600160a01b0390811660089290921c1614610a69565b600c6020600192604051610caa81614922565b85548152604051610cc881610cc181898b01614c1a565b0382614976565b8382015260ff600287015416610cdd816147e3565b6040820152604051610cf681610cc18160038b01614c1a565b606082015260048601546080820152600586015460a0820152600686015460c0820152600786015460e082015260088601546101008201526009860154610120820152604051610d4d81610cc181600a8b01614c1a565b610140820152600b86015460ff8116610d65816147ed565b610160830152858060a01b039060081c166101808201528152019201920191906109ca565b346103b45760203660031901126103b457610da3614771565b610dab615a8f565b6001600160a01b03168015610dfe57600180546001600160a01b0319811683179091556001600160a01b03167f8be0079c531659141344cd1fd0a4f28419497f9722a3daafe3b4186f6b6457e0600080a3005b631e4fbdf760e01b600052600060045260246000fd5b346103b45760403660031901126103b4576024356004356001600160a01b0382168083036103b4576000610120604051610e4d816148ea565b8281528260208201528260408201528260608201528260808201528260a08201528260c08201528260e0820152826101008201520152600052600760205260406000208160005260205260406000206000805260205260406000209060405191610eb6836148ea565b80546001600160a01b031683526001810154602084019081526002820154604085019081526003830154606086019081526004840154929692608087019060ff16610f00816147e3565b815260058501549160a0880192835260068601549360c0890194855260078701549560e08a0196875260ff600960088a0154996101008d019a8b52015416986101208b0199610f4e816147ed565b8a52806000526009602052604060002090604051610f6b81614906565b82548152604051610f8381610cc18160018801614c1a565b6020820152604051610f9c81610cc18160028801614c1a565b604082015260ff600384015416610fb2816147e3565b60608201526004830154608082015261020060ff600e60058601549560a08501968752600681015460c0860152600781015460e086015260088101546101008601526009810154610120860152600a81015461014086015282600b820154161515610160860152600c810154610180860152600d8101546101a086015201548181166101c085015260018060a01b038160081c166101e085015260a81c169161105a836147ed565b0152875191519062015180820291808304620151801490151715610bda576110876020926110c4946150d6565b600c54604051630414960560e21b81526001600160a01b039687166004820152602481019390935290949193849290911690829081906044820190565b03915afa9081156103a8576000916111d0575b50806111c057506111116201518061110988515b4288516110f7816147e3565b611100816147e3565b6111b857614ea5565b048451614cb4565b8852428111611182575061014099600085525b604080519a516001600160a01b03168b52905160208b015290519089015251606088015251611152816147e3565b60808701525160a08601525160c08501525160e0840152516101008301525161117a816147ed565b610120820152f35b61118d904290614ea5565b99620151808b019a8b8111610bda576201517f019a8b11610bda57620151806101409b048552611124565b508a51614ea5565b62015180611109611111926110eb565b906020823d6020116111fa575b816111ea60209383614976565b810103126105495750518c6110d7565b3d91506111dd565b346103b45760203660031901126103b45760043561121e615a6d565b600e54604051633b4d01a760e01b815260048101839052906000908290602490829084906001600160a01b03165af19081156103a85760009161167d575b509061010082015160c0830151926005841015611667576002600094149081611659575b501561161c5760a081018051845260096020526040842082519192916001600160a01b031633036115e0576112bb60ff600b83015416615916565b6006810180549360c08401918251861061159b576112ef889684516112e5600a88019182546150d6565b9055845190614ea5565b90556112fb81516157e2565b93855b855181101561137957600c546001600160a01b03169061131e8188615108565b5151823b156106a457889260248492604051958693849263106b5da160e01b845260048401525af191821561136e578860019361135e575b5050016112fe565b61136791614976565b8a88611356565b6040513d8a823e3d90fd5b50919350919460018060a01b03600e541690813b156106b057859160248392604051948593849263f1b4bf9d60e01b845260048401525af180156115905785937feef4955e8b18dcb6d1c19905b7b86e5fe56138ad1ce2c5e540ce4e959312f5119285606093611580575b505051855184516040805193845260208401929092526001600160a01b031690820152a1600160e0820151611418816147ed565b611421816147ed565b03611566576101000151825160405163a9059cbb60e01b815233600482015260248101919091529160209183916044918391906001600160a01b03165af1801561155b578390611520575b6114769150615a29565b60018060a01b03600f54168151813b15610a5457604051637104a76d60e11b8152336004820152602481019190915292908390604490829084905af191848315610a48577f415071086c9ea63f7f39884c21a8af430af53bfd511a362dff69cabcb1b8bcc193611510575b505051916114fd60405191604083526001604084019101614c1a565b9260208201528033930390a26001815580f35b61151991614976565b84846114e1565b506020813d602011611553575b8161153a60209383614976565b810103126106b45761154e611476916150e3565b61146c565b3d915061152d565b6040513d85823e3d90fd5b5080808061157b938551335af161040a6159ad565b611476565b61158991614976565b89856113e4565b6040513d87823e3d90fd5b60405162461bcd60e51b815260206004820152601c60248201527f4e6f7420656e6f7567682066756e647320696e2074686520706f6f6c000000006044820152606490fd5b60405162461bcd60e51b8152602060048201526014602482015273139bdd0818481d985b1a59081c1c9bdc1bdcd85b60621b6044820152606490fd5b60405162461bcd60e51b8152602060048201526015602482015274141c9bdc1bdcd85b081b9bdd08185c1c1c9bdd9959605a1b6044820152606490fd5b60e091500151151584611280565b634e487b7160e01b600052602160045260246000fd5b3d8083833e61168c8183614976565b8101906020818303126106b4578051906001600160401b038211610a545701916101208383031261054957604051926116c48461495a565b805184526020810151602085015260408101516040850152606081015160608501526080810151608085015260a081015160a085015260c081015160058110156106b45760c085015261171960e082016150e3565b60e0850152610100810151906001600160401b0382116106b457019061012082840312610549576040519261174d8461495a565b61175683615957565b8452602083015160038110156106b45760208501526040830151604085015260608301516001600160401b0381116106b4578161179491850161596b565b606085015260808301516001600160401b0381116106b457906117b891840161596b565b608084015260a082015160a084015260c082015160c084015260e0820151906002821015610549575060e08301526117f39061010001615957565b6101008201526101008201528261125c565b346103b45761181336614b64565b9061181c615a6d565b6013546001600160a01b0316331480156119f5575b61183a906156d2565b80600052600960205260406000209260405161185581614906565b8454815260405161186d81610cc18160018a01614c1a565b602082015260405161188681610cc18160028a01614c1a565b604082015260ff60038601541661189c816147e3565b60608201526004850154608082015261020060ff600e60058801549760a08501988952600681015460c0860152600781015460e086015260088101546101008601526009810154610120860152600a81015461014086015282600b820154161515610160860152600c810154610180860152600d8101546101a086015201548181166101c085015260018060a01b038160081c166101e085015260a81c1691611944836147ed565b015260018060a01b03166000526007602052604060002090600052602052604060002090611971816147ed565b600052602052604060002090600682015490519062015180820291808304620151801490151715610bda576001916119a8916150d6565b6119b6828401541515615136565b60048301926119df8454926119d760ff85166119d1816147e3565b1561518c565b4210156151d0565b426007919091015560ff19161790556001600055005b506015546001600160a01b03163314611831565b346103b45760003660031901126103b457600a54611a26816156bb565b90611a346040519283614976565b808252601f19611a43826156bb565b0160005b818110611afe57505060015b81811115611ac357826040518091602082016020835281518091526040830190602060408260051b8601019301916000905b828210611a9457505050500390f35b91936001919395506020611ab38192603f198a820301865288516147f7565b9601920192018594939192611a85565b611acc81614ec0565b60001982019190818311610bda5782611af391611aec611af99588615108565b5285615108565b506156ac565b611a53565b602090611b09614e19565b82828701015201611a47565b346103b45760603660031901126103b457600435602435604435611b37615a8f565b82600052600960205260ff600b604060002001541615611c1d578115611bea578015611bac576000838152600960209081526040918290206004810185905560050183905581519384528301919091527f17b8644f386d1c7c7138ef98b3c8035622bbe94d7be9b26f71d2654a547c294391a2005b60405162461bcd60e51b8152602060048201526016602482015275125b9d985b1a59081b5a5b9a5b5d5b481c195c9a5bd960521b6044820152606490fd5b60405162461bcd60e51b815260206004820152600b60248201526a496e76616c69642041505960a81b6044820152606490fd5b60405162461bcd60e51b815260206004820152602260248201527f506f6f6c20646f6573206e6f74206578697374206f7220697320696e61637469604482015261766560f01b6064820152608490fd5b346103b45760203660031901126103b4576001600160a01b03611c8e614771565b166000526006602052602060018060a01b0360406000205416604051908152f35b346103b457611cbd36614bad565b9190611cc7615a6d565b6014546001600160a01b031633148015611d6b575b15611d265760018060a01b03166000526007602052604060002090600052602052604060002090611d0c816147ed565b600052602052600060016040822001556001600055600080f35b60405162461bcd60e51b815260206004820152601f60248201527f43616c6c6572206973206e6f742074686520706f6f6c2063616e6973746572006044820152606490fd5b506015546001600160a01b03163314611cdc565b346103b45760003660031901126103b457600e546040516001600160a01b039091168152602090f35b346103b45760203660031901126103b457600435600052600960205260406000208054906040519081806001830190611de091614c1a565b03611deb9083614976565b60405180611dfc8160028501614c1a565b03611e079082614976565b600382015460ff169160048101546005820154600683015460078401546008850154600986015491600a87015493600b88015460ff1695600c89015497600d8a015499600e01549a6040519e8f9e8f9182526020820161022090526102208201611e70916147be565b908082039060400152611e82916147be565b9b8d611e8d826147e3565b6060015260808d015260a08c015260c08b015260e08a015261010089015261012088015261014087015215156101608601526101808501526101a084015260ff8181166101c0850152600882901c6001600160a01b03166101e0850152611ef99060a883901c166147ed565b60a81c60ff166102008301520390f35b346103b45760203660031901126103b457611f22614771565b611f2a615a8f565b600b54906001600160a01b038216611fba576001600160a01b0316908115611f6b576001600160a01b03199081168217600b55600e80549091169091179055005b60405162461bcd60e51b815260206004820152602160248201527f476f7665726e616e636520616464726573732063616e6e6f74206265207a65726044820152606f60f81b6064820152608490fd5b60405162461bcd60e51b815260206004820152601660248201527511dbdd995c9b985b98d948185b1c9958591e481cd95d60521b6044820152606490fd5b346103b45761200636614b97565b9060018060a01b036012541633148015612043575b6120249061521c565b600052600960205261203f600c604060002001918254614ea5565b9055005b506015546001600160a01b0316331461201b565b346103b45761206536614bad565b60006101606040516120768161493e565b8281528260208201528260408201528260608201528260808201528260a08201528260c08201528260e0820152826101008201528261012082015282610140820152015260018060a01b03821660005260076020526040600020836000526020526040600020906120e6816147ed565b6000526020526040600020604051926120fe846148ea565b60018060a01b0382541684526001820154926020850193845260028301549260408601938452856003820154916060820192835260ff6004820154166080830190612148816147e3565b8152600582015460a0840190815260068301549160c0850192835260ff600960078601549560e0880196875261010060088201549801978852015416956101208c0196612194816147ed565b8752886000526009602052604060002097604051986121b28a614906565b80548a526040516121ca81610cc18160018601614c1a565b60208b01526040516121e381610cc18160028601614c1a565b60408b015260ff6003820154166121f9816147e3565b60608b0152600481015460808b0152600e60058201549160a08c01928352600681015460c08d0152600781015460e08d015260088101546101008d015260098101546101208d0152600a8101546101408d015260ff600b8201541615156101608d0152600c8101546101808d0152600d8101546101a08d015201549a60ff8c166101c08c015261020060ff6101e08d019d8e60018060a01b038260081c16905260a81c169b019a6122a9816147ed565b8b52865191519062015180820291808304620151801490151715610bda576110876020926122d6946150d6565b03915afa9081156103a8576000916124c8575b50806124b857506123236201518061231b87515b428751612309816147e3565b612312816147e3565b6124b057614ea5565b048351614cb4565b875242811161247a57506101809b600084525b519a519951905191516001600160a01b03909b169a92612355846147e3565b51935194519551965197612368896147ed565b51986123738a6147ed565b516040519b6001600160a01b039091169a9061238e8d61493e565b8c5260208c0190815260408c0191825260608c0192835260808c01936123b3816147e3565b845260a08c0194855260c08c0195865260e08c019687526101008c019788526101208c01986123e1816147ed565b89526101408c01996123f2816147ed565b8a526101608c019a8b52604080519c516001600160a01b03168d52905160208d01529051908b01525160608a01525161242a816147e3565b60808901525160a08801525160c08701525160e08601525161010085015251612452816147ed565b61012084015251612462816147ed565b610140830152516001600160a01b0316610160820152f35b612485904290614ea5565b9b620151808d019c8d8111610bda576201517f019c8d11610bda57620151806101809d048452612336565b508951614ea5565b6201518061231b612323926122fd565b906020823d6020116124f2575b816124e260209383614976565b810103126105495750518e6122e9565b3d91506124d5565b346103b45761250836614b97565b9060018060a01b036012541633148015612541575b6125269061521c565b600052600960205261203f600c6040600020019182546150d6565b506015546001600160a01b0316331461251d565b346103b45760203660031901126103b457600435612571615a8f565b80600052600960205261258e60ff600b6040600020015416615916565b6000908152600960205260409020600b01805460ff19169055005b346103b45760003660031901126103b4576010546040516001600160a01b039091168152602090f35b346103b45760203660031901126103b4576001600160a01b036125f3614771565b1660005260176020526020604060002054604051908152f35b346103b45760203660031901126103b4576004356000526009602052604060002060405161263981614906565b8154815260405161265181610cc18160018701614c1a565b602082015260405161266a81610cc18160028701614c1a565b604082015260ff600383015416612680816147e3565b606082015260048201546080820152600582015460a082015260068201549160c08201928352600781015460e083015260088101546101008301526009810154610120830152600a810154610140830152600e60ff600b830154169161016084019215158352600c810154610180850152600d8101546101a085015201549160ff83166101c082015261020060ff6101e083019460018060a01b038160081c16865260a81c1691612730836147ed565b015251151580612817575b1561278e5750601154612756906001600160a01b0316614cc7565b906012905b51906012039060128211610bda57602092610ab061278592610ab0670de0b6b3a764000095614eb2565b04604051908152f35b90600460206127a560018060a01b03855116614cc7565b935160405163313ce56760e01b815292839182906001600160a01b03165afa80156103a8576000906127dd575b60ff9150169061275b565b506020813d60201161280f575b816127f760209383614976565b810103126103b45761280a60ff91614e97565b6127d2565b3d91506127ea565b5080516011546001600160a01b0390811691161461273b565b346103b45760003660031901126103b4576001546040516001600160a01b039091168152602090f35b346103b45760203660031901126103b4576128756004356157e2565b6040518091602082016020835281518091526040830190602060408260051b8601019301916000905b8282106128ad57505050500390f35b919360019193955060208091603f19898203018552875190815181526101806129646129106128eb868601516101a0888701526101a08601906147be565b60408601516128f9816147e3565b6040860152606086015185820360608701526147be565b6080850151608085015260a085015160a085015260c085015160c085015260e085015160e08501526101008501516101008501526101208501516101208501526101408501518482036101408601526147be565b92610160810151612974816147ed565b61016084015281878060a01b0391015116910152960192019201859493919261289e565b346103b45760203660031901126103b4576129b1614771565b6129b9615a8f565b601254906001600160a01b038216612a3c576001600160a01b03169081156129f757600c80546001600160a01b031990811684179091551617601255005b60405162461bcd60e51b815260206004820152601c60248201527f436f76657220616464726573732063616e6e6f74206265207a65726f000000006044820152606490fd5b60405162461bcd60e51b815260206004820152601160248201527010dbdd995c88185b1c9958591e481cd95d607a1b6044820152606490fd5b346103b457612a8336614b64565b91612a8c615a6d565b6013546001600160a01b031633148015612e4c575b612aaa906156d2565b81600052600960205260406000209060018060a01b031692836000526007602052604060002083600052602052604060002090612ae6816147ed565b6000526020526040600020926007840154620151808101809111610bda57612b0f90421061571d565b600184016004815495612b23871515615136565b0160028154612b3a600160ff831661093a816147e3565b60ff1916179055600094612b69612b5660068601928354614ea5565b808355606461097182600d890154614cb4565b94600e850195612b7d60ff88541682614cb4565b600987015560088601558652600860205260408620938454612b9e816156bb565b95612bac6040519788614976565b81875288526020808920899188015b838310612d605750505050865b8551811015612c3957600c548891906001600160a01b0316612bea8289615108565b515190803b15610a545760248492604051958693849263106b5da160e01b845260048401525af191898315610a4857600193612c29575b505001612bc8565b612c3291614976565b8989612c21565b50868660ff600b8401541680612d42575b15612cbb575050601154612c66906001600160a01b0316614cc7565b6012925b54926012039360128511610bda57670de0b6b3a7640000612ca6610b4f93610ab0600197610ab0600080516020615ab98339815191529a614eb2565b0460078401555460405193849301908361511c565b5460081c6001600160a01b0316906004906020612cd784614cc7565b936040519384809263313ce56760e01b82525afa908115610a48578091612d05575b5060ff91501692612c6a565b90506020823d602011612d3a575b81612d2060209383614976565b810103126105495750612d3460ff91614e97565b87612cf9565b3d9150612d13565b5080546011546001600160a01b0390811660089290921c1614612c4a565b600c6020600192604051612d7381614922565b85548152604051612d8a81610cc181898b01614c1a565b8382015260ff600287015416612d9f816147e3565b6040820152604051612db881610cc18160038b01614c1a565b606082015260048601546080820152600586015460a0820152600686015460c0820152600786015460e082015260088601546101008201526009860154610120820152604051612e0f81610cc181600a8b01614c1a565b610140820152600b86015460ff8116612e27816147ed565b610160830152858060a01b039060081c16610180820152815201920192019190612bbb565b506015546001600160a01b03163314612aa1565b346103b45760003660031901126103b457612e79615a8f565b600180546001600160a01b031981169091556000906001600160a01b03167f8be0079c531659141344cd1fd0a4f28419497f9722a3daafe3b4186f6b6457e08280a3005b346103b45760003660031901126103b457600d546040516001600160a01b039091168152602090f35b346103b45760203660031901126103b457612eff614771565b612f07615a8f565b601354906001600160a01b038216612f8a576001600160a01b0316908115612f4557600d80546001600160a01b031990811684179091551617601355005b60405162461bcd60e51b815260206004820152601c60248201527f5661756c7420616464726573732063616e6e6f74206265207a65726f000000006044820152606490fd5b60405162461bcd60e51b815260206004820152601160248201527015985d5b1d08185b1c9958591e481cd95d607a1b6044820152606490fd5b346103b45760003660031901126103b4576014546040516001600160a01b039091168152602090f35b346103b45760003660031901126103b457600b546040516001600160a01b039091168152602090f35b346103b45760203660031901126103b4576004356001600160401b0381116103b45761014060031982360301126103b45760405190613053826148ea565b80600401358252602481013560038110156103b4576020830190815260448201356001600160401b0381116103b45761309290600436918501016149b2565b926040810193845260648301356001600160401b0381116103b4576130bd90600436918601016149b2565b6060820190815260808201926084850135845260a0830160a4860135815260c48601359160ff831683036103b45760c0850192835260e085019160e488013583526101048801359760028910156103b4576101246131239161010089019a8b5201614787565b966101208701978852613134615a8f565b885161313f816147ed565b613148816147ed565b158015613520575b156134db57600a5460018101809111610bda57600a5586516000526009602052604060002095875187558a5160018801908051906001600160401b03821161340257819061319e8454614be0565b601f8111613488575b50602090601f831160011461342357600092613418575b50508160011b916000199060031b1c19161790555b51805160028801916001600160401b038211613402576131f38354614be0565b601f81116133ba575b50602090601f831160011461334957918061327f96949260ff9998969460009261333e575b50508160011b916000199060031b1c19161790555b51600488015560006006880155516005870155600060078701556000600987015560006008870155600b86016001851982541617905551613276816147e3565b600386016150f0565b519182600d850155511693600e8301918254906064039560648711610bda577ff01906dc0ac306fa816e50166a7ed46af1f05721cb90cea30beebdd8dede3a6d9761333997600c613322970155516132d6816147ed565b6132df816147ed565b9251610100600160a81b0360089190911b1660ff60a81b60a89490941b939093166001600160b01b031992909216610100600160a81b0319919091161717179055565b5192516040519182916020835260208301906147be565b0390a2005b015190508f80613221565b90601f1983169184600052816000209260005b8181106133a2575092600192859260ff9b9a989661327f9a989610613389575b505050811b019055613236565b015160001960f88460031b161c191690558f808061337c565b9293602060018192878601518155019501930161335c565b836000526020600020601f840160051c810191602085106133f8575b601f0160051c01905b8181106133ec57506131fc565b600081556001016133df565b90915081906133d6565b634e487b7160e01b600052604160045260246000fd5b015190508e806131be565b60008581528281209350601f198516905b8181106134705750908460019594939210613457575b505050811b0190556131d3565b015160001960f88460031b161c191690558e808061344a565b92936020600181928786015181550195019301613434565b909150836000526020600020601f840160051c810191602085106134d1575b90601f859493920160051c01905b8181106134c257506131a7565b600081558493506001016134b5565b90915081906134a7565b60405162461bcd60e51b815260206004820152601760248201527f57726f6e6720417373657420666f72204465706f7369740000000000000000006044820152606490fd5b5087516001600160a01b03161515613150565b346103b457613541366149f9565b9060018060a01b036012541633148015613597575b61355f9061521c565b6000526008602052604060002090815491600160401b831015613402578261358f91600161359595018155615267565b90615283565b005b506015546001600160a01b03163314613556565b346103b45760203660031901126103b4576004356016548110156103b4576135d4602091614b33565b905460405160039290921b1c6001600160a01b03168152f35b346103b45760003660031901126103b457600f546040516001600160a01b039091168152602090f35b346103b45760203660031901126103b45761362f614771565b600a54600091906001600160a01b03821660015b82811115613a275750613655846156bb565b936136636040519586614976565b808552613672601f19916156bb565b0160005b8181106139c2575050600c546001600160a01b03169260009060015b8481111561376c57866040518091602082016020835281518091526040830190602060408260051b8601019301916000905b8282106136d357505050500390f35b919360019193955060208091603f1989820301855287519061012080613704845161014085526101408501906147be565b93858101518685015260408101516040850152606081015160608501526080810151608085015260a081015160a085015260c081015160c085015260e081015160e08501526101008101511515610100850152015191015296019201920185949391926136c4565b806000526009602052604060002084600052600760205260406000208260005260205260406000206000805260205260406000206040516137ac816148ea565b60018060a01b038254168152600182015460208201526002820154604082015261012060ff600960038501549460608501958652826004820154166137f0816147e3565b6080860152600581015460a0860152600681015460c0860152600781015460e086015260088101546101008601520154169161382b836147ed565b01526040516339e671f760e11b81526001600160a01b0385166004820152602481018490526020816044818c5afa9081156103a85760009161398f575b506138739151614cb4565b8560005260076020526040600020836000526020526040600020600080526020526001604060002001546138b2575b50506138ad906156ac565b613692565b60008681526007602090815260408083208684528252808320838052909152908190206003810154600190910154600485015460058601546006870154600a880154600b89015496519b9860ff909716969095919492939291906139158d6148ea565b6040518060018193019061392891614c1a565b036139339082614976565b8c528960208d015260408c015260608b015260808a015260a089015260c088015260e0870152151561010086015261012085015280613971906156ac565b9361397c828a615108565b526139879088615108565b5087806138a2565b906020823d82116139ba575b816139a860209383614976565b81010312610549575051613873613868565b3d915061399b565b6020906040959495516139d4816148ea565b60608152600083820152600060408201526000606082015260006080820152600060a0820152600060c0820152600060e08201526000610100820152600061012082015282828901015201939293613676565b816000949394526007602052604060002081600052602052604060002060008052602052600160406000200154613a6a575b613a62906156ac565b929192613643565b93613a77613a62916156ac565b949050613a59565b346103b45760003660031901126103b4576015546040516001600160a01b039091168152602090f35b346103b45760203660031901126103b4576004356000526009602052602060ff600b60406000200154166040519015158152f35b346103b45760003660031901126103b4576012546040516001600160a01b039091168152602090f35b346103b45760003660031901126103b4576013546040516001600160a01b039091168152602090f35b346103b457613b3c366149f9565b6012546001600160a01b031633148015613bb5575b613b5a9061521c565b60005b82600052600860205260406000205481101561359557826000526008602052613b8a816040600020615267565b5054825114613b9b57600101613b5d565b61358f906135959360005260086020526040600020615267565b506015546001600160a01b03163314613b51565b346103b45760203660031901126103b457600435613be5615a6d565b806000526009602052604060002090604051613c0081614906565b82548152604051613c1881610cc18160018801614c1a565b6020820152604051613c3181610cc18160028801614c1a565b604082015260ff600384015416613c47816147e3565b60608201526004830154608082015261020060ff600e60058601549560a08501968752600681015460c0860152600781015460e086015260088101546101008601526009810154610120860152600a81015461014086015282600b820154161515610160860152600c810154610180860152600d8101546101a086015201548181166101c085015260018060a01b038160081c166101e085015260a81c1691613cef836147ed565b01523360005260076020526040600020906000526020526040600020600080526020526040600020906006820154905162015180810290808204620151801490151715610bda57613d3f916150d6565b613d4e60018301541515615136565b60016004830191613d6b8354916119d760ff84166119d1816147e3565b60ff191617905542600791909101556001600055005b346103b45760003660031901126103b4576040518060206016549283815201809260166000527fd833147d7dc355ba459fc788f669e58cfaf9dc25ddcd0702e87d69c7b51242899060005b818110613e2e5750505081613de2910382614976565b6040519182916020830190602084525180915260408301919060005b818110613e0c575050500390f35b82516001600160a01b0316845285945060209384019390920191600101613dfe565b82546001600160a01b0316845260209093019260019283019201613dcc565b60c03660031901126103b457604051600060c082016001600160401b0381118382101761083c57604052613e7f614771565b8252602082019160243583526040810160443581526064356002811015610a54576060830190815260843590600282101561470b576080840191825260a435926001600160a01b03841684036106b05760a08501938452613ede615a6d565b865186526009602052604086209360ff600b86015416156146bb57600e850193845460ff8160a81c169151613f12816147ed565b613f1b816147ed565b613f24836147ed565b82036146675782516001600160a01b0390811660089290921c16036146225786516001600160a01b03168852600760209081526040808a208b518b5290915288208451613f70816147ed565b613f79816147ed565b895260205260016040892001546145cb57600190613f96816147ed565b03614555578151156145105751855182516040516323b872dd60e01b81526001600160a01b039283166004820152306024820152604481019190915291602091839160649183918c91165af18015614505576144ca575b508051613fff600686019182546150d6565b905580519260018060a01b03815460081c16906004602061401f84614cc7565b936040519283809263313ce56760e01b82525afa80156144bf578990614485575b60ff915016915b600d61407660ff61406d60646140668c60068101549687910154614cb4565b0484614ea5565b94541684614cb4565b9360120360128111614471576140a66142139593610ab08d9e9694610ab09d9e9d670de0b6b3a764000095614eb2565b049160098901556008880155600787015561016d60646140ca600489015488614cb4565b040493600960018060a01b038a51168351928b60058b0154948251956140ef876147ed565b604051946140fc866148ea565b85528d60208601928d845260408701908152606087018d8152608088019183835260a0890194855260c08901954287528c60e08b0198868a526101008c019a878c526101208d019e8f61414e826147ed565b5251614159816147ed565b614162816147ed565b6143ca57516001600160a01b039081168752600760209081526040808920935189529281528288208880529052952099518a546001600160a01b0319169516949094178955925160018901559151600288015590516003870155516141d3906141ca816147e3565b600487016150f0565b5160058501555160068401555160078301555160088201550190516141f7816147ed565b614200816147ed565b60ff801983541691161790555b516157e2565b93855b855181101561428657600c546001600160a01b0316906142368188615108565b5151823b156106a457889260248492604051958693849263106b5da160e01b845260048401525af191821561136e5788600193614276575b505001614216565b61427f91614976565b8a8861426e565b50601654869550879086805b828110614392575b5015614332575b5080516001600160a01b031686526017602052604086208054600181019190821061431e576040979361430e600196947f6f85d9948d6ca3dd6ce6ce7d175da22b4e865827ae6fcd530ec7edac1240f92894889455838060a01b0390511694518a5193849301908361511c565b0390a25582519182526020820152f35b634e487b7160e01b88526011600452602488fd5b81516001600160a01b031690600160401b81101561437e5780600161435a9201601655614b33565b81546001600160a01b0360039290921b91821b191692901b919091179055866142a1565b634e487b7160e01b88526041600452602488fd5b61439b81614b33565b9054855160039290921b1c6001600160a01b039081169116146143c057600101614292565b505060018861429a565b516001600160a01b039081168752600760209081526040808920935189529281528288206001808a529152919096209a518b546001600160a01b0319169616959095178a555193890193909355915160028801559051600387015551614433906141ca816147e3565b516005850155516006840155516007830155516008820155019051614457816147ed565b614460816147ed565b60ff8019835416911617905561420d565b634e487b7160e01b8b52601160045260248bfd5b506020813d6020116144b7575b8161449f60209383614976565b810103126106a4576144b260ff91614e97565b614040565b3d9150614492565b6040513d8b823e3d90fd5b6020813d6020116144fd575b816144e360209383614976565b810103126144f9576144f4906150e3565b613fed565b8680fd5b3d91506144d6565b6040513d89823e3d90fd5b60405162461bcd60e51b815260206004820152601d60248201527f416d6f756e74206d7573742062652067726561746572207468616e20300000006044820152606490fd5b50341561458d57601154614571906001600160a01b0316614cc7565b92601290600686016145843482546150d6565b90553494614047565b60405162461bcd60e51b81526020600482015260166024820152754465706f7369742063616e6e6f74206265207a65726f60501b6044820152606490fd5b60405162461bcd60e51b815260206004820152602960248201527f557365722068617320616c7265616479206465706f736974656420696e746f206044820152681d1a1a5cc81c1bdbdb60ba1b6064820152608490fd5b60405162461bcd60e51b815260206004820152601f60248201527f506f6f6c20646f6573206e6f74206163636570742074686973206173736574006044820152606490fd5b60405162461bcd60e51b815260206004820152602660248201527f506f6f6c20646f6573206e6f74206163636570742074686973206465706f736960448201526574207479706560d01b6064820152608490fd5b60405162461bcd60e51b815260206004820152602260248201527f506f6f6c20697320696e616374697665206f7220646f6573206e6f74206578696044820152611cdd60f21b6064820152608490fd5b8480fd5b346103b45760203660031901126103b45761474261472e600435614ec0565b6040519182916020835260208301906147f7565b0390f35b346103b45760203660031901126103b4576020614769614764614771565b614cc7565b604051908152f35b600435906001600160a01b03821682036103b457565b35906001600160a01b03821682036103b457565b60005b8381106147ae5750506000910152565b818101518382015260200161479e565b906020916147d78151809281855285808601910161479b565b601f01601f1916010190565b6003111561166757565b6002111561166757565b90815181526102008061483061481e602086015161022060208701526102208601906147be565b604086015185820360408701526147be565b93606081015161483f816147e3565b60608501526080810151608085015260a081015160a085015260c081015160c085015260e081015160e085015261010081015161010085015261012081015161012085015261014081015161014085015261016081015115156101608501526101808101516101808501526101a08101516101a085015260ff6101c0820151166101c085015260018060a01b036101e0820151166101e08501520151916148e5836147ed565b015290565b61014081019081106001600160401b0382111761340257604052565b61022081019081106001600160401b0382111761340257604052565b6101a081019081106001600160401b0382111761340257604052565b61018081019081106001600160401b0382111761340257604052565b61012081019081106001600160401b0382111761340257604052565b90601f801991011681019081106001600160401b0382111761340257604052565b6001600160401b03811161340257601f01601f191660200190565b81601f820112156103b4578035906149c982614997565b926149d76040519485614976565b828452602083830101116103b457816000926020809301838601378301015290565b9060406003198301126103b457600435916024356001600160401b0381116103b4576101a081830360031901126103b45760405191614a3783614922565b8160040135835260248201356001600160401b0381116103b457816004614a60928501016149b2565b6020840152604482013560038110156103b457604084015260648201356001600160401b0381116103b457816004614a9a928501016149b2565b60608401526084820135608084015260a482013560a084015260c482013560c084015260e482013560e0840152610104820135610100840152610124820135610120840152610144820135906001600160401b0382116103b4576004614b02928401016149b2565b61014083015261016481013560028110156103b457610160830152614b2a9061018401614787565b61018082015290565b601654811015614b4e57601660005260206000200190600090565b634e487b7160e01b600052603260045260246000fd5b60609060031901126103b4576004356001600160a01b03811681036103b457906024359060443560028110156103b45790565b60409060031901126103b4576004359060243590565b60609060031901126103b457600435906024356001600160a01b03811681036103b4579060443560028110156103b45790565b90600182811c92168015614c10575b6020831014614bfa57565b634e487b7160e01b600052602260045260246000fd5b91607f1691614bef565b60009291815491614c2a83614be0565b8083529260018116908115614c805750600114614c4657505050565b60009081526020812093945091925b838310614c66575060209250010190565b600181602092949394548385870101520191019190614c55565b915050602093945060ff929192191683830152151560051b010190565b519069ffffffffffffffffffff821682036103b457565b81810292918115918404141715610bda57565b6001600160a01b03908116600090815260066020526040902054168015614dc95760a060049160405192838092633fabe5a360e21b82525afa9081156103a857600091614d7c575b506000811315614d37576402540be4008102908082046402540be4001490151715610bda5790565b60405162461bcd60e51b815260206004820152601960248201527f496e76616c69642070726963652066726f6d206f7261636c65000000000000006044820152606490fd5b9060a0823d60a011614dc1575b81614d9660a09383614976565b810103126105495750614da881614c9d565b50614dba608060208301519201614c9d565b5038614d0f565b3d9150614d89565b60405162461bcd60e51b815260206004820152602260248201527f50726963652066656564206e6f7420617661696c61626c6520666f7220617373604482015261195d60f21b6064820152608490fd5b60405190614e2682614906565b60006102008382815260606020820152606060408201528260608201528260808201528260a08201528260c08201528260e08201528261010082015282610120820152826101408201528261016082015282610180820152826101a0820152826101c0820152826101e08201520152565b519060ff821682036103b457565b91908203918211610bda57565b604d8111610bda57600a0a90565b614ec8614e19565b506000526009602052604060002060405190614ee382614906565b80548252604051614efb81610cc18160018601614c1a565b6020830152604051614f1481610cc18160028601614c1a565b604083015260ff600382015416614f2a816147e3565b606083015260048101546080830152600581015460a0830152600681015460c0830190815260078201549160e0840192835260088101546101008501526009810154610120850152600a810154610140850152600e60ff600b830154169161016086019215158352600c810154610180870152600d8101546101a087015201549060ff82166101c086015260ff6101e086019260018060a01b038160081c16845260a81c16614fd8816147ed565b610200860152511515806150bd575b156150345750601154615002906001600160a01b0316614cc7565b906012905b51906012039160128311610bda57610ab061502e92610ab0670de0b6b3a764000095614eb2565b04905290565b906004602061504b60018060a01b03855116614cc7565b935160405163313ce56760e01b815292839182906001600160a01b03165afa80156103a857600090615083575b60ff91501690615007565b506020813d6020116150b5575b8161509d60209383614976565b810103126103b4576150b060ff91614e97565b615078565b3d9150615090565b5080516011546001600160a01b03908116911614614fe7565b91908201809211610bda57565b519081151582036103b457565b906150fa816147e3565b60ff80198354169116179055565b8051821015614b4e5760209160051b010190565b604090615133939281528160208201520190614c1a565b90565b1561513d57565b60405162461bcd60e51b815260206004820152602160248201527f4e6f206465706f73697420666f756e6420666f722074686973206164647265736044820152607360f81b6064820152608490fd5b1561519357565b60405162461bcd60e51b81526020600482015260156024820152744465706f736974206973206e6f742061637469766560581b6044820152606490fd5b156151d757565b60405162461bcd60e51b815260206004820152601c60248201527f4465706f73697420706572696f6420686173206e6f7420656e646564000000006044820152606490fd5b1561522357565b606460405162461bcd60e51b815260206004820152602060248201527f43616c6c6572206973206e6f742074686520636f76657220636f6e74726163746044820152fd5b8054821015614b4e57600052600c602060002091020190600090565b9061569657815181556001810160208301518051906001600160401b0382116134025781906152b28454614be0565b601f8111615643575b50602090601f83116001146155de576000926155d3575b50508160011b916000199060031b1c19161790555b61530160408301516152f8816147e3565b600283016150f0565b6003810160608301518051906001600160401b0382116134025781906153278454614be0565b601f8111615580575b50602090601f831160011461551b57600092615510575b50508160011b916000199060031b1c19161790555b6080820151600482015560a0820151600582015560c0820151600682015560e0820151600782015561010082015160088201556101208201516009820155600a81016101408301518051906001600160401b038211613402576153bf8354614be0565b601f81116154c8575b50602090601f8311600114615459579180600b949261544c97969460009261544e575b50508160011b916000199060031b1c19161790555b0190610160810151615411816147ed565b61541a816147ed565b825461018092909201516001600160a81b031990921660ff919091161760089190911b610100600160a81b0316179055565b565b0151905038806153eb565b90601f1983169184600052816000209260005b8181106154b0575092600192859261544c999896600b989610615497575b505050811b019055615400565b015160001960f88460031b161c1916905538808061548a565b9293602060018192878601518155019501930161546c565b836000526020600020601f840160051c81019160208510615506575b601f0160051c01905b8181106154fa57506153c8565b600081556001016154ed565b90915081906154e4565b015190503880615347565b60008581528281209350601f198516905b818110615568575090846001959493921061554f575b505050811b01905561535c565b015160001960f88460031b161c19169055388080615542565b9293602060018192878601518155019501930161552c565b909150836000526020600020601f840160051c810191602085106155c9575b90601f859493920160051c01905b8181106155ba5750615330565b600081558493506001016155ad565b909150819061559f565b0151905038806152d2565b60008581528281209350601f198516905b81811061562b5750908460019594939210615612575b505050811b0190556152e7565b015160001960f88460031b161c19169055388080615605565b929360206001819287860151815501950193016155ef565b909150836000526020600020601f840160051c8101916020851061568c575b90601f859493920160051c01905b81811061567d57506152bb565b60008155849350600101615670565b9091508190615662565b634e487b7160e01b600052600060045260246000fd5b6000198114610bda5760010190565b6001600160401b0381116134025760051b60200190565b156156d957565b606460405162461bcd60e51b815260206004820152602060248201527f43616c6c6572206973206e6f7420746865207661756c7420636f6e74726163746044820152fd5b1561572457565b60405162461bcd60e51b815260206004820152604960248201527f5769746864726177616c7320617265206f6e6c7920616c6c6f7765642061667460448201527f657220323420686f7572732068617665207061737365642073696e636520696e60648201526834ba34b0ba34b7b71760b91b608482015260a490fd5b156157a857565b60405162461bcd60e51b81526020600482015260126024820152714465706f736974206973206e6f742044756560701b6044820152606490fd5b6000526008602052604060002080546157fa816156bb565b916158086040519384614976565b818352602083019060005260206000206000915b83831061582a575050505090565b600c602060019260405161583d81614922565b8554815260405161585481610cc181898b01614c1a565b8382015260ff600287015416615869816147e3565b604082015260405161588281610cc18160038b01614c1a565b606082015260048601546080820152600586015460a0820152600686015460c0820152600786015460e0820152600886015461010082015260098601546101208201526040516158d981610cc181600a8b01614c1a565b610140820152600b86015460ff81166158f1816147ed565b610160830152858060a01b039060081c1661018082015281520192019201919061581c565b1561591d57565b60405162461bcd60e51b8152602060048201526012602482015271506f6f6c206973206e6f742061637469766560701b6044820152606490fd5b51906001600160a01b03821682036103b457565b81601f820112156103b457805161598181614997565b9261598f6040519485614976565b818452602082840101116103b457615133916020808501910161479b565b3d156159d8573d906159be82614997565b916159cc6040519384614976565b82523d6000602084013e565b606090565b156159e457565b60405162461bcd60e51b815260206004820152601c60248201527f4e6174697665206173736574207472616e73666572206661696c6564000000006044820152606490fd5b15615a3057565b60405162461bcd60e51b8152602060048201526015602482015274115490cc8c081d1c985b9cd9995c8819985a5b1959605a1b6044820152606490fd5b600260005414615a7e576002600055565b633ee5aeb560e01b60005260046000fd5b6001546001600160a01b03163303615aa357565b63118cdaa760e01b6000523360045260246000fdfe485f1bb6524c663555797e00171a10f341656e59b02d6b557a0a38ba7d5d9751a2646970667358221220623a43257c3020b77dcb6d49312d9a2a58ad0a3e9c8e3b99b5785a44f92c897264736f6c634300081c0033",
  "linkReferences": {},
  "deployedLinkReferences": {}
}