{
  "_format": "hh-sol-artifact-1",
  "contractName": "InsurancePool",
  "sourceName": "contracts/InsurancePool.sol",
  "abi": [
    {
      "inputs": [
        {
          "internalType": "address",
          "name": "_initialOwner",
          "type": "address"
        },
        {
          "internalType": "address",
          "name": "_bqBtc",
          "type": "address"
        }
      ],
      "stateMutability": "nonpayable",
      "type": "constructor"
    },
    {
      "inputs": [
        {
          "internalType": "address",
          "name": "owner",
          "type": "address"
        }
      ],
      "name": "OwnableInvalidOwner",
      "type": "error"
    },
    {
      "inputs": [
        {
          "internalType": "address",
          "name": "account",
          "type": "address"
        }
      ],
      "name": "OwnableUnauthorizedAccount",
      "type": "error"
    },
    {
      "inputs": [],
      "name": "ReentrancyGuardReentrantCall",
      "type": "error"
    },
    {
      "anonymous": false,
      "inputs": [
        {
          "indexed": false,
          "internalType": "uint256",
          "name": "",
          "type": "uint256"
        },
        {
          "indexed": false,
          "internalType": "uint256",
          "name": "",
          "type": "uint256"
        },
        {
          "indexed": false,
          "internalType": "address",
          "name": "",
          "type": "address"
        }
      ],
      "name": "ClaimAttempt",
      "type": "event"
    },
    {
      "anonymous": false,
      "inputs": [
        {
          "indexed": true,
          "internalType": "address",
          "name": "recipient",
          "type": "address"
        },
        {
          "indexed": false,
          "internalType": "string",
          "name": "pool",
          "type": "string"
        },
        {
          "indexed": false,
          "internalType": "uint256",
          "name": "amount",
          "type": "uint256"
        }
      ],
      "name": "ClaimPaid",
      "type": "event"
    },
    {
      "anonymous": false,
      "inputs": [
        {
          "indexed": true,
          "internalType": "address",
          "name": "user",
          "type": "address"
        },
        {
          "indexed": false,
          "internalType": "uint256",
          "name": "amount",
          "type": "uint256"
        },
        {
          "indexed": false,
          "internalType": "string",
          "name": "pool",
          "type": "string"
        }
      ],
      "name": "Deposited",
      "type": "event"
    },
    {
      "anonymous": false,
      "inputs": [
        {
          "indexed": true,
          "internalType": "address",
          "name": "previousOwner",
          "type": "address"
        },
        {
          "indexed": true,
          "internalType": "address",
          "name": "newOwner",
          "type": "address"
        }
      ],
      "name": "OwnershipTransferred",
      "type": "event"
    },
    {
      "anonymous": false,
      "inputs": [
        {
          "indexed": true,
          "internalType": "uint256",
          "name": "id",
          "type": "uint256"
        },
        {
          "indexed": false,
          "internalType": "string",
          "name": "poolName",
          "type": "string"
        }
      ],
      "name": "PoolCreated",
      "type": "event"
    },
    {
      "anonymous": false,
      "inputs": [
        {
          "indexed": true,
          "internalType": "uint256",
          "name": "poolId",
          "type": "uint256"
        },
        {
          "indexed": false,
          "internalType": "uint256",
          "name": "apy",
          "type": "uint256"
        },
        {
          "indexed": false,
          "internalType": "uint256",
          "name": "_minPeriod",
          "type": "uint256"
        }
      ],
      "name": "PoolUpdated",
      "type": "event"
    },
    {
      "anonymous": false,
      "inputs": [
        {
          "indexed": true,
          "internalType": "address",
          "name": "user",
          "type": "address"
        },
        {
          "indexed": false,
          "internalType": "uint256",
          "name": "amount",
          "type": "uint256"
        },
        {
          "indexed": false,
          "internalType": "string",
          "name": "pool",
          "type": "string"
        }
      ],
      "name": "Withdraw",
      "type": "event"
    },
    {
      "inputs": [],
      "name": "ICoverContract",
      "outputs": [
        {
          "internalType": "contract ICover",
          "name": "",
          "type": "address"
        }
      ],
      "stateMutability": "view",
      "type": "function"
    },
    {
      "inputs": [],
      "name": "IGovernanceContract",
      "outputs": [
        {
          "internalType": "contract IGov",
          "name": "",
          "type": "address"
        }
      ],
      "stateMutability": "view",
      "type": "function"
    },
    {
      "inputs": [],
      "name": "IVaultContract",
      "outputs": [
        {
          "internalType": "contract IVault",
          "name": "",
          "type": "address"
        }
      ],
      "stateMutability": "view",
      "type": "function"
    },
    {
      "inputs": [
        {
          "internalType": "uint256",
          "name": "_poolId",
          "type": "uint256"
        },
        {
          "components": [
            {
              "internalType": "uint256",
              "name": "id",
              "type": "uint256"
            },
            {
              "internalType": "string",
              "name": "coverName",
              "type": "string"
            },
            {
              "internalType": "enum CoverLib.RiskType",
              "name": "riskType",
              "type": "uint8"
            },
            {
              "internalType": "string",
              "name": "chains",
              "type": "string"
            },
            {
              "internalType": "uint256",
              "name": "capacity",
              "type": "uint256"
            },
            {
              "internalType": "uint256",
              "name": "cost",
              "type": "uint256"
            },
            {
              "internalType": "uint256",
              "name": "capacityAmount",
              "type": "uint256"
            },
            {
              "internalType": "uint256",
              "name": "coverValues",
              "type": "uint256"
            },
            {
              "internalType": "uint256",
              "name": "maxAmount",
              "type": "uint256"
            },
            {
              "internalType": "uint256",
              "name": "poolId",
              "type": "uint256"
            },
            {
              "internalType": "string",
              "name": "CID",
              "type": "string"
            },
            {
              "internalType": "enum CoverLib.AssetDepositType",
              "name": "adt",
              "type": "uint8"
            },
            {
              "internalType": "address",
              "name": "asset",
              "type": "address"
            }
          ],
          "internalType": "struct CoverLib.Cover",
          "name": "_cover",
          "type": "tuple"
        }
      ],
      "name": "addPoolCover",
      "outputs": [],
      "stateMutability": "nonpayable",
      "type": "function"
    },
    {
      "inputs": [
        {
          "internalType": "address",
          "name": "",
          "type": "address"
        }
      ],
      "name": "assetPriceFeeds",
      "outputs": [
        {
          "internalType": "contract AggregatorV3Interface",
          "name": "",
          "type": "address"
        }
      ],
      "stateMutability": "view",
      "type": "function"
    },
    {
      "inputs": [],
      "name": "bqBTC",
      "outputs": [
        {
          "internalType": "contract IbqBTC",
          "name": "",
          "type": "address"
        }
      ],
      "stateMutability": "view",
      "type": "function"
    },
    {
      "inputs": [],
      "name": "bqBTCAddress",
      "outputs": [
        {
          "internalType": "address",
          "name": "",
          "type": "address"
        }
      ],
      "stateMutability": "view",
      "type": "function"
    },
    {
      "inputs": [
        {
          "internalType": "uint256",
          "name": "_proposalId",
          "type": "uint256"
        }
      ],
      "name": "claimProposalFunds",
      "outputs": [],
      "stateMutability": "nonpayable",
      "type": "function"
    },
    {
      "inputs": [],
      "name": "coverContract",
      "outputs": [
        {
          "internalType": "address",
          "name": "",
          "type": "address"
        }
      ],
      "stateMutability": "view",
      "type": "function"
    },
    {
      "inputs": [
        {
          "components": [
            {
              "internalType": "uint256",
              "name": "poolId",
              "type": "uint256"
            },
            {
              "internalType": "enum CoverLib.RiskType",
              "name": "riskType",
              "type": "uint8"
            },
            {
              "internalType": "string",
              "name": "poolName",
              "type": "string"
            },
            {
              "internalType": "string",
              "name": "rating",
              "type": "string"
            },
            {
              "internalType": "uint256",
              "name": "apy",
              "type": "uint256"
            },
            {
              "internalType": "uint256",
              "name": "minPeriod",
              "type": "uint256"
            },
            {
              "internalType": "uint8",
              "name": "leverage",
              "type": "uint8"
            },
            {
              "internalType": "uint256",
              "name": "investmentArm",
              "type": "uint256"
            },
            {
              "internalType": "enum CoverLib.AssetDepositType",
              "name": "adt",
              "type": "uint8"
            },
            {
              "internalType": "address",
              "name": "asset",
              "type": "address"
            }
          ],
          "internalType": "struct CoverLib.PoolParams",
          "name": "params",
          "type": "tuple"
        }
      ],
      "name": "createPool",
      "outputs": [],
      "stateMutability": "nonpayable",
      "type": "function"
    },
    {
      "inputs": [
        {
          "internalType": "uint256",
          "name": "_poolId",
          "type": "uint256"
        }
      ],
      "name": "deactivatePool",
      "outputs": [],
      "stateMutability": "nonpayable",
      "type": "function"
    },
    {
      "inputs": [
        {
          "components": [
            {
              "internalType": "address",
              "name": "depositor",
              "type": "address"
            },
            {
              "internalType": "uint256",
              "name": "poolId",
              "type": "uint256"
            },
            {
              "internalType": "uint256",
              "name": "amount",
              "type": "uint256"
            },
            {
              "internalType": "uint256",
              "name": "period",
              "type": "uint256"
            },
            {
              "internalType": "enum CoverLib.DepositType",
              "name": "pdt",
              "type": "uint8"
            },
            {
              "internalType": "enum CoverLib.AssetDepositType",
              "name": "adt",
              "type": "uint8"
            },
            {
              "internalType": "address",
              "name": "asset",
              "type": "address"
            }
          ],
          "internalType": "struct CoverLib.DepositParams",
          "name": "depositParam",
          "type": "tuple"
        }
      ],
      "name": "deposit",
      "outputs": [
        {
          "internalType": "uint256",
          "name": "",
          "type": "uint256"
        },
        {
          "internalType": "uint256",
          "name": "",
          "type": "uint256"
        }
      ],
      "stateMutability": "payable",
      "type": "function"
    },
    {
      "inputs": [],
      "name": "getAllParticipants",
      "outputs": [
        {
          "internalType": "address[]",
          "name": "",
          "type": "address[]"
        }
      ],
      "stateMutability": "view",
      "type": "function"
    },
    {
      "inputs": [],
      "name": "getAllPools",
      "outputs": [
        {
          "components": [
            {
              "internalType": "uint256",
              "name": "id",
              "type": "uint256"
            },
            {
              "internalType": "string",
              "name": "poolName",
              "type": "string"
            },
            {
              "internalType": "string",
              "name": "rating",
              "type": "string"
            },
            {
              "internalType": "enum CoverLib.RiskType",
              "name": "riskType",
              "type": "uint8"
            },
            {
              "internalType": "uint256",
              "name": "apy",
              "type": "uint256"
            },
            {
              "internalType": "uint256",
              "name": "minPeriod",
              "type": "uint256"
            },
            {
              "internalType": "uint256",
              "name": "totalUnit",
              "type": "uint256"
            },
            {
              "internalType": "uint256",
              "name": "tvl",
              "type": "uint256"
            },
            {
              "internalType": "uint256",
              "name": "baseValue",
              "type": "uint256"
            },
            {
              "internalType": "uint256",
              "name": "coverUnits",
              "type": "uint256"
            },
            {
              "internalType": "uint256",
              "name": "tcp",
              "type": "uint256"
            },
            {
              "internalType": "bool",
              "name": "isActive",
              "type": "bool"
            },
            {
              "internalType": "uint256",
              "name": "percentageSplitBalance",
              "type": "uint256"
            },
            {
              "internalType": "uint256",
              "name": "investmentArmPercent",
              "type": "uint256"
            },
            {
              "internalType": "uint8",
              "name": "leverage",
              "type": "uint8"
            },
            {
              "internalType": "address",
              "name": "asset",
              "type": "address"
            },
            {
              "internalType": "enum CoverLib.AssetDepositType",
              "name": "assetType",
              "type": "uint8"
            }
          ],
          "internalType": "struct CoverLib.Pool[]",
          "name": "",
          "type": "tuple[]"
        }
      ],
      "stateMutability": "view",
      "type": "function"
    },
    {
      "inputs": [
        {
          "internalType": "uint256",
          "name": "_poolId",
          "type": "uint256"
        }
      ],
      "name": "getPool",
      "outputs": [
        {
          "components": [
            {
              "internalType": "uint256",
              "name": "id",
              "type": "uint256"
            },
            {
              "internalType": "string",
              "name": "poolName",
              "type": "string"
            },
            {
              "internalType": "string",
              "name": "rating",
              "type": "string"
            },
            {
              "internalType": "enum CoverLib.RiskType",
              "name": "riskType",
              "type": "uint8"
            },
            {
              "internalType": "uint256",
              "name": "apy",
              "type": "uint256"
            },
            {
              "internalType": "uint256",
              "name": "minPeriod",
              "type": "uint256"
            },
            {
              "internalType": "uint256",
              "name": "totalUnit",
              "type": "uint256"
            },
            {
              "internalType": "uint256",
              "name": "tvl",
              "type": "uint256"
            },
            {
              "internalType": "uint256",
              "name": "baseValue",
              "type": "uint256"
            },
            {
              "internalType": "uint256",
              "name": "coverUnits",
              "type": "uint256"
            },
            {
              "internalType": "uint256",
              "name": "tcp",
              "type": "uint256"
            },
            {
              "internalType": "bool",
              "name": "isActive",
              "type": "bool"
            },
            {
              "internalType": "uint256",
              "name": "percentageSplitBalance",
              "type": "uint256"
            },
            {
              "internalType": "uint256",
              "name": "investmentArmPercent",
              "type": "uint256"
            },
            {
              "internalType": "uint8",
              "name": "leverage",
              "type": "uint8"
            },
            {
              "internalType": "address",
              "name": "asset",
              "type": "address"
            },
            {
              "internalType": "enum CoverLib.AssetDepositType",
              "name": "assetType",
              "type": "uint8"
            }
          ],
          "internalType": "struct CoverLib.Pool",
          "name": "",
          "type": "tuple"
        }
      ],
      "stateMutability": "view",
      "type": "function"
    },
    {
      "inputs": [
        {
          "internalType": "uint256",
          "name": "_poolId",
          "type": "uint256"
        }
      ],
      "name": "getPoolCovers",
      "outputs": [
        {
          "components": [
            {
              "internalType": "uint256",
              "name": "id",
              "type": "uint256"
            },
            {
              "internalType": "string",
              "name": "coverName",
              "type": "string"
            },
            {
              "internalType": "enum CoverLib.RiskType",
              "name": "riskType",
              "type": "uint8"
            },
            {
              "internalType": "string",
              "name": "chains",
              "type": "string"
            },
            {
              "internalType": "uint256",
              "name": "capacity",
              "type": "uint256"
            },
            {
              "internalType": "uint256",
              "name": "cost",
              "type": "uint256"
            },
            {
              "internalType": "uint256",
              "name": "capacityAmount",
              "type": "uint256"
            },
            {
              "internalType": "uint256",
              "name": "coverValues",
              "type": "uint256"
            },
            {
              "internalType": "uint256",
              "name": "maxAmount",
              "type": "uint256"
            },
            {
              "internalType": "uint256",
              "name": "poolId",
              "type": "uint256"
            },
            {
              "internalType": "string",
              "name": "CID",
              "type": "string"
            },
            {
              "internalType": "enum CoverLib.AssetDepositType",
              "name": "adt",
              "type": "uint8"
            },
            {
              "internalType": "address",
              "name": "asset",
              "type": "address"
            }
          ],
          "internalType": "struct CoverLib.Cover[]",
          "name": "",
          "type": "tuple[]"
        }
      ],
      "stateMutability": "view",
      "type": "function"
    },
    {
      "inputs": [
        {
          "internalType": "uint256",
          "name": "_poolId",
          "type": "uint256"
        }
      ],
      "name": "getPoolTVL",
      "outputs": [
        {
          "internalType": "uint256",
          "name": "",
          "type": "uint256"
        }
      ],
      "stateMutability": "view",
      "type": "function"
    },
    {
      "inputs": [
        {
          "internalType": "address",
          "name": "_userAddress",
          "type": "address"
        }
      ],
      "name": "getPoolsByAddress",
      "outputs": [
        {
          "components": [
            {
              "internalType": "string",
              "name": "poolName",
              "type": "string"
            },
            {
              "internalType": "uint256",
              "name": "poolId",
              "type": "uint256"
            },
            {
              "internalType": "uint256",
              "name": "dailyPayout",
              "type": "uint256"
            },
            {
              "internalType": "uint256",
              "name": "depositAmount",
              "type": "uint256"
            },
            {
              "internalType": "uint256",
              "name": "apy",
              "type": "uint256"
            },
            {
              "internalType": "uint256",
              "name": "minPeriod",
              "type": "uint256"
            },
            {
              "internalType": "uint256",
              "name": "totalUnit",
              "type": "uint256"
            },
            {
              "internalType": "uint256",
              "name": "tcp",
              "type": "uint256"
            },
            {
              "internalType": "bool",
              "name": "isActive",
              "type": "bool"
            },
            {
              "internalType": "uint256",
              "name": "accruedPayout",
              "type": "uint256"
            }
          ],
          "internalType": "struct CoverLib.PoolInfo[]",
          "name": "",
          "type": "tuple[]"
        }
      ],
      "stateMutability": "view",
      "type": "function"
    },
    {
      "inputs": [
        {
          "internalType": "address",
          "name": "asset",
          "type": "address"
        }
      ],
      "name": "getPriceInUSD",
      "outputs": [
        {
          "internalType": "uint256",
          "name": "",
          "type": "uint256"
        }
      ],
      "stateMutability": "view",
      "type": "function"
    },
    {
      "inputs": [
        {
          "internalType": "uint256",
          "name": "_poolId",
          "type": "uint256"
        },
        {
          "internalType": "address",
          "name": "_user",
          "type": "address"
        },
        {
          "internalType": "enum CoverLib.DepositType",
          "name": "pdt",
          "type": "uint8"
        }
      ],
      "name": "getUserGenericDeposit",
      "outputs": [
        {
          "components": [
            {
              "internalType": "address",
              "name": "lp",
              "type": "address"
            },
            {
              "internalType": "uint256",
              "name": "amount",
              "type": "uint256"
            },
            {
              "internalType": "uint256",
              "name": "poolId",
              "type": "uint256"
            },
            {
              "internalType": "uint256",
              "name": "dailyPayout",
              "type": "uint256"
            },
            {
              "internalType": "enum CoverLib.Status",
              "name": "status",
              "type": "uint8"
            },
            {
              "internalType": "uint256",
              "name": "daysLeft",
              "type": "uint256"
            },
            {
              "internalType": "uint256",
              "name": "startDate",
              "type": "uint256"
            },
            {
              "internalType": "uint256",
              "name": "expiryDate",
              "type": "uint256"
            },
            {
              "internalType": "uint256",
              "name": "accruedPayout",
              "type": "uint256"
            },
            {
              "internalType": "enum CoverLib.DepositType",
              "name": "pdt",
              "type": "uint8"
            },
            {
              "internalType": "enum CoverLib.AssetDepositType",
              "name": "adt",
              "type": "uint8"
            },
            {
              "internalType": "address",
              "name": "asset",
              "type": "address"
            }
          ],
          "internalType": "struct CoverLib.GenericDepositDetails",
          "name": "",
          "type": "tuple"
        }
      ],
      "stateMutability": "view",
      "type": "function"
    },
    {
      "inputs": [
        {
          "internalType": "address",
          "name": "user",
          "type": "address"
        }
      ],
      "name": "getUserParticipation",
      "outputs": [
        {
          "internalType": "uint256",
          "name": "",
          "type": "uint256"
        }
      ],
      "stateMutability": "view",
      "type": "function"
    },
    {
      "inputs": [
        {
          "internalType": "uint256",
          "name": "_poolId",
          "type": "uint256"
        },
        {
          "internalType": "address",
          "name": "_user",
          "type": "address"
        }
      ],
      "name": "getUserPoolDeposit",
      "outputs": [
        {
          "components": [
            {
              "internalType": "address",
              "name": "lp",
              "type": "address"
            },
            {
              "internalType": "uint256",
              "name": "amount",
              "type": "uint256"
            },
            {
              "internalType": "uint256",
              "name": "poolId",
              "type": "uint256"
            },
            {
              "internalType": "uint256",
              "name": "dailyPayout",
              "type": "uint256"
            },
            {
              "internalType": "enum CoverLib.Status",
              "name": "status",
              "type": "uint8"
            },
            {
              "internalType": "uint256",
              "name": "daysLeft",
              "type": "uint256"
            },
            {
              "internalType": "uint256",
              "name": "startDate",
              "type": "uint256"
            },
            {
              "internalType": "uint256",
              "name": "expiryDate",
              "type": "uint256"
            },
            {
              "internalType": "uint256",
              "name": "accruedPayout",
              "type": "uint256"
            },
            {
              "internalType": "enum CoverLib.DepositType",
              "name": "pdt",
              "type": "uint8"
            }
          ],
          "internalType": "struct CoverLib.Deposits",
          "name": "",
          "type": "tuple"
        }
      ],
      "stateMutability": "view",
      "type": "function"
    },
    {
      "inputs": [],
      "name": "governance",
      "outputs": [
        {
          "internalType": "address",
          "name": "",
          "type": "address"
        }
      ],
      "stateMutability": "view",
      "type": "function"
    },
    {
      "inputs": [
        {
          "internalType": "uint256",
          "name": "_poolId",
          "type": "uint256"
        },
        {
          "internalType": "uint256",
          "name": "__poolPercentageSplit",
          "type": "uint256"
        }
      ],
      "name": "increasePercentageSplit",
      "outputs": [],
      "stateMutability": "nonpayable",
      "type": "function"
    },
    {
      "inputs": [],
      "name": "initialOwner",
      "outputs": [
        {
          "internalType": "address",
          "name": "",
          "type": "address"
        }
      ],
      "stateMutability": "view",
      "type": "function"
    },
    {
      "inputs": [],
      "name": "owner",
      "outputs": [
        {
          "internalType": "address",
          "name": "",
          "type": "address"
        }
      ],
      "stateMutability": "view",
      "type": "function"
    },
    {
      "inputs": [
        {
          "internalType": "uint256",
          "name": "",
          "type": "uint256"
        }
      ],
      "name": "participants",
      "outputs": [
        {
          "internalType": "address",
          "name": "",
          "type": "address"
        }
      ],
      "stateMutability": "view",
      "type": "function"
    },
    {
      "inputs": [
        {
          "internalType": "address",
          "name": "",
          "type": "address"
        }
      ],
      "name": "participation",
      "outputs": [
        {
          "internalType": "uint256",
          "name": "",
          "type": "uint256"
        }
      ],
      "stateMutability": "view",
      "type": "function"
    },
    {
      "inputs": [
        {
          "internalType": "uint256",
          "name": "poolId",
          "type": "uint256"
        }
      ],
      "name": "poolActive",
      "outputs": [
        {
          "internalType": "bool",
          "name": "",
          "type": "bool"
        }
      ],
      "stateMutability": "view",
      "type": "function"
    },
    {
      "inputs": [],
      "name": "poolCanister",
      "outputs": [
        {
          "internalType": "address",
          "name": "",
          "type": "address"
        }
      ],
      "stateMutability": "view",
      "type": "function"
    },
    {
      "inputs": [],
      "name": "poolCount",
      "outputs": [
        {
          "internalType": "uint256",
          "name": "",
          "type": "uint256"
        }
      ],
      "stateMutability": "view",
      "type": "function"
    },
    {
      "inputs": [
        {
          "internalType": "uint256",
          "name": "_poolId",
          "type": "uint256"
        }
      ],
      "name": "poolWithdraw",
      "outputs": [],
      "stateMutability": "nonpayable",
      "type": "function"
    },
    {
      "inputs": [
        {
          "internalType": "uint256",
          "name": "",
          "type": "uint256"
        }
      ],
      "name": "pools",
      "outputs": [
        {
          "internalType": "uint256",
          "name": "id",
          "type": "uint256"
        },
        {
          "internalType": "string",
          "name": "poolName",
          "type": "string"
        },
        {
          "internalType": "string",
          "name": "rating",
          "type": "string"
        },
        {
          "internalType": "enum CoverLib.RiskType",
          "name": "riskType",
          "type": "uint8"
        },
        {
          "internalType": "uint256",
          "name": "apy",
          "type": "uint256"
        },
        {
          "internalType": "uint256",
          "name": "minPeriod",
          "type": "uint256"
        },
        {
          "internalType": "uint256",
          "name": "totalUnit",
          "type": "uint256"
        },
        {
          "internalType": "uint256",
          "name": "tvl",
          "type": "uint256"
        },
        {
          "internalType": "uint256",
          "name": "baseValue",
          "type": "uint256"
        },
        {
          "internalType": "uint256",
          "name": "coverUnits",
          "type": "uint256"
        },
        {
          "internalType": "uint256",
          "name": "tcp",
          "type": "uint256"
        },
        {
          "internalType": "bool",
          "name": "isActive",
          "type": "bool"
        },
        {
          "internalType": "uint256",
          "name": "percentageSplitBalance",
          "type": "uint256"
        },
        {
          "internalType": "uint256",
          "name": "investmentArmPercent",
          "type": "uint256"
        },
        {
          "internalType": "uint8",
          "name": "leverage",
          "type": "uint8"
        },
        {
          "internalType": "address",
          "name": "asset",
          "type": "address"
        },
        {
          "internalType": "enum CoverLib.AssetDepositType",
          "name": "assetType",
          "type": "uint8"
        }
      ],
      "stateMutability": "view",
      "type": "function"
    },
    {
      "inputs": [
        {
          "internalType": "uint256",
          "name": "_poolId",
          "type": "uint256"
        },
        {
          "internalType": "uint256",
          "name": "__poolPercentageSplit",
          "type": "uint256"
        }
      ],
      "name": "reducePercentageSplit",
      "outputs": [],
      "stateMutability": "nonpayable",
      "type": "function"
    },
    {
      "inputs": [],
      "name": "renounceOwnership",
      "outputs": [],
      "stateMutability": "nonpayable",
      "type": "function"
    },
    {
      "inputs": [
        {
          "internalType": "address",
          "name": "_coverContract",
          "type": "address"
        }
      ],
      "name": "setCover",
      "outputs": [],
      "stateMutability": "nonpayable",
      "type": "function"
    },
    {
      "inputs": [
        {
          "internalType": "address",
          "name": "_governance",
          "type": "address"
        }
      ],
      "name": "setGovernance",
      "outputs": [],
      "stateMutability": "nonpayable",
      "type": "function"
    },
    {
      "inputs": [
        {
          "internalType": "uint256",
          "name": "poolId",
          "type": "uint256"
        },
        {
          "internalType": "address",
          "name": "user",
          "type": "address"
        },
        {
          "internalType": "enum CoverLib.DepositType",
          "name": "pdt",
          "type": "uint8"
        }
      ],
      "name": "setUserDepositToZero",
      "outputs": [],
      "stateMutability": "nonpayable",
      "type": "function"
    },
    {
      "inputs": [
        {
          "internalType": "address",
          "name": "_vaultContract",
          "type": "address"
        }
      ],
      "name": "setVault",
      "outputs": [],
      "stateMutability": "nonpayable",
      "type": "function"
    },
    {
      "inputs": [
        {
          "internalType": "address",
          "name": "newOwner",
          "type": "address"
        }
      ],
      "name": "transferOwnership",
      "outputs": [],
      "stateMutability": "nonpayable",
      "type": "function"
    },
    {
      "inputs": [
        {
          "internalType": "uint256",
          "name": "_poolId",
          "type": "uint256"
        },
        {
          "internalType": "uint256",
          "name": "_apy",
          "type": "uint256"
        },
        {
          "internalType": "uint256",
          "name": "_minPeriod",
          "type": "uint256"
        }
      ],
      "name": "updatePool",
      "outputs": [],
      "stateMutability": "nonpayable",
      "type": "function"
    },
    {
      "inputs": [
        {
          "internalType": "uint256",
          "name": "_poolId",
          "type": "uint256"
        },
        {
          "components": [
            {
              "internalType": "uint256",
              "name": "id",
              "type": "uint256"
            },
            {
              "internalType": "string",
              "name": "coverName",
              "type": "string"
            },
            {
              "internalType": "enum CoverLib.RiskType",
              "name": "riskType",
              "type": "uint8"
            },
            {
              "internalType": "string",
              "name": "chains",
              "type": "string"
            },
            {
              "internalType": "uint256",
              "name": "capacity",
              "type": "uint256"
            },
            {
              "internalType": "uint256",
              "name": "cost",
              "type": "uint256"
            },
            {
              "internalType": "uint256",
              "name": "capacityAmount",
              "type": "uint256"
            },
            {
              "internalType": "uint256",
              "name": "coverValues",
              "type": "uint256"
            },
            {
              "internalType": "uint256",
              "name": "maxAmount",
              "type": "uint256"
            },
            {
              "internalType": "uint256",
              "name": "poolId",
              "type": "uint256"
            },
            {
              "internalType": "string",
              "name": "CID",
              "type": "string"
            },
            {
              "internalType": "enum CoverLib.AssetDepositType",
              "name": "adt",
              "type": "uint8"
            },
            {
              "internalType": "address",
              "name": "asset",
              "type": "address"
            }
          ],
          "internalType": "struct CoverLib.Cover",
          "name": "_cover",
          "type": "tuple"
        }
      ],
      "name": "updatePoolCovers",
      "outputs": [],
      "stateMutability": "nonpayable",
      "type": "function"
    },
    {
      "inputs": [],
      "name": "vaultContract",
      "outputs": [
        {
          "internalType": "address",
          "name": "",
          "type": "address"
        }
      ],
      "stateMutability": "view",
      "type": "function"
    },
    {
      "inputs": [
        {
          "internalType": "uint256",
          "name": "_vaultId",
          "type": "uint256"
        }
      ],
      "name": "vaultWithdraw",
      "outputs": [],
      "stateMutability": "nonpayable",
      "type": "function"
    },
    {
      "inputs": [
        {
          "internalType": "address",
          "name": "depositor",
          "type": "address"
        },
        {
          "internalType": "uint256",
          "name": "_poolId",
          "type": "uint256"
        },
        {
          "internalType": "enum CoverLib.DepositType",
          "name": "pdt",
          "type": "uint8"
        }
      ],
      "name": "withdrawUpdate",
      "outputs": [],
      "stateMutability": "nonpayable",
      "type": "function"
    }
  ],
  "bytecode": "0x60803461027657601f6157ab38819003918201601f19168301916001600160401b0383118484101761027b57808492604094855283398101031261027657610052602061004b83610291565b9201610291565b60016000556001600160a01b0390911690811561026057600180546001600160a01b031981168417909155604051929081906001600160a01b03167f8be0079c531659141344cd1fd0a4f28419497f9722a3daafe3b4186f6b6457e0600080a3601180546001600160a01b031990811690915560158054821692909217909155600280548216732514895c72f50d8bd4b4f9b1110f0d6bd2c97526908117909155600380548316735741306c21795fdcbb9b265ea0255f499dfe515c908117909155600480548416739331b55d9830ef609a2abcfac0fbce050a52fdea17815560058054851673eca2605f0bcf2ba5966372c99837b1f182d3d62017815560066020527f54cdd369e4e8a8515e52ca72ec816c2101831ad1f18bf44102ed171459c9b4f8805486169094179093557f92599ef52398a38e84e5b15ac236af99994b80b5e390e5524198cbc8e48da63780548516831790556001600160a01b039485166000818152604081208054871690941790935590547fd1eceb50b46aea74f6b42453ba5381363a7854e4547ee8ff2fef30dd11f58cdd80548616918716919091179055915473337610d27c682e347c9cd60bd4b3b107c9d34ddd9091527f44abd9ca46b16d583f86aa1f838cb006ce9d3219783a65b570216ad498a2825a805484169190941617909255600f805482168317905560108054909116909117905561550590816102a68239f35b631e4fbdf760e01b600052600060045260246000fd5b600080fd5b634e487b7160e01b600052604160045260246000fd5b51906001600160a01b03821682036102765756fe6080604052600436101561001257600080fd5b60003560e01c80630226614714614280578063068bcd8d14614249578063195ec9ee1461417d5780631d698292146140e25780632274346b146140b9578063248a75b71461409057806325f11e8d1461405c5780632607b5391461372457806329ba7bb2146136fb578063318667631461329257806334808ec31461326957806335c1d349146132275780633dc66ad314612da157806346f8479514611d595780634914a87814612d2957806358526da31461280b5780635aa6e675146127e25780635f267c55146127b95780636817031b146126dc5780636f60537d146126b3578063715018a6146126565780637c366cc6146125795780637eb111f01461243a57806383bc635714611fed5780638da5cb5b14611fc45780638f24463014611d9357806396f3a8ad14611d59578063996b8a6f14611d305780639abd9b0514611cdc5780639fd36b1514611c81578063a2a8baaf146117cd578063a4948d851461176e578063ab033ea91461167f578063ac4afa381461151e578063b5d90c28146114f5578063c039a53f14611425578063d27e52e8146113e3578063d86c04441461128b578063d88ff1f41461117f578063e35f812914610b6c578063e9e0c8b6146108a6578063f2fde38b1461081c578063f525cb68146107fe578063f6e80558146107d55763fb839dda1461020b57600080fd5b3461037e57602036600319011261037e57600435610227615464565b600d54604051632bb2b24360e11b8152600481018390523360248201526001600160a01b039091169061016081604481855afa908115610372576000916106df575b506020019081511561069a57600060249160405192838092632500ed8d60e21b82528760048301525afa908115610372576000916103df575b50600160c08201516102b381614327565b6102bc81614327565b036103be5760e00151905160405163a9059cbb60e01b8152336004820152602481019190915290602090829060449082906000906001600160a01b03165af1801561037257600090610383575b6103139150615255565b600d546001600160a01b0316803b1561037e576040516307e2f9cf60e21b815260048101839052336024820152906000908290604490829084905af1801561037257610361575b6001600055005b600061036c916144b0565b8061035a565b6040513d6000823e3d90fd5b600080fd5b506020813d6020116103b6575b8161039d602093836144b0565b8101031261037e576103b161031391615092565b610309565b3d9150610390565b5060008080806103da9451335af16103d46151d9565b50615209565b610313565b903d8082843e6103ef81846144b0565b820191602081840312610696578051906001600160401b03821161067e57019061010082840312610513576040519261010084018481106001600160401b03821117610682576040528251845260208301516001600160401b03811161067e578161045b918501615422565b602085015260408301516001600160401b03811161067e5783019080601f8301121561067e5781519161048d836150dc565b9261049b60405194856144b0565b80845260208085019160051b8301019183831161067a5760208101915b8383106105165750505050506040840152606082015160608401526080820151608084015260a082015160a084015260c0820151906002821015610513575060c08301526105089060e00161540e565b60e0820152386102a2565b80fd5b82516001600160401b038111610676578201610220818703601f19011261067657604051906105448261445c565b6020810151825260408101516001600160401b0381116106725787602061056d92840101615422565b602083015260608101516001600160401b0381116106725787602061059492840101615422565b604083015260808101516003811015610672579061022091606084015260a0810151608084015260c081015160a084015260e081015160c084015261010081015160e084015261012081015161010084015261014081015161012084015261016081015161014084015261060b6101808201615092565b6101608401526101a08101516101808401526101c08101516101a08401526106366101e0820161499e565b6101c0840152610649610200820161540e565b6101e08401520151600281101561066e576102008201528152602092830192016104b8565b8880fd5b8980fd5b8780fd5b8580fd5b8280fd5b634e487b7160e01b83526041600452602483fd5b5080fd5b60405162461bcd60e51b815260206004820152601d60248201527f4e6f20616374697665207769746864726177616c20666f7220757365720000006044820152606490fd5b610160813d82116107cd575b816106f961016093836144b0565b81010312610696576040519161016083018381106001600160401b038211176107b9576040526107288261540e565b83526020820151602084015260408201516040840152606082015160608401526080820151600381101561069657608084015260a082015160a084015260c082015160c084015260e082015160e0840152610100820151610100840152610120820151906002821015610513575061014083926107ad9261012060209601520161540e565b61014082015290610269565b634e487b7160e01b82526041600452602482fd5b3d91506106eb565b3461037e57600036600319011261037e57600c546040516001600160a01b039091168152602090f35b3461037e57600036600319011261037e576020600a54604051908152f35b3461037e57602036600319011261037e576108356142ab565b61083d615486565b6001600160a01b0316801561089057600180546001600160a01b0319811683179091556001600160a01b03167f8be0079c531659141344cd1fd0a4f28419497f9722a3daafe3b4186f6b6457e0600080a3005b631e4fbdf760e01b600052600060045260246000fd5b3461037e57604036600319011261037e576004356024356001600160a01b03811680820361037e5760006101206040516108df81614424565b8281528260208201528260408201528260608201528260808201528260a08201528260c08201528260e08201528261010082015201526000526007602052604060002082600052602052604060002060008052602052604060002090604051809261094982614424565b80546001600160a01b03168252600181015460208301908152600282015460408401908152600383015460608501908152600484015492979260808601919060ff166109948161431d565b825260058501549260a08701938452610a23602060068801549660c08a0197885260ff600960078b01549a60e08d019b8c5261010060088201549d019c8d520154169a6101208d019b6109e681614327565b8c52600c54604051630414960560e21b81526001600160a01b03928316600482015260248101939093529193849290911690829081906044820190565b03915afa90811561037257600091610b3a575b5080610b2a5750610a6362015180610a5b87515b428a51804211610b22575b506149ac565b0483516147bb565b87528551428111610ad6575061014099600085525b604080519a516001600160a01b03168b52905160208b015290519089015251606088015251610aa68161431d565b60808701525160a08601525160c08501525160e08401525161010083015251610ace81614327565b610120820152f35b610ae19042906149ac565b99620151808b019a8b8111610b0c576201517f019a8b11610b0c57620151806101409b048552610a78565b634e487b7160e01b600052601160045260246000fd5b90508f610a55565b62015180610a5b610a6392610a4a565b906020823d602011610b64575b81610b54602093836144b0565b810103126105135750518b610a36565b3d9150610b47565b3461037e57602036600319011261037e57600435610b88615464565b600e54604051633b4d01a760e01b815260048101839052906000908290602490829084906001600160a01b03165af190811561037257600091610ff7575b509061010082015160c0830151926005841015610fe1576002600094149081610fd3575b5015610f965760a081018051845260096020526040842082519192916001600160a01b03163303610f5a57610c2560ff600b830154166153cd565b6006810180549360c084019182518610610f1557610c5988968451610c4f600a8801918254615085565b90558451906149ac565b9055610c658151615299565b93855b8551811015610ce357600c546001600160a01b031690610c88818861509f565b5151823b1561066e57889260248492604051958693849263106b5da160e01b845260048401525af1918215610cd85788600193610cc8575b505001610c68565b610cd1916144b0565b8a88610cc0565b6040513d8a823e3d90fd5b50919350919460018060a01b03600e541690813b1561067a57859160248392604051948593849263f1b4bf9d60e01b845260048401525af18015610f0a5785937feef4955e8b18dcb6d1c19905b7b86e5fe56138ad1ce2c5e540ce4e959312f5119285606093610efa575b505051855184516040805193845260208401929092526001600160a01b031690820152a1600160e0820151610d8281614327565b610d8b81614327565b03610ee0576101000151825160405163a9059cbb60e01b815233600482015260248101919091529160209183916044918391906001600160a01b03165af18015610ed5578390610e9a575b610de09150615255565b60018060a01b03600f54168151813b15610e9657604051637104a76d60e11b8152336004820152602481019190915292908390604490829084905af191848315610e8a577f415071086c9ea63f7f39884c21a8af430af53bfd511a362dff69cabcb1b8bcc193610e7a575b50505191610e6760405191604083526001604084019101614721565b9260208201528033930390a26001815580f35b610e83916144b0565b8484610e4b565b604051903d90823e3d90fd5b8380fd5b506020813d602011610ecd575b81610eb4602093836144b0565b8101031261067e57610ec8610de091615092565b610dd6565b3d9150610ea7565b6040513d85823e3d90fd5b50808080610ef5938551335af16103d46151d9565b610de0565b610f03916144b0565b8985610d4e565b6040513d87823e3d90fd5b60405162461bcd60e51b815260206004820152601c60248201527f4e6f7420656e6f7567682066756e647320696e2074686520706f6f6c000000006044820152606490fd5b60405162461bcd60e51b8152602060048201526014602482015273139bdd0818481d985b1a59081c1c9bdc1bdcd85b60621b6044820152606490fd5b60405162461bcd60e51b8152602060048201526015602482015274141c9bdc1bdcd85b081b9bdd08185c1c1c9bdd9959605a1b6044820152606490fd5b60e091500151151584610bea565b634e487b7160e01b600052602160045260246000fd5b3d8083833e61100681836144b0565b81019060208183031261067e578051906001600160401b038211610e9657019161012083830312610513576040519261103e84614494565b805184526020810151602085015260408101516040850152606081015160608501526080810151608085015260a081015160a085015260c0810151600581101561067e5760c085015261109360e08201615092565b60e0850152610100810151906001600160401b03821161067e5701906101208284031261051357604051926110c784614494565b6110d08361540e565b84526020830151600381101561067e5760208501526040830151604085015260608301516001600160401b03811161067e578161110e918501615422565b606085015260808301516001600160401b03811161067e5790611132918401615422565b608084015260a082015160a084015260c082015160c084015260e0820151906002821015610513575060e083015261116d906101000161540e565b61010082015261010082015282610bc6565b3461037e57600036600319011261037e57600a5461119c816150dc565b906111aa60405192836144b0565b808252601f196111b9826150dc565b0160005b81811061127457505060015b8181111561123957826040518091602082016020835281518091526040830190602060408260051b8601019301916000905b82821061120a57505050500390f35b919360019193955060206112298192603f198a82030186528851614331565b96019201920185949391926111fb565b611242816149c7565b60001982019190818311610b0c57826112699161126261126f958861509f565b528561509f565b506150cd565b6111c9565b60209061127f614920565b828287010152016111bd565b3461037e57606036600319011261037e576004356024356044356112ad615486565b82600052600960205260ff600b604060002001541615611393578115611360578015611322576000838152600960209081526040918290206004810185905560050183905581519384528301919091527f17b8644f386d1c7c7138ef98b3c8035622bbe94d7be9b26f71d2654a547c294391a2005b60405162461bcd60e51b8152602060048201526016602482015275125b9d985b1a59081b5a5b9a5b5d5b481c195c9a5bd960521b6044820152606490fd5b60405162461bcd60e51b815260206004820152600b60248201526a496e76616c69642041505960a81b6044820152606490fd5b60405162461bcd60e51b815260206004820152602260248201527f506f6f6c20646f6573206e6f74206578697374206f7220697320696e61637469604482015261766560f01b6064820152608490fd5b3461037e57602036600319011261037e576001600160a01b036114046142ab565b166000526006602052602060018060a01b0360406000205416604051908152f35b3461037e57611433366146b4565b919061143d615464565b6014546001600160a01b0316331480156114e1575b1561149c5760018060a01b0316600052600760205260406000209060005260205260406000209061148281614327565b600052602052600060016040822001556001600055600080f35b60405162461bcd60e51b815260206004820152601f60248201527f43616c6c6572206973206e6f742074686520706f6f6c2063616e6973746572006044820152606490fd5b506015546001600160a01b03163314611452565b3461037e57600036600319011261037e57600e546040516001600160a01b039091168152602090f35b3461037e57602036600319011261037e5760043560005260096020526040600020805490604051908180600183019061155691614721565b0361156190836144b0565b604051806115728160028501614721565b0361157d90826144b0565b600382015460ff169160048101546005820154600683015460078401546008850154600986015491600a87015493600b88015460ff1695600c89015497600d8a015499600e01549a6040519e8f9e8f91825260208201610220905261022082016115e6916142f8565b9080820390604001526115f8916142f8565b9b8d6116038261431d565b6060015260808d015260a08c015260c08b015260e08a015261010089015261012088015261014087015215156101608601526101808501526101a084015260ff8181166101c0850152600882901c6001600160a01b03166101e085015261166f9060a883901c16614327565b60a81c60ff166102008301520390f35b3461037e57602036600319011261037e576116986142ab565b6116a0615486565b600b54906001600160a01b038216611730576001600160a01b03169081156116e1576001600160a01b03199081168217600b55600e80549091169091179055005b60405162461bcd60e51b815260206004820152602160248201527f476f7665726e616e636520616464726573732063616e6e6f74206265207a65726044820152606f60f81b6064820152608490fd5b60405162461bcd60e51b815260206004820152601660248201527511dbdd995c9b985b98d948185b1c9958591e481cd95d60521b6044820152606490fd5b3461037e5761177c3661469e565b9060018060a01b0360125416331480156117b9575b61179a90614bdd565b60005260096020526117b5600c6040600020019182546149ac565b9055005b506015546001600160a01b03163314611791565b3461037e576117db366146b4565b6040516117e781614478565b600080825260208083018290526040808401839052606084018390526080840183905260a0840183905260c0840183905260e084018390526101008401839052610120840183905261014084018390526101609093018290526001600160a01b0385168252600781528282208683529052209061186381614327565b60005260205260406000206040519261187b84614424565b600160a01b600190038254168452600182015492602085019384526002830154926040860193845260038101549060608701918252600481015460ff1660808801906118c68161431d565b8152600582015460a0890190815260068301549060c08a0191825260078401549260e08b019384526008850154946101008c019586526009015460ff16956101208c019661191381614327565b8752886000526009602052604060002097604051986119318a61445c565b80548a52604051806119468160018501614721565b0361195190826144b0565b60208b0152604051806119678160028501614721565b0361197290826144b0565b60408b0152600381015460ff166119888161431d565b60608b0152600481015460808b0152600581015460a08b0152600681015460c08b0152600781015460e08b015260088101546101008b015260098101546101208b0152600a8101546101408b0152600b81015460ff1615156101608b0152600c8101546101808b0152600d8101546101a08b0152600e01549960ff8b166101c08b01526101e08a019a600160a01b600190038160081c168c5260a81c60ff16996102000199611a3681614327565b8a52600c54604051630414960560e21b81526001600160a01b0393841660048201526024810192909252909116816044815a93602094fa90811561037257600091611c4f575b5080611c3f5750611aa862015180611aa086515b428951804211611c3757506149ac565b0482516147bb565b86528451428111611c0157506101809b600084525b519a519951905191516001600160a01b03909b169a92611adc8461431d565b51935194519551965197611aef89614327565b5198611afa8a614327565b516040519b6001600160a01b039091169a90611b158d614478565b8c5260208c0190815260408c0191825260608c0192835260808c0193611b3a8161431d565b845260a08c0194855260c08c0195865260e08c019687526101008c019788526101208c0198611b6881614327565b89526101408c0199611b7981614327565b8a526101608c019a8b52604080519c516001600160a01b03168d52905160208d01529051908b01525160608a015251611bb18161431d565b60808901525160a08801525160c08701525160e08601525161010085015251611bd981614327565b61012084015251611be981614327565b610140830152516001600160a01b0316610160820152f35b611c0c9042906149ac565b9b620151808d019c8d8111610b0c576201517f019c8d11610b0c57620151806101809d048452611abd565b905038610a55565b62015180611aa0611aa892611a90565b906020823d602011611c79575b81611c69602093836144b0565b810103126105135750518d611a7c565b3d9150611c5c565b3461037e57611c8f3661469e565b9060018060a01b036012541633148015611cc8575b611cad90614bdd565b60005260096020526117b5600c604060002001918254615085565b506015546001600160a01b03163314611ca4565b3461037e57602036600319011261037e57600435611cf8615486565b806000526009602052611d1560ff600b60406000200154166153cd565b6000908152600960205260409020600b01805460ff19169055005b3461037e57600036600319011261037e576010546040516001600160a01b039091168152602090f35b3461037e57602036600319011261037e576001600160a01b03611d7a6142ab565b1660005260176020526020604060002054604051908152f35b3461037e57602036600319011261037e5760043560005260096020526040600020604051611dc08161445c565b81548152604051611ddf81611dd88160018701614721565b03826144b0565b6020820152604051611df881611dd88160028701614721565b604082015260ff600383015416611e0e8161431d565b606082015260048201546080820152600582015460a082015260068201549160c08201928352600781015460e083015260088101546101008301526009810154610120830152600a810154610140830152600e60ff600b830154169161016084019215158352600c810154610180850152600d8101546101a085015201549160ff83166101c082015261020060ff6101e083019460018060a01b038160081c16865260a81c1691611ebe83614327565b015251151580611fab575b15611f225750601154611ee4906001600160a01b03166147ce565b906012905b51906012039060128211610b0c57602092611f13611f1992611f13670de0b6b3a7640000956149b9565b906147bb565b04604051908152f35b9060046020611f3960018060a01b038551166147ce565b935160405163313ce56760e01b815292839182906001600160a01b03165afa801561037257600090611f71575b60ff91501690611ee9565b506020813d602011611fa3575b81611f8b602093836144b0565b8101031261037e57611f9e60ff9161499e565b611f66565b3d9150611f7e565b5080516011546001600160a01b03908116911614611ec9565b3461037e57600036600319011261037e576001546040516001600160a01b039091168152602090f35b3461037e57606036600319011261037e576120066142ab565b60243560443591600283101561037e5761201e615464565b6013546001600160a01b031633148015612426575b156123e25781600052600960205260406000209060018060a01b03169283600052600760205260406000208360005260205260406000209061207481614327565b6000526020526040600020926001840180546120918115156150f3565b600486016120bd60078254986120b360ff8b166120ad8161431d565b15615149565b015442101561518d565b600160009760ff19161790556120f56120db600686019283546149ac565b80835560646120ee82600d8901546147bb565b04906149ac565b94600e85019561210960ff885416826147bb565b60098701556008860155865260086020526040862093845461212a816150dc565b9561213860405197886144b0565b81875288526020808920899188015b8383106122f65750505050865b85518110156121c557600c548891906001600160a01b0316612176828961509f565b515190803b15610e965760248492604051958693849263106b5da160e01b845260048401525af191898315610e8a576001936121b5575b505001612154565b6121be916144b0565b89896121ad565b50868660ff600b84015416806122d8575b156122515750506011546121f2906001600160a01b03166147ce565b6012925b54926012039360128511610b0c57670de0b6b3a764000061223261224793611f13600197611f136000805160206154b08339815191529a6149b9565b046007840155546040519384930190836150b3565b0390a26001600055005b5460081c6001600160a01b031690600490602061226d846147ce565b936040519384809263313ce56760e01b82525afa908115610e8a57809161229b575b5060ff915016926121f6565b90506020823d6020116122d0575b816122b6602093836144b0565b8101031261051357506122ca60ff9161499e565b8761228f565b3d91506122a9565b5080546011546001600160a01b0390811660089290921c16146121d6565b600c602060019260405161230981614440565b8554815260405161232081611dd881898b01614721565b8382015260ff6002870154166123358161431d565b604082015260405161234e81611dd88160038b01614721565b606082015260048601546080820152600586015460a0820152600686015460c0820152600786015460e0820152600886015461010082015260098601546101208201526040516123a581611dd881600a8b01614721565b610140820152600b86015460ff81166123bd81614327565b610160830152858060a01b039060081c16610180820152815201920192019190612147565b606460405162461bcd60e51b815260206004820152602060248201527f43616c6c6572206973206e6f7420746865207661756c7420636f6e74726163746044820152fd5b506015546001600160a01b03163314612033565b3461037e57602036600319011261037e57612456600435615299565b6040518091602082016020835281518091526040830190602060408260051b8601019301916000905b82821061248e57505050500390f35b919360019193955060208091603f19898203018552875190815181526101806125456124f16124cc868601516101a0888701526101a08601906142f8565b60408601516124da8161431d565b6040860152606086015185820360608701526142f8565b6080850151608085015260a085015160a085015260c085015160c085015260e085015160e08501526101008501516101008501526101208501516101208501526101408501518482036101408601526142f8565b9261016081015161255581614327565b61016084015281878060a01b0391015116910152960192019201859493919261247f565b3461037e57602036600319011261037e576125926142ab565b61259a615486565b601254906001600160a01b03821661261d576001600160a01b03169081156125d857600c80546001600160a01b031990811684179091551617601255005b60405162461bcd60e51b815260206004820152601c60248201527f436f76657220616464726573732063616e6e6f74206265207a65726f000000006044820152606490fd5b60405162461bcd60e51b815260206004820152601160248201527010dbdd995c88185b1c9958591e481cd95d607a1b6044820152606490fd5b3461037e57600036600319011261037e5761266f615486565b600180546001600160a01b031981169091556000906001600160a01b03167f8be0079c531659141344cd1fd0a4f28419497f9722a3daafe3b4186f6b6457e08280a3005b3461037e57600036600319011261037e57600d546040516001600160a01b039091168152602090f35b3461037e57602036600319011261037e576126f56142ab565b6126fd615486565b601354906001600160a01b038216612780576001600160a01b031690811561273b57600d80546001600160a01b031990811684179091551617601355005b60405162461bcd60e51b815260206004820152601c60248201527f5661756c7420616464726573732063616e6e6f74206265207a65726f000000006044820152606490fd5b60405162461bcd60e51b815260206004820152601160248201527015985d5b1d08185b1c9958591e481cd95d607a1b6044820152606490fd5b3461037e57600036600319011261037e576014546040516001600160a01b039091168152602090f35b3461037e57600036600319011261037e57600b546040516001600160a01b039091168152602090f35b3461037e57602036600319011261037e576004356001600160401b03811161037e57610140600319823603011261037e576040519061284982614424565b806004013582526024810135600381101561037e576020830190815260448201356001600160401b03811161037e5761288890600436918501016144ec565b926040810193845260648301356001600160401b03811161037e576128b390600436918601016144ec565b6060820190815260808201926084850135845260a0830160a4860135815260c48601359160ff8316830361037e5760c0850192835260e085019160e4880135835261010488013597600289101561037e576101246129199161010089019a8b52016142c1565b96610120870197885261292a615486565b885161293581614327565b61293e81614327565b158015612d16575b15612cd157600a5460018101809111610b0c57600a5586516000526009602052604060002095875187558a5160018801908051906001600160401b038211612bf857819061299484546146e7565b601f8111612c7e575b50602090601f8311600114612c1957600092612c0e575b50508160011b916000199060031b1c19161790555b51805160028801916001600160401b038211612bf8576129e983546146e7565b601f8111612bb0575b50602090601f8311600114612b3f579180612a7596949260ff99989694600092612b34575b50508160011b916000199060031b1c19161790555b51600488015560006006880155516005870155600060078701556000600987015560006008870155600b86016001851982541617905551612a6c8161431d565b60038601614c44565b519182600d850155511693600e8301918254906064039560648711610b0c577ff01906dc0ac306fa816e50166a7ed46af1f05721cb90cea30beebdd8dede3a6d97612b2f97600c612b1897015551612acc81614327565b612ad581614327565b9251610100600160a81b0360089190911b1660ff60a81b60a89490941b939093166001600160b01b031992909216610100600160a81b0319919091161717179055565b5192516040519182916020835260208301906142f8565b0390a2005b015190508f80612a17565b90601f1983169184600052816000209260005b818110612b98575092600192859260ff9b9a9896612a759a989610612b7f575b505050811b019055612a2c565b015160001960f88460031b161c191690558f8080612b72565b92936020600181928786015181550195019301612b52565b836000526020600020601f840160051c81019160208510612bee575b601f0160051c01905b818110612be257506129f2565b60008155600101612bd5565b9091508190612bcc565b634e487b7160e01b600052604160045260246000fd5b015190508e806129b4565b60008581528281209350601f198516905b818110612c665750908460019594939210612c4d575b505050811b0190556129c9565b015160001960f88460031b161c191690558e8080612c40565b92936020600181928786015181550195019301612c2a565b909150836000526020600020601f840160051c81019160208510612cc7575b90601f859493920160051c01905b818110612cb8575061299d565b60008155849350600101612cab565b9091508190612c9d565b60405162461bcd60e51b815260206004820152601760248201527f57726f6e6720417373657420666f72204465706f7369740000000000000000006044820152606490fd5b5087516001600160a01b03161515612946565b3461037e57612d3736614533565b9060018060a01b036012541633148015612d8d575b612d5590614bdd565b6000526008602052604060002090815491600160401b831015612bf85782612d85916001612d8b95018155614c28565b90614c5c565b005b506015546001600160a01b03163314612d4c565b3461037e57602036600319011261037e57600435612dbd615464565b80600052600960205260406000203360005260076020526040600020826000526020526040600020600080526020526040600020916001830191825492612e058415156150f3565b60048501612e2160078254976120b360ff8a166120ad8161431d565b600260009660ff1916179055612e52612e3f600684019586546149ac565b80865560646120ee82600d8701546147bb565b92600e830193612e6660ff865416826147bb565b600985015560088401558552600860205260408520928354612e87816150dc565b94612e9560405196876144b0565b81865287526020808820889187015b83831061313b5750505050855b8451811015612f2257600c548791906001600160a01b0316612ed3828861509f565b515190803b15610e965760248492604051958693849263106b5da160e01b845260048401525af191888315610e8a57600193612f12575b505001612eb1565b612f1b916144b0565b8888612f0a565b50848660ff600b860154168061311d575b156130945750601154612f4e906001600160a01b03166147ce565b906012905b54906012039160128311610b0c57611f13612f7a92611f13670de0b6b3a7640000956149b9565b046007840155600160ff825460a81c16612f9381614327565b036130665754815460405163a9059cbb60e01b8152336004820152602481019190915290602090829060081c6001600160a01b0316816000816044810103925af190811561037257600091613013575b506000805160206154b08339815191529161300061224792615255565b54604051918291600133960190836150b3565b90506020813d60201161305e575b8161302e602093836144b0565b8101031261037e576000805160206154b08339815191529161300061305561224793615092565b92505091612fe3565b3d9150613021565b506122478161308f60008080806000805160206154b08339815191529754335af16103d46151d9565b613000565b825460081c6001600160a01b0316919060049060206130b2856147ce565b946040519384809263313ce56760e01b82525afa908115610e8a5780916130e0575b5060ff91501690612f53565b90506020823d602011613115575b816130fb602093836144b0565b81010312610513575061310f60ff9161499e565b876130d4565b3d91506130ee565b5082546011546001600160a01b0390811660089290921c1614612f33565b600c602060019260405161314e81614440565b8554815260405161316581611dd881898b01614721565b8382015260ff60028701541661317a8161431d565b604082015260405161319381611dd88160038b01614721565b606082015260048601546080820152600586015460a0820152600686015460c0820152600786015460e0820152600886015461010082015260098601546101208201526040516131ea81611dd881600a8b01614721565b610140820152600b86015460ff811661320281614327565b610160830152858060a01b039060081c16610180820152815201920192019190612ea4565b3461037e57602036600319011261037e5760043560165481101561037e5761325060209161466d565b905460405160039290921b1c6001600160a01b03168152f35b3461037e57600036600319011261037e57600f546040516001600160a01b039091168152602090f35b3461037e57602036600319011261037e576132ab6142ab565b600a54600091906001600160a01b03821660015b828111156136a357506132d1846150dc565b936132df60405195866144b0565b8085526132ee601f19916150dc565b0160005b81811061363e575050600c546001600160a01b03169260009060015b848111156133e857866040518091602082016020835281518091526040830190602060408260051b8601019301916000905b82821061334f57505050500390f35b919360019193955060208091603f1989820301855287519061012080613380845161014085526101408501906142f8565b93858101518685015260408101516040850152606081015160608501526080810151608085015260a081015160a085015260c081015160c085015260e081015160e0850152610100810151151561010085015201519101529601920192018594939192613340565b8060005260096020526040600020846000526007602052604060002082600052602052604060002060008052602052604060002060405161342881614424565b60018060a01b038254168152600182015460208201526002820154604082015261012060ff6009600385015494606085019586528260048201541661346c8161431d565b6080860152600581015460a0860152600681015460c0860152600781015460e08601526008810154610100860152015416916134a783614327565b01526040516339e671f760e11b81526001600160a01b0385166004820152602481018490526020816044818c5afa9081156103725760009161360b575b506134ef91516147bb565b85600052600760205260406000208360005260205260406000206000805260205260016040600020015461352e575b5050613529906150cd565b61330e565b60008681526007602090815260408083208684528252808320838052909152908190206003810154600190910154600485015460058601546006870154600a880154600b89015496519b9860ff909716969095919492939291906135918d614424565b604051806001819301906135a491614721565b036135af90826144b0565b8c528960208d015260408c015260608b015260808a015260a089015260c088015260e08701521515610100860152610120850152806135ed906150cd565b936135f8828a61509f565b52613603908861509f565b50878061351e565b906020823d8211613636575b81613624602093836144b0565b810103126105135750516134ef6134e4565b3d9150613617565b60209060409594955161365081614424565b60608152600083820152600060408201526000606082015260006080820152600060a0820152600060c0820152600060e082015260006101008201526000610120820152828289010152019392936132f2565b8160009493945260076020526040600020816000526020526040600020600080526020526001604060002001546136e6575b6136de906150cd565b9291926132bf565b936136f36136de916150cd565b9490506136d5565b3461037e57600036600319011261037e576015546040516001600160a01b039091168152602090f35b60e036600319011261037e57604051600060e082016001600160401b038111838210176107b9576040526137566142ab565b825260208201916024358352604081016044358152606082019060643582526084356002811015614058576080840190815260a43591600283101561067a5760a0850192835260c435936001600160a01b03851685036140545760c086019485526137bf615464565b875187526009602052604087209460ff600b870154161561400457600e860194855460ff8160a81c1691516137f381614327565b6137fc81614327565b61380583614327565b8203613fb0578351600589015411613f785782516001600160a01b0390811660089290921c1603613f335787516001600160a01b03168952600760209081526040808b208c518c529091528920855161385d81614327565b61386681614327565b8a52602052600160408a200154613edc5760019061388381614327565b03613e6657825115613e215751865183516040516323b872dd60e01b81526001600160a01b039283166004820152306024820152604481019190915291602091839160649183918d91165af18015610cd857613dea575b5081516138ec60068701918254615085565b905581519360018060a01b03815460081c16906004602061390c846147ce565b936040519283809263313ce56760e01b82525afa8015613ddf578a90613da5575b60ff915016915b600d61396360ff61395a60646139538d600681015496879101546147bb565b04846149ac565b945416846147bb565b9360120360128111613d915791611f1361398992611f13670de0b6b3a7640000956149b9565b049160098801556008870155600786015561016d60646139ad6004880154876147bb565b04049260018060a01b038751169089519251620151808102818104620151801482151715613d7d5792613b1f94926009928b6139ee8e9f979e9d9e42615085565b918d8c8c8651996139fe8b614327565b60405198613a0b8a614424565b8952602089019283526040890190815260608901918252608089019284845260a08a019586528c60c08b019742895260e08c01998a526101008c019a878c526101208d019e8f613a5a82614327565b5251613a6581614327565b613a6e81614327565b613cd657516001600160a01b039081168752600760209081526040808920935189529281528288208880529052952099518a546001600160a01b031916951694909417895592516001890155915160028801559051600387015551613adf90613ad68161431d565b60048701614c44565b516005850155516006840155516007830155516008820155019051613b0381614327565b613b0c81614327565b60ff801983541691161790555b51615299565b93855b8551811015613b9257600c546001600160a01b031690613b42818861509f565b5151823b1561066e57889260248492604051958693849263106b5da160e01b845260048401525af1918215610cd85788600193613b82575b505001613b22565b613b8b916144b0565b8a88613b7a565b50601654869550879086805b828110613c9e575b5015613c3e575b5080516001600160a01b0316865260176020526040862080546001810191908210613c2a5760409793613c1a600196947f6f85d9948d6ca3dd6ce6ce7d175da22b4e865827ae6fcd530ec7edac1240f92894889455838060a01b0390511694518a519384930190836150b3565b0390a25582519182526020820152f35b634e487b7160e01b88526011600452602488fd5b81516001600160a01b031690600160401b811015613c8a57806001613c66920160165561466d565b81546001600160a01b0360039290921b91821b191692901b91909117905586613bad565b634e487b7160e01b88526041600452602488fd5b613ca78161466d565b9054855160039290921b1c6001600160a01b03908116911614613ccc57600101613b9e565b5050600188613ba6565b516001600160a01b039081168752600760209081526040808920935189529281528288206001808a529152919096209a518b546001600160a01b0319169616959095178a555193890193909355915160028801559051600387015551613d3f90613ad68161431d565b516005850155516006840155516007830155516008820155019051613d6381614327565b613d6c81614327565b60ff80198354169116179055613b19565b634e487b7160e01b8b52601160045260248bfd5b634e487b7160e01b8c52601160045260248cfd5b506020813d602011613dd7575b81613dbf602093836144b0565b8101031261067257613dd260ff9161499e565b61392d565b3d9150613db2565b6040513d8c823e3d90fd5b6020813d602011613e19575b81613e03602093836144b0565b8101031261067657613e1490615092565b6138da565b3d9150613df6565b60405162461bcd60e51b815260206004820152601d60248201527f416d6f756e74206d7573742062652067726561746572207468616e20300000006044820152606490fd5b503415613e9e57601154613e82906001600160a01b03166147ce565b9360129060068701613e95348254615085565b90553495613934565b60405162461bcd60e51b81526020600482015260166024820152754465706f7369742063616e6e6f74206265207a65726f60501b6044820152606490fd5b60405162461bcd60e51b815260206004820152602960248201527f557365722068617320616c7265616479206465706f736974656420696e746f206044820152681d1a1a5cc81c1bdbdb60ba1b6064820152608490fd5b60405162461bcd60e51b815260206004820152601f60248201527f506f6f6c20646f6573206e6f74206163636570742074686973206173736574006044820152606490fd5b60405162461bcd60e51b815260206004820152601060248201526f14195c9a5bd9081d1bdbc81cda1bdc9d60821b6044820152606490fd5b60405162461bcd60e51b815260206004820152602660248201527f506f6f6c20646f6573206e6f74206163636570742074686973206465706f736960448201526574207479706560d01b6064820152608490fd5b60405162461bcd60e51b815260206004820152602260248201527f506f6f6c20697320696e616374697665206f7220646f6573206e6f74206578696044820152611cdd60f21b6064820152608490fd5b8680fd5b8480fd5b3461037e57602036600319011261037e576004356000526009602052602060ff600b60406000200154166040519015158152f35b3461037e57600036600319011261037e576012546040516001600160a01b039091168152602090f35b3461037e57600036600319011261037e576013546040516001600160a01b039091168152602090f35b3461037e576140f036614533565b6012546001600160a01b031633148015614169575b61410e90614bdd565b60005b826000526008602052604060002054811015612d8b5782600052600860205261413e816040600020614c28565b505482511461414f57600101614111565b612d8590612d8b9360005260086020526040600020614c28565b506015546001600160a01b03163314614105565b3461037e57600036600319011261037e576040518060206016549283815201809260166000527fd833147d7dc355ba459fc788f669e58cfaf9dc25ddcd0702e87d69c7b51242899060005b81811061422a57505050816141de9103826144b0565b6040519182916020830190602084525180915260408301919060005b818110614208575050500390f35b82516001600160a01b03168452859450602093840193909201916001016141fa565b82546001600160a01b03168452602090930192600192830192016141c8565b3461037e57602036600319011261037e5761427c6142686004356149c7565b604051918291602083526020830190614331565b0390f35b3461037e57602036600319011261037e5760206142a361429e6142ab565b6147ce565b604051908152f35b600435906001600160a01b038216820361037e57565b35906001600160a01b038216820361037e57565b60005b8381106142e85750506000910152565b81810151838201526020016142d8565b90602091614311815180928185528580860191016142d5565b601f01601f1916010190565b60031115610fe157565b60021115610fe157565b90815181526102008061436a614358602086015161022060208701526102208601906142f8565b604086015185820360408701526142f8565b9360608101516143798161431d565b60608501526080810151608085015260a081015160a085015260c081015160c085015260e081015160e085015261010081015161010085015261012081015161012085015261014081015161014085015261016081015115156101608501526101808101516101808501526101a08101516101a085015260ff6101c0820151166101c085015260018060a01b036101e0820151166101e085015201519161441f83614327565b015290565b61014081019081106001600160401b03821117612bf857604052565b6101a081019081106001600160401b03821117612bf857604052565b61022081019081106001600160401b03821117612bf857604052565b61018081019081106001600160401b03821117612bf857604052565b61012081019081106001600160401b03821117612bf857604052565b90601f801991011681019081106001600160401b03821117612bf857604052565b6001600160401b038111612bf857601f01601f191660200190565b81601f8201121561037e57803590614503826144d1565b9261451160405194856144b0565b8284526020838301011161037e57816000926020809301838601378301015290565b90604060031983011261037e57600435916024356001600160401b03811161037e576101a0818303600319011261037e576040519161457183614440565b8160040135835260248201356001600160401b03811161037e5781600461459a928501016144ec565b60208401526044820135600381101561037e57604084015260648201356001600160401b03811161037e578160046145d4928501016144ec565b60608401526084820135608084015260a482013560a084015260c482013560c084015260e482013560e0840152610104820135610100840152610124820135610120840152610144820135906001600160401b03821161037e57600461463c928401016144ec565b610140830152610164810135600281101561037e5761016083015261466490610184016142c1565b61018082015290565b60165481101561468857601660005260206000200190600090565b634e487b7160e01b600052603260045260246000fd5b604090600319011261037e576004359060243590565b606090600319011261037e57600435906024356001600160a01b038116810361037e5790604435600281101561037e5790565b90600182811c92168015614717575b602083101461470157565b634e487b7160e01b600052602260045260246000fd5b91607f16916146f6565b60009291815491614731836146e7565b8083529260018116908115614787575060011461474d57505050565b60009081526020812093945091925b83831061476d575060209250010190565b60018160209294939454838587010152019101919061475c565b915050602093945060ff929192191683830152151560051b010190565b519069ffffffffffffffffffff8216820361037e57565b81810292918115918404141715610b0c57565b6001600160a01b039081166000908152600660205260409020541680156148d05760a060049160405192838092633fabe5a360e21b82525afa90811561037257600091614883575b50600081131561483e576402540be4008102908082046402540be4001490151715610b0c5790565b60405162461bcd60e51b815260206004820152601960248201527f496e76616c69642070726963652066726f6d206f7261636c65000000000000006044820152606490fd5b9060a0823d60a0116148c8575b8161489d60a093836144b0565b8101031261051357506148af816147a4565b506148c16080602083015192016147a4565b5038614816565b3d9150614890565b60405162461bcd60e51b815260206004820152602260248201527f50726963652066656564206e6f7420617661696c61626c6520666f7220617373604482015261195d60f21b6064820152608490fd5b6040519061492d8261445c565b60006102008382815260606020820152606060408201528260608201528260808201528260a08201528260c08201528260e08201528261010082015282610120820152826101408201528261016082015282610180820152826101a0820152826101c0820152826101e08201520152565b519060ff8216820361037e57565b91908203918211610b0c57565b604d8111610b0c57600a0a90565b6149cf614920565b5060005260096020526040600020604051906149ea8261445c565b80548252604051614a0281611dd88160018601614721565b6020830152604051614a1b81611dd88160028601614721565b604083015260ff600382015416614a318161431d565b606083015260048101546080830152600581015460a0830152600681015460c0830190815260078201549160e0840192835260088101546101008501526009810154610120850152600a810154610140850152600e60ff600b830154169161016086019215158352600c810154610180870152600d8101546101a087015201549060ff82166101c086015260ff6101e086019260018060a01b038160081c16845260a81c16614adf81614327565b61020086015251151580614bc4575b15614b3b5750601154614b09906001600160a01b03166147ce565b906012905b51906012039160128311610b0c57611f13614b3592611f13670de0b6b3a7640000956149b9565b04905290565b9060046020614b5260018060a01b038551166147ce565b935160405163313ce56760e01b815292839182906001600160a01b03165afa801561037257600090614b8a575b60ff91501690614b0e565b506020813d602011614bbc575b81614ba4602093836144b0565b8101031261037e57614bb760ff9161499e565b614b7f565b3d9150614b97565b5080516011546001600160a01b03908116911614614aee565b15614be457565b606460405162461bcd60e51b815260206004820152602060248201527f43616c6c6572206973206e6f742074686520636f76657220636f6e74726163746044820152fd5b805482101561468857600052600c602060002091020190600090565b90614c4e8161431d565b60ff80198354169116179055565b9061506f57815181556001810160208301518051906001600160401b038211612bf8578190614c8b84546146e7565b601f811161501c575b50602090601f8311600114614fb757600092614fac575b50508160011b916000199060031b1c19161790555b614cda6040830151614cd18161431d565b60028301614c44565b6003810160608301518051906001600160401b038211612bf8578190614d0084546146e7565b601f8111614f59575b50602090601f8311600114614ef457600092614ee9575b50508160011b916000199060031b1c19161790555b6080820151600482015560a0820151600582015560c0820151600682015560e0820151600782015561010082015160088201556101208201516009820155600a81016101408301518051906001600160401b038211612bf857614d9883546146e7565b601f8111614ea1575b50602090601f8311600114614e32579180600b9492614e25979694600092614e27575b50508160011b916000199060031b1c19161790555b0190610160810151614dea81614327565b614df381614327565b825461018092909201516001600160a81b031990921660ff919091161760089190911b610100600160a81b0316179055565b565b015190503880614dc4565b90601f1983169184600052816000209260005b818110614e895750926001928592614e25999896600b989610614e70575b505050811b019055614dd9565b015160001960f88460031b161c19169055388080614e63565b92936020600181928786015181550195019301614e45565b836000526020600020601f840160051c81019160208510614edf575b601f0160051c01905b818110614ed35750614da1565b60008155600101614ec6565b9091508190614ebd565b015190503880614d20565b60008581528281209350601f198516905b818110614f415750908460019594939210614f28575b505050811b019055614d35565b015160001960f88460031b161c19169055388080614f1b565b92936020600181928786015181550195019301614f05565b909150836000526020600020601f840160051c81019160208510614fa2575b90601f859493920160051c01905b818110614f935750614d09565b60008155849350600101614f86565b9091508190614f78565b015190503880614cab565b60008581528281209350601f198516905b8181106150045750908460019594939210614feb575b505050811b019055614cc0565b015160001960f88460031b161c19169055388080614fde565b92936020600181928786015181550195019301614fc8565b909150836000526020600020601f840160051c81019160208510615065575b90601f859493920160051c01905b8181106150565750614c94565b60008155849350600101615049565b909150819061503b565b634e487b7160e01b600052600060045260246000fd5b91908201809211610b0c57565b5190811515820361037e57565b80518210156146885760209160051b010190565b6040906150ca939281528160208201520190614721565b90565b6000198114610b0c5760010190565b6001600160401b038111612bf85760051b60200190565b156150fa57565b60405162461bcd60e51b815260206004820152602160248201527f4e6f206465706f73697420666f756e6420666f722074686973206164647265736044820152607360f81b6064820152608490fd5b1561515057565b60405162461bcd60e51b81526020600482015260156024820152744465706f736974206973206e6f742061637469766560581b6044820152606490fd5b1561519457565b60405162461bcd60e51b815260206004820152601c60248201527f4465706f73697420706572696f6420686173206e6f7420656e646564000000006044820152606490fd5b3d15615204573d906151ea826144d1565b916151f860405193846144b0565b82523d6000602084013e565b606090565b1561521057565b60405162461bcd60e51b815260206004820152601c60248201527f4e6174697665206173736574207472616e73666572206661696c6564000000006044820152606490fd5b1561525c57565b60405162461bcd60e51b8152602060048201526015602482015274115490cc8c081d1c985b9cd9995c8819985a5b1959605a1b6044820152606490fd5b6000526008602052604060002080546152b1816150dc565b916152bf60405193846144b0565b818352602083019060005260206000206000915b8383106152e1575050505090565b600c60206001926040516152f481614440565b8554815260405161530b81611dd881898b01614721565b8382015260ff6002870154166153208161431d565b604082015260405161533981611dd88160038b01614721565b606082015260048601546080820152600586015460a0820152600686015460c0820152600786015460e08201526008860154610100820152600986015461012082015260405161539081611dd881600a8b01614721565b610140820152600b86015460ff81166153a881614327565b610160830152858060a01b039060081c166101808201528152019201920191906152d3565b156153d457565b60405162461bcd60e51b8152602060048201526012602482015271506f6f6c206973206e6f742061637469766560701b6044820152606490fd5b51906001600160a01b038216820361037e57565b81601f8201121561037e578051615438816144d1565b9261544660405194856144b0565b8184526020828401011161037e576150ca91602080850191016142d5565b600260005414615475576002600055565b633ee5aeb560e01b60005260046000fd5b6001546001600160a01b0316330361549a57565b63118cdaa760e01b6000523360045260246000fdfe485f1bb6524c663555797e00171a10f341656e59b02d6b557a0a38ba7d5d9751a2646970667358221220850732c909806f4846b5e6dee9fb34984de2e605edc829b01d29f87150c6306d64736f6c634300081c0033",
  "linkReferences": {},
  "deployedLinkReferences": {}
}