{
  "_format": "hh-sol-artifact-1",
  "contractName": "InsurancePool",
  "sourceName": "contracts/InsurancePool.sol",
  "abi": [
    {
      "inputs": [
        {
          "internalType": "address",
          "name": "_initialOwner",
          "type": "address"
        },
        {
          "internalType": "address",
          "name": "_bqBtc",
          "type": "address"
        }
      ],
      "stateMutability": "nonpayable",
      "type": "constructor"
    },
    {
      "inputs": [
        {
          "internalType": "address",
          "name": "owner",
          "type": "address"
        }
      ],
      "name": "OwnableInvalidOwner",
      "type": "error"
    },
    {
      "inputs": [
        {
          "internalType": "address",
          "name": "account",
          "type": "address"
        }
      ],
      "name": "OwnableUnauthorizedAccount",
      "type": "error"
    },
    {
      "inputs": [],
      "name": "ReentrancyGuardReentrantCall",
      "type": "error"
    },
    {
      "anonymous": false,
      "inputs": [
        {
          "indexed": false,
          "internalType": "uint256",
          "name": "",
          "type": "uint256"
        },
        {
          "indexed": false,
          "internalType": "uint256",
          "name": "",
          "type": "uint256"
        },
        {
          "indexed": false,
          "internalType": "address",
          "name": "",
          "type": "address"
        }
      ],
      "name": "ClaimAttempt",
      "type": "event"
    },
    {
      "anonymous": false,
      "inputs": [
        {
          "indexed": true,
          "internalType": "address",
          "name": "recipient",
          "type": "address"
        },
        {
          "indexed": false,
          "internalType": "string",
          "name": "pool",
          "type": "string"
        },
        {
          "indexed": false,
          "internalType": "uint256",
          "name": "amount",
          "type": "uint256"
        }
      ],
      "name": "ClaimPaid",
      "type": "event"
    },
    {
      "anonymous": false,
      "inputs": [
        {
          "indexed": true,
          "internalType": "address",
          "name": "user",
          "type": "address"
        },
        {
          "indexed": false,
          "internalType": "uint256",
          "name": "amount",
          "type": "uint256"
        },
        {
          "indexed": false,
          "internalType": "string",
          "name": "pool",
          "type": "string"
        }
      ],
      "name": "Deposited",
      "type": "event"
    },
    {
      "anonymous": false,
      "inputs": [
        {
          "indexed": true,
          "internalType": "address",
          "name": "previousOwner",
          "type": "address"
        },
        {
          "indexed": true,
          "internalType": "address",
          "name": "newOwner",
          "type": "address"
        }
      ],
      "name": "OwnershipTransferred",
      "type": "event"
    },
    {
      "anonymous": false,
      "inputs": [
        {
          "indexed": true,
          "internalType": "uint256",
          "name": "id",
          "type": "uint256"
        },
        {
          "indexed": false,
          "internalType": "string",
          "name": "poolName",
          "type": "string"
        }
      ],
      "name": "PoolCreated",
      "type": "event"
    },
    {
      "anonymous": false,
      "inputs": [
        {
          "indexed": true,
          "internalType": "uint256",
          "name": "poolId",
          "type": "uint256"
        },
        {
          "indexed": false,
          "internalType": "uint256",
          "name": "apy",
          "type": "uint256"
        },
        {
          "indexed": false,
          "internalType": "uint256",
          "name": "_minPeriod",
          "type": "uint256"
        }
      ],
      "name": "PoolUpdated",
      "type": "event"
    },
    {
      "anonymous": false,
      "inputs": [
        {
          "indexed": true,
          "internalType": "address",
          "name": "user",
          "type": "address"
        },
        {
          "indexed": false,
          "internalType": "uint256",
          "name": "amount",
          "type": "uint256"
        },
        {
          "indexed": false,
          "internalType": "string",
          "name": "pool",
          "type": "string"
        }
      ],
      "name": "Withdraw",
      "type": "event"
    },
    {
      "inputs": [],
      "name": "ICoverContract",
      "outputs": [
        {
          "internalType": "contract ICover",
          "name": "",
          "type": "address"
        }
      ],
      "stateMutability": "view",
      "type": "function"
    },
    {
      "inputs": [],
      "name": "IGovernanceContract",
      "outputs": [
        {
          "internalType": "contract IGov",
          "name": "",
          "type": "address"
        }
      ],
      "stateMutability": "view",
      "type": "function"
    },
    {
      "inputs": [],
      "name": "IVaultContract",
      "outputs": [
        {
          "internalType": "contract IVault",
          "name": "",
          "type": "address"
        }
      ],
      "stateMutability": "view",
      "type": "function"
    },
    {
      "inputs": [
        {
          "internalType": "uint256",
          "name": "_poolId",
          "type": "uint256"
        },
        {
          "components": [
            {
              "internalType": "uint256",
              "name": "id",
              "type": "uint256"
            },
            {
              "internalType": "string",
              "name": "coverName",
              "type": "string"
            },
            {
              "internalType": "enum CoverLib.RiskType",
              "name": "riskType",
              "type": "uint8"
            },
            {
              "internalType": "string",
              "name": "chains",
              "type": "string"
            },
            {
              "internalType": "uint256",
              "name": "capacity",
              "type": "uint256"
            },
            {
              "internalType": "uint256",
              "name": "cost",
              "type": "uint256"
            },
            {
              "internalType": "uint256",
              "name": "capacityAmount",
              "type": "uint256"
            },
            {
              "internalType": "uint256",
              "name": "coverValues",
              "type": "uint256"
            },
            {
              "internalType": "uint256",
              "name": "maxAmount",
              "type": "uint256"
            },
            {
              "internalType": "uint256",
              "name": "poolId",
              "type": "uint256"
            },
            {
              "internalType": "string",
              "name": "CID",
              "type": "string"
            },
            {
              "internalType": "enum CoverLib.AssetDepositType",
              "name": "adt",
              "type": "uint8"
            },
            {
              "internalType": "address",
              "name": "asset",
              "type": "address"
            }
          ],
          "internalType": "struct CoverLib.Cover",
          "name": "_cover",
          "type": "tuple"
        }
      ],
      "name": "addPoolCover",
      "outputs": [],
      "stateMutability": "nonpayable",
      "type": "function"
    },
    {
      "inputs": [
        {
          "internalType": "address",
          "name": "",
          "type": "address"
        }
      ],
      "name": "assetPriceFeeds",
      "outputs": [
        {
          "internalType": "contract AggregatorV3Interface",
          "name": "",
          "type": "address"
        }
      ],
      "stateMutability": "view",
      "type": "function"
    },
    {
      "inputs": [],
      "name": "bqBTC",
      "outputs": [
        {
          "internalType": "contract IbqBTC",
          "name": "",
          "type": "address"
        }
      ],
      "stateMutability": "view",
      "type": "function"
    },
    {
      "inputs": [],
      "name": "bqBTCAddress",
      "outputs": [
        {
          "internalType": "address",
          "name": "",
          "type": "address"
        }
      ],
      "stateMutability": "view",
      "type": "function"
    },
    {
      "inputs": [
        {
          "internalType": "uint256",
          "name": "_proposalId",
          "type": "uint256"
        }
      ],
      "name": "claimProposalFunds",
      "outputs": [],
      "stateMutability": "nonpayable",
      "type": "function"
    },
    {
      "inputs": [],
      "name": "coverContract",
      "outputs": [
        {
          "internalType": "address",
          "name": "",
          "type": "address"
        }
      ],
      "stateMutability": "view",
      "type": "function"
    },
    {
      "inputs": [
        {
          "components": [
            {
              "internalType": "uint256",
              "name": "poolId",
              "type": "uint256"
            },
            {
              "internalType": "enum CoverLib.RiskType",
              "name": "riskType",
              "type": "uint8"
            },
            {
              "internalType": "string",
              "name": "poolName",
              "type": "string"
            },
            {
              "internalType": "string",
              "name": "rating",
              "type": "string"
            },
            {
              "internalType": "uint256",
              "name": "apy",
              "type": "uint256"
            },
            {
              "internalType": "uint256",
              "name": "minPeriod",
              "type": "uint256"
            },
            {
              "internalType": "uint8",
              "name": "leverage",
              "type": "uint8"
            },
            {
              "internalType": "uint256",
              "name": "investmentArm",
              "type": "uint256"
            },
            {
              "internalType": "enum CoverLib.AssetDepositType",
              "name": "adt",
              "type": "uint8"
            },
            {
              "internalType": "address",
              "name": "asset",
              "type": "address"
            }
          ],
          "internalType": "struct CoverLib.PoolParams",
          "name": "params",
          "type": "tuple"
        }
      ],
      "name": "createPool",
      "outputs": [],
      "stateMutability": "nonpayable",
      "type": "function"
    },
    {
      "inputs": [
        {
          "internalType": "uint256",
          "name": "_poolId",
          "type": "uint256"
        }
      ],
      "name": "deactivatePool",
      "outputs": [],
      "stateMutability": "nonpayable",
      "type": "function"
    },
    {
      "inputs": [
        {
          "components": [
            {
              "internalType": "address",
              "name": "depositor",
              "type": "address"
            },
            {
              "internalType": "uint256",
              "name": "poolId",
              "type": "uint256"
            },
            {
              "internalType": "uint256",
              "name": "amount",
              "type": "uint256"
            },
            {
              "internalType": "enum CoverLib.DepositType",
              "name": "pdt",
              "type": "uint8"
            },
            {
              "internalType": "enum CoverLib.AssetDepositType",
              "name": "adt",
              "type": "uint8"
            },
            {
              "internalType": "address",
              "name": "asset",
              "type": "address"
            }
          ],
          "internalType": "struct CoverLib.DepositParams",
          "name": "depositParam",
          "type": "tuple"
        }
      ],
      "name": "deposit",
      "outputs": [
        {
          "internalType": "uint256",
          "name": "",
          "type": "uint256"
        },
        {
          "internalType": "uint256",
          "name": "",
          "type": "uint256"
        }
      ],
      "stateMutability": "payable",
      "type": "function"
    },
    {
      "inputs": [],
      "name": "getAllParticipants",
      "outputs": [
        {
          "internalType": "address[]",
          "name": "",
          "type": "address[]"
        }
      ],
      "stateMutability": "view",
      "type": "function"
    },
    {
      "inputs": [],
      "name": "getAllPools",
      "outputs": [
        {
          "components": [
            {
              "internalType": "uint256",
              "name": "id",
              "type": "uint256"
            },
            {
              "internalType": "string",
              "name": "poolName",
              "type": "string"
            },
            {
              "internalType": "string",
              "name": "rating",
              "type": "string"
            },
            {
              "internalType": "enum CoverLib.RiskType",
              "name": "riskType",
              "type": "uint8"
            },
            {
              "internalType": "uint256",
              "name": "apy",
              "type": "uint256"
            },
            {
              "internalType": "uint256",
              "name": "minPeriod",
              "type": "uint256"
            },
            {
              "internalType": "uint256",
              "name": "totalUnit",
              "type": "uint256"
            },
            {
              "internalType": "uint256",
              "name": "tvl",
              "type": "uint256"
            },
            {
              "internalType": "uint256",
              "name": "baseValue",
              "type": "uint256"
            },
            {
              "internalType": "uint256",
              "name": "coverUnits",
              "type": "uint256"
            },
            {
              "internalType": "uint256",
              "name": "tcp",
              "type": "uint256"
            },
            {
              "internalType": "bool",
              "name": "isActive",
              "type": "bool"
            },
            {
              "internalType": "uint256",
              "name": "percentageSplitBalance",
              "type": "uint256"
            },
            {
              "internalType": "uint256",
              "name": "investmentArmPercent",
              "type": "uint256"
            },
            {
              "internalType": "uint8",
              "name": "leverage",
              "type": "uint8"
            },
            {
              "internalType": "address",
              "name": "asset",
              "type": "address"
            },
            {
              "internalType": "enum CoverLib.AssetDepositType",
              "name": "assetType",
              "type": "uint8"
            }
          ],
          "internalType": "struct CoverLib.Pool[]",
          "name": "",
          "type": "tuple[]"
        }
      ],
      "stateMutability": "view",
      "type": "function"
    },
    {
      "inputs": [
        {
          "internalType": "uint256",
          "name": "_poolId",
          "type": "uint256"
        }
      ],
      "name": "getPool",
      "outputs": [
        {
          "components": [
            {
              "internalType": "uint256",
              "name": "id",
              "type": "uint256"
            },
            {
              "internalType": "string",
              "name": "poolName",
              "type": "string"
            },
            {
              "internalType": "string",
              "name": "rating",
              "type": "string"
            },
            {
              "internalType": "enum CoverLib.RiskType",
              "name": "riskType",
              "type": "uint8"
            },
            {
              "internalType": "uint256",
              "name": "apy",
              "type": "uint256"
            },
            {
              "internalType": "uint256",
              "name": "minPeriod",
              "type": "uint256"
            },
            {
              "internalType": "uint256",
              "name": "totalUnit",
              "type": "uint256"
            },
            {
              "internalType": "uint256",
              "name": "tvl",
              "type": "uint256"
            },
            {
              "internalType": "uint256",
              "name": "baseValue",
              "type": "uint256"
            },
            {
              "internalType": "uint256",
              "name": "coverUnits",
              "type": "uint256"
            },
            {
              "internalType": "uint256",
              "name": "tcp",
              "type": "uint256"
            },
            {
              "internalType": "bool",
              "name": "isActive",
              "type": "bool"
            },
            {
              "internalType": "uint256",
              "name": "percentageSplitBalance",
              "type": "uint256"
            },
            {
              "internalType": "uint256",
              "name": "investmentArmPercent",
              "type": "uint256"
            },
            {
              "internalType": "uint8",
              "name": "leverage",
              "type": "uint8"
            },
            {
              "internalType": "address",
              "name": "asset",
              "type": "address"
            },
            {
              "internalType": "enum CoverLib.AssetDepositType",
              "name": "assetType",
              "type": "uint8"
            }
          ],
          "internalType": "struct CoverLib.Pool",
          "name": "",
          "type": "tuple"
        }
      ],
      "stateMutability": "view",
      "type": "function"
    },
    {
      "inputs": [
        {
          "internalType": "uint256",
          "name": "_poolId",
          "type": "uint256"
        }
      ],
      "name": "getPoolCovers",
      "outputs": [
        {
          "components": [
            {
              "internalType": "uint256",
              "name": "id",
              "type": "uint256"
            },
            {
              "internalType": "string",
              "name": "coverName",
              "type": "string"
            },
            {
              "internalType": "enum CoverLib.RiskType",
              "name": "riskType",
              "type": "uint8"
            },
            {
              "internalType": "string",
              "name": "chains",
              "type": "string"
            },
            {
              "internalType": "uint256",
              "name": "capacity",
              "type": "uint256"
            },
            {
              "internalType": "uint256",
              "name": "cost",
              "type": "uint256"
            },
            {
              "internalType": "uint256",
              "name": "capacityAmount",
              "type": "uint256"
            },
            {
              "internalType": "uint256",
              "name": "coverValues",
              "type": "uint256"
            },
            {
              "internalType": "uint256",
              "name": "maxAmount",
              "type": "uint256"
            },
            {
              "internalType": "uint256",
              "name": "poolId",
              "type": "uint256"
            },
            {
              "internalType": "string",
              "name": "CID",
              "type": "string"
            },
            {
              "internalType": "enum CoverLib.AssetDepositType",
              "name": "adt",
              "type": "uint8"
            },
            {
              "internalType": "address",
              "name": "asset",
              "type": "address"
            }
          ],
          "internalType": "struct CoverLib.Cover[]",
          "name": "",
          "type": "tuple[]"
        }
      ],
      "stateMutability": "view",
      "type": "function"
    },
    {
      "inputs": [
        {
          "internalType": "uint256",
          "name": "_poolId",
          "type": "uint256"
        }
      ],
      "name": "getPoolTVL",
      "outputs": [
        {
          "internalType": "uint256",
          "name": "",
          "type": "uint256"
        }
      ],
      "stateMutability": "view",
      "type": "function"
    },
    {
      "inputs": [
        {
          "internalType": "address",
          "name": "_userAddress",
          "type": "address"
        }
      ],
      "name": "getPoolsByAddress",
      "outputs": [
        {
          "components": [
            {
              "internalType": "string",
              "name": "poolName",
              "type": "string"
            },
            {
              "internalType": "uint256",
              "name": "poolId",
              "type": "uint256"
            },
            {
              "internalType": "uint256",
              "name": "dailyPayout",
              "type": "uint256"
            },
            {
              "internalType": "uint256",
              "name": "depositAmount",
              "type": "uint256"
            },
            {
              "internalType": "uint256",
              "name": "apy",
              "type": "uint256"
            },
            {
              "internalType": "uint256",
              "name": "minPeriod",
              "type": "uint256"
            },
            {
              "internalType": "uint256",
              "name": "totalUnit",
              "type": "uint256"
            },
            {
              "internalType": "uint256",
              "name": "tcp",
              "type": "uint256"
            },
            {
              "internalType": "bool",
              "name": "isActive",
              "type": "bool"
            },
            {
              "internalType": "uint256",
              "name": "accruedPayout",
              "type": "uint256"
            }
          ],
          "internalType": "struct CoverLib.PoolInfo[]",
          "name": "",
          "type": "tuple[]"
        }
      ],
      "stateMutability": "view",
      "type": "function"
    },
    {
      "inputs": [
        {
          "internalType": "address",
          "name": "asset",
          "type": "address"
        }
      ],
      "name": "getPriceInUSD",
      "outputs": [
        {
          "internalType": "uint256",
          "name": "",
          "type": "uint256"
        }
      ],
      "stateMutability": "view",
      "type": "function"
    },
    {
      "inputs": [
        {
          "internalType": "uint256",
          "name": "_poolId",
          "type": "uint256"
        },
        {
          "internalType": "address",
          "name": "_user",
          "type": "address"
        },
        {
          "internalType": "enum CoverLib.DepositType",
          "name": "pdt",
          "type": "uint8"
        }
      ],
      "name": "getUserGenericDeposit",
      "outputs": [
        {
          "components": [
            {
              "internalType": "address",
              "name": "lp",
              "type": "address"
            },
            {
              "internalType": "uint256",
              "name": "amount",
              "type": "uint256"
            },
            {
              "internalType": "uint256",
              "name": "poolId",
              "type": "uint256"
            },
            {
              "internalType": "uint256",
              "name": "dailyPayout",
              "type": "uint256"
            },
            {
              "internalType": "enum CoverLib.Status",
              "name": "status",
              "type": "uint8"
            },
            {
              "internalType": "uint256",
              "name": "daysLeft",
              "type": "uint256"
            },
            {
              "internalType": "uint256",
              "name": "startDate",
              "type": "uint256"
            },
            {
              "internalType": "uint256",
              "name": "withdrawalInitiated",
              "type": "uint256"
            },
            {
              "internalType": "uint256",
              "name": "accruedPayout",
              "type": "uint256"
            },
            {
              "internalType": "enum CoverLib.DepositType",
              "name": "pdt",
              "type": "uint8"
            },
            {
              "internalType": "enum CoverLib.AssetDepositType",
              "name": "adt",
              "type": "uint8"
            },
            {
              "internalType": "address",
              "name": "asset",
              "type": "address"
            }
          ],
          "internalType": "struct CoverLib.GenericDepositDetails",
          "name": "",
          "type": "tuple"
        }
      ],
      "stateMutability": "view",
      "type": "function"
    },
    {
      "inputs": [
        {
          "internalType": "address",
          "name": "user",
          "type": "address"
        }
      ],
      "name": "getUserParticipation",
      "outputs": [
        {
          "internalType": "uint256",
          "name": "",
          "type": "uint256"
        }
      ],
      "stateMutability": "view",
      "type": "function"
    },
    {
      "inputs": [
        {
          "internalType": "uint256",
          "name": "_poolId",
          "type": "uint256"
        },
        {
          "internalType": "address",
          "name": "_user",
          "type": "address"
        }
      ],
      "name": "getUserPoolDeposit",
      "outputs": [
        {
          "components": [
            {
              "internalType": "address",
              "name": "lp",
              "type": "address"
            },
            {
              "internalType": "uint256",
              "name": "amount",
              "type": "uint256"
            },
            {
              "internalType": "uint256",
              "name": "poolId",
              "type": "uint256"
            },
            {
              "internalType": "uint256",
              "name": "dailyPayout",
              "type": "uint256"
            },
            {
              "internalType": "enum CoverLib.Status",
              "name": "status",
              "type": "uint8"
            },
            {
              "internalType": "uint256",
              "name": "daysLeft",
              "type": "uint256"
            },
            {
              "internalType": "uint256",
              "name": "startDate",
              "type": "uint256"
            },
            {
              "internalType": "uint256",
              "name": "withdrawalInitiated",
              "type": "uint256"
            },
            {
              "internalType": "uint256",
              "name": "accruedPayout",
              "type": "uint256"
            },
            {
              "internalType": "enum CoverLib.DepositType",
              "name": "pdt",
              "type": "uint8"
            }
          ],
          "internalType": "struct CoverLib.Deposits",
          "name": "",
          "type": "tuple"
        }
      ],
      "stateMutability": "view",
      "type": "function"
    },
    {
      "inputs": [],
      "name": "governance",
      "outputs": [
        {
          "internalType": "address",
          "name": "",
          "type": "address"
        }
      ],
      "stateMutability": "view",
      "type": "function"
    },
    {
      "inputs": [
        {
          "internalType": "uint256",
          "name": "_poolId",
          "type": "uint256"
        },
        {
          "internalType": "uint256",
          "name": "__poolPercentageSplit",
          "type": "uint256"
        }
      ],
      "name": "increasePercentageSplit",
      "outputs": [],
      "stateMutability": "nonpayable",
      "type": "function"
    },
    {
      "inputs": [],
      "name": "initialOwner",
      "outputs": [
        {
          "internalType": "address",
          "name": "",
          "type": "address"
        }
      ],
      "stateMutability": "view",
      "type": "function"
    },
    {
      "inputs": [
        {
          "internalType": "address",
          "name": "depositor",
          "type": "address"
        },
        {
          "internalType": "uint256",
          "name": "_poolId",
          "type": "uint256"
        },
        {
          "internalType": "enum CoverLib.DepositType",
          "name": "pdt",
          "type": "uint8"
        }
      ],
      "name": "initialVaultWithdrawUpdate",
      "outputs": [],
      "stateMutability": "nonpayable",
      "type": "function"
    },
    {
      "inputs": [],
      "name": "owner",
      "outputs": [
        {
          "internalType": "address",
          "name": "",
          "type": "address"
        }
      ],
      "stateMutability": "view",
      "type": "function"
    },
    {
      "inputs": [
        {
          "internalType": "uint256",
          "name": "",
          "type": "uint256"
        }
      ],
      "name": "participants",
      "outputs": [
        {
          "internalType": "address",
          "name": "",
          "type": "address"
        }
      ],
      "stateMutability": "view",
      "type": "function"
    },
    {
      "inputs": [
        {
          "internalType": "address",
          "name": "",
          "type": "address"
        }
      ],
      "name": "participation",
      "outputs": [
        {
          "internalType": "uint256",
          "name": "",
          "type": "uint256"
        }
      ],
      "stateMutability": "view",
      "type": "function"
    },
    {
      "inputs": [
        {
          "internalType": "uint256",
          "name": "poolId",
          "type": "uint256"
        }
      ],
      "name": "poolActive",
      "outputs": [
        {
          "internalType": "bool",
          "name": "",
          "type": "bool"
        }
      ],
      "stateMutability": "view",
      "type": "function"
    },
    {
      "inputs": [],
      "name": "poolCanister",
      "outputs": [
        {
          "internalType": "address",
          "name": "",
          "type": "address"
        }
      ],
      "stateMutability": "view",
      "type": "function"
    },
    {
      "inputs": [],
      "name": "poolCount",
      "outputs": [
        {
          "internalType": "uint256",
          "name": "",
          "type": "uint256"
        }
      ],
      "stateMutability": "view",
      "type": "function"
    },
    {
      "inputs": [
        {
          "internalType": "uint256",
          "name": "_poolId",
          "type": "uint256"
        }
      ],
      "name": "poolWithdrawal",
      "outputs": [],
      "stateMutability": "nonpayable",
      "type": "function"
    },
    {
      "inputs": [
        {
          "internalType": "uint256",
          "name": "",
          "type": "uint256"
        }
      ],
      "name": "pools",
      "outputs": [
        {
          "internalType": "uint256",
          "name": "id",
          "type": "uint256"
        },
        {
          "internalType": "string",
          "name": "poolName",
          "type": "string"
        },
        {
          "internalType": "string",
          "name": "rating",
          "type": "string"
        },
        {
          "internalType": "enum CoverLib.RiskType",
          "name": "riskType",
          "type": "uint8"
        },
        {
          "internalType": "uint256",
          "name": "apy",
          "type": "uint256"
        },
        {
          "internalType": "uint256",
          "name": "minPeriod",
          "type": "uint256"
        },
        {
          "internalType": "uint256",
          "name": "totalUnit",
          "type": "uint256"
        },
        {
          "internalType": "uint256",
          "name": "tvl",
          "type": "uint256"
        },
        {
          "internalType": "uint256",
          "name": "baseValue",
          "type": "uint256"
        },
        {
          "internalType": "uint256",
          "name": "coverUnits",
          "type": "uint256"
        },
        {
          "internalType": "uint256",
          "name": "tcp",
          "type": "uint256"
        },
        {
          "internalType": "bool",
          "name": "isActive",
          "type": "bool"
        },
        {
          "internalType": "uint256",
          "name": "percentageSplitBalance",
          "type": "uint256"
        },
        {
          "internalType": "uint256",
          "name": "investmentArmPercent",
          "type": "uint256"
        },
        {
          "internalType": "uint8",
          "name": "leverage",
          "type": "uint8"
        },
        {
          "internalType": "address",
          "name": "asset",
          "type": "address"
        },
        {
          "internalType": "enum CoverLib.AssetDepositType",
          "name": "assetType",
          "type": "uint8"
        }
      ],
      "stateMutability": "view",
      "type": "function"
    },
    {
      "inputs": [
        {
          "internalType": "uint256",
          "name": "_poolId",
          "type": "uint256"
        },
        {
          "internalType": "uint256",
          "name": "__poolPercentageSplit",
          "type": "uint256"
        }
      ],
      "name": "reducePercentageSplit",
      "outputs": [],
      "stateMutability": "nonpayable",
      "type": "function"
    },
    {
      "inputs": [],
      "name": "renounceOwnership",
      "outputs": [],
      "stateMutability": "nonpayable",
      "type": "function"
    },
    {
      "inputs": [
        {
          "internalType": "address",
          "name": "_coverContract",
          "type": "address"
        }
      ],
      "name": "setCover",
      "outputs": [],
      "stateMutability": "nonpayable",
      "type": "function"
    },
    {
      "inputs": [
        {
          "internalType": "address",
          "name": "_governance",
          "type": "address"
        }
      ],
      "name": "setGovernance",
      "outputs": [],
      "stateMutability": "nonpayable",
      "type": "function"
    },
    {
      "inputs": [
        {
          "internalType": "uint256",
          "name": "poolId",
          "type": "uint256"
        },
        {
          "internalType": "address",
          "name": "user",
          "type": "address"
        },
        {
          "internalType": "enum CoverLib.DepositType",
          "name": "pdt",
          "type": "uint8"
        }
      ],
      "name": "setUserDepositToZero",
      "outputs": [],
      "stateMutability": "nonpayable",
      "type": "function"
    },
    {
      "inputs": [
        {
          "internalType": "address",
          "name": "_vaultContract",
          "type": "address"
        }
      ],
      "name": "setVault",
      "outputs": [],
      "stateMutability": "nonpayable",
      "type": "function"
    },
    {
      "inputs": [
        {
          "internalType": "address",
          "name": "newOwner",
          "type": "address"
        }
      ],
      "name": "transferOwnership",
      "outputs": [],
      "stateMutability": "nonpayable",
      "type": "function"
    },
    {
      "inputs": [
        {
          "internalType": "uint256",
          "name": "_poolId",
          "type": "uint256"
        },
        {
          "internalType": "uint256",
          "name": "_apy",
          "type": "uint256"
        },
        {
          "internalType": "uint256",
          "name": "_minPeriod",
          "type": "uint256"
        }
      ],
      "name": "updatePool",
      "outputs": [],
      "stateMutability": "nonpayable",
      "type": "function"
    },
    {
      "inputs": [
        {
          "internalType": "uint256",
          "name": "_poolId",
          "type": "uint256"
        },
        {
          "components": [
            {
              "internalType": "uint256",
              "name": "id",
              "type": "uint256"
            },
            {
              "internalType": "string",
              "name": "coverName",
              "type": "string"
            },
            {
              "internalType": "enum CoverLib.RiskType",
              "name": "riskType",
              "type": "uint8"
            },
            {
              "internalType": "string",
              "name": "chains",
              "type": "string"
            },
            {
              "internalType": "uint256",
              "name": "capacity",
              "type": "uint256"
            },
            {
              "internalType": "uint256",
              "name": "cost",
              "type": "uint256"
            },
            {
              "internalType": "uint256",
              "name": "capacityAmount",
              "type": "uint256"
            },
            {
              "internalType": "uint256",
              "name": "coverValues",
              "type": "uint256"
            },
            {
              "internalType": "uint256",
              "name": "maxAmount",
              "type": "uint256"
            },
            {
              "internalType": "uint256",
              "name": "poolId",
              "type": "uint256"
            },
            {
              "internalType": "string",
              "name": "CID",
              "type": "string"
            },
            {
              "internalType": "enum CoverLib.AssetDepositType",
              "name": "adt",
              "type": "uint8"
            },
            {
              "internalType": "address",
              "name": "asset",
              "type": "address"
            }
          ],
          "internalType": "struct CoverLib.Cover",
          "name": "_cover",
          "type": "tuple"
        }
      ],
      "name": "updatePoolCovers",
      "outputs": [],
      "stateMutability": "nonpayable",
      "type": "function"
    },
    {
      "inputs": [],
      "name": "vaultContract",
      "outputs": [
        {
          "internalType": "address",
          "name": "",
          "type": "address"
        }
      ],
      "stateMutability": "view",
      "type": "function"
    },
    {
      "inputs": [
        {
          "internalType": "uint256",
          "name": "_vaultId",
          "type": "uint256"
        }
      ],
      "name": "vaultWithdraw",
      "outputs": [],
      "stateMutability": "nonpayable",
      "type": "function"
    }
  ],
  "bytecode": "0x60803461027657601f615b7238819003918201601f19168301916001600160401b0383118484101761027b57808492604094855283398101031261027657610052602061004b83610291565b9201610291565b60016000556001600160a01b0390911690811561026057600180546001600160a01b031981168417909155604051929081906001600160a01b03167f8be0079c531659141344cd1fd0a4f28419497f9722a3daafe3b4186f6b6457e0600080a3601180546001600160a01b031990811690915560158054821692909217909155600280548216732514895c72f50d8bd4b4f9b1110f0d6bd2c97526908117909155600380548316735741306c21795fdcbb9b265ea0255f499dfe515c908117909155600480548416739331b55d9830ef609a2abcfac0fbce050a52fdea17815560058054851673eca2605f0bcf2ba5966372c99837b1f182d3d62017815560066020527f54cdd369e4e8a8515e52ca72ec816c2101831ad1f18bf44102ed171459c9b4f8805486169094179093557f92599ef52398a38e84e5b15ac236af99994b80b5e390e5524198cbc8e48da63780548516831790556001600160a01b039485166000818152604081208054871690941790935590547fd1eceb50b46aea74f6b42453ba5381363a7854e4547ee8ff2fef30dd11f58cdd80548616918716919091179055915473337610d27c682e347c9cd60bd4b3b107c9d34ddd9091527f44abd9ca46b16d583f86aa1f838cb006ce9d3219783a65b570216ad498a2825a805484169190941617909255600f80548216831790556010805490911690911790556158cc90816102a68239f35b631e4fbdf760e01b600052600060045260246000fd5b600080fd5b634e487b7160e01b600052604160045260246000fd5b51906001600160a01b03821682036102765756fe6080604052600436101561001257600080fd5b60003560e01c80630226614714614647578063068bcd8d14614610578063173c08cc14613d44578063195ec9ee14613c785780631d69829214613bdd5780632274346b14613bb4578063248a75b714613b8b57806325f11e8d14613b5757806329ba7bb214613b2e57806331866763146136c557806334808ec31461369c57806335c1d3491461365a57806346f8479514612a6c5780634914a878146135e257806358526da3146130c45780635aa6e6751461309b5780635f267c55146130725780636817031b14612f955780636f60537d14612f6c578063715018a614612f0f5780637c366cc614612e325780637eb111f014612cf35780638da5cb5b14612cca5780638f24463014612aa657806396f3a8ad14612a6c578063996b8a6f14612a435780639abd9b05146129ef5780639fd36b1514612994578063a2a8baaf146124f1578063a4948d8514612492578063ab033ea9146123a3578063ac4afa3814612242578063b5d90c2814612219578063c039a53f14612149578063d27e52e814612107578063d86c044414611faf578063d88ff1f414611ea3578063e0375fc01461192e578063e35f81291461132b578063e9e0c8b614610f3d578063f2fde38b14610eb3578063f525cb6814610e95578063f6e8055814610e6c578063fb839dda1461084f5763fde076961461020b57600080fd5b346106415760203660031901126106415761022461582b565b6004356000526009602052604060002060405161024081614807565b8154815260405191610260836102598160018501614ae8565b0384614877565b602082019283526040516102828161027b8160028601614ae8565b0382614877565b604083015260ff600382015416610298816146e4565b60608301526004810154608083015260ff600e60058301549260a08501938452600681015460c0860152600781015460e086015260088101546101008601526009810154610120860152600a81015461014086015282600b820154161515610160860152600c810154610180860152600d8101546101a086015201548181166101c085015260018060a01b038160081c166101e085015260a81c1661033c816146ee565b610200830152336000526007602052604060002060043560005260205260406000206000805260205260406000209060068201549051808004600114811517156106925761038991614fa4565b926104026103e460018401546103a0811515615615565b600485016103c88154986103c060ff8b166103ba816146e4565b1561566b565b4210156156af565b426007870155600260009860ff191617905560c0860151614d73565b8060c086015260646103fb826101a0880151614b82565b0490614d73565b61041460ff6101c08601511682614b82565b610120850152610100840152600435845260086020526040842091825461043a81615489565b936104486040519586614877565b81855286526020808720879186015b8383106107635750505050845b83518110156104e557600c548691906001600160a01b03166104868287614fd6565b515190803b156104e15760248492604051958693849263106b5da160e01b845260048401525af1918783156104d5576001936104c5575b505001610464565b6104ce91614877565b38876104bd565b604051903d90823e3d90fd5b8380fd5b508385610160820151151580610746575b156106a85750601154610511906001600160a01b0316614b95565b60125b60c08301519060120391601283116106925761053f6105459261053f670de0b6b3a764000095614d80565b90614b82565b0460e0820152600161020082015161055c816146ee565b610565816146ee565b0361065a576101e00151600182015460405163a9059cbb60e01b815233600482015260248101919091529190602090839060449082906000906001600160a01b03165af191821561064e576000926105f3575b5060016105e9916105d7600080516020615877833981519152946157e7565b015492516040519182913395836156fb565b0390a26001600055005b91506020823d602011610646575b8161060e60209383614877565b810103126106415760016105e9916105d761063760008051602061587783398151915295614fb1565b94505091506105b8565b600080fd5b3d9150610601565b6040513d6000823e3d90fd5b506105e960018261068d600080808086600080516020615877833981519152990154335af161068761576b565b5061579b565b6105d7565b634e487b7160e01b600052601160045260246000fd5b6101e08201516004906106c3906001600160a01b0316614b95565b6101e084015160405163313ce56760e01b81529193919260209184919082906001600160a01b03165afa9081156104d5578091610706575b5060ff915016610514565b90506020823d60201161073e575b8161072160209383614877565b8101031261073b575061073560ff91614d65565b866106fb565b80fd5b3d9150610714565b506101e08201516011546001600160a01b039081169116146104f6565b600c60206001926040516107768161483f565b8554815260405161078d8161027b81898b01614ae8565b8382015260ff6002870154166107a2816146e4565b60408201526040516107bb8161027b8160038b01614ae8565b606082015260048601546080820152600586015460a0820152600686015460c0820152600786015460e0820152600886015461010082015260098601546101208201526040516108128161027b81600a8b01614ae8565b610140820152600b86015460ff811661082a816146ee565b610160830152858060a01b039060081c16610180820152815201920192019190610457565b346106415760203660031901126106415760043561086b61582b565b600d54604051632bb2b24360e11b8152600481018390523360248201526001600160a01b039091169061016081604481855afa90811561064e57600091610d7a575b50906020820191825115610d3557608060029101516108cb816146e4565b6108d4816146e4565b03610ce457600060249160405192838092632500ed8d60e21b82528760048301525afa90811561064e57600091610a2c575b50600160c0820151610917816146ee565b610920816146ee565b03610a115760e00151905160405163a9059cbb60e01b8152336004820152602481019190915290602090829060449082906000906001600160a01b03165af1801561064e576000906109d6575b61097791506157e7565b600d546001600160a01b0316803b15610641576040516307e2f9cf60e21b815260048101839052336024820152906000908290604490829084905af1801561064e576109c5575b6001600055005b60006109d091614877565b806109be565b506020813d602011610a09575b816109f060209383614877565b8101031261064157610a0461097791614fb1565b61096d565b3d91506109e3565b506000808080610a279451335af161068761576b565b610977565b903d8082843e610a3c8184614877565b820191602081840312610ce0578051906001600160401b038211610cc85701906101008284031261073b576040519261010084018481106001600160401b03821117610ccc576040528251845260208301516001600160401b038111610cc85781610aa8918501615729565b602085015260408301516001600160401b038111610cc85783019080601f83011215610cc857815191610ada83615489565b92610ae86040519485614877565b80845260208085019160051b83010191838311610cc45760208101915b838310610b605750505050506040840152606082015160608401526080820151608084015260a082015160a084015260c082015190600282101561073b575060c0830152610b559060e001615715565b60e082015283610906565b82516001600160401b038111610cc0578201610220818703601f190112610cc05760405190610b8e82614807565b6020810151825260408101516001600160401b038111610cbc57876020610bb792840101615729565b602083015260608101516001600160401b038111610cbc57876020610bde92840101615729565b604083015260808101516003811015610cbc579061022091606084015260a0810151608084015260c081015160a084015260e081015160c084015261010081015160e0840152610120810151610100840152610140810151610120840152610160810151610140840152610c556101808201614fb1565b6101608401526101a08101516101808401526101c08101516101a0840152610c806101e08201614d65565b6101c0840152610c936102008201615715565b6101e084015201516002811015610cb857610200820152815260209283019201610b05565b8880fd5b8980fd5b8780fd5b8580fd5b8280fd5b634e487b7160e01b83526041600452602483fd5b5080fd5b60405162461bcd60e51b8152602060048201526024808201527f4465706f736974206973206e6f7420726561647920666f72207769746864726160448201526377616c7360e01b6064820152608490fd5b60405162461bcd60e51b815260206004820152601d60248201527f4e6f20616374697665207769746864726177616c20666f7220757365720000006044820152606490fd5b610160813d8211610e64575b81610d946101609383614877565b81010312610ce0576040519161016083018381106001600160401b03821117610e5057604052610dc382615715565b835260208201516020840152604082015160408401526060820151606084015260808201516003811015610ce057608084015260a082015160a084015260c082015160c084015260e082015160e084015261010082015161010084015261012082015190600282101561073b5750610120830152610e449061014001615715565b610140820152836108ad565b634e487b7160e01b82526041600452602482fd5b3d9150610d86565b3461064157600036600319011261064157600c546040516001600160a01b039091168152602090f35b34610641576000366003190112610641576020600a54604051908152f35b3461064157602036600319011261064157610ecc614672565b610ed461584d565b6001600160a01b03168015610f2757600180546001600160a01b0319811683179091556001600160a01b03167f8be0079c531659141344cd1fd0a4f28419497f9722a3daafe3b4186f6b6457e0600080a3005b631e4fbdf760e01b600052600060045260246000fd5b34610641576040366003190112610641576024356004356001600160a01b038216808303610641576000610120604051610f76816147eb565b8281528260208201528260408201528260608201528260808201528260a08201528260c08201528260e0820152826101008201520152600052600760205260406000208160005260205260406000206000805260205260406000209060405191610fdf836147eb565b80546001600160a01b031683526001810154602084019081526002820154604085019081526003830154606086019081526004840154929692608087019060ff16611029816146e4565b815260058501549160a0880192835260068601549360c0890194855260078701549560e08a0196875260ff600960088a0154996101008d019a8b52015416986101208b0199611077816146ee565b8a5280600052600960205260406000209060405161109481614807565b825481526040516110ac8161027b8160018801614ae8565b60208201526040516110c58161027b8160028801614ae8565b604082015260ff6003840154166110db816146e4565b60608201526004830154608082015261020060ff600e60058601549560a08501968752600681015460c0860152600781015460e086015260088101546101008601526009810154610120860152600a81015461014086015282600b820154161515610160860152600c810154610180860152600d8101546101a086015201548181166101c085015260018060a01b038160081c166101e085015260a81c1691611183836146ee565b0152875191519062015180820291808304620151801490151715610692576111b06020926111ed94614fa4565b600c54604051630414960560e21b81526001600160a01b039687166004820152602481019390935290949193849290911690829081906044820190565b03915afa90811561064e576000916112f9575b50806112e9575061123a6201518061123288515b428851611220816146e4565b611229816146e4565b6112e157614d73565b048451614b82565b88524281116112ab575061014099600085525b604080519a516001600160a01b03168b52905160208b01529051908901525160608801525161127b816146e4565b60808701525160a08601525160c08501525160e084015251610100830152516112a3816146ee565b610120820152f35b6112b6904290614d73565b99620151808b019a8b8111610692576201517f019a8b1161069257620151806101409b04855261124d565b508a51614d73565b6201518061123261123a92611214565b906020823d602011611323575b8161131360209383614877565b8101031261073b5750518c611200565b3d9150611306565b346106415760203660031901126106415760043561134761582b565b600e54604051633b4d01a760e01b815260048101839052906000908290602490829084906001600160a01b03165af190811561064e576000916117a6575b509061010082015160c0830151926005841015611790576002600094149081611782575b50156117455760a081018051845260096020526040842082519192916001600160a01b03163303611709576113e460ff600b830154166155d4565b6006810180549360c0840191825186106116c4576114188896845161140e600a8801918254614fa4565b9055845190614d73565b905561142481516154a0565b93855b85518110156114a257600c546001600160a01b0316906114478188614fd6565b5151823b15610cb857889260248492604051958693849263106b5da160e01b845260048401525af19182156114975788600193611487575b505001611427565b61149091614877565b8a8861147f565b6040513d8a823e3d90fd5b50919350919460018060a01b03600e541690813b15610cc457859160248392604051948593849263f1b4bf9d60e01b845260048401525af180156116b95785937feef4955e8b18dcb6d1c19905b7b86e5fe56138ad1ce2c5e540ce4e959312f51192856060936116a9575b505051855184516040805193845260208401929092526001600160a01b031690820152a1600160e0820151611541816146ee565b61154a816146ee565b0361168f576101000151825160405163a9059cbb60e01b815233600482015260248101919091529160209183916044918391906001600160a01b03165af18015611684578390611649575b61159f91506157e7565b60018060a01b03600f54168151813b156104e157604051637104a76d60e11b8152336004820152602481019190915292908390604490829084905af1918483156104d5577f415071086c9ea63f7f39884c21a8af430af53bfd511a362dff69cabcb1b8bcc193611639575b5050519161162660405191604083526001604084019101614ae8565b9260208201528033930390a26001815580f35b61164291614877565b848461160a565b506020813d60201161167c575b8161166360209383614877565b81010312610cc85761167761159f91614fb1565b611595565b3d9150611656565b6040513d85823e3d90fd5b508080806116a4938551335af161068761576b565b61159f565b6116b291614877565b898561150d565b6040513d87823e3d90fd5b60405162461bcd60e51b815260206004820152601c60248201527f4e6f7420656e6f7567682066756e647320696e2074686520706f6f6c000000006044820152606490fd5b60405162461bcd60e51b8152602060048201526014602482015273139bdd0818481d985b1a59081c1c9bdc1bdcd85b60621b6044820152606490fd5b60405162461bcd60e51b8152602060048201526015602482015274141c9bdc1bdcd85b081b9bdd08185c1c1c9bdd9959605a1b6044820152606490fd5b60e0915001511515846113a9565b634e487b7160e01b600052602160045260246000fd5b3d8083833e6117b58183614877565b810190602081830312610cc8578051906001600160401b0382116104e15701916101208383031261073b57604051926117ed8461485b565b805184526020810151602085015260408101516040850152606081015160608501526080810151608085015260a081015160a085015260c08101516005811015610cc85760c085015261184260e08201614fb1565b60e0850152610100810151906001600160401b038211610cc85701906101208284031261073b57604051926118768461485b565b61187f83615715565b845260208301516003811015610cc85760208501526040830151604085015260608301516001600160401b038111610cc857816118bd918501615729565b606085015260808301516001600160401b038111610cc857906118e1918401615729565b608084015260a082015160a084015260c082015160c084015260e082015190600282101561073b575060e083015261191c9061010001615715565b61010082015261010082015282611385565b3461064157606036600319011261064157611947614672565b6024356044359160028310156106415761195f61582b565b6013546001600160a01b031633148015611e8f575b15611e4b578160005260096020526040600020926040519261199584614807565b845484526040516119ad8161027b8160018a01614ae8565b602085019081526040516119c88161027b8160028b01614ae8565b604086015260ff6003870154166119de816146e4565b606086015260048601546080860152600586015460a0860190815260068701549260c0870193845260078801549060e08801918252600889015497610100810198895260098a0154986101208201998a52600a8b015461014083015260ff600b8c0154169961016083019a15158b52600c8c0154610180840152600e600d8d01549c6101a085019d8e520154996101c084019360ff8c16855261020060ff6101e083019d8e60018060a01b038260081c16905260a81c1691611a9f836146ee565b015260018060a01b031698896000526007602052604060002085600052602052604060002090611ace816146ee565b600052602052604060002095600687015490518080046001148115171561069257611af891614fa4565b9b600187019687549d8e1515611b0d90615615565b600482019182549160ff8316611b22816146e4565b15611b2c9061566b565b421015611b38906156af565b42906007015560ff1916600217905560009c895190611b5691614d73565b8091818b525190611b6691614b82565b60649004611b7391614d73565b925160ff16611b829084614b82565b9052528852600860205260408820958654611b9c81615489565b9760405198611bab908a614877565b8189528a526020808b208b918a015b838310611d5f5750505050885b8751811015611c3857600c548a91906001600160a01b0316611be9828b614fd6565b515190803b156104e15760248492604051958693849263106b5da160e01b845260048401525af1918b83156104d557600193611c28575b505001611bc7565b611c3191614877565b8b8b611c20565b50888851151580611d46575b15611cb2575050601154611c60906001600160a01b0316614b95565b936012905b51906012039060128211610692576000805160206158778339815191529561053f611c9c9261053f670de0b6b3a764000095614d80565b049052549051906105e9604051928392836156fb565b815191959160049190602090611cd0906001600160a01b0316614b95565b975160405163313ce56760e01b815293849182906001600160a01b03165afa9081156104d5578091611d09575b5060ff91501690611c65565b90506020823d602011611d3e575b81611d2460209383614877565b8101031261073b5750611d3860ff91614d65565b88611cfd565b3d9150611d17565b5081516011546001600160a01b03908116911614611c44565b600c6020600192604051611d728161483f565b85548152604051611d898161027b81898b01614ae8565b8382015260ff600287015416611d9e816146e4565b6040820152604051611db78161027b8160038b01614ae8565b606082015260048601546080820152600586015460a0820152600686015460c0820152600786015460e082015260088601546101008201526009860154610120820152604051611e0e8161027b81600a8b01614ae8565b610140820152600b86015460ff8116611e26816146ee565b610160830152858060a01b039060081c16610180820152815201920192019190611bba565b606460405162461bcd60e51b815260206004820152602060248201527f43616c6c6572206973206e6f7420746865207661756c7420636f6e74726163746044820152fd5b506015546001600160a01b03163314611974565b3461064157600036600319011261064157600a54611ec081615489565b90611ece6040519283614877565b808252601f19611edd82615489565b0160005b818110611f9857505060015b81811115611f5d57826040518091602082016020835281518091526040830190602060408260051b8601019301916000905b828210611f2e57505050500390f35b91936001919395506020611f4d8192603f198a820301865288516146f8565b9601920192018594939192611f1f565b611f6681614d8e565b600019820191908183116106925782611f8d91611f86611f939588614fd6565b5285614fd6565b5061547a565b611eed565b602090611fa3614ce7565b82828701015201611ee1565b3461064157606036600319011261064157600435602435604435611fd161584d565b82600052600960205260ff600b6040600020015416156120b7578115612084578015612046576000838152600960209081526040918290206004810185905560050183905581519384528301919091527f17b8644f386d1c7c7138ef98b3c8035622bbe94d7be9b26f71d2654a547c294391a2005b60405162461bcd60e51b8152602060048201526016602482015275125b9d985b1a59081b5a5b9a5b5d5b481c195c9a5bd960521b6044820152606490fd5b60405162461bcd60e51b815260206004820152600b60248201526a496e76616c69642041505960a81b6044820152606490fd5b60405162461bcd60e51b815260206004820152602260248201527f506f6f6c20646f6573206e6f74206578697374206f7220697320696e61637469604482015261766560f01b6064820152608490fd5b34610641576020366003190112610641576001600160a01b03612128614672565b166000526006602052602060018060a01b0360406000205416604051908152f35b346106415761215736614a7b565b919061216161582b565b6014546001600160a01b031633148015612205575b156121c05760018060a01b031660005260076020526040600020906000526020526040600020906121a6816146ee565b600052602052600060016040822001556001600055600080f35b60405162461bcd60e51b815260206004820152601f60248201527f43616c6c6572206973206e6f742074686520706f6f6c2063616e6973746572006044820152606490fd5b506015546001600160a01b03163314612176565b3461064157600036600319011261064157600e546040516001600160a01b039091168152602090f35b346106415760203660031901126106415760043560005260096020526040600020805490604051908180600183019061227a91614ae8565b036122859083614877565b604051806122968160028501614ae8565b036122a19082614877565b600382015460ff169160048101546005820154600683015460078401546008850154600986015491600a87015493600b88015460ff1695600c89015497600d8a015499600e01549a6040519e8f9e8f918252602082016102209052610220820161230a916146bf565b90808203906040015261231c916146bf565b9b8d612327826146e4565b6060015260808d015260a08c015260c08b015260e08a015261010089015261012088015261014087015215156101608601526101808501526101a084015260ff8181166101c0850152600882901c6001600160a01b03166101e08501526123939060a883901c166146ee565b60a81c60ff166102008301520390f35b34610641576020366003190112610641576123bc614672565b6123c461584d565b600b54906001600160a01b038216612454576001600160a01b0316908115612405576001600160a01b03199081168217600b55600e80549091169091179055005b60405162461bcd60e51b815260206004820152602160248201527f476f7665726e616e636520616464726573732063616e6e6f74206265207a65726044820152606f60f81b6064820152608490fd5b60405162461bcd60e51b815260206004820152601660248201527511dbdd995c9b985b98d948185b1c9958591e481cd95d60521b6044820152606490fd5b34610641576124a036614a65565b9060018060a01b0360125416331480156124dd575b6124be90614fea565b60005260096020526124d9600c604060002001918254614d73565b9055005b506015546001600160a01b031633146124b5565b34610641576124ff36614a7b565b600061016060405161251081614823565b8281528260208201528260408201528260608201528260808201528260a08201528260c08201528260e0820152826101008201528261012082015282610140820152015260018060a01b0382166000526007602052604060002083600052602052604060002090612580816146ee565b600052602052604060002060405192612598846147eb565b60018060a01b0382541684526001820154926020850193845260028301549260408601938452856003820154916060820192835260ff60048201541660808301906125e2816146e4565b8152600582015460a0840190815260068301549160c0850192835260ff600960078601549560e0880196875261010060088201549801978852015416956101208c019661262e816146ee565b87528860005260096020526040600020976040519861264c8a614807565b80548a526040516126648161027b8160018601614ae8565b60208b015260405161267d8161027b8160028601614ae8565b60408b015260ff600382015416612693816146e4565b60608b0152600481015460808b0152600e60058201549160a08c01928352600681015460c08d0152600781015460e08d015260088101546101008d015260098101546101208d0152600a8101546101408d015260ff600b8201541615156101608d0152600c8101546101808d0152600d8101546101a08d015201549a60ff8c166101c08c015261020060ff6101e08d019d8e60018060a01b038260081c16905260a81c169b019a612743816146ee565b8b52865191519062015180820291808304620151801490151715610692576111b060209261277094614fa4565b03915afa90811561064e57600091612962575b508061295257506127bd620151806127b587515b4287516127a3816146e4565b6127ac816146e4565b61294a57614d73565b048351614b82565b875242811161291457506101809b600084525b519a519951905191516001600160a01b03909b169a926127ef846146e4565b51935194519551965197612802896146ee565b519861280d8a6146ee565b516040519b6001600160a01b039091169a906128288d614823565b8c5260208c0190815260408c0191825260608c0192835260808c019361284d816146e4565b845260a08c0194855260c08c0195865260e08c019687526101008c019788526101208c019861287b816146ee565b89526101408c019961288c816146ee565b8a526101608c019a8b52604080519c516001600160a01b03168d52905160208d01529051908b01525160608a0152516128c4816146e4565b60808901525160a08801525160c08701525160e086015251610100850152516128ec816146ee565b610120840152516128fc816146ee565b610140830152516001600160a01b0316610160820152f35b61291f904290614d73565b9b620151808d019c8d8111610692576201517f019c8d1161069257620151806101809d0484526127d0565b508951614d73565b620151806127b56127bd92612797565b906020823d60201161298c575b8161297c60209383614877565b8101031261073b5750518e612783565b3d915061296f565b34610641576129a236614a65565b9060018060a01b0360125416331480156129db575b6129c090614fea565b60005260096020526124d9600c604060002001918254614fa4565b506015546001600160a01b031633146129b7565b3461064157602036600319011261064157600435612a0b61584d565b806000526009602052612a2860ff600b60406000200154166155d4565b6000908152600960205260409020600b01805460ff19169055005b34610641576000366003190112610641576010546040516001600160a01b039091168152602090f35b34610641576020366003190112610641576001600160a01b03612a8d614672565b1660005260176020526020604060002054604051908152f35b346106415760203660031901126106415760043560005260096020526040600020604051612ad381614807565b81548152604051612aeb8161027b8160018701614ae8565b6020820152604051612b048161027b8160028701614ae8565b604082015260ff600383015416612b1a816146e4565b606082015260048201546080820152600582015460a082015260068201549160c08201928352600781015460e083015260088101546101008301526009810154610120830152600a810154610140830152600e60ff600b830154169161016084019215158352600c810154610180850152600d8101546101a085015201549160ff83166101c082015261020060ff6101e083019460018060a01b038160081c16865260a81c1691612bca836146ee565b015251151580612cb1575b15612c285750601154612bf0906001600160a01b0316614b95565b906012905b519060120390601282116106925760209261053f612c1f9261053f670de0b6b3a764000095614d80565b04604051908152f35b9060046020612c3f60018060a01b03855116614b95565b935160405163313ce56760e01b815292839182906001600160a01b03165afa801561064e57600090612c77575b60ff91501690612bf5565b506020813d602011612ca9575b81612c9160209383614877565b8101031261064157612ca460ff91614d65565b612c6c565b3d9150612c84565b5080516011546001600160a01b03908116911614612bd5565b34610641576000366003190112610641576001546040516001600160a01b039091168152602090f35b3461064157602036600319011261064157612d0f6004356154a0565b6040518091602082016020835281518091526040830190602060408260051b8601019301916000905b828210612d4757505050500390f35b919360019193955060208091603f1989820301855287519081518152610180612dfe612daa612d85868601516101a0888701526101a08601906146bf565b6040860151612d93816146e4565b6040860152606086015185820360608701526146bf565b6080850151608085015260a085015160a085015260c085015160c085015260e085015160e08501526101008501516101008501526101208501516101208501526101408501518482036101408601526146bf565b92610160810151612e0e816146ee565b61016084015281878060a01b03910151169101529601920192018594939192612d38565b3461064157602036600319011261064157612e4b614672565b612e5361584d565b601254906001600160a01b038216612ed6576001600160a01b0316908115612e9157600c80546001600160a01b031990811684179091551617601255005b60405162461bcd60e51b815260206004820152601c60248201527f436f76657220616464726573732063616e6e6f74206265207a65726f000000006044820152606490fd5b60405162461bcd60e51b815260206004820152601160248201527010dbdd995c88185b1c9958591e481cd95d607a1b6044820152606490fd5b3461064157600036600319011261064157612f2861584d565b600180546001600160a01b031981169091556000906001600160a01b03167f8be0079c531659141344cd1fd0a4f28419497f9722a3daafe3b4186f6b6457e08280a3005b3461064157600036600319011261064157600d546040516001600160a01b039091168152602090f35b3461064157602036600319011261064157612fae614672565b612fb661584d565b601354906001600160a01b038216613039576001600160a01b0316908115612ff457600d80546001600160a01b031990811684179091551617601355005b60405162461bcd60e51b815260206004820152601c60248201527f5661756c7420616464726573732063616e6e6f74206265207a65726f000000006044820152606490fd5b60405162461bcd60e51b815260206004820152601160248201527015985d5b1d08185b1c9958591e481cd95d607a1b6044820152606490fd5b34610641576000366003190112610641576014546040516001600160a01b039091168152602090f35b3461064157600036600319011261064157600b546040516001600160a01b039091168152602090f35b34610641576020366003190112610641576004356001600160401b0381116106415761014060031982360301126106415760405190613102826147eb565b8060040135825260248101356003811015610641576020830190815260448201356001600160401b0381116106415761314190600436918501016148b3565b926040810193845260648301356001600160401b0381116106415761316c90600436918601016148b3565b6060820190815260808201926084850135845260a0830160a4860135815260c48601359160ff831683036106415760c0850192835260e085019160e48801358352610104880135976002891015610641576101246131d29161010089019a8b5201614688565b9661012087019788526131e361584d565b88516131ee816146ee565b6131f7816146ee565b1580156135cf575b1561358a57600a546001810180911161069257600a5586516000526009602052604060002095875187558a5160018801908051906001600160401b0382116134b157819061324d8454614aae565b601f8111613537575b50602090601f83116001146134d2576000926134c7575b50508160011b916000199060031b1c19161790555b51805160028801916001600160401b0382116134b1576132a28354614aae565b601f8111613469575b50602090601f83116001146133f857918061332e96949260ff999896946000926133ed575b50508160011b916000199060031b1c19161790555b51600488015560006006880155516005870155600060078701556000600987015560006008870155600b86016001851982541617905551613325816146e4565b60038601614fbe565b519182600d850155511693600e8301918254906064039560648711610692577ff01906dc0ac306fa816e50166a7ed46af1f05721cb90cea30beebdd8dede3a6d976133e897600c6133d197015551613385816146ee565b61338e816146ee565b9251610100600160a81b0360089190911b1660ff60a81b60a89490941b939093166001600160b01b031992909216610100600160a81b0319919091161717179055565b5192516040519182916020835260208301906146bf565b0390a2005b015190508f806132d0565b90601f1983169184600052816000209260005b818110613451575092600192859260ff9b9a989661332e9a989610613438575b505050811b0190556132e5565b015160001960f88460031b161c191690558f808061342b565b9293602060018192878601518155019501930161340b565b836000526020600020601f840160051c810191602085106134a7575b601f0160051c01905b81811061349b57506132ab565b6000815560010161348e565b9091508190613485565b634e487b7160e01b600052604160045260246000fd5b015190508e8061326d565b60008581528281209350601f198516905b81811061351f5750908460019594939210613506575b505050811b019055613282565b015160001960f88460031b161c191690558e80806134f9565b929360206001819287860151815501950193016134e3565b909150836000526020600020601f840160051c81019160208510613580575b90601f859493920160051c01905b8181106135715750613256565b60008155849350600101613564565b9091508190613556565b60405162461bcd60e51b815260206004820152601760248201527f57726f6e6720417373657420666f72204465706f7369740000000000000000006044820152606490fd5b5087516001600160a01b031615156131ff565b34610641576135f0366148fa565b9060018060a01b036012541633148015613646575b61360e90614fea565b6000526008602052604060002090815491600160401b8310156134b1578261363e91600161364495018155615035565b90615051565b005b506015546001600160a01b03163314613605565b346106415760203660031901126106415760043560165481101561064157613683602091614a34565b905460405160039290921b1c6001600160a01b03168152f35b3461064157600036600319011261064157600f546040516001600160a01b039091168152602090f35b34610641576020366003190112610641576136de614672565b600a54600091906001600160a01b03821660015b82811115613ad6575061370484615489565b936137126040519586614877565b808552613721601f1991615489565b0160005b818110613a71575050600c546001600160a01b03169260009060015b8481111561381b57866040518091602082016020835281518091526040830190602060408260051b8601019301916000905b82821061378257505050500390f35b919360019193955060208091603f19898203018552875190610120806137b3845161014085526101408501906146bf565b93858101518685015260408101516040850152606081015160608501526080810151608085015260a081015160a085015260c081015160c085015260e081015160e0850152610100810151151561010085015201519101529601920192018594939192613773565b8060005260096020526040600020846000526007602052604060002082600052602052604060002060008052602052604060002060405161385b816147eb565b60018060a01b038254168152600182015460208201526002820154604082015261012060ff6009600385015494606085019586528260048201541661389f816146e4565b6080860152600581015460a0860152600681015460c0860152600781015460e08601526008810154610100860152015416916138da836146ee565b01526040516339e671f760e11b81526001600160a01b0385166004820152602481018490526020816044818c5afa90811561064e57600091613a3e575b506139229151614b82565b856000526007602052604060002083600052602052604060002060008052602052600160406000200154613961575b505061395c9061547a565b613741565b60008681526007602090815260408083208684528252808320838052909152908190206003810154600190910154600485015460058601546006870154600a880154600b89015496519b9860ff909716969095919492939291906139c48d6147eb565b604051806001819301906139d791614ae8565b036139e29082614877565b8c528960208d015260408c015260608b015260808a015260a089015260c088015260e0870152151561010086015261012085015280613a209061547a565b93613a2b828a614fd6565b52613a369088614fd6565b508780613951565b906020823d8211613a69575b81613a5760209383614877565b8101031261073b575051613922613917565b3d9150613a4a565b602090604095949551613a83816147eb565b60608152600083820152600060408201526000606082015260006080820152600060a0820152600060c0820152600060e08201526000610100820152600061012082015282828901015201939293613725565b816000949394526007602052604060002081600052602052604060002060008052602052600160406000200154613b19575b613b119061547a565b9291926136f2565b93613b26613b119161547a565b949050613b08565b34610641576000366003190112610641576015546040516001600160a01b039091168152602090f35b34610641576020366003190112610641576004356000526009602052602060ff600b60406000200154166040519015158152f35b34610641576000366003190112610641576012546040516001600160a01b039091168152602090f35b34610641576000366003190112610641576013546040516001600160a01b039091168152602090f35b3461064157613beb366148fa565b6012546001600160a01b031633148015613c64575b613c0990614fea565b60005b82600052600860205260406000205481101561364457826000526008602052613c39816040600020615035565b5054825114613c4a57600101613c0c565b61363e906136449360005260086020526040600020615035565b506015546001600160a01b03163314613c00565b34610641576000366003190112610641576040518060206016549283815201809260166000527fd833147d7dc355ba459fc788f669e58cfaf9dc25ddcd0702e87d69c7b51242899060005b818110613d255750505081613cd9910382614877565b6040519182916020830190602084525180915260408301919060005b818110613d03575050500390f35b82516001600160a01b0316845285945060209384019390920191600101613cf5565b82546001600160a01b0316845260209093019260019283019201613cc3565b60c036600319011261064157604051600060c082016001600160401b03811183821017610e5057604052613d76614672565b82526020820191602435835260408101604435815260643560028110156104e1576060830190815260843590600282101561460c576080840191825260a435926001600160a01b0384168403610cc45760a08501938452613dd561582b565b865186526009602052604086209360ff600b86015416156145bc57600e850193845460ff8160a81c169151613e09816146ee565b613e12816146ee565b613e1b836146ee565b82036145685782516001600160a01b0390811660089290921c16036145235786516001600160a01b03168852600760209081526040808a208b518b5290915288208451613e67816146ee565b613e70816146ee565b895260205260016040892001546144cc57600190613e8d816146ee565b03614456578151156144115751855182516040516323b872dd60e01b81526001600160a01b039283166004820152306024820152604481019190915291602091839160649183918c91165af18015614406576143cb575b508051613ef660068601918254614fa4565b905580519260018060a01b03815460081c169060046020613f1684614b95565b936040519283809263313ce56760e01b82525afa80156143c0578990614386575b60ff915016915b600d613f6d60ff613f646064613f5d8c60068101549687910154614b82565b0484614d73565b94541684614b82565b936012036012811161437257613f9d61410a959361053f8d9e969461053f9d9e9d670de0b6b3a764000095614d80565b049160098901556008880155600787015561016d6064613fc1600489015488614b82565b040493600960018060a01b038a51168351928b60058b015494825195613fe6876146ee565b60405194613ff3866147eb565b85528d60208601928d845260408701908152606087018d8152608088019183835260a0890194855260c08901954287528c60e08b0198868a526101008c019a878c526101208d019e8f614045826146ee565b5251614050816146ee565b614059816146ee565b6142cb57516001600160a01b039081168752600760209081526040808920935189529281528288208880529052952099518a546001600160a01b0319169516949094178955925160018901559151600288015590516003870155516140ca906140c1816146e4565b60048701614fbe565b5160058501555160068401555160078301555160088201550190516140ee816146ee565b6140f7816146ee565b60ff801983541691161790555b516154a0565b93855b855181101561417d57600c546001600160a01b03169061412d8188614fd6565b5151823b15610cb857889260248492604051958693849263106b5da160e01b845260048401525af1918215611497578860019361416d575b50500161410d565b61417691614877565b8a88614165565b50601654869550879086805b828110614293575b5015614233575b5080516001600160a01b031686526017602052604086208054600181019190821061421f5792600194927f6f85d9948d6ca3dd6ce6ce7d175da22b4e865827ae6fcd530ec7edac1240f928926040999555858060a01b03905116925161420f895192839283528a6020840152878b84019101614ae8565b0390a25582519182526020820152f35b634e487b7160e01b88526011600452602488fd5b81516001600160a01b031690600160401b81101561427f5780600161425b9201601655614a34565b81546001600160a01b0360039290921b91821b191692901b91909117905586614198565b634e487b7160e01b88526041600452602488fd5b61429c81614a34565b9054855160039290921b1c6001600160a01b039081169116146142c157600101614189565b5050600188614191565b516001600160a01b039081168752600760209081526040808920935189529281528288206001808a529152919096209a518b546001600160a01b0319169616959095178a555193890193909355915160028801559051600387015551614334906140c1816146e4565b516005850155516006840155516007830155516008820155019051614358816146ee565b614361816146ee565b60ff80198354169116179055614104565b634e487b7160e01b8b52601160045260248bfd5b506020813d6020116143b8575b816143a060209383614877565b81010312610cb8576143b360ff91614d65565b613f37565b3d9150614393565b6040513d8b823e3d90fd5b6020813d6020116143fe575b816143e460209383614877565b810103126143fa576143f590614fb1565b613ee4565b8680fd5b3d91506143d7565b6040513d89823e3d90fd5b60405162461bcd60e51b815260206004820152601d60248201527f416d6f756e74206d7573742062652067726561746572207468616e20300000006044820152606490fd5b50341561448e57601154614472906001600160a01b0316614b95565b9260129060068601614485348254614fa4565b90553494613f3e565b60405162461bcd60e51b81526020600482015260166024820152754465706f7369742063616e6e6f74206265207a65726f60501b6044820152606490fd5b60405162461bcd60e51b815260206004820152602960248201527f557365722068617320616c7265616479206465706f736974656420696e746f206044820152681d1a1a5cc81c1bdbdb60ba1b6064820152608490fd5b60405162461bcd60e51b815260206004820152601f60248201527f506f6f6c20646f6573206e6f74206163636570742074686973206173736574006044820152606490fd5b60405162461bcd60e51b815260206004820152602660248201527f506f6f6c20646f6573206e6f74206163636570742074686973206465706f736960448201526574207479706560d01b6064820152608490fd5b60405162461bcd60e51b815260206004820152602260248201527f506f6f6c20697320696e616374697665206f7220646f6573206e6f74206578696044820152611cdd60f21b6064820152608490fd5b8480fd5b346106415760203660031901126106415761464361462f600435614d8e565b6040519182916020835260208301906146f8565b0390f35b3461064157602036600319011261064157602061466a614665614672565b614b95565b604051908152f35b600435906001600160a01b038216820361064157565b35906001600160a01b038216820361064157565b60005b8381106146af5750506000910152565b818101518382015260200161469f565b906020916146d88151809281855285808601910161469c565b601f01601f1916010190565b6003111561179057565b6002111561179057565b90815181526102008061473161471f602086015161022060208701526102208601906146bf565b604086015185820360408701526146bf565b936060810151614740816146e4565b60608501526080810151608085015260a081015160a085015260c081015160c085015260e081015160e085015261010081015161010085015261012081015161012085015261014081015161014085015261016081015115156101608501526101808101516101808501526101a08101516101a085015260ff6101c0820151166101c085015260018060a01b036101e0820151166101e08501520151916147e6836146ee565b015290565b61014081019081106001600160401b038211176134b157604052565b61022081019081106001600160401b038211176134b157604052565b61018081019081106001600160401b038211176134b157604052565b6101a081019081106001600160401b038211176134b157604052565b61012081019081106001600160401b038211176134b157604052565b90601f801991011681019081106001600160401b038211176134b157604052565b6001600160401b0381116134b157601f01601f191660200190565b81601f82011215610641578035906148ca82614898565b926148d86040519485614877565b8284526020838301011161064157816000926020809301838601378301015290565b90604060031983011261064157600435916024356001600160401b038111610641576101a0818303600319011261064157604051916149388361483f565b8160040135835260248201356001600160401b03811161064157816004614961928501016148b3565b60208401526044820135600381101561064157604084015260648201356001600160401b0381116106415781600461499b928501016148b3565b60608401526084820135608084015260a482013560a084015260c482013560c084015260e482013560e0840152610104820135610100840152610124820135610120840152610144820135906001600160401b038211610641576004614a03928401016148b3565b610140830152610164810135600281101561064157610160830152614a2b9061018401614688565b61018082015290565b601654811015614a4f57601660005260206000200190600090565b634e487b7160e01b600052603260045260246000fd5b6040906003190112610641576004359060243590565b606090600319011261064157600435906024356001600160a01b0381168103610641579060443560028110156106415790565b90600182811c92168015614ade575b6020831014614ac857565b634e487b7160e01b600052602260045260246000fd5b91607f1691614abd565b60009291815491614af883614aae565b8083529260018116908115614b4e5750600114614b1457505050565b60009081526020812093945091925b838310614b34575060209250010190565b600181602092949394548385870101520191019190614b23565b915050602093945060ff929192191683830152151560051b010190565b519069ffffffffffffffffffff8216820361064157565b8181029291811591840414171561069257565b6001600160a01b03908116600090815260066020526040902054168015614c975760a060049160405192838092633fabe5a360e21b82525afa90811561064e57600091614c4a575b506000811315614c05576402540be4008102908082046402540be40014901517156106925790565b60405162461bcd60e51b815260206004820152601960248201527f496e76616c69642070726963652066726f6d206f7261636c65000000000000006044820152606490fd5b9060a0823d60a011614c8f575b81614c6460a09383614877565b8101031261073b5750614c7681614b6b565b50614c88608060208301519201614b6b565b5038614bdd565b3d9150614c57565b60405162461bcd60e51b815260206004820152602260248201527f50726963652066656564206e6f7420617661696c61626c6520666f7220617373604482015261195d60f21b6064820152608490fd5b60405190614cf482614807565b60006102008382815260606020820152606060408201528260608201528260808201528260a08201528260c08201528260e08201528261010082015282610120820152826101408201528261016082015282610180820152826101a0820152826101c0820152826101e08201520152565b519060ff8216820361064157565b9190820391821161069257565b604d811161069257600a0a90565b614d96614ce7565b506000526009602052604060002060405190614db182614807565b80548252604051614dc98161027b8160018601614ae8565b6020830152604051614de28161027b8160028601614ae8565b604083015260ff600382015416614df8816146e4565b606083015260048101546080830152600581015460a0830152600681015460c0830190815260078201549160e0840192835260088101546101008501526009810154610120850152600a810154610140850152600e60ff600b830154169161016086019215158352600c810154610180870152600d8101546101a087015201549060ff82166101c086015260ff6101e086019260018060a01b038160081c16845260a81c16614ea6816146ee565b61020086015251151580614f8b575b15614f025750601154614ed0906001600160a01b0316614b95565b906012905b519060120391601283116106925761053f614efc9261053f670de0b6b3a764000095614d80565b04905290565b9060046020614f1960018060a01b03855116614b95565b935160405163313ce56760e01b815292839182906001600160a01b03165afa801561064e57600090614f51575b60ff91501690614ed5565b506020813d602011614f83575b81614f6b60209383614877565b8101031261064157614f7e60ff91614d65565b614f46565b3d9150614f5e565b5080516011546001600160a01b03908116911614614eb5565b9190820180921161069257565b5190811515820361064157565b90614fc8816146e4565b60ff80198354169116179055565b8051821015614a4f5760209160051b010190565b15614ff157565b606460405162461bcd60e51b815260206004820152602060248201527f43616c6c6572206973206e6f742074686520636f76657220636f6e74726163746044820152fd5b8054821015614a4f57600052600c602060002091020190600090565b9061546457815181556001810160208301518051906001600160401b0382116134b15781906150808454614aae565b601f8111615411575b50602090601f83116001146153ac576000926153a1575b50508160011b916000199060031b1c19161790555b6150cf60408301516150c6816146e4565b60028301614fbe565b6003810160608301518051906001600160401b0382116134b15781906150f58454614aae565b601f811161534e575b50602090601f83116001146152e9576000926152de575b50508160011b916000199060031b1c19161790555b6080820151600482015560a0820151600582015560c0820151600682015560e0820151600782015561010082015160088201556101208201516009820155600a81016101408301518051906001600160401b0382116134b15761518d8354614aae565b601f8111615296575b50602090601f8311600114615227579180600b949261521a97969460009261521c575b50508160011b916000199060031b1c19161790555b01906101608101516151df816146ee565b6151e8816146ee565b825461018092909201516001600160a81b031990921660ff919091161760089190911b610100600160a81b0316179055565b565b0151905038806151b9565b90601f1983169184600052816000209260005b81811061527e575092600192859261521a999896600b989610615265575b505050811b0190556151ce565b015160001960f88460031b161c19169055388080615258565b9293602060018192878601518155019501930161523a565b836000526020600020601f840160051c810191602085106152d4575b601f0160051c01905b8181106152c85750615196565b600081556001016152bb565b90915081906152b2565b015190503880615115565b60008581528281209350601f198516905b818110615336575090846001959493921061531d575b505050811b01905561512a565b015160001960f88460031b161c19169055388080615310565b929360206001819287860151815501950193016152fa565b909150836000526020600020601f840160051c81019160208510615397575b90601f859493920160051c01905b81811061538857506150fe565b6000815584935060010161537b565b909150819061536d565b0151905038806150a0565b60008581528281209350601f198516905b8181106153f957509084600195949392106153e0575b505050811b0190556150b5565b015160001960f88460031b161c191690553880806153d3565b929360206001819287860151815501950193016153bd565b909150836000526020600020601f840160051c8101916020851061545a575b90601f859493920160051c01905b81811061544b5750615089565b6000815584935060010161543e565b9091508190615430565b634e487b7160e01b600052600060045260246000fd5b60001981146106925760010190565b6001600160401b0381116134b15760051b60200190565b6000526008602052604060002080546154b881615489565b916154c66040519384614877565b818352602083019060005260206000206000915b8383106154e8575050505090565b600c60206001926040516154fb8161483f565b855481526040516155128161027b81898b01614ae8565b8382015260ff600287015416615527816146e4565b60408201526040516155408161027b8160038b01614ae8565b606082015260048601546080820152600586015460a0820152600686015460c0820152600786015460e0820152600886015461010082015260098601546101208201526040516155978161027b81600a8b01614ae8565b610140820152600b86015460ff81166155af816146ee565b610160830152858060a01b039060081c166101808201528152019201920191906154da565b156155db57565b60405162461bcd60e51b8152602060048201526012602482015271506f6f6c206973206e6f742061637469766560701b6044820152606490fd5b1561561c57565b60405162461bcd60e51b815260206004820152602160248201527f4e6f206465706f73697420666f756e6420666f722074686973206164647265736044820152607360f81b6064820152608490fd5b1561567257565b60405162461bcd60e51b81526020600482015260156024820152744465706f736974206973206e6f742061637469766560581b6044820152606490fd5b156156b657565b60405162461bcd60e51b815260206004820152601c60248201527f4465706f73697420706572696f6420686173206e6f7420656e646564000000006044820152606490fd5b6040906157129392815281602082015201906146bf565b90565b51906001600160a01b038216820361064157565b81601f8201121561064157805161573f81614898565b9261574d6040519485614877565b8184526020828401011161064157615712916020808501910161469c565b3d15615796573d9061577c82614898565b9161578a6040519384614877565b82523d6000602084013e565b606090565b156157a257565b60405162461bcd60e51b815260206004820152601c60248201527f4e6174697665206173736574207472616e73666572206661696c6564000000006044820152606490fd5b156157ee57565b60405162461bcd60e51b8152602060048201526015602482015274115490cc8c081d1c985b9cd9995c8819985a5b1959605a1b6044820152606490fd5b60026000541461583c576002600055565b633ee5aeb560e01b60005260046000fd5b6001546001600160a01b0316330361586157565b63118cdaa760e01b6000523360045260246000fdfe485f1bb6524c663555797e00171a10f341656e59b02d6b557a0a38ba7d5d9751a2646970667358221220290184a86a9c840bbc1705869ed170974ecc4157c5e543f828cf8a26342d1f8864736f6c634300081c0033",
  "linkReferences": {},
  "deployedLinkReferences": {}
}