{
  "_format": "hh-sol-artifact-1",
  "contractName": "InsuranceCover",
  "sourceName": "contracts/InsuranceCover.sol",
  "abi": [
    {
      "inputs": [
        {
          "internalType": "address",
          "name": "_lpContract",
          "type": "address"
        },
        {
          "internalType": "address",
          "name": "_vaultContract",
          "type": "address"
        },
        {
          "internalType": "address",
          "name": "_initialOwner",
          "type": "address"
        },
        {
          "internalType": "address",
          "name": "_bqBTC",
          "type": "address"
        },
        {
          "internalType": "address",
          "name": "_gov",
          "type": "address"
        }
      ],
      "stateMutability": "nonpayable",
      "type": "constructor"
    },
    {
      "inputs": [],
      "name": "CoverNotAvailable",
      "type": "error"
    },
    {
      "inputs": [],
      "name": "InsufficientPoolBalance",
      "type": "error"
    },
    {
      "inputs": [],
      "name": "InvalidAmount",
      "type": "error"
    },
    {
      "inputs": [],
      "name": "InvalidCoverDuration",
      "type": "error"
    },
    {
      "inputs": [],
      "name": "LpNotActive",
      "type": "error"
    },
    {
      "inputs": [],
      "name": "NameAlreadyExists",
      "type": "error"
    },
    {
      "inputs": [],
      "name": "NoClaimableReward",
      "type": "error"
    },
    {
      "inputs": [
        {
          "internalType": "address",
          "name": "owner",
          "type": "address"
        }
      ],
      "name": "OwnableInvalidOwner",
      "type": "error"
    },
    {
      "inputs": [
        {
          "internalType": "address",
          "name": "account",
          "type": "address"
        }
      ],
      "name": "OwnableUnauthorizedAccount",
      "type": "error"
    },
    {
      "inputs": [],
      "name": "ReentrancyGuardReentrantCall",
      "type": "error"
    },
    {
      "inputs": [],
      "name": "UnsupportedCoverType",
      "type": "error"
    },
    {
      "inputs": [],
      "name": "UserHaveAlreadyPurchasedCover",
      "type": "error"
    },
    {
      "inputs": [],
      "name": "WrongPool",
      "type": "error"
    },
    {
      "anonymous": false,
      "inputs": [
        {
          "indexed": true,
          "internalType": "uint256",
          "name": "coverId",
          "type": "uint256"
        },
        {
          "indexed": false,
          "internalType": "string",
          "name": "name",
          "type": "string"
        },
        {
          "indexed": false,
          "internalType": "enum CoverLib.RiskType",
          "name": "riskType",
          "type": "uint8"
        }
      ],
      "name": "CoverCreated",
      "type": "event"
    },
    {
      "anonymous": false,
      "inputs": [
        {
          "indexed": true,
          "internalType": "address",
          "name": "user",
          "type": "address"
        },
        {
          "indexed": false,
          "internalType": "uint256",
          "name": "coverValue",
          "type": "uint256"
        },
        {
          "indexed": false,
          "internalType": "uint256",
          "name": "coverFee",
          "type": "uint256"
        },
        {
          "indexed": false,
          "internalType": "enum CoverLib.RiskType",
          "name": "riskType",
          "type": "uint8"
        }
      ],
      "name": "CoverPurchased",
      "type": "event"
    },
    {
      "anonymous": false,
      "inputs": [
        {
          "indexed": true,
          "internalType": "uint256",
          "name": "coverId",
          "type": "uint256"
        },
        {
          "indexed": false,
          "internalType": "string",
          "name": "coverName",
          "type": "string"
        },
        {
          "indexed": false,
          "internalType": "enum CoverLib.RiskType",
          "name": "riskType",
          "type": "uint8"
        }
      ],
      "name": "CoverUpdated",
      "type": "event"
    },
    {
      "anonymous": false,
      "inputs": [
        {
          "indexed": true,
          "internalType": "address",
          "name": "previousOwner",
          "type": "address"
        },
        {
          "indexed": true,
          "internalType": "address",
          "name": "newOwner",
          "type": "address"
        }
      ],
      "name": "OwnershipTransferred",
      "type": "event"
    },
    {
      "anonymous": false,
      "inputs": [
        {
          "indexed": true,
          "internalType": "address",
          "name": "user",
          "type": "address"
        },
        {
          "indexed": true,
          "internalType": "uint256",
          "name": "poolId",
          "type": "uint256"
        },
        {
          "indexed": false,
          "internalType": "uint256",
          "name": "amount",
          "type": "uint256"
        }
      ],
      "name": "PayoutClaimed",
      "type": "event"
    },
    {
      "inputs": [
        {
          "internalType": "address",
          "name": "",
          "type": "address"
        },
        {
          "internalType": "uint256",
          "name": "",
          "type": "uint256"
        }
      ],
      "name": "LastVaultClaimTime",
      "outputs": [
        {
          "internalType": "uint256",
          "name": "",
          "type": "uint256"
        }
      ],
      "stateMutability": "view",
      "type": "function"
    },
    {
      "inputs": [
        {
          "internalType": "address",
          "name": "",
          "type": "address"
        },
        {
          "internalType": "uint256",
          "name": "",
          "type": "uint256"
        }
      ],
      "name": "NextLpClaimTime",
      "outputs": [
        {
          "internalType": "uint256",
          "name": "",
          "type": "uint256"
        }
      ],
      "stateMutability": "view",
      "type": "function"
    },
    {
      "inputs": [],
      "name": "bqBTC",
      "outputs": [
        {
          "internalType": "contract IbqBTC",
          "name": "",
          "type": "address"
        }
      ],
      "stateMutability": "view",
      "type": "function"
    },
    {
      "inputs": [],
      "name": "bqBTCAddress",
      "outputs": [
        {
          "internalType": "address",
          "name": "",
          "type": "address"
        }
      ],
      "stateMutability": "view",
      "type": "function"
    },
    {
      "inputs": [
        {
          "internalType": "uint256",
          "name": "_poolId",
          "type": "uint256"
        }
      ],
      "name": "claimPayoutForLP",
      "outputs": [],
      "stateMutability": "nonpayable",
      "type": "function"
    },
    {
      "inputs": [
        {
          "internalType": "uint256",
          "name": "vaultId",
          "type": "uint256"
        }
      ],
      "name": "claimPayoutForVault",
      "outputs": [],
      "stateMutability": "nonpayable",
      "type": "function"
    },
    {
      "inputs": [],
      "name": "coverCount",
      "outputs": [
        {
          "internalType": "uint256",
          "name": "",
          "type": "uint256"
        }
      ],
      "stateMutability": "view",
      "type": "function"
    },
    {
      "inputs": [
        {
          "internalType": "uint256",
          "name": "",
          "type": "uint256"
        }
      ],
      "name": "coverExists",
      "outputs": [
        {
          "internalType": "bool",
          "name": "",
          "type": "bool"
        }
      ],
      "stateMutability": "view",
      "type": "function"
    },
    {
      "inputs": [],
      "name": "coverFeeBalance",
      "outputs": [
        {
          "internalType": "uint256",
          "name": "",
          "type": "uint256"
        }
      ],
      "stateMutability": "view",
      "type": "function"
    },
    {
      "inputs": [
        {
          "internalType": "uint256",
          "name": "",
          "type": "uint256"
        }
      ],
      "name": "coverIds",
      "outputs": [
        {
          "internalType": "uint256",
          "name": "",
          "type": "uint256"
        }
      ],
      "stateMutability": "view",
      "type": "function"
    },
    {
      "inputs": [
        {
          "internalType": "uint256",
          "name": "",
          "type": "uint256"
        }
      ],
      "name": "covers",
      "outputs": [
        {
          "internalType": "uint256",
          "name": "id",
          "type": "uint256"
        },
        {
          "internalType": "string",
          "name": "coverName",
          "type": "string"
        },
        {
          "internalType": "enum CoverLib.RiskType",
          "name": "riskType",
          "type": "uint8"
        },
        {
          "internalType": "string",
          "name": "chains",
          "type": "string"
        },
        {
          "internalType": "uint256",
          "name": "capacity",
          "type": "uint256"
        },
        {
          "internalType": "uint256",
          "name": "cost",
          "type": "uint256"
        },
        {
          "internalType": "uint256",
          "name": "capacityAmount",
          "type": "uint256"
        },
        {
          "internalType": "uint256",
          "name": "coverValues",
          "type": "uint256"
        },
        {
          "internalType": "uint256",
          "name": "maxAmount",
          "type": "uint256"
        },
        {
          "internalType": "uint256",
          "name": "poolId",
          "type": "uint256"
        },
        {
          "internalType": "string",
          "name": "CID",
          "type": "string"
        },
        {
          "internalType": "enum CoverLib.AssetDepositType",
          "name": "adt",
          "type": "uint8"
        },
        {
          "internalType": "address",
          "name": "asset",
          "type": "address"
        }
      ],
      "stateMutability": "view",
      "type": "function"
    },
    {
      "inputs": [
        {
          "internalType": "uint256",
          "name": "coverId",
          "type": "uint256"
        },
        {
          "internalType": "string",
          "name": "_cid",
          "type": "string"
        },
        {
          "internalType": "enum CoverLib.RiskType",
          "name": "_riskType",
          "type": "uint8"
        },
        {
          "internalType": "string",
          "name": "_coverName",
          "type": "string"
        },
        {
          "internalType": "string",
          "name": "_chains",
          "type": "string"
        },
        {
          "internalType": "uint256",
          "name": "_capacity",
          "type": "uint256"
        },
        {
          "internalType": "uint256",
          "name": "_cost",
          "type": "uint256"
        },
        {
          "internalType": "uint256",
          "name": "_poolId",
          "type": "uint256"
        }
      ],
      "name": "createCover",
      "outputs": [],
      "stateMutability": "nonpayable",
      "type": "function"
    },
    {
      "inputs": [
        {
          "internalType": "address",
          "name": "_user",
          "type": "address"
        }
      ],
      "name": "deleteExpiredUserCovers",
      "outputs": [],
      "stateMutability": "nonpayable",
      "type": "function"
    },
    {
      "inputs": [],
      "name": "getAllAvailableCovers",
      "outputs": [
        {
          "components": [
            {
              "internalType": "uint256",
              "name": "id",
              "type": "uint256"
            },
            {
              "internalType": "string",
              "name": "coverName",
              "type": "string"
            },
            {
              "internalType": "enum CoverLib.RiskType",
              "name": "riskType",
              "type": "uint8"
            },
            {
              "internalType": "string",
              "name": "chains",
              "type": "string"
            },
            {
              "internalType": "uint256",
              "name": "capacity",
              "type": "uint256"
            },
            {
              "internalType": "uint256",
              "name": "cost",
              "type": "uint256"
            },
            {
              "internalType": "uint256",
              "name": "capacityAmount",
              "type": "uint256"
            },
            {
              "internalType": "uint256",
              "name": "coverValues",
              "type": "uint256"
            },
            {
              "internalType": "uint256",
              "name": "maxAmount",
              "type": "uint256"
            },
            {
              "internalType": "uint256",
              "name": "poolId",
              "type": "uint256"
            },
            {
              "internalType": "string",
              "name": "CID",
              "type": "string"
            },
            {
              "internalType": "enum CoverLib.AssetDepositType",
              "name": "adt",
              "type": "uint8"
            },
            {
              "internalType": "address",
              "name": "asset",
              "type": "address"
            }
          ],
          "internalType": "struct CoverLib.Cover[]",
          "name": "",
          "type": "tuple[]"
        }
      ],
      "stateMutability": "view",
      "type": "function"
    },
    {
      "inputs": [],
      "name": "getAllParticipants",
      "outputs": [
        {
          "internalType": "address[]",
          "name": "",
          "type": "address[]"
        }
      ],
      "stateMutability": "view",
      "type": "function"
    },
    {
      "inputs": [
        {
          "internalType": "address",
          "name": "user",
          "type": "address"
        }
      ],
      "name": "getAllUserCovers",
      "outputs": [
        {
          "components": [
            {
              "internalType": "address",
              "name": "user",
              "type": "address"
            },
            {
              "internalType": "uint256",
              "name": "coverId",
              "type": "uint256"
            },
            {
              "internalType": "enum CoverLib.RiskType",
              "name": "riskType",
              "type": "uint8"
            },
            {
              "internalType": "string",
              "name": "coverName",
              "type": "string"
            },
            {
              "internalType": "uint256",
              "name": "coverValue",
              "type": "uint256"
            },
            {
              "internalType": "uint256",
              "name": "claimPaid",
              "type": "uint256"
            },
            {
              "internalType": "uint256",
              "name": "coverPeriod",
              "type": "uint256"
            },
            {
              "internalType": "uint256",
              "name": "endDay",
              "type": "uint256"
            },
            {
              "internalType": "bool",
              "name": "isActive",
              "type": "bool"
            }
          ],
          "internalType": "struct CoverLib.GenericCoverInfo[]",
          "name": "",
          "type": "tuple[]"
        }
      ],
      "stateMutability": "view",
      "type": "function"
    },
    {
      "inputs": [],
      "name": "getCoverFeeBalance",
      "outputs": [
        {
          "internalType": "uint256",
          "name": "",
          "type": "uint256"
        }
      ],
      "stateMutability": "view",
      "type": "function"
    },
    {
      "inputs": [
        {
          "internalType": "uint256",
          "name": "_coverId",
          "type": "uint256"
        }
      ],
      "name": "getCoverInfo",
      "outputs": [
        {
          "components": [
            {
              "internalType": "uint256",
              "name": "id",
              "type": "uint256"
            },
            {
              "internalType": "string",
              "name": "coverName",
              "type": "string"
            },
            {
              "internalType": "enum CoverLib.RiskType",
              "name": "riskType",
              "type": "uint8"
            },
            {
              "internalType": "string",
              "name": "chains",
              "type": "string"
            },
            {
              "internalType": "uint256",
              "name": "capacity",
              "type": "uint256"
            },
            {
              "internalType": "uint256",
              "name": "cost",
              "type": "uint256"
            },
            {
              "internalType": "uint256",
              "name": "capacityAmount",
              "type": "uint256"
            },
            {
              "internalType": "uint256",
              "name": "coverValues",
              "type": "uint256"
            },
            {
              "internalType": "uint256",
              "name": "maxAmount",
              "type": "uint256"
            },
            {
              "internalType": "uint256",
              "name": "poolId",
              "type": "uint256"
            },
            {
              "internalType": "string",
              "name": "CID",
              "type": "string"
            },
            {
              "internalType": "enum CoverLib.AssetDepositType",
              "name": "adt",
              "type": "uint8"
            },
            {
              "internalType": "address",
              "name": "asset",
              "type": "address"
            }
          ],
          "internalType": "struct CoverLib.Cover",
          "name": "",
          "type": "tuple"
        }
      ],
      "stateMutability": "view",
      "type": "function"
    },
    {
      "inputs": [
        {
          "internalType": "address",
          "name": "user",
          "type": "address"
        },
        {
          "internalType": "uint256",
          "name": "_poolId",
          "type": "uint256"
        }
      ],
      "name": "getDepositClaimableDays",
      "outputs": [
        {
          "internalType": "uint256",
          "name": "",
          "type": "uint256"
        }
      ],
      "stateMutability": "view",
      "type": "function"
    },
    {
      "inputs": [
        {
          "internalType": "address",
          "name": "user",
          "type": "address"
        },
        {
          "internalType": "uint256",
          "name": "_poolId",
          "type": "uint256"
        }
      ],
      "name": "getLastClaimTime",
      "outputs": [
        {
          "internalType": "uint256",
          "name": "",
          "type": "uint256"
        }
      ],
      "stateMutability": "view",
      "type": "function"
    },
    {
      "inputs": [
        {
          "internalType": "address",
          "name": "user",
          "type": "address"
        },
        {
          "internalType": "uint256",
          "name": "_coverId",
          "type": "uint256"
        }
      ],
      "name": "getUserCoverInfo",
      "outputs": [
        {
          "components": [
            {
              "internalType": "address",
              "name": "user",
              "type": "address"
            },
            {
              "internalType": "uint256",
              "name": "coverId",
              "type": "uint256"
            },
            {
              "internalType": "enum CoverLib.RiskType",
              "name": "riskType",
              "type": "uint8"
            },
            {
              "internalType": "string",
              "name": "coverName",
              "type": "string"
            },
            {
              "internalType": "uint256",
              "name": "coverValue",
              "type": "uint256"
            },
            {
              "internalType": "uint256",
              "name": "claimPaid",
              "type": "uint256"
            },
            {
              "internalType": "uint256",
              "name": "coverPeriod",
              "type": "uint256"
            },
            {
              "internalType": "uint256",
              "name": "endDay",
              "type": "uint256"
            },
            {
              "internalType": "bool",
              "name": "isActive",
              "type": "bool"
            }
          ],
          "internalType": "struct CoverLib.GenericCoverInfo",
          "name": "",
          "type": "tuple"
        }
      ],
      "stateMutability": "view",
      "type": "function"
    },
    {
      "inputs": [
        {
          "internalType": "address",
          "name": "user",
          "type": "address"
        }
      ],
      "name": "getUserParticipation",
      "outputs": [
        {
          "internalType": "uint256",
          "name": "",
          "type": "uint256"
        }
      ],
      "stateMutability": "view",
      "type": "function"
    },
    {
      "inputs": [],
      "name": "governance",
      "outputs": [
        {
          "internalType": "address",
          "name": "",
          "type": "address"
        }
      ],
      "stateMutability": "view",
      "type": "function"
    },
    {
      "inputs": [],
      "name": "lpAddress",
      "outputs": [
        {
          "internalType": "address",
          "name": "",
          "type": "address"
        }
      ],
      "stateMutability": "view",
      "type": "function"
    },
    {
      "inputs": [],
      "name": "lpContract",
      "outputs": [
        {
          "internalType": "contract ILP",
          "name": "",
          "type": "address"
        }
      ],
      "stateMutability": "view",
      "type": "function"
    },
    {
      "inputs": [],
      "name": "owner",
      "outputs": [
        {
          "internalType": "address",
          "name": "",
          "type": "address"
        }
      ],
      "stateMutability": "view",
      "type": "function"
    },
    {
      "inputs": [
        {
          "internalType": "uint256",
          "name": "",
          "type": "uint256"
        }
      ],
      "name": "participants",
      "outputs": [
        {
          "internalType": "address",
          "name": "",
          "type": "address"
        }
      ],
      "stateMutability": "view",
      "type": "function"
    },
    {
      "inputs": [
        {
          "internalType": "address",
          "name": "",
          "type": "address"
        }
      ],
      "name": "participation",
      "outputs": [
        {
          "internalType": "uint256",
          "name": "",
          "type": "uint256"
        }
      ],
      "stateMutability": "view",
      "type": "function"
    },
    {
      "inputs": [
        {
          "internalType": "uint256",
          "name": "_coverId",
          "type": "uint256"
        },
        {
          "internalType": "uint256",
          "name": "_coverValue",
          "type": "uint256"
        },
        {
          "internalType": "uint256",
          "name": "_coverPeriod",
          "type": "uint256"
        },
        {
          "internalType": "uint256",
          "name": "_coverFee",
          "type": "uint256"
        }
      ],
      "name": "purchaseCover",
      "outputs": [],
      "stateMutability": "payable",
      "type": "function"
    },
    {
      "inputs": [],
      "name": "renounceOwnership",
      "outputs": [],
      "stateMutability": "nonpayable",
      "type": "function"
    },
    {
      "inputs": [
        {
          "internalType": "address",
          "name": "newOwner",
          "type": "address"
        }
      ],
      "name": "transferOwnership",
      "outputs": [],
      "stateMutability": "nonpayable",
      "type": "function"
    },
    {
      "inputs": [
        {
          "internalType": "uint256",
          "name": "_coverId",
          "type": "uint256"
        },
        {
          "internalType": "string",
          "name": "_coverName",
          "type": "string"
        },
        {
          "internalType": "enum CoverLib.RiskType",
          "name": "_riskType",
          "type": "uint8"
        },
        {
          "internalType": "string",
          "name": "_cid",
          "type": "string"
        },
        {
          "internalType": "string",
          "name": "_chains",
          "type": "string"
        },
        {
          "internalType": "uint256",
          "name": "_capacity",
          "type": "uint256"
        },
        {
          "internalType": "uint256",
          "name": "_cost",
          "type": "uint256"
        },
        {
          "internalType": "uint256",
          "name": "_poolId",
          "type": "uint256"
        }
      ],
      "name": "updateCover",
      "outputs": [],
      "stateMutability": "nonpayable",
      "type": "function"
    },
    {
      "inputs": [
        {
          "internalType": "uint256",
          "name": "_coverId",
          "type": "uint256"
        }
      ],
      "name": "updateMaxAmount",
      "outputs": [],
      "stateMutability": "nonpayable",
      "type": "function"
    },
    {
      "inputs": [
        {
          "internalType": "address",
          "name": "user",
          "type": "address"
        },
        {
          "internalType": "uint256",
          "name": "_coverId",
          "type": "uint256"
        },
        {
          "internalType": "uint256",
          "name": "_claimPaid",
          "type": "uint256"
        }
      ],
      "name": "updateUserCoverValue",
      "outputs": [],
      "stateMutability": "nonpayable",
      "type": "function"
    },
    {
      "inputs": [
        {
          "internalType": "address",
          "name": "",
          "type": "address"
        },
        {
          "internalType": "uint256",
          "name": "",
          "type": "uint256"
        }
      ],
      "name": "userCovers",
      "outputs": [
        {
          "internalType": "address",
          "name": "user",
          "type": "address"
        },
        {
          "internalType": "uint256",
          "name": "coverId",
          "type": "uint256"
        },
        {
          "internalType": "enum CoverLib.RiskType",
          "name": "riskType",
          "type": "uint8"
        },
        {
          "internalType": "string",
          "name": "coverName",
          "type": "string"
        },
        {
          "internalType": "uint256",
          "name": "coverValue",
          "type": "uint256"
        },
        {
          "internalType": "uint256",
          "name": "claimPaid",
          "type": "uint256"
        },
        {
          "internalType": "uint256",
          "name": "coverPeriod",
          "type": "uint256"
        },
        {
          "internalType": "uint256",
          "name": "endDay",
          "type": "uint256"
        },
        {
          "internalType": "bool",
          "name": "isActive",
          "type": "bool"
        }
      ],
      "stateMutability": "view",
      "type": "function"
    },
    {
      "inputs": [],
      "name": "vaultAddress",
      "outputs": [
        {
          "internalType": "address",
          "name": "",
          "type": "address"
        }
      ],
      "stateMutability": "view",
      "type": "function"
    },
    {
      "inputs": [],
      "name": "vaultContract",
      "outputs": [
        {
          "internalType": "contract IVault",
          "name": "",
          "type": "address"
        }
      ],
      "stateMutability": "view",
      "type": "function"
    }
  ],
  "bytecode": "0x60803461016957601f613e8538819003918201601f19168301916001600160401b0383118484101761016e5780849260a0946040528339810103126101695761004781610184565b9061005460208201610184565b9061006160408201610184565b9161007a608061007360608501610184565b9301610184565b60016000556001600160a01b0390931693841561015357600180546001600160a01b03198116871790915560405195906001600160a01b03167f8be0079c531659141344cd1fd0a4f28419497f9722a3daafe3b4186f6b6457e0600080a3600380546001600160a01b039283166001600160a01b0319918216811790925560058054948416948216851790556009805482169094179093556007805484169091179055600480549382169383168417905560068054831690931790925560088054939092169216919091179055613cec90816101998239f35b631e4fbdf760e01b600052600060045260246000fd5b600080fd5b634e487b7160e01b600052604160045260246000fd5b51906001600160a01b03821682036101695756fe608080604052600436101561001357600080fd5b600090813560e01c9081630db981a0146130ec57508063105258141461190a578063106b5da114612fa5578063195ec9ee14612edd5780632083d5f014612a2b5780632274346b14612a025780632d8a340c1461262357806334808ec3146125fa578063357917b714611fac57806335c1d349146125b6578063430bf08a1461258d57806346f8479514610dde5780635aa6e67514612564578063602710a414611fca578063609c760414611fac57806362858bfa14611e925780636299df6c14611d4a578063649718b214611b1b578063715018a614611abe57806373cce3ee1461197c578063782ea6191461194d5780637a728e7f1461190a5780637ceb4a69146118725780638acee3cf146118495780638da5cb5b146118205780638de4d1011461106a57806393b1ad3814610e1757806396f3a8ad14610dde5780639732bdb5146105f5578063996b8a6f146105cc5780639b4dc8cc146105a35780639e7b399e146104c5578063bfc664f314610387578063cadcb4711461029b578063f2fde38b14610212578063fb643583146101d85763feb0b8f5146101b857600080fd5b346101d557806003193601126101d5576020601154604051908152f35b80fd5b50346101d55760203660031901126101d557600435906012548210156101d557602061020383613178565b90549060031b1c604051908152f35b50346101d55760203660031901126101d55761022c61312c565b610234613c8d565b6001600160a01b0316801561028757600180546001600160a01b0319811683179091556001600160a01b03167f8be0079c531659141344cd1fd0a4f28419497f9722a3daafe3b4186f6b6457e08380a380f35b631e4fbdf760e01b82526004829052602482fd5b50346101d55760403660031901126101d5576040610383916102bb61312c565b6102c3613a5c565b5060018060a01b03168152600f60205281812060243582526020522060ff6008604051926102f0846133c0565b80546001600160a01b031684526001810154602085015260028101548316610317816131db565b604085015260405161033781610330816003860161330b565b03826133f8565b606085015260048101546080850152600581015460a0850152600681015460c0850152600781015460e08501520154161515610100820152604051918291602083526020830190613419565b0390f35b50346101d55760203660031901126101d5576103a161312c565b6103a9613c6b565b6001600160a01b031660015b6012548110156104bd57806103cb600192613178565b90549060031b1c838552600f6020526040852081865260205260408520600881019081549060ff821690816104af575b5061040a575b505050016103b5565b60ff19169055838552600f60205260408520908552602052836008604082208281558285820155826002820155826003820161044681546132d1565b8061046f575b505060048201558260058201558260068201558260078201550155388080610401565b601f811188146104845750555b82388061044c565b8183526020832061049f91601f0160051c81019089016139c8565b808252816020812091555561047c565b6007915001544211386103fb565b826001815580f35b50346101d55760403660031901126101d5576040906001600160a01b036104ea61312c565b168152600f60205281812060243582526020522060018060a01b0381541660018201549160ff600282015416604051916105328361052b816003850161330b565b03846133f8565b600481015492600582015461058260068401549260ff600860078701549601541695604051998a998a5260208a015261056a816131db565b604089015261012060608901526101208801906131b6565b94608087015260a086015260c085015260e084015215156101008301520390f35b50346101d557806003193601126101d5576007546040516001600160a01b039091168152602090f35b50346101d557806003193601126101d5576006546040516001600160a01b039091168152602090f35b50346101d557602490610607366134fa565b909161061899959399979497613c8d565b60018060a01b036003541699898b604051988980926307eb111f60e41b82528760048301525afa968715610dd3578a97610daf575b5096996020890197908a5b88518110156106de57602061066d828b613883565b51015160405161069e6020828161068d8183019687815193849201613193565b81010301601f1981018352826133f8565b5190208a8c6106bf6020604051809361068d83830196879251928391613193565b519020146106cf57600101610658565b633480a50360e21b8c5260048cfd5b508a9850899697508b6040519163068bcd8d60e01b83528560048401528a83602481845afa928315610da4578b93610d80575b50876060840151610721816131db565b61072a826131db565b610733816131db565b14801590610d72575b610d635760646107508660c0860151613790565b049161020060018060a01b036101e086015116940151916002831015610d4f57808d913b15610d4b5781809160448b604051948593849263a4948d8560e01b845260048401528d60248401525af18015610ae357610d32575b505061081e926107ba601154613a4d565b601155604051986107ca8a6133dc565b8c8a5260208a01978c895260408b01976107e38d6131db565b8c895260608c015260808b015260a08a01528060c08a01528c60e08a0152610100890152866101208901526101408801526101608701613a41565b6101808501528688526010602052604088209184518355518051906001600160401b038211610bc35761085460018501546132d1565b601f8111610cff575b50602090601f8311600114610c92579180610893926108ac95948d92610b16575b50508160011b916000199060031b1c19161790565b60018401555b516108a3816131db565b600283016139b0565b60608301518051906001600160401b038211610c7e576108cf60038401546132d1565b601f8111610c4b575b50602090601f8311600114610be25761090892918a9183610bd75750508160011b916000199060031b1c19161790565b60038201555b6080830151600482015560a0830151600582015560c0830151600682015560e0830151600782015561010083015160088201556101208301516009820155600a81016101408401518051906001600160401b038211610bc35761097183546132d1565b601f8111610b88575b50602090601f8311600114610b215791806109af92600b9695948d92610b165750508160011b916000199060031b1c19161790565b90555b016101608301516002811015610b0257815460ff610100600160a81b0361018087015160081b169216906affffffffffffffffffffff60a81b1617179055601254600160401b811015610aee5790610a1282600189959401601255613178565b8154600391821b89811b60001990911b1990911617909155546001600160a01b031691823b15610adf57610a6c92849283604051809681958294630922950f60e31b84526004840152604060248401526044830190613208565b03925af18015610ae357610aca575b5091837f5928d65cc6ae9f07a7673f1a5a2f98d81f1bb0c2bc53bcaa33d6f11cf426f25e9352600c60205260408520600160ff19825416179055610ac460405192839283613c46565b0390a280f35b81610ad4916133f8565b610adf578385610a7b565b8380fd5b6040513d84823e3d90fd5b634e487b7160e01b87526041600452602487fd5b634e487b7160e01b88526021600452602488fd5b015190508c8061087e565b838b52818b209190601f1984168c5b818110610b705750916001939185600b9897969410610b57575b505050811b0190556109b2565b015160001960f88460031b161c191690558b8080610b4a565b92936020600181928786015181550195019301610b30565b610bb390848c5260208c20601f850160051c81019160208610610bb9575b601f0160051c01906139c8565b8a61097a565b9091508190610ba6565b634e487b7160e01b8a52604160045260248afd5b015190508a8061087e565b600384018a52818a209190601f1984168b5b818110610c335750908460019594939210610c1a575b505050811b01600382015561090e565b015160001960f88460031b161c19169055898080610c0a565b92936020600181928786015181550195019301610bf4565b610c7890600385018b5260208b20601f850160051c81019160208610610bb957601f0160051c01906139c8565b896108d8565b634e487b7160e01b89526041600452602489fd5b600185018b52818b209190601f1984168c5b818110610ce757509160019391856108ac97969410610cce575b505050811b016001840155610899565b015160001960f88460031b161c191690558b8080610cbe565b92936020600181928786015181550195019301610ca4565b610d2c90600186018c5260208c20601f850160051c81019160208610610bb957601f0160051c01906139c8565b8a61085d565b81610d3c916133f8565b610d47578b8d6107a9565b8b80fd5b5080fd5b634e487b7160e01b8d52602160045260248dfd5b6369e489f560e11b8b5260048bfd5b50610180830151851161073c565b610d9d9193503d808d833e610d9581836133f8565b81019061376b565b918b610711565b6040513d8d823e3d90fd5b610dcc9197503d808c833e610dc481836133f8565b810190613aa0565b953861064d565b6040513d8c823e3d90fd5b50346101d55760203660031901126101d5576020906040906001600160a01b03610e0661312c565b168152600b83522054604051908152f35b50346101d557806003193601126101d5578081601254905b81811061102a5750610e40826137c6565b91610e4e60405193846133f8565b808352610e5d601f19916137c6565b01835b81811061101357505082835b828110610eda5783856040519182916020830160208452825180915260408401602060408360051b870101940192905b828210610eab57505050500390f35b91936001919395506020610eca8192603f198a82030186528851613208565b9601920192018594939192610e9c565b610ee381613178565b90549060031b1c808652600c60205260ff604087205416610f08575b50600101610e6c565b6001919261100c918752601060205260408720600b60405191610f2a836133dc565b80548352604051610f4181610330818a860161330b565b602084015260ff600282015416610f57816131db565b6040840152604051610f7081610330816003860161330b565b606084015260048101546080840152600581015460a0840152600681015460c0840152600781015460e084015260088101546101008401526009810154610120840152604051610fc78161033081600a860161330b565b6101408401520154610fe060ff82166101608401613a41565b848060a01b039060081c16610180820152610ffb8288613883565b526110068187613883565b50613a4d565b9190610eff565b60209061101e6139df565b82828701015201610e60565b61103381613178565b90549060031b1c8452600c60205260ff604085205416611056575b600101610e2f565b91611062600191613a4d565b92905061104e565b50346101d557602461107b366134fa565b61108d99979695929891949399613c8d565b60018060a01b036003541699888b6040519485809263068bcd8d60e01b82528660048301525afa9283156118155789936117f9575b508360608401516110d2816131db565b6110db826131db565b6110e4816131db565b148015906117eb575b6117dc578789526010602052606461110d8b60c060408d20960151613790565b04998a6007850154116117cd578960249a9b9c6040519b8c80926307eb111f60e41b82528760048301525afa998a15610da4578b9a6117b1575b50959a6020880196908b5b8b518110156111ec578b8b828c8c602061116c8487613883565b51015160405161118c6020828161068d8183019687815193849201613193565b519020916111ac6020604051809361068d83830196879251928391613193565b5190201492836111d5575b5050506111c657600101611152565b633480a50360e21b8d5260048dfd5b6111e0929350613883565b515114158b828e6111b7565b508b98969997508c60048601549388516001600160401b0381116116f7578b61121860018a01546132d1565b601f811161177e575b505060208c601f83116001146117165761125092918261170b575b508160011b916000199060031b1c19161790565b60018801555b80516001600160401b0381116116f7578b61127460038a01546132d1565b601f81116116c4575b505060208c601f831160011461165b57906112ac93836115aa5750508160011b916000199060031b1c19161790565b60038701555b826004870155600586015589516001600160401b038111610bc357899a6112e1600a889c999a9b9c01546132d1565b601f8111611628575b50602090601f83116001146115b557918061131f9261133c95948b926115aa5750508160011b916000199060031b1c19161790565b600a8701555b8060068701558460098701556007860154906137b9565b60088501558082111561152157611352916137b9565b6003546001600160a01b031690813b1561151d578491604483926040519485938492639fd36b1560e01b845288600485015260248401525af19081156115125784916114f9575b50505b6003546001600160a01b031691823b15610adf5783928392604051948580948193630eb4c14960e11b8352600483015260406024830152805460448301526101a06064830152600b61147c6114266113fb6101e486016001860161330b565b60ff60028601541661140c816131db565b60848701528581036043190160a48701526003850161330b565b600484015460c4860152600584015460e4860152600684015461010486015260078401546101248601526008840154610144860152600984015461016486015284810360431901610184860152600a840161330b565b9101546114906101a4840160ff83166131fb565b60081c6001600160a01b03166101c483015203925af18015610ae3576114e4575b50507f758a67328ba53c1867c0272bbd2ca10d6fe71d37120188c523fe7ae7bdbbe46991610ac460405192839283613c46565b816114ee916133f8565b610adf5783856114b1565b81611503916133f8565b61150e578288611399565b8280fd5b6040513d86823e3d90fd5b8480fd5b808210611530575b505061139c565b9061153e91949293946137b9565b6003546001600160a01b0316803b1561150e5760448392604051948593849263a4948d8560e01b845288600485015260248401525af1801561159f57611589575b9081879392611529565b8661159791979293976133f8565b94908661157f565b6040513d89823e3d90fd5b015190508e8061087e565b90600a8801895280892091895b601f198516811061160d575091839160019361133c9695601f198116106115f4575b505050811b01600a870155611325565b015160001960f88460031b161c191690558d80806115e4565b8183015184558e9a50600190930192602092830192016115c2565b61165590600a89018a5260208a20601f850160051c81019160208610610bb957601f0160051c01906139c8565b8c6112ea565b9192601f19841660038b018452828420935b8181106116ac5750908460019594939210611693575b505050811b0160038701556112b2565b015160001960f88460031b161c191690558d8080611683565b9293602060018192878601518155019501930161166d565b60206116f09260038c01815220601f840160051c81019160208510610bb957601f0160051c01906139c8565b8b8e61127d565b634e487b7160e01b8c52604160045260248cfd5b90508b01518f61123c565b90601f19831660018b018352818320925b8d828210611766575050908360019493921061174d575b5050811b016001880155611256565b8c015160001960f88460031b161c191690558e8061173e565b60018495602093958493015181550194019201611727565b60206117aa9260018c01815220601f840160051c81019160208510610bb957601f0160051c01906139c8565b8b8e611221565b6117c6919a503d808d833e610dc481836133f8565b9838611147565b6369e489f560e11b8a5260048afd5b6369e489f560e11b8952600489fd5b506101808301518a116110ed565b61180e9193503d808b833e610d9581836133f8565b91386110c2565b6040513d8b823e3d90fd5b50346101d557806003193601126101d5576001546040516001600160a01b039091168152602090f35b50346101d557806003193601126101d5576003546040516001600160a01b039091168152602090f35b50346101d55760603660031901126101d55761188c61312c565b602435604435916118a860018060a01b03600854163314613583565b6118b0613c6b565b60018060a01b0316808452600f60205260408420828552602052600460408520016118dc8482546137b9565b90558352600f6020526040832090835260205261190160056040842001918254613897565b90556001815580f35b50346101d55760403660031901126101d5576020906040906001600160a01b0361193261312c565b168152600d8352818120602435825283522054604051908152f35b50346101d55760203660031901126101d55760ff60406020926004358152600c84522054166040519015158152f35b50346101d55760403660031901126101d55761199661312c565b6003546040516374f0645b60e11b815260248035600483018190526001600160a01b0385811692840192909252919391926101409185916044918391165afa928315611512578493611a73575b509183611a4492603c946020965060018060a01b0316808352600d8752604083208284528752604083205415600014611a5957505060c0820151915b60808101514292611a2f826131db565b50611a39816131db565b611a4d575b506137b9565b04604051908152f35b60e09150015138611a3e565b8252600d8652604082209082528552604081205491611a1f565b9092506101403d8111611ab7575b611a8b81836133f8565b8101906101408183031261151d5793611a4492611aad603c95936020976137dd565b94509250936119e3565b503d611a81565b50346101d557806003193601126101d557611ad7613c8d565b600180546001600160a01b0319811690915581906001600160a01b03167f8be0079c531659141344cd1fd0a4f28419497f9722a3daafe3b4186f6b6457e08280a380f35b50346101d55760203660031901126101d557611b3561312c565b60125482916001600160a01b0316825b828110611cff5750611b56836137c6565b92611b6460405194856133f8565b808452611b73601f19916137c6565b01845b818110611ce857505083845b838110611bf05784866040519182916020830160208452825180915260408401602060408360051b870101940192905b828210611bc157505050500390f35b91936001919395506020611be08192603f198a82030186528851613419565b9601920192018594939192611bb2565b611bf981613178565b90549060031b1c838752600f602052604087208188526020526004604088200154611c28575b50600101611b82565b60019192611ce191858952600f602052604089209089526020526040882060ff600860405192611c57846133c0565b868060a01b03815416845286810154602085015282600282015416611c7b816131db565b6040850152604051611c9481610330816003860161330b565b606085015260048101546080850152600581015460a0850152600681015460c0850152600781015460e08501520154161515610100820152611cd68289613883565b526110068188613883565b9190611c1f565b602090611cf3613a5c565b82828801015201611b76565b611d0881613178565b90549060031b1c828652600f602052604086209086526020526004604086200154611d36575b600101611b45565b92611d42600191613a4d565b939050611d2e565b50346101d55760203660031901126101d557600435815260106020526040902080546040519182806001830190611d809161330b565b03611d8b90846133f8565b600281015460ff169060405180806003840190611da79161330b565b03611db290826133f8565b60048201549060058301546006840154600785015490600886015492600987015494604051978880600a830190611de89161330b565b03611df3908a6133f8565b600b0154986040519b8c9b8c5260208c016101a090526101a08c01611e17916131b6565b90611e21816131db565b60408c01528a810360608c0152611e37916131b6565b9560808a015260a089015260c088015260e0870152610100860152610120850152838103610140850152611e6a916131b6565b90611e7c610160840160ff83166131fb565b60081c6001600160a01b03166101808301520390f35b50346101d55760203660031901126101d557604061038391611eb26139df565b506004358152601060205220600b60405191611ecd836133dc565b80548352604051611ee581610330816001860161330b565b602084015260ff600282015416611efb816131db565b6040840152604051611f1481610330816003860161330b565b606084015260048101546080840152600581015460a0840152600681015460c0840152600781015460e084015260088101546101008401526009810154610120840152604051611f6b8161033081600a860161330b565b6101408401520154611f8460ff82166101608401613a41565b60081c6001600160a01b03166101808201526040516020808252909283929091830190613208565b50346101d557806003193601126101d5576020600254604051908152f35b5060803660031901126101d557604435600435611fe5613c6b565b601b8211801590612558575b61254957808352600c60205260ff6040842054161561253a57808352601060205260408320916008830180546024351161252b57600784016120366024358254613897565b600686018054821161251c57600b870160ff8154166002811015612508578991906001036124a057546040516323b872dd60e01b81523360048201523060248201526064803560448301529092602092849291839160081c6001600160a01b03165af1908115611815578991612457575b506120c2936120b6849261396c565b5554611a3e82826137b9565b9055338452600f602052604084208285526020526004604085200154156000146124485760ff600284015416906201518081028181046201518014821517156124345761210f9042613897565b6040519361211c856133c0565b33855260208501938185526040860190612135816131db565b81526121cc6040519161214f8361052b8160018d0161330b565b606088019283526080880193602435855260a08901958b875260c08a0197885260e08a015260016101008a0152338b52600f60205260408b20908b5260205260408a209660018060a01b038951166bffffffffffffffffffffffff60a01b895416178855516001880155516121c3816131db565b600287016139b0565b518051906001600160401b038211610c7e576121eb60038701546132d1565b601f8111612401575b50602090601f831160011461238c5782610100979593600897959361222e938d926123815750508160011b916000199060031b1c19161790565b60038501555b51600484015551600583015551600682015560e0840151600782015501910151151560ff80198354169116179055818290600a54915b82811061234e575b50156122fc575b50338252600b60205260408220805490600182018092116122e8575560020154604051602435815260643560208201529060ff166122b6816131db565b60408201527f23b0f39e0762759ffb18632a1a2b79c9eb58571454e5f7c36e0a2f81759e0a3460603392a26001815580f35b634e487b7160e01b84526011600452602484fd5b600160401b81101561233a578060016123189201600a55613147565b81546001600160a01b0360039290921b91821b19163390911b17905538612279565b634e487b7160e01b83526041600452602483fd5b61235781613147565b905460039190911b1c6001600160a01b031633146123775760010161226a565b5050600138612272565b01519050388061087e565b90600387018a52808a20918a5b601f19851681106123e9575092600896949260019261010099979583601f198116106123d0575b505050811b016003850155612234565b015160001960f88460031b161c191690553880806123c0565b91926020600181928685015181550194019201612399565b61242e90600388018b5260208b20601f850160051c81019160208610610bb957601f0160051c01906139c8565b386121f4565b634e487b7160e01b86526011600452602486fd5b639857cbd960e01b8452600484fd5b90506020813d602011612498575b81612472602093836133f8565b81010312612494576120c2936120b661248b8593613605565b925050936120a7565b8880fd5b3d9150612465565b505034156124c357816120c2936124bb606435600254613897565b6002556120b6565b60405162461bcd60e51b815260206004820152601a60248201527f436f7665722076616c75652063616e6e6f74206265207a65726f0000000000006044820152606490fd5b634e487b7160e01b8a52602160045260248afd5b63bc6072f160e01b8852600488fd5b63bc6072f160e01b8552600485fd5b63bccd404360e01b8352600483fd5b631f89958960e11b8352600483fd5b5061016e821015611ff1565b50346101d557806003193601126101d5576008546040516001600160a01b039091168152602090f35b50346101d557806003193601126101d5576009546040516001600160a01b039091168152602090f35b50346101d55760203660031901126101d55760043590600a548210156101d55760206125e183613147565b905460405160039290921b1c6001600160a01b03168152f35b50346101d557806003193601126101d5576004546040516001600160a01b039091168152602090f35b50346101d55760203660031901126101d557600435612640613c6b565b6003546040516374f0645b60e11b8152600481018390523360248201526001600160a01b039091169061014081604481855afa9081156115125784916129c8575b50338452600d602052604084208385526020526040842054156000146129a757603c6126cd60c08301515b4260808501516126bb816131db565b6126c4816131db565b61299c576137b9565b0480156129605760606126e1920151613790565b90811561291b57836024916040519283809263068bcd8d60e01b82528760048301525afa908115611512578491612901575b506102008101805160028110156128ed576001036128e2576101e08201516040516370a0823160e01b815230600482015290602090829060249082906001600160a01b03165afa80156128d757869061289f575b61277591505b8411156138a4565b338552600d6020526040852084865260205242604086205551600281101561288b5760010361285d576101e0015160405163a9059cbb60e01b8152336004820152602481018390529060209082906001600160a01b0316818781604481015b03925af18015611512578490612822575b6127ef915061396c565b6040519081527f0408e6e0b73daf4c873106e95fd067260fbff8bf9d1b499cad563d4480d45bac60203392a36001815580f35b506020813d602011612855575b8161283c602093836133f8565b81010312610adf576128506127ef91613605565b6127e5565b3d915061282f565b506128778380808085335af16128716138f0565b50613920565b612883816002546137b9565b6002556127ef565b634e487b7160e01b85526021600452602485fd5b506020813d6020116128cf575b816128b9602093836133f8565b810103126128cb576127759051612767565b8580fd5b3d91506128ac565b6040513d88823e3d90fd5b61277560025461276d565b634e487b7160e01b86526021600452602486fd5b61291591503d8086833e610d9581836133f8565b38612713565b60405162461bcd60e51b815260206004820152601d60248201527f4e6f20636c61696d61626c65207265776172647320666f7220757365720000006044820152606490fd5b60405162461bcd60e51b81526020600482015260146024820152734e6f20636c61696d61626c65207265776172647360601b6044820152606490fd5b5060e08401516137b9565b338452600d60205260408420838552602052603c6126cd60408620546126ac565b90506101403d81116129fb575b6129df81836133f8565b81016101408282031261151d576129f5916137dd565b38612681565b503d6129d5565b50346101d557806003193601126101d5576005546040516001600160a01b039091168152602090f35b50346101d55760203660031901126101d55760043590612a49613c6b565b60055460405163395d7def60e11b8152600481018490523360248201526001600160a01b0390911691908181604481865afa908115610ae3578291612e40575b5081338152600e60205260408120858252602052604081205415600014612e1f57603c612ae860c0612aba85613876565b5101515b426080612aca87613876565b510151612ad6816131db565b612adf816131db565b612e0b576137b9565b049481935b8351851015612b2257612b1a600191612b14896060612b0c8a8a613883565b510151613790565b90613897565b940193612aed565b858115612dce578360249160405192838092632500ed8d60e21b82528760048301525afa908115611512578491612c57575b506101008101805160028110156128ed57600103612c4c576101208201516040516370a0823160e01b815230600482015290602090829060249082906001600160a01b03165afa80156128d7578690612c18575b612bb591508411156138a4565b338552600e6020526040852084865260205242604086205551600281101561288b5760010361285d57610120015160405163a9059cbb60e01b8152336004820152602481018390529060209082906001600160a01b0316818781604481016127d4565b506020813d602011612c44575b81612c32602093836133f8565b810103126128cb57612bb59051612ba8565b3d9150612c25565b612bb560025461276d565b90503d8085833e612c6881836133f8565b81019060208183031261151d578051906001600160401b0382116128cb57016101408183031261151d5760405191612c9f8361338e565b8151835260208201516001600160401b038111612dca5781612cc29184016135c0565b602084015260408201516003811015612dca57604084015260608201516001600160401b038111612dca5782019080601f83011215612dca57815191612d07836137c6565b92612d1560405194856133f8565b80845260208085019160051b83010191838311612dc65760208101915b838310612d9957505050505060608301526080810151608083015260a081015160a083015260c081015160c083015260e081015160e083015261010081015160028110156128cb57610100830152612d8d9061012001613612565b61012082015284612b54565b82516001600160401b038111610d4757602091612dbb87848094870101613626565b815201920191612d32565b8980fd5b8680fd5b60405162461bcd60e51b815260206004820152601560248201527427379031b630b4b6903cb2ba103337b9103ab9b2b960591b6044820152606490fd5b5060e0612e1786613876565b5101516137b9565b338152600e60205260408120858252602052603c612ae86040832054612abe565b90503d8083833e612e5181836133f8565b81019060208183031261150e578051906001600160401b038211610adf570181601f8201121561150e578051612e86816137c6565b92612e9460405194856133f8565b81845260206101408186019302840101928184116128cb57602001915b838310612ec2575050505038612a89565b602061014091612ed284866137dd565b815201920191612eb1565b50346101d557806003193601126101d557604051806020600a5491828152018091600a85527fc65a7bb8d6351c1cf70c95a316cc6a92839c986682d98bc35f958f4883f9d2a890855b818110612f865750505082612f3c9103836133f8565b604051928392602084019060208552518091526040840192915b818110612f64575050500390f35b82516001600160a01b0316845285945060209384019390920191600101612f56565b82546001600160a01b0316845260209093019260019283019201612f26565b50346101d55760203660031901126101d557600435612fcf60018060a01b03600754163314613583565b612fd7613c6b565b808252601060205260408083206003546009820154925163068bcd8d60e01b815260048101939093528490839060249082906001600160a01b03165afa9182156115125784926130cd575b506004015490811561308f5760649160c061303e920151613790565b04818352601060205260066040842001558082526010602052613078600660408420015482845260106020526007604085200154906137b9565b908252601060205260086040832001556001815580f35b60405162461bcd60e51b8152602060048201526016602482015275496e76616c696420636f76657220636170616369747960501b6044820152606490fd5b60049192506130e5903d8087833e610d9581836133f8565b9190613022565b905034610d4b576040366003190112610d4b576020916040906001600160a01b0361311561312c565b168152600e84528181206024358252845220548152f35b600435906001600160a01b038216820361314257565b600080fd5b600a5481101561316257600a60005260206000200190600090565b634e487b7160e01b600052603260045260246000fd5b60125481101561316257601260005260206000200190600090565b60005b8381106131a65750506000910152565b8181015183820152602001613196565b906020916131cf81518092818552858086019101613193565b601f01601f1916010190565b600311156131e557565b634e487b7160e01b600052602160045260246000fd5b9060028210156131e55752565b90815181526101806132aa61325661323160208601516101a060208701526101a08601906131b6565b604086015161323f816131db565b6040860152606086015185820360608701526131b6565b6080850151608085015260a085015160a085015260c085015160c085015260e085015160e08501526101008501516101008501526101208501516101208501526101408501518482036101408601526131b6565b926132bf6101608201516101608501906131fb565b8101516001600160a01b031691015290565b90600182811c92168015613301575b60208310146132eb57565b634e487b7160e01b600052602260045260246000fd5b91607f16916132e0565b6000929181549161331b836132d1565b8083529260018116908115613371575060011461333757505050565b60009081526020812093945091925b838310613357575060209250010190565b600181602092949394548385870101520191019190613346565b915050602093945060ff929192191683830152151560051b010190565b61014081019081106001600160401b038211176133aa57604052565b634e487b7160e01b600052604160045260246000fd5b61012081019081106001600160401b038211176133aa57604052565b6101a081019081106001600160401b038211176133aa57604052565b90601f801991011681019081106001600160401b038211176133aa57604052565b80516001600160a01b03168252602080820151908301526040810151909190613441816131db565b604082015261010080613465606085015161012060608601526101208501906131b6565b936080810151608085015260a081015160a085015260c081015160c085015260e081015160e08501520151151591015290565b6001600160401b0381116133aa57601f01601f191660200190565b81601f82011215613142578035906134ca82613498565b926134d860405194856133f8565b8284526020838301011161314257816000926020809301838601378301015290565b61010060031982011261314257600435916024356001600160401b0381116131425782613529916004016134b3565b91604435600381101561314257916064356001600160401b0381116131425782613555916004016134b3565b91608435906001600160401b03821161314257613574916004016134b3565b9060a4359060c4359060e43590565b1561358a57565b60405162461bcd60e51b815260206004820152600e60248201526d139bdd08185d5d1a1bdc9a5e995960921b6044820152606490fd5b81601f820112156131425780516135d681613498565b926135e460405194856133f8565b81845260208284010111613142576136029160208085019101613193565b90565b5190811515820361314257565b51906001600160a01b038216820361314257565b91909161022081840312613142576040519061022082018281106001600160401b038211176133aa5760405281938151835260208201516001600160401b03811161314257816136779184016135c0565b60208401526040820151906001600160401b0382116131425761369b9183016135c0565b6040830152606081015160038110156131425760608301526080810151608083015260a081015160a083015260c081015160c083015260e081015160e083015261010081015161010083015261012081015161012083015261014081015161014083015261370c6101608201613605565b6101608301526101808101516101808301526101a08101516101a08301526101c08101519060ff8216820361314257610200916101c08401526137526101e08201613612565b6101e08401520151906002821015613142576102000152565b906020828203126131425781516001600160401b038111613142576136029201613626565b818102929181159184041417156137a357565b634e487b7160e01b600052601160045260246000fd5b919082039182116137a357565b6001600160401b0381116133aa5760051b60200190565b919082610140910312613142576040516137f68161338e565b809261380181613612565b825260208101516020830152604081015160408301526060810151606083015260808101519060038210156131425761012091608084015260a081015160a084015260c081015160c084015260e081015160e08401526101008101516101008401520151906002821015613142576101200152565b8051156131625760200190565b80518210156131625760209160051b010190565b919082018092116137a357565b156138ab57565b60405162461bcd60e51b815260206004820152601a60248201527f496e73756666696369656e7420636f7665722062616c616e63650000000000006044820152606490fd5b3d1561391b573d9061390182613498565b9161390f60405193846133f8565b82523d6000602084013e565b606090565b1561392757565b60405162461bcd60e51b815260206004820152601c60248201527f4e6174697665206173736574207472616e73666572206661696c6564000000006044820152606490fd5b1561397357565b60405162461bcd60e51b8152602060048201526015602482015274115490cc8c081d1c985b9cd9995c8819985a5b1959605a1b6044820152606490fd5b906139ba816131db565b60ff80198354169116179055565b8181106139d3575050565b600081556001016139c8565b604051906139ec826133dc565b600061018083828152606060208201528260408201526060808201528260808201528260a08201528260c08201528260e082015282610100820152826101208201526060610140820152826101608201520152565b60028210156131e55752565b60001981146137a35760010190565b60405190613a69826133c0565b6000610100838281528260208201528260408201526060808201528260808201528260a08201528260c08201528260e08201520152565b602081830312613142578051906001600160401b038211613142570181601f8201121561314257805190613ad3826137c6565b92613ae160405194856133f8565b82845260208085019360051b830101918183116131425760208101935b838510613b0d57505050505090565b84516001600160401b038111613142578201906101a0828503601f1901126131425760405190613b3c826133dc565b6020830151825260408301516001600160401b03811161314257856020613b65928601016135c0565b60208301526060830151600381101561314257604083015260808301516001600160401b03811161314257856020613b9f928601016135c0565b606083015260a0830151608083015260c083015160a083015260e083015160c083015261010083015160e08301526101208301516101008301526101408301516101208301526101608301516001600160401b03811161314257856020613c08928601016135c0565b61014083015261018083015191600283101561314257613c356101a0602095869561016085015201613612565b610180820152815201940193613afe565b929190613c5d6020916040865260408601906131b6565b93613c67836131db565b0152565b600260005414613c7c576002600055565b633ee5aeb560e01b60005260046000fd5b6001546001600160a01b03163303613ca157565b63118cdaa760e01b6000523360045260246000fdfea264697066735822122057cb94c9967ac48b8d83d4dfd3cd60c5f4517780998481b8da25912f0469b6f764736f6c634300081c0033",
  "linkReferences": {},
  "deployedLinkReferences": {}
}