{
  "_format": "hh-sol-artifact-1",
  "contractName": "Vaults",
  "sourceName": "contracts/Vaults.sol",
  "abi": [
    {
      "inputs": [
        {
          "internalType": "address",
          "name": "_initialOwner",
          "type": "address"
        }
      ],
      "stateMutability": "nonpayable",
      "type": "constructor"
    },
    {
      "inputs": [
        {
          "internalType": "address",
          "name": "owner",
          "type": "address"
        }
      ],
      "name": "OwnableInvalidOwner",
      "type": "error"
    },
    {
      "inputs": [
        {
          "internalType": "address",
          "name": "account",
          "type": "address"
        }
      ],
      "name": "OwnableUnauthorizedAccount",
      "type": "error"
    },
    {
      "inputs": [],
      "name": "ReentrancyGuardReentrantCall",
      "type": "error"
    },
    {
      "anonymous": false,
      "inputs": [
        {
          "indexed": false,
          "internalType": "uint256",
          "name": "",
          "type": "uint256"
        },
        {
          "indexed": false,
          "internalType": "uint256",
          "name": "",
          "type": "uint256"
        },
        {
          "indexed": false,
          "internalType": "address",
          "name": "",
          "type": "address"
        }
      ],
      "name": "ClaimAttempt",
      "type": "event"
    },
    {
      "anonymous": false,
      "inputs": [
        {
          "indexed": true,
          "internalType": "address",
          "name": "recipient",
          "type": "address"
        },
        {
          "indexed": false,
          "internalType": "string",
          "name": "pool",
          "type": "string"
        },
        {
          "indexed": false,
          "internalType": "uint256",
          "name": "amount",
          "type": "uint256"
        }
      ],
      "name": "ClaimPaid",
      "type": "event"
    },
    {
      "anonymous": false,
      "inputs": [
        {
          "indexed": true,
          "internalType": "address",
          "name": "user",
          "type": "address"
        },
        {
          "indexed": false,
          "internalType": "uint256",
          "name": "amount",
          "type": "uint256"
        },
        {
          "indexed": false,
          "internalType": "string",
          "name": "pool",
          "type": "string"
        }
      ],
      "name": "Deposited",
      "type": "event"
    },
    {
      "anonymous": false,
      "inputs": [
        {
          "indexed": true,
          "internalType": "address",
          "name": "previousOwner",
          "type": "address"
        },
        {
          "indexed": true,
          "internalType": "address",
          "name": "newOwner",
          "type": "address"
        }
      ],
      "name": "OwnershipTransferred",
      "type": "event"
    },
    {
      "anonymous": false,
      "inputs": [
        {
          "indexed": true,
          "internalType": "uint256",
          "name": "id",
          "type": "uint256"
        },
        {
          "indexed": false,
          "internalType": "string",
          "name": "poolName",
          "type": "string"
        }
      ],
      "name": "PoolCreated",
      "type": "event"
    },
    {
      "anonymous": false,
      "inputs": [
        {
          "indexed": true,
          "internalType": "uint256",
          "name": "poolId",
          "type": "uint256"
        },
        {
          "indexed": false,
          "internalType": "uint256",
          "name": "apy",
          "type": "uint256"
        },
        {
          "indexed": false,
          "internalType": "uint256",
          "name": "_minPeriod",
          "type": "uint256"
        }
      ],
      "name": "PoolUpdated",
      "type": "event"
    },
    {
      "anonymous": false,
      "inputs": [
        {
          "indexed": true,
          "internalType": "address",
          "name": "user",
          "type": "address"
        },
        {
          "indexed": false,
          "internalType": "uint256",
          "name": "amount",
          "type": "uint256"
        },
        {
          "indexed": false,
          "internalType": "string",
          "name": "pool",
          "type": "string"
        }
      ],
      "name": "VaultWithdrawalInitiated",
      "type": "event"
    },
    {
      "inputs": [],
      "name": "ICoverContract",
      "outputs": [
        {
          "internalType": "contract ICover",
          "name": "",
          "type": "address"
        }
      ],
      "stateMutability": "view",
      "type": "function"
    },
    {
      "inputs": [],
      "name": "IGovernanceContract",
      "outputs": [
        {
          "internalType": "contract IGov",
          "name": "",
          "type": "address"
        }
      ],
      "stateMutability": "view",
      "type": "function"
    },
    {
      "inputs": [],
      "name": "IPoolContract",
      "outputs": [
        {
          "internalType": "contract IPool",
          "name": "",
          "type": "address"
        }
      ],
      "stateMutability": "view",
      "type": "function"
    },
    {
      "inputs": [],
      "name": "bqBTC",
      "outputs": [
        {
          "internalType": "contract IbqBTC",
          "name": "",
          "type": "address"
        }
      ],
      "stateMutability": "view",
      "type": "function"
    },
    {
      "inputs": [],
      "name": "bqBTCAddress",
      "outputs": [
        {
          "internalType": "address",
          "name": "",
          "type": "address"
        }
      ],
      "stateMutability": "view",
      "type": "function"
    },
    {
      "inputs": [],
      "name": "coverContract",
      "outputs": [
        {
          "internalType": "address",
          "name": "",
          "type": "address"
        }
      ],
      "stateMutability": "view",
      "type": "function"
    },
    {
      "inputs": [
        {
          "internalType": "string",
          "name": "_vaultName",
          "type": "string"
        },
        {
          "internalType": "uint256[]",
          "name": "_poolIds",
          "type": "uint256[]"
        },
        {
          "internalType": "uint256[]",
          "name": "poolPercentageSplit",
          "type": "uint256[]"
        },
        {
          "internalType": "uint256",
          "name": "_minInv",
          "type": "uint256"
        },
        {
          "internalType": "uint256",
          "name": "_maxInv",
          "type": "uint256"
        },
        {
          "internalType": "uint256",
          "name": "_minPeriod",
          "type": "uint256"
        },
        {
          "internalType": "enum CoverLib.AssetDepositType",
          "name": "adt",
          "type": "uint8"
        },
        {
          "internalType": "address",
          "name": "asset",
          "type": "address"
        }
      ],
      "name": "createVault",
      "outputs": [],
      "stateMutability": "nonpayable",
      "type": "function"
    },
    {
      "inputs": [
        {
          "internalType": "address",
          "name": "",
          "type": "address"
        },
        {
          "internalType": "uint256",
          "name": "",
          "type": "uint256"
        },
        {
          "internalType": "enum CoverLib.DepositType",
          "name": "",
          "type": "uint8"
        }
      ],
      "name": "deposits",
      "outputs": [
        {
          "internalType": "address",
          "name": "lp",
          "type": "address"
        },
        {
          "internalType": "uint256",
          "name": "amount",
          "type": "uint256"
        },
        {
          "internalType": "uint256",
          "name": "poolId",
          "type": "uint256"
        },
        {
          "internalType": "uint256",
          "name": "dailyPayout",
          "type": "uint256"
        },
        {
          "internalType": "enum CoverLib.Status",
          "name": "status",
          "type": "uint8"
        },
        {
          "internalType": "uint256",
          "name": "daysLeft",
          "type": "uint256"
        },
        {
          "internalType": "uint256",
          "name": "startDate",
          "type": "uint256"
        },
        {
          "internalType": "uint256",
          "name": "withdrawalInitiated",
          "type": "uint256"
        },
        {
          "internalType": "uint256",
          "name": "accruedPayout",
          "type": "uint256"
        },
        {
          "internalType": "enum CoverLib.DepositType",
          "name": "pdt",
          "type": "uint8"
        }
      ],
      "stateMutability": "view",
      "type": "function"
    },
    {
      "inputs": [
        {
          "internalType": "uint256",
          "name": "vaultId",
          "type": "uint256"
        },
        {
          "internalType": "address",
          "name": "user",
          "type": "address"
        }
      ],
      "name": "getUserVaultDeposit",
      "outputs": [
        {
          "components": [
            {
              "internalType": "address",
              "name": "lp",
              "type": "address"
            },
            {
              "internalType": "uint256",
              "name": "amount",
              "type": "uint256"
            },
            {
              "internalType": "uint256",
              "name": "vaultId",
              "type": "uint256"
            },
            {
              "internalType": "uint256",
              "name": "dailyPayout",
              "type": "uint256"
            },
            {
              "internalType": "enum CoverLib.Status",
              "name": "status",
              "type": "uint8"
            },
            {
              "internalType": "uint256",
              "name": "daysLeft",
              "type": "uint256"
            },
            {
              "internalType": "uint256",
              "name": "startDate",
              "type": "uint256"
            },
            {
              "internalType": "uint256",
              "name": "expiryDate",
              "type": "uint256"
            },
            {
              "internalType": "uint256",
              "name": "withdrawalInitiated",
              "type": "uint256"
            },
            {
              "internalType": "uint256",
              "name": "accruedPayout",
              "type": "uint256"
            },
            {
              "internalType": "enum CoverLib.AssetDepositType",
              "name": "assetType",
              "type": "uint8"
            },
            {
              "internalType": "address",
              "name": "asset",
              "type": "address"
            }
          ],
          "internalType": "struct Vaults.VaultDeposit",
          "name": "",
          "type": "tuple"
        }
      ],
      "stateMutability": "view",
      "type": "function"
    },
    {
      "inputs": [
        {
          "internalType": "uint256",
          "name": "vaultId",
          "type": "uint256"
        },
        {
          "internalType": "address",
          "name": "user",
          "type": "address"
        }
      ],
      "name": "getUserVaultPoolDeposits",
      "outputs": [
        {
          "components": [
            {
              "internalType": "address",
              "name": "lp",
              "type": "address"
            },
            {
              "internalType": "uint256",
              "name": "amount",
              "type": "uint256"
            },
            {
              "internalType": "uint256",
              "name": "poolId",
              "type": "uint256"
            },
            {
              "internalType": "uint256",
              "name": "dailyPayout",
              "type": "uint256"
            },
            {
              "internalType": "enum CoverLib.Status",
              "name": "status",
              "type": "uint8"
            },
            {
              "internalType": "uint256",
              "name": "daysLeft",
              "type": "uint256"
            },
            {
              "internalType": "uint256",
              "name": "startDate",
              "type": "uint256"
            },
            {
              "internalType": "uint256",
              "name": "withdrawalInitiated",
              "type": "uint256"
            },
            {
              "internalType": "uint256",
              "name": "accruedPayout",
              "type": "uint256"
            },
            {
              "internalType": "enum CoverLib.DepositType",
              "name": "pdt",
              "type": "uint8"
            }
          ],
          "internalType": "struct CoverLib.Deposits[]",
          "name": "",
          "type": "tuple[]"
        }
      ],
      "stateMutability": "view",
      "type": "function"
    },
    {
      "inputs": [
        {
          "internalType": "uint256",
          "name": "vaultId",
          "type": "uint256"
        }
      ],
      "name": "getVault",
      "outputs": [
        {
          "components": [
            {
              "internalType": "uint256",
              "name": "id",
              "type": "uint256"
            },
            {
              "internalType": "string",
              "name": "vaultName",
              "type": "string"
            },
            {
              "components": [
                {
                  "internalType": "uint256",
                  "name": "id",
                  "type": "uint256"
                },
                {
                  "internalType": "string",
                  "name": "poolName",
                  "type": "string"
                },
                {
                  "internalType": "string",
                  "name": "rating",
                  "type": "string"
                },
                {
                  "internalType": "enum CoverLib.RiskType",
                  "name": "riskType",
                  "type": "uint8"
                },
                {
                  "internalType": "uint256",
                  "name": "apy",
                  "type": "uint256"
                },
                {
                  "internalType": "uint256",
                  "name": "minPeriod",
                  "type": "uint256"
                },
                {
                  "internalType": "uint256",
                  "name": "totalUnit",
                  "type": "uint256"
                },
                {
                  "internalType": "uint256",
                  "name": "tvl",
                  "type": "uint256"
                },
                {
                  "internalType": "uint256",
                  "name": "baseValue",
                  "type": "uint256"
                },
                {
                  "internalType": "uint256",
                  "name": "coverUnits",
                  "type": "uint256"
                },
                {
                  "internalType": "uint256",
                  "name": "tcp",
                  "type": "uint256"
                },
                {
                  "internalType": "bool",
                  "name": "isActive",
                  "type": "bool"
                },
                {
                  "internalType": "uint256",
                  "name": "percentageSplitBalance",
                  "type": "uint256"
                },
                {
                  "internalType": "uint256",
                  "name": "investmentArmPercent",
                  "type": "uint256"
                },
                {
                  "internalType": "uint8",
                  "name": "leverage",
                  "type": "uint8"
                },
                {
                  "internalType": "address",
                  "name": "asset",
                  "type": "address"
                },
                {
                  "internalType": "enum CoverLib.AssetDepositType",
                  "name": "assetType",
                  "type": "uint8"
                }
              ],
              "internalType": "struct CoverLib.Pool[]",
              "name": "pools",
              "type": "tuple[]"
            },
            {
              "internalType": "uint256",
              "name": "minInv",
              "type": "uint256"
            },
            {
              "internalType": "uint256",
              "name": "maxInv",
              "type": "uint256"
            },
            {
              "internalType": "uint256",
              "name": "minPeriod",
              "type": "uint256"
            },
            {
              "internalType": "enum CoverLib.AssetDepositType",
              "name": "assetType",
              "type": "uint8"
            },
            {
              "internalType": "address",
              "name": "asset",
              "type": "address"
            }
          ],
          "internalType": "struct Vaults.Vault",
          "name": "",
          "type": "tuple"
        }
      ],
      "stateMutability": "view",
      "type": "function"
    },
    {
      "inputs": [
        {
          "internalType": "uint256",
          "name": "vaultId",
          "type": "uint256"
        }
      ],
      "name": "getVaultPools",
      "outputs": [
        {
          "components": [
            {
              "internalType": "uint256",
              "name": "id",
              "type": "uint256"
            },
            {
              "internalType": "string",
              "name": "poolName",
              "type": "string"
            },
            {
              "internalType": "string",
              "name": "rating",
              "type": "string"
            },
            {
              "internalType": "enum CoverLib.RiskType",
              "name": "riskType",
              "type": "uint8"
            },
            {
              "internalType": "uint256",
              "name": "apy",
              "type": "uint256"
            },
            {
              "internalType": "uint256",
              "name": "minPeriod",
              "type": "uint256"
            },
            {
              "internalType": "uint256",
              "name": "totalUnit",
              "type": "uint256"
            },
            {
              "internalType": "uint256",
              "name": "tvl",
              "type": "uint256"
            },
            {
              "internalType": "uint256",
              "name": "baseValue",
              "type": "uint256"
            },
            {
              "internalType": "uint256",
              "name": "coverUnits",
              "type": "uint256"
            },
            {
              "internalType": "uint256",
              "name": "tcp",
              "type": "uint256"
            },
            {
              "internalType": "bool",
              "name": "isActive",
              "type": "bool"
            },
            {
              "internalType": "uint256",
              "name": "percentageSplitBalance",
              "type": "uint256"
            },
            {
              "internalType": "uint256",
              "name": "investmentArmPercent",
              "type": "uint256"
            },
            {
              "internalType": "uint8",
              "name": "leverage",
              "type": "uint8"
            },
            {
              "internalType": "address",
              "name": "asset",
              "type": "address"
            },
            {
              "internalType": "enum CoverLib.AssetDepositType",
              "name": "assetType",
              "type": "uint8"
            }
          ],
          "internalType": "struct CoverLib.Pool[]",
          "name": "",
          "type": "tuple[]"
        }
      ],
      "stateMutability": "view",
      "type": "function"
    },
    {
      "inputs": [],
      "name": "getVaults",
      "outputs": [
        {
          "components": [
            {
              "internalType": "uint256",
              "name": "id",
              "type": "uint256"
            },
            {
              "internalType": "string",
              "name": "vaultName",
              "type": "string"
            },
            {
              "components": [
                {
                  "internalType": "uint256",
                  "name": "id",
                  "type": "uint256"
                },
                {
                  "internalType": "string",
                  "name": "poolName",
                  "type": "string"
                },
                {
                  "internalType": "string",
                  "name": "rating",
                  "type": "string"
                },
                {
                  "internalType": "enum CoverLib.RiskType",
                  "name": "riskType",
                  "type": "uint8"
                },
                {
                  "internalType": "uint256",
                  "name": "apy",
                  "type": "uint256"
                },
                {
                  "internalType": "uint256",
                  "name": "minPeriod",
                  "type": "uint256"
                },
                {
                  "internalType": "uint256",
                  "name": "totalUnit",
                  "type": "uint256"
                },
                {
                  "internalType": "uint256",
                  "name": "tvl",
                  "type": "uint256"
                },
                {
                  "internalType": "uint256",
                  "name": "baseValue",
                  "type": "uint256"
                },
                {
                  "internalType": "uint256",
                  "name": "coverUnits",
                  "type": "uint256"
                },
                {
                  "internalType": "uint256",
                  "name": "tcp",
                  "type": "uint256"
                },
                {
                  "internalType": "bool",
                  "name": "isActive",
                  "type": "bool"
                },
                {
                  "internalType": "uint256",
                  "name": "percentageSplitBalance",
                  "type": "uint256"
                },
                {
                  "internalType": "uint256",
                  "name": "investmentArmPercent",
                  "type": "uint256"
                },
                {
                  "internalType": "uint8",
                  "name": "leverage",
                  "type": "uint8"
                },
                {
                  "internalType": "address",
                  "name": "asset",
                  "type": "address"
                },
                {
                  "internalType": "enum CoverLib.AssetDepositType",
                  "name": "assetType",
                  "type": "uint8"
                }
              ],
              "internalType": "struct CoverLib.Pool[]",
              "name": "pools",
              "type": "tuple[]"
            },
            {
              "internalType": "uint256",
              "name": "minInv",
              "type": "uint256"
            },
            {
              "internalType": "uint256",
              "name": "maxInv",
              "type": "uint256"
            },
            {
              "internalType": "uint256",
              "name": "minPeriod",
              "type": "uint256"
            },
            {
              "internalType": "enum CoverLib.AssetDepositType",
              "name": "assetType",
              "type": "uint8"
            },
            {
              "internalType": "address",
              "name": "asset",
              "type": "address"
            }
          ],
          "internalType": "struct Vaults.Vault[]",
          "name": "",
          "type": "tuple[]"
        }
      ],
      "stateMutability": "view",
      "type": "function"
    },
    {
      "inputs": [],
      "name": "governance",
      "outputs": [
        {
          "internalType": "address",
          "name": "",
          "type": "address"
        }
      ],
      "stateMutability": "view",
      "type": "function"
    },
    {
      "inputs": [],
      "name": "initialOwner",
      "outputs": [
        {
          "internalType": "address",
          "name": "",
          "type": "address"
        }
      ],
      "stateMutability": "view",
      "type": "function"
    },
    {
      "inputs": [
        {
          "internalType": "uint256",
          "name": "_vaultId",
          "type": "uint256"
        }
      ],
      "name": "initialVaultWithdraw",
      "outputs": [],
      "stateMutability": "nonpayable",
      "type": "function"
    },
    {
      "inputs": [],
      "name": "owner",
      "outputs": [
        {
          "internalType": "address",
          "name": "",
          "type": "address"
        }
      ],
      "stateMutability": "view",
      "type": "function"
    },
    {
      "inputs": [
        {
          "internalType": "uint256",
          "name": "",
          "type": "uint256"
        }
      ],
      "name": "participants",
      "outputs": [
        {
          "internalType": "address",
          "name": "",
          "type": "address"
        }
      ],
      "stateMutability": "view",
      "type": "function"
    },
    {
      "inputs": [
        {
          "internalType": "address",
          "name": "",
          "type": "address"
        }
      ],
      "name": "participation",
      "outputs": [
        {
          "internalType": "uint256",
          "name": "",
          "type": "uint256"
        }
      ],
      "stateMutability": "view",
      "type": "function"
    },
    {
      "inputs": [],
      "name": "poolCanister",
      "outputs": [
        {
          "internalType": "address",
          "name": "",
          "type": "address"
        }
      ],
      "stateMutability": "view",
      "type": "function"
    },
    {
      "inputs": [],
      "name": "poolContract",
      "outputs": [
        {
          "internalType": "address",
          "name": "",
          "type": "address"
        }
      ],
      "stateMutability": "view",
      "type": "function"
    },
    {
      "inputs": [],
      "name": "renounceOwnership",
      "outputs": [],
      "stateMutability": "nonpayable",
      "type": "function"
    },
    {
      "inputs": [
        {
          "internalType": "address",
          "name": "_coverContract",
          "type": "address"
        }
      ],
      "name": "setCover",
      "outputs": [],
      "stateMutability": "nonpayable",
      "type": "function"
    },
    {
      "inputs": [
        {
          "internalType": "address",
          "name": "_governance",
          "type": "address"
        }
      ],
      "name": "setGovernance",
      "outputs": [],
      "stateMutability": "nonpayable",
      "type": "function"
    },
    {
      "inputs": [
        {
          "internalType": "address",
          "name": "_poolcontract",
          "type": "address"
        }
      ],
      "name": "setPool",
      "outputs": [],
      "stateMutability": "nonpayable",
      "type": "function"
    },
    {
      "inputs": [
        {
          "internalType": "address",
          "name": "_poolcanister",
          "type": "address"
        }
      ],
      "name": "setPoolCanister",
      "outputs": [],
      "stateMutability": "nonpayable",
      "type": "function"
    },
    {
      "inputs": [
        {
          "internalType": "uint256",
          "name": "vaultId",
          "type": "uint256"
        },
        {
          "internalType": "address",
          "name": "user",
          "type": "address"
        }
      ],
      "name": "setUserVaultDepositToZero",
      "outputs": [],
      "stateMutability": "nonpayable",
      "type": "function"
    },
    {
      "inputs": [
        {
          "internalType": "address",
          "name": "newOwner",
          "type": "address"
        }
      ],
      "name": "transferOwnership",
      "outputs": [],
      "stateMutability": "nonpayable",
      "type": "function"
    },
    {
      "inputs": [
        {
          "internalType": "address",
          "name": "",
          "type": "address"
        },
        {
          "internalType": "uint256",
          "name": "",
          "type": "uint256"
        }
      ],
      "name": "userVaultDeposits",
      "outputs": [
        {
          "internalType": "address",
          "name": "lp",
          "type": "address"
        },
        {
          "internalType": "uint256",
          "name": "amount",
          "type": "uint256"
        },
        {
          "internalType": "uint256",
          "name": "vaultId",
          "type": "uint256"
        },
        {
          "internalType": "uint256",
          "name": "dailyPayout",
          "type": "uint256"
        },
        {
          "internalType": "enum CoverLib.Status",
          "name": "status",
          "type": "uint8"
        },
        {
          "internalType": "uint256",
          "name": "daysLeft",
          "type": "uint256"
        },
        {
          "internalType": "uint256",
          "name": "startDate",
          "type": "uint256"
        },
        {
          "internalType": "uint256",
          "name": "expiryDate",
          "type": "uint256"
        },
        {
          "internalType": "uint256",
          "name": "withdrawalInitiated",
          "type": "uint256"
        },
        {
          "internalType": "uint256",
          "name": "accruedPayout",
          "type": "uint256"
        },
        {
          "internalType": "enum CoverLib.AssetDepositType",
          "name": "assetType",
          "type": "uint8"
        },
        {
          "internalType": "address",
          "name": "asset",
          "type": "address"
        }
      ],
      "stateMutability": "view",
      "type": "function"
    },
    {
      "inputs": [],
      "name": "vaultCount",
      "outputs": [
        {
          "internalType": "uint256",
          "name": "",
          "type": "uint256"
        }
      ],
      "stateMutability": "view",
      "type": "function"
    },
    {
      "inputs": [
        {
          "internalType": "uint256",
          "name": "_vaultId",
          "type": "uint256"
        },
        {
          "internalType": "uint256",
          "name": "_amount",
          "type": "uint256"
        }
      ],
      "name": "vaultDeposit",
      "outputs": [],
      "stateMutability": "payable",
      "type": "function"
    },
    {
      "inputs": [
        {
          "internalType": "uint256",
          "name": "",
          "type": "uint256"
        },
        {
          "internalType": "uint256",
          "name": "",
          "type": "uint256"
        }
      ],
      "name": "vaultPercentageSplits",
      "outputs": [
        {
          "internalType": "uint256",
          "name": "",
          "type": "uint256"
        }
      ],
      "stateMutability": "view",
      "type": "function"
    },
    {
      "inputs": [
        {
          "internalType": "uint256",
          "name": "",
          "type": "uint256"
        }
      ],
      "name": "vaults",
      "outputs": [
        {
          "internalType": "uint256",
          "name": "id",
          "type": "uint256"
        },
        {
          "internalType": "string",
          "name": "vaultName",
          "type": "string"
        },
        {
          "internalType": "uint256",
          "name": "minInv",
          "type": "uint256"
        },
        {
          "internalType": "uint256",
          "name": "maxInv",
          "type": "uint256"
        },
        {
          "internalType": "uint256",
          "name": "minPeriod",
          "type": "uint256"
        },
        {
          "internalType": "enum CoverLib.AssetDepositType",
          "name": "assetType",
          "type": "uint8"
        },
        {
          "internalType": "address",
          "name": "asset",
          "type": "address"
        }
      ],
      "stateMutability": "view",
      "type": "function"
    }
  ],
  "bytecode": "0x60803460d657601f612bf838819003918201601f19168301916001600160401b0383118484101760db5780849260209460405283398101031260d657516001600160a01b0381169081900360d6576001600055801560c057600180546001600160a01b031981168317909155604051919081906001600160a01b03167f8be0079c531659141344cd1fd0a4f28419497f9722a3daafe3b4186f6b6457e0600080a3601080546001600160a01b031916919091179055612b0690816100f28239f35b631e4fbdf760e01b600052600060045260246000fd5b600080fd5b634e487b7160e01b600052604160045260246000fdfe6080604052600436101561001257600080fd5b60003560e01c80631690927d146122875780631bec14a1146122545780631f8be73c1461218e578063248a75b71461216557806329ba7bb21461213c57806334808ec31461211357806335c1d349146120b85780634437152a14611fdc57806344d00f8214611ec25780635765648614611cf05780635aa6e67514611cc75780635f267c5514611c9e57806360ebd71814611c5b578063715018a614611bfe57806372bafbde1461197f5780637c366cc6146118a257806388d52ef7146118795780638c64ea4a146117df5780638da5cb5b146117b65780639403b6341461176957806396f3a8ad1461172f578063996b8a6f14611706578063a69ddee61461161d578063a7c6a100146115ff578063ab033ea914611510578063b30703cd146114e7578063b38375e9146113fc578063b5d90c28146113d3578063c59ecad814610ef2578063d000626514610cc8578063f2fde38b14610c3e578063f339624b146101b55763f6e805581461018757600080fd5b346101b05760003660031901126101b0576008546040516001600160a01b039091168152602090f35b600080fd5b346101b0576101003660031901126101b0576004356001600160401b0381116101b057366023820112156101b05780600401356101f181612750565b916101ff604051938461268b565b81835236602483830101116101b0578160009260246020930183860137830101526024356001600160401b0381116101b05761023f903690600401612782565b6044356001600160401b0381116101b05761025e903690600401612782565b9060a4359260c4359360028510156101b05760e4356001600160a01b0381168082036101b05761028c612a65565b8451865103610bed5761029e876123a0565b8615908115610be3575b5015610b9e576006549260018401809411610b885783600655836000526003602052604060002093845560018401908051906001600160401b03821161071a576102f283546125e1565b601f8111610b40575b50602090601f8311600114610ad1576103759493929160009183610ac6575b50508160011b916000199060031b1c19161790559491945b60643560038501556084356004850155600684016103508882612a1f565b8054610100600160a81b03191660089290921b610100600160a81b0316919091179055565b60009161016d9360009260028301935b82518110156109d8576009546001600160a01b03169560006103a7838661281e565b516024604051809a819363068bcd8d60e01b835260048301525afa9687156109cc5760009761084e575b506102008701908a82516103e4816123a0565b6103ed826123a0565b6103f6816123a0565b036108095761041090610409848661281e565b51906129fa565b9661041b838561281e565b51865460005260026020526040600020610435858861281e565b5160005260205260406000205586546801000000000000000081101561071a57600181018089558110156107f35787600052600f602060002091020191815183556001830160208301518051906001600160401b03821161071a57819061049c84546125e1565b601f81116107a0575b50602090601f831160011461073b57600092610730575b50508160011b916000199060031b1c19161790555b6002830160408301518051906001600160401b03821161071a5781906104f784546125e1565b601f81116106c7575b50602090601f831160011461066257600092610657575b50508160011b916000199060031b1c19161790555b60038301606083015161053e816123c0565b610547816123c0565b815460ff91821660ff19918216179092556080840151600486015560a084018051600587015560c0850151600687015560e085015160078701556101008501516008808801919091556101208601516009880155610140860151600a880155610160860151600b8801805491151585169190951617909355610180850151600c8701556101a0850151600d8701556101c0850151600e90960180546101e0909601516001600160a81b031990961696909216959095179390911b610100600160a81b03169290921782555161061b816123a0565b610624816123a0565b815460ff60a81b191660a89190911b60ff60a81b161790555187811061064e575b50600101610385565b96506001610645565b015190508f80610517565b60008581528281209350601f198516905b8181106106af5750908460019594939210610696575b505050811b01905561052c565b015160001960f88460031b161c191690558f8080610689565b92936020600181928786015181550195019301610673565b909150836000526020600020601f840160051c81019160208510610710575b90601f859493920160051c01905b8181106107015750610500565b600081558493506001016106f4565b90915081906106e6565b634e487b7160e01b600052604160045260246000fd5b015190508f806104bc565b60008581528281209350601f198516905b818110610788575090846001959493921061076f575b505050811b0190556104d1565b015160001960f88460031b161c191690558f8080610762565b9293602060018192878601518155019501930161074c565b909150836000526020600020601f840160051c810191602085106107e9575b90601f859493920160051c01905b8181106107da57506104a5565b600081558493506001016107cd565b90915081906107bf565b634e487b7160e01b600052603260045260246000fd5b60405162461bcd60e51b815260206004820152601f60248201527f496e636f6d70617469626c65206173736574207479706520696e20706f6f6c006044820152606490fd5b90963d8082843e61085f818461268b565b8201916020818403126109c8578051906001600160401b0382116109c05701610220818403126109c8576040519261089684612653565b8151845260208201516001600160401b0381116109c457816108b9918401612a8e565b602085015260408201516001600160401b0381116109c457906108dd918301612a8e565b6040840152606081015160038110156109c05760608401526080810151608084015260a081015160a084015260c081015160c084015260e081015160e084015261010081015161010084015261012081015161012084015261014081015161014084015261016081015180151581036109c0576101608401526101808101516101808401526101a08101516101a08401526101c081015160ff811681036109c0576101c08401526101e08101516001600160a01b03811681036109c0576101e084015261020001519060028210156109bd5750610200820152958a6103d1565b80fd5b8280fd5b8380fd5b5080fd5b6040513d6000823e3d90fd5b838689898110610a355760056064930155036109f057005b60405162461bcd60e51b815260206004820152601b60248201527f546f74616c2073706c6974206d75737420657175616c203130302500000000006044820152606490fd5b60405162461bcd60e51b815260206004820152606060248201527f4d696e696d756e20706572696f64206d7573742062652067726561746572207460448201527f68616e206f7220657175616c20746f20746865206d696e696d756d207065726960648201527f6f64206f6620616c6c20706f6f6c732077697468696e20746865207661756c74608482015260a490fd5b015190508a8061031a565b90601f1983169184600052816000209260005b818110610b2857509160019391856103759897969410610b0f575b505050811b019055949194610332565b015160001960f88460031b161c191690558a8080610aff565b92936020600181928786015181550195019301610ae4565b836000526020600020601f840160051c81019160208510610b7e575b601f0160051c01905b818110610b7257506102fb565b60008155600101610b65565b9091508190610b5c565b634e487b7160e01b600052601160045260246000fd5b60405162461bcd60e51b815260206004820152601e60248201527f496e76616c696420617373657420666f72206465706f736974207479706500006044820152606490fd5b90501515876102a8565b60405162461bcd60e51b815260206004820152602360248201527f4d69736d61746368656420706f6f6c2049447320616e642070657263656e746160448201526267657360e81b6064820152608490fd5b346101b05760203660031901126101b057610c57612374565b610c5f612a65565b6001600160a01b03168015610cb257600180546001600160a01b0319811683179091556001600160a01b03167f8be0079c531659141344cd1fd0a4f28419497f9722a3daafe3b4186f6b6457e0600080a3005b631e4fbdf760e01b600052600060045260246000fd5b346101b05760203660031901126101b057600435610ce4612a43565b33600052600560205260406000208160005260205260406000209060018201805415610ea357600483019160ff835416610d1d816123c0565b610e665760078401544210610e21576000526003602052610d41604060002061296b565b9060009360408301945b85518051821015610dcb5781610d609161281e565b51516009546001600160a01b03169190823b156101b057600092606484926040519586938492630380dd7f60e61b84523360048501526024840152600160448401525af19182156109cc57600192610dba575b5001610d4b565b6000610dc59161268b565b87610db3565b855460ff191660021786554260088401558354602086015160405133927f5cc6e6e6e1779c899a2e4c7a7eabc92a9be18b1efbd37971bb8fcfba46ec24d9928291610e17919083612a29565b0390a26001600055005b60405162461bcd60e51b815260206004820152601c60248201527f4465706f73697420706572696f6420686173206e6f7420656e646564000000006044820152606490fd5b60405162461bcd60e51b81526020600482015260156024820152744465706f736974206973206e6f742061637469766560581b6044820152606490fd5b60405162461bcd60e51b815260206004820152602160248201527f4e6f206465706f73697420666f756e6420666f722074686973206164647265736044820152607360f81b6064820152608490fd5b610efb366123ca565b90610f04612a43565b806000526003602052610f1a604060002061296b565b906040820180515115611398576000908460e0850160c0860184805b855180518310156111e85782610f4b9161281e565b5151908860005260026020526040600020826000526020526064610f8181610f79604060002054998a6129e7565b0497346129e7565b04845190610f8e826123a0565b60018060a01b038751169060405160c08101918183106001600160401b0384111761071a5760409460c493865233835260208301948886528684019c8d526060840191600183526080850190610fe3816123a0565b815260a0850191825260095488516305cf023360e21b815295516001600160a01b039081166004880152975160248701529d5160448601529151939c8d96879591169290611030816123a0565b60648601525161103f816123a0565b6084850152516001600160a01b031660a48401525af19081156109cc5760009687926111a3575b50816110828861107c60019796956009956129fa565b9b6129fa565b9760a0611090868c5161281e565b510151604051926110a084612637565b33845260208401928352604084019186835260608501918252611161608086016000815260a0870192835260c087019342855260e088019560008752610100890197600089526101208a019b8e8d5233600052600460205260406000209060005260205260406000208e6000526020526040600020998e8060a01b03908f8060a01b03905116166bffffffffffffffffffffffff60a01b8b5416178a55518d8a015551600289015551600388015551611158816123c0565b60048701612a07565b516005850155516006840155516007830155516008820155019051611185816123a0565b61118e816123a0565b60ff8019835416911617905501889395610f36565b915091929394956040823d82116111e0575b816111c26040938361268b565b810103126109bd575080516020909101519095949392916009611066565b3d91506111b5565b858a8684878d8d60a086015192620151808402848104620151801485151715610b885761121590426129fa565b905195611221876123a0565b516040516001600160a01b0390911695909461123c8661261b565b3386526020860193845260408601918583526060870190815260808701906000825260a0880192835260c088019342855260e08901958652610100890196600088526101208a019860008a526101408b019c611297816123a0565b8d526101608b019b8c523360009081526005602090815260408083209383529290522099518a546001600160a01b0319166001600160a01b0391909116178a555160018a0155516002890155516003880155516112f3816123c0565b6113009060048801612a07565b516005860155516006850155516007840155516008830155516009820155600a01915161132c816123a0565b6113369083612a1f565b518154610100600160a81b03191660089190911b610100600160a81b031617905560200151906040518091339361136d9183612a29565b037f6f85d9948d6ca3dd6ce6ce7d175da22b4e865827ae6fcd530ec7edac1240f92891a26001600055005b60405162461bcd60e51b81526020600482015260136024820152725661756c74206973206e6f742061637469766560681b6044820152606490fd5b346101b05760003660031901126101b057600a546040516001600160a01b039091168152602090f35b346101b05760403660031901126101b0576001600160a01b0361141d612374565b1660005260056020526040600020602435600052602052610180604060002060018060a01b03815416906001810154600282015491600381015460ff6004830154166005830154600684015490600785015492600886015494600a60098801549701549860ff8a16986040519b8c5260208c015260408b015260608a01526114a4816123c0565b608089015260a088015260c087015260e08601526101008501526101208401526114cd816123a0565b61014083015260081c6001600160a01b0316610160820152f35b346101b05760003660031901126101b0576009546040516001600160a01b039091168152602090f35b346101b05760203660031901126101b057611529612374565b611531612a65565b600754906001600160a01b0382166115c1576001600160a01b0316908115611572576001600160a01b03199081168217600755600a80549091169091179055005b60405162461bcd60e51b815260206004820152602160248201527f476f7665726e616e636520616464726573732063616e6e6f74206265207a65726044820152606f60f81b6064820152608490fd5b60405162461bcd60e51b815260206004820152601660248201527511dbdd995c9b985b98d948185b1c9958591e481cd95d60521b6044820152606490fd5b346101b05760003660031901126101b0576020600654604051908152f35b346101b05760203660031901126101b057611636612374565b61163e612a65565b600d54906001600160a01b0382166116c1576001600160a01b0316908115611670576001600160a01b03191617600d55005b60405162461bcd60e51b8152602060048201526024808201527f506f6f6c2043616e697374657220616464726573732063616e6e6f74206265206044820152637a65726f60e01b6064820152608490fd5b60405162461bcd60e51b815260206004820152601960248201527f506f6f6c2043616e697374657220616c726561647920736574000000000000006044820152606490fd5b346101b05760003660031901126101b057600e546040516001600160a01b039091168152602090f35b346101b05760203660031901126101b0576001600160a01b03611750612374565b1660005260126020526020604060002054604051908152f35b346101b05760203660031901126101b0576117826127df565b5060043560005260036020526117b261179e604060002061296b565b604051918291602083526020830190612566565b0390f35b346101b05760003660031901126101b0576001546040516001600160a01b039091168152602090f35b346101b05760203660031901126101b05760043560005260036020526040600020805461180e600183016126ac565b916003810154906004810154600660058301549201549160ff831691611846604051978897885260e0602089015260e0880190612403565b9460408701526060860152608085015261185f816123a0565b60a084015260081c6001600160a01b031660c08301520390f35b346101b05760003660031901126101b057600c546040516001600160a01b039091168152602090f35b346101b05760203660031901126101b0576118bb612374565b6118c3612a65565b600f54906001600160a01b038216611946576001600160a01b031690811561190157600880546001600160a01b031990811684179091551617600f55005b60405162461bcd60e51b815260206004820152601c60248201527f436f76657220616464726573732063616e6e6f74206265207a65726f000000006044820152606490fd5b60405162461bcd60e51b815260206004820152601160248201527010dbdd995c88185b1c9958591e481cd95d607a1b6044820152606490fd5b346101b05760403660031901126101b05761199861238a565b600435600052600360205260406119b18160002061296b565b0190815151916119c08361276b565b926119ce604051948561268b565b8084526119dd601f199161276b565b0160005b818110611b9f575090916001600160a01b0316905060005b8251908151811015611ade57611a118160019361281e565b5151836000526004602052604060002090600052602052604060002082600052602052604060002060ff600960405192611a4a84612637565b858060a01b038154168452858101546020850152600281015460408501526003810154606085015282600482015416611a82816123c0565b6080850152600581015460a0850152600681015460c0850152600781015460e08501526008810154610100850152015416611abc816123a0565b610120820152611acc828761281e565b52611ad7818661281e565b50016119f9565b8460405180916020820160208352815180915260206040840192019060005b818110611b0b575050500390f35b9193509160206101406001926101208751858060a01b038151168352848101518584015260408101516040840152606081015160608401526080810151611b51816123c0565b608084015260a081015160a084015260c081015160c084015260e081015160e08401526101008101516101008401520151611b8b816123a0565b610120820152019401910191849392611afd565b602090604051611bae81612637565b60008152600083820152600060408201526000606082015260006080820152600060a0820152600060c0820152600060e082015260006101008201526000610120820152828288010152016119e1565b346101b05760003660031901126101b057611c17612a65565b600180546001600160a01b031981169091556000906001600160a01b03167f8be0079c531659141344cd1fd0a4f28419497f9722a3daafe3b4186f6b6457e08280a3005b346101b05760203660031901126101b05760043560005260036020526117b2611c8a6002604060002001612832565b604051918291602083526020830190612428565b346101b05760003660031901126101b057600d546040516001600160a01b039091168152602090f35b346101b05760003660031901126101b0576007546040516001600160a01b039091168152602090f35b346101b05760403660031901126101b057611d0961238a565b6000610160604051611d1a8161261b565b8281528260208201528260408201528260608201528260808201528260a08201528260c08201528260e0820152826101008201528261012082015282610140820152015260018060a01b031660005260056020526040600020600435600052602052610180604060002060405190611d918261261b565b80546001600160a01b031682526001810154602083019081526002820154604084019081526003830154606085019081526004840154919391608086019060ff16611ddb816123c0565b8152600583015460a0870190815260068401549060c0880191825260078501549260e089019384526008860154946101008a01958652600a6009880154976101208c0198895201549860ff8a16986101408c0199611e38816123a0565b8a5260089a909a1c6001600160a01b039081166101608d01908152604080519d519092168d529a5160208d01529051908b01525160608a015251611e7b816123c0565b60808901525160a08801525160c08701525160e0860152516101008501525161012084015251611eaa816123a0565b610140830152516001600160a01b0316610160820152f35b346101b05760003660031901126101b057600654611edf8161276b565b90611eed604051928361268b565b808252601f19611efc8261276b565b0160005b818110611fc557505060015b81811115611f7c57826040518091602082016020835281518091526040830190602060408260051b8601019301916000905b828210611f4d57505050500390f35b91936001919395506020611f6c8192603f198a82030186528851612566565b9601920192018594939192611f3e565b80600052600360205260406000206000198201828111610b8857611fa2611fb39261296b565b611fac828761281e565b528461281e565b506000198114610b8857600101611f0c565b602090611fd06127df565b82828701015201611f00565b346101b05760203660031901126101b057611ff5612374565b611ffd612a65565b600c54906001600160a01b038216612080576001600160a01b031690811561203b57600980546001600160a01b031990811684179091551617600c55005b60405162461bcd60e51b815260206004820152601b60248201527f506f6f6c20616464726573732063616e6e6f74206265207a65726f00000000006044820152606490fd5b60405162461bcd60e51b815260206004820152601060248201526f141bdbdb08185b1c9958591e481cd95d60821b6044820152606490fd5b346101b05760203660031901126101b0576004356011548110156101b05760116000527f31ecc21a745e3968a04e9570e4425bc18fa8019c68028196b546d1669c200c6801546040516001600160a01b039091168152602090f35b346101b05760003660031901126101b057600b546040516001600160a01b039091168152602090f35b346101b05760003660031901126101b0576010546040516001600160a01b039091168152602090f35b346101b05760003660031901126101b057600f546040516001600160a01b039091168152602090f35b346101b05760403660031901126101b0576121a761238a565b6121af612a43565b600c546001600160a01b031633148015612240575b156121fb5760018060a01b031660005260056020526040600020600435600052602052600060016040822001556001600055600080f35b60405162461bcd60e51b815260206004820152601f60248201527f43616c6c6572206973206e6f742074686520706f6f6c20636f6e7472616374006044820152606490fd5b506010546001600160a01b031633146121c4565b346101b057612262366123ca565b9060005260026020526040600020906000526020526020604060002054604051908152f35b346101b05760603660031901126101b0576122a0612374565b6044359060028210156101b05760018060a01b0316600052600460205260406000206024356000526020526040600020906122da816123a0565b600052602052610140604060002060018060a01b03815416906001810154906002810154600382015460ff60048401541660058401549060068501549260078601549460ff600960088901549801541697604051998a5260208a015260408901526060880152612349816123c0565b608087015260a086015260c085015260e084015261010083015261236c816123a0565b610120820152f35b600435906001600160a01b03821682036101b057565b602435906001600160a01b03821682036101b057565b600211156123aa57565b634e487b7160e01b600052602160045260246000fd5b600311156123aa57565b60409060031901126101b0576004359060243590565b60005b8381106123f35750506000910152565b81810151838201526020016123e3565b9060209161241c815180928185528580860191016123e0565b601f01601f1916010190565b9080602083519182815201916020808360051b8301019401926000915b83831061245457505050505090565b9091929394602080600192601f1985820301865288519081518152610200806124a161248f8686015161022088870152610220860190612403565b60408601518582036040870152612403565b9360608101516124b0816123c0565b60608501526080810151608085015260a081015160a085015260c081015160c085015260e081015160e085015261010081015161010085015261012081015161012085015261014081015161014085015261016081015115156101608501526101808101516101808501526101a08101516101a085015260ff6101c0820151166101c0850152878060a01b036101e0820151166101e0850152015191612555836123a0565b015297019301930191939290612445565b908151815260e061259d61258b60208501516101006020860152610100850190612403565b60408501518482036040860152612428565b92606081015160608401526080810151608084015260a081015160a084015260c08101516125ca816123a0565b60c08401528101516001600160a01b031691015290565b90600182811c92168015612611575b60208310146125fb57565b634e487b7160e01b600052602260045260246000fd5b91607f16916125f0565b61018081019081106001600160401b0382111761071a57604052565b61014081019081106001600160401b0382111761071a57604052565b61022081019081106001600160401b0382111761071a57604052565b61010081019081106001600160401b0382111761071a57604052565b90601f801991011681019081106001600160401b0382111761071a57604052565b90604051918260008254926126c0846125e1565b808452936001811690811561272e57506001146126e7575b506126e59250038361268b565b565b90506000929192526020600020906000915b8183106127125750509060206126e592820101386126d8565b60209193508060019154838589010152019101909184926126f9565b9050602092506126e594915060ff191682840152151560051b820101386126d8565b6001600160401b03811161071a57601f01601f191660200190565b6001600160401b03811161071a5760051b60200190565b9080601f830112156101b05781356127998161276b565b926127a7604051948561268b565b81845260208085019260051b8201019283116101b057602001905b8282106127cf5750505090565b81358152602091820191016127c2565b604051906127ec8261266f565b600060e08382815260606020820152606060408201528260608201528260808201528260a08201528260c08201520152565b80518210156107f35760209160051b010190565b90815461283e8161276b565b9261284c604051948561268b565b818452602084019060005260206000206000915b83831061286d5750505050565b600f602060019260405161288081612653565b8554815261288f8587016126ac565b8382015261289f600287016126ac565b604082015260ff6003870154166128b5816123c0565b606082015260048601546080820152600586015460a0820152600686015460c0820152600786015460e082015260088601546101008201526009860154610120820152600a86015461014082015260ff600b870154161515610160820152600c860154610180820152600d8601546101a082015260ff600e8701548181166101c0840152868060a01b038160081c166101e084015260a81c16612957816123a0565b610200820152815201920192019190612860565b906040516129788161266f565b60e0600682948054845261298e600182016126ac565b602085015261299f60028201612832565b60408501526003810154606085015260048101546080850152600581015460a0850152015460ff81166129d1816123a0565b60c084015260081c6001600160a01b0316910152565b81810292918115918404141715610b8857565b91908201809211610b8857565b90612a11816123c0565b60ff80198354169116179055565b90612a11816123a0565b604090612a40939281528160208201520190612403565b90565b600260005414612a54576002600055565b633ee5aeb560e01b60005260046000fd5b6001546001600160a01b03163303612a7957565b63118cdaa760e01b6000523360045260246000fd5b81601f820112156101b0578051612aa481612750565b92612ab2604051948561268b565b818452602082840101116101b057612a4091602080850191016123e056fea26469706673582212207059d5a082b341be8a8d7e5ee2742911b2c918da979d5a9c7442df076f627c7564736f6c634300081c0033",
  "linkReferences": {},
  "deployedLinkReferences": {}
}