{
  "_format": "hh-sol-artifact-1",
  "contractName": "Vaults",
  "sourceName": "contracts/Vaults.sol",
  "abi": [
    {
      "inputs": [
        {
          "internalType": "address",
          "name": "_initialOwner",
          "type": "address"
        }
      ],
      "stateMutability": "nonpayable",
      "type": "constructor"
    },
    {
      "inputs": [
        {
          "internalType": "address",
          "name": "owner",
          "type": "address"
        }
      ],
      "name": "OwnableInvalidOwner",
      "type": "error"
    },
    {
      "inputs": [
        {
          "internalType": "address",
          "name": "account",
          "type": "address"
        }
      ],
      "name": "OwnableUnauthorizedAccount",
      "type": "error"
    },
    {
      "inputs": [],
      "name": "ReentrancyGuardReentrantCall",
      "type": "error"
    },
    {
      "anonymous": false,
      "inputs": [
        {
          "indexed": false,
          "internalType": "uint256",
          "name": "",
          "type": "uint256"
        },
        {
          "indexed": false,
          "internalType": "uint256",
          "name": "",
          "type": "uint256"
        },
        {
          "indexed": false,
          "internalType": "address",
          "name": "",
          "type": "address"
        }
      ],
      "name": "ClaimAttempt",
      "type": "event"
    },
    {
      "anonymous": false,
      "inputs": [
        {
          "indexed": true,
          "internalType": "address",
          "name": "recipient",
          "type": "address"
        },
        {
          "indexed": false,
          "internalType": "string",
          "name": "pool",
          "type": "string"
        },
        {
          "indexed": false,
          "internalType": "uint256",
          "name": "amount",
          "type": "uint256"
        }
      ],
      "name": "ClaimPaid",
      "type": "event"
    },
    {
      "anonymous": false,
      "inputs": [
        {
          "indexed": true,
          "internalType": "address",
          "name": "user",
          "type": "address"
        },
        {
          "indexed": false,
          "internalType": "uint256",
          "name": "amount",
          "type": "uint256"
        },
        {
          "indexed": false,
          "internalType": "string",
          "name": "pool",
          "type": "string"
        }
      ],
      "name": "Deposited",
      "type": "event"
    },
    {
      "anonymous": false,
      "inputs": [
        {
          "indexed": true,
          "internalType": "address",
          "name": "previousOwner",
          "type": "address"
        },
        {
          "indexed": true,
          "internalType": "address",
          "name": "newOwner",
          "type": "address"
        }
      ],
      "name": "OwnershipTransferred",
      "type": "event"
    },
    {
      "anonymous": false,
      "inputs": [
        {
          "indexed": true,
          "internalType": "uint256",
          "name": "id",
          "type": "uint256"
        },
        {
          "indexed": false,
          "internalType": "string",
          "name": "poolName",
          "type": "string"
        }
      ],
      "name": "PoolCreated",
      "type": "event"
    },
    {
      "anonymous": false,
      "inputs": [
        {
          "indexed": true,
          "internalType": "uint256",
          "name": "poolId",
          "type": "uint256"
        },
        {
          "indexed": false,
          "internalType": "uint256",
          "name": "apy",
          "type": "uint256"
        },
        {
          "indexed": false,
          "internalType": "uint256",
          "name": "_minPeriod",
          "type": "uint256"
        }
      ],
      "name": "PoolUpdated",
      "type": "event"
    },
    {
      "anonymous": false,
      "inputs": [
        {
          "indexed": true,
          "internalType": "address",
          "name": "user",
          "type": "address"
        },
        {
          "indexed": false,
          "internalType": "uint256",
          "name": "amount",
          "type": "uint256"
        },
        {
          "indexed": false,
          "internalType": "string",
          "name": "pool",
          "type": "string"
        }
      ],
      "name": "Withdraw",
      "type": "event"
    },
    {
      "inputs": [],
      "name": "ICoverContract",
      "outputs": [
        {
          "internalType": "contract ICover",
          "name": "",
          "type": "address"
        }
      ],
      "stateMutability": "view",
      "type": "function"
    },
    {
      "inputs": [],
      "name": "IGovernanceContract",
      "outputs": [
        {
          "internalType": "contract IGov",
          "name": "",
          "type": "address"
        }
      ],
      "stateMutability": "view",
      "type": "function"
    },
    {
      "inputs": [],
      "name": "IPoolContract",
      "outputs": [
        {
          "internalType": "contract IPool",
          "name": "",
          "type": "address"
        }
      ],
      "stateMutability": "view",
      "type": "function"
    },
    {
      "inputs": [],
      "name": "bqBTC",
      "outputs": [
        {
          "internalType": "contract IbqBTC",
          "name": "",
          "type": "address"
        }
      ],
      "stateMutability": "view",
      "type": "function"
    },
    {
      "inputs": [],
      "name": "bqBTCAddress",
      "outputs": [
        {
          "internalType": "address",
          "name": "",
          "type": "address"
        }
      ],
      "stateMutability": "view",
      "type": "function"
    },
    {
      "inputs": [],
      "name": "coverContract",
      "outputs": [
        {
          "internalType": "address",
          "name": "",
          "type": "address"
        }
      ],
      "stateMutability": "view",
      "type": "function"
    },
    {
      "inputs": [
        {
          "internalType": "string",
          "name": "_vaultName",
          "type": "string"
        },
        {
          "internalType": "uint256[]",
          "name": "_poolIds",
          "type": "uint256[]"
        },
        {
          "internalType": "uint256[]",
          "name": "poolPercentageSplit",
          "type": "uint256[]"
        },
        {
          "internalType": "uint256",
          "name": "_minInv",
          "type": "uint256"
        },
        {
          "internalType": "uint256",
          "name": "_maxInv",
          "type": "uint256"
        },
        {
          "internalType": "uint256",
          "name": "_minPeriod",
          "type": "uint256"
        },
        {
          "internalType": "enum CoverLib.AssetDepositType",
          "name": "adt",
          "type": "uint8"
        },
        {
          "internalType": "address",
          "name": "asset",
          "type": "address"
        }
      ],
      "name": "createVault",
      "outputs": [],
      "stateMutability": "nonpayable",
      "type": "function"
    },
    {
      "inputs": [
        {
          "internalType": "uint256",
          "name": "vaultId",
          "type": "uint256"
        },
        {
          "internalType": "address",
          "name": "user",
          "type": "address"
        }
      ],
      "name": "getUserVaultDeposit",
      "outputs": [
        {
          "components": [
            {
              "internalType": "address",
              "name": "lp",
              "type": "address"
            },
            {
              "internalType": "uint256",
              "name": "amount",
              "type": "uint256"
            },
            {
              "internalType": "uint256",
              "name": "vaultId",
              "type": "uint256"
            },
            {
              "internalType": "uint256",
              "name": "dailyPayout",
              "type": "uint256"
            },
            {
              "internalType": "enum CoverLib.Status",
              "name": "status",
              "type": "uint8"
            },
            {
              "internalType": "uint256",
              "name": "daysLeft",
              "type": "uint256"
            },
            {
              "internalType": "uint256",
              "name": "startDate",
              "type": "uint256"
            },
            {
              "internalType": "uint256",
              "name": "expiryDate",
              "type": "uint256"
            },
            {
              "internalType": "uint256",
              "name": "accruedPayout",
              "type": "uint256"
            },
            {
              "internalType": "enum CoverLib.AssetDepositType",
              "name": "assetType",
              "type": "uint8"
            },
            {
              "internalType": "address",
              "name": "asset",
              "type": "address"
            }
          ],
          "internalType": "struct Vaults.VaultDeposit",
          "name": "",
          "type": "tuple"
        }
      ],
      "stateMutability": "view",
      "type": "function"
    },
    {
      "inputs": [
        {
          "internalType": "uint256",
          "name": "vaultId",
          "type": "uint256"
        },
        {
          "internalType": "address",
          "name": "user",
          "type": "address"
        }
      ],
      "name": "getUserVaultPoolDeposits",
      "outputs": [
        {
          "components": [
            {
              "internalType": "address",
              "name": "lp",
              "type": "address"
            },
            {
              "internalType": "uint256",
              "name": "amount",
              "type": "uint256"
            },
            {
              "internalType": "uint256",
              "name": "poolId",
              "type": "uint256"
            },
            {
              "internalType": "uint256",
              "name": "dailyPayout",
              "type": "uint256"
            },
            {
              "internalType": "enum CoverLib.Status",
              "name": "status",
              "type": "uint8"
            },
            {
              "internalType": "uint256",
              "name": "daysLeft",
              "type": "uint256"
            },
            {
              "internalType": "uint256",
              "name": "startDate",
              "type": "uint256"
            },
            {
              "internalType": "uint256",
              "name": "expiryDate",
              "type": "uint256"
            },
            {
              "internalType": "uint256",
              "name": "accruedPayout",
              "type": "uint256"
            }
          ],
          "internalType": "struct Vaults.Deposits[]",
          "name": "",
          "type": "tuple[]"
        }
      ],
      "stateMutability": "view",
      "type": "function"
    },
    {
      "inputs": [
        {
          "internalType": "uint256",
          "name": "vaultId",
          "type": "uint256"
        }
      ],
      "name": "getVault",
      "outputs": [
        {
          "components": [
            {
              "internalType": "uint256",
              "name": "id",
              "type": "uint256"
            },
            {
              "internalType": "string",
              "name": "vaultName",
              "type": "string"
            },
            {
              "components": [
                {
                  "internalType": "uint256",
                  "name": "id",
                  "type": "uint256"
                },
                {
                  "internalType": "string",
                  "name": "poolName",
                  "type": "string"
                },
                {
                  "internalType": "string",
                  "name": "rating",
                  "type": "string"
                },
                {
                  "internalType": "enum CoverLib.RiskType",
                  "name": "riskType",
                  "type": "uint8"
                },
                {
                  "internalType": "uint256",
                  "name": "apy",
                  "type": "uint256"
                },
                {
                  "internalType": "uint256",
                  "name": "minPeriod",
                  "type": "uint256"
                },
                {
                  "internalType": "uint256",
                  "name": "totalUnit",
                  "type": "uint256"
                },
                {
                  "internalType": "uint256",
                  "name": "tvl",
                  "type": "uint256"
                },
                {
                  "internalType": "uint256",
                  "name": "baseValue",
                  "type": "uint256"
                },
                {
                  "internalType": "uint256",
                  "name": "coverUnits",
                  "type": "uint256"
                },
                {
                  "internalType": "uint256",
                  "name": "tcp",
                  "type": "uint256"
                },
                {
                  "internalType": "bool",
                  "name": "isActive",
                  "type": "bool"
                },
                {
                  "internalType": "uint256",
                  "name": "percentageSplitBalance",
                  "type": "uint256"
                },
                {
                  "internalType": "uint256",
                  "name": "investmentArmPercent",
                  "type": "uint256"
                },
                {
                  "internalType": "uint8",
                  "name": "leverage",
                  "type": "uint8"
                },
                {
                  "internalType": "address",
                  "name": "asset",
                  "type": "address"
                },
                {
                  "internalType": "enum CoverLib.AssetDepositType",
                  "name": "assetType",
                  "type": "uint8"
                }
              ],
              "internalType": "struct CoverLib.Pool[]",
              "name": "pools",
              "type": "tuple[]"
            },
            {
              "internalType": "uint256",
              "name": "minInv",
              "type": "uint256"
            },
            {
              "internalType": "uint256",
              "name": "maxInv",
              "type": "uint256"
            },
            {
              "internalType": "uint256",
              "name": "minPeriod",
              "type": "uint256"
            },
            {
              "internalType": "enum CoverLib.AssetDepositType",
              "name": "assetType",
              "type": "uint8"
            },
            {
              "internalType": "address",
              "name": "asset",
              "type": "address"
            }
          ],
          "internalType": "struct Vaults.Vault",
          "name": "",
          "type": "tuple"
        }
      ],
      "stateMutability": "view",
      "type": "function"
    },
    {
      "inputs": [
        {
          "internalType": "uint256",
          "name": "vaultId",
          "type": "uint256"
        }
      ],
      "name": "getVaultPools",
      "outputs": [
        {
          "components": [
            {
              "internalType": "uint256",
              "name": "id",
              "type": "uint256"
            },
            {
              "internalType": "string",
              "name": "poolName",
              "type": "string"
            },
            {
              "internalType": "string",
              "name": "rating",
              "type": "string"
            },
            {
              "internalType": "enum CoverLib.RiskType",
              "name": "riskType",
              "type": "uint8"
            },
            {
              "internalType": "uint256",
              "name": "apy",
              "type": "uint256"
            },
            {
              "internalType": "uint256",
              "name": "minPeriod",
              "type": "uint256"
            },
            {
              "internalType": "uint256",
              "name": "totalUnit",
              "type": "uint256"
            },
            {
              "internalType": "uint256",
              "name": "tvl",
              "type": "uint256"
            },
            {
              "internalType": "uint256",
              "name": "baseValue",
              "type": "uint256"
            },
            {
              "internalType": "uint256",
              "name": "coverUnits",
              "type": "uint256"
            },
            {
              "internalType": "uint256",
              "name": "tcp",
              "type": "uint256"
            },
            {
              "internalType": "bool",
              "name": "isActive",
              "type": "bool"
            },
            {
              "internalType": "uint256",
              "name": "percentageSplitBalance",
              "type": "uint256"
            },
            {
              "internalType": "uint256",
              "name": "investmentArmPercent",
              "type": "uint256"
            },
            {
              "internalType": "uint8",
              "name": "leverage",
              "type": "uint8"
            },
            {
              "internalType": "address",
              "name": "asset",
              "type": "address"
            },
            {
              "internalType": "enum CoverLib.AssetDepositType",
              "name": "assetType",
              "type": "uint8"
            }
          ],
          "internalType": "struct CoverLib.Pool[]",
          "name": "",
          "type": "tuple[]"
        }
      ],
      "stateMutability": "view",
      "type": "function"
    },
    {
      "inputs": [],
      "name": "getVaults",
      "outputs": [
        {
          "components": [
            {
              "internalType": "uint256",
              "name": "id",
              "type": "uint256"
            },
            {
              "internalType": "string",
              "name": "vaultName",
              "type": "string"
            },
            {
              "components": [
                {
                  "internalType": "uint256",
                  "name": "id",
                  "type": "uint256"
                },
                {
                  "internalType": "string",
                  "name": "poolName",
                  "type": "string"
                },
                {
                  "internalType": "string",
                  "name": "rating",
                  "type": "string"
                },
                {
                  "internalType": "enum CoverLib.RiskType",
                  "name": "riskType",
                  "type": "uint8"
                },
                {
                  "internalType": "uint256",
                  "name": "apy",
                  "type": "uint256"
                },
                {
                  "internalType": "uint256",
                  "name": "minPeriod",
                  "type": "uint256"
                },
                {
                  "internalType": "uint256",
                  "name": "totalUnit",
                  "type": "uint256"
                },
                {
                  "internalType": "uint256",
                  "name": "tvl",
                  "type": "uint256"
                },
                {
                  "internalType": "uint256",
                  "name": "baseValue",
                  "type": "uint256"
                },
                {
                  "internalType": "uint256",
                  "name": "coverUnits",
                  "type": "uint256"
                },
                {
                  "internalType": "uint256",
                  "name": "tcp",
                  "type": "uint256"
                },
                {
                  "internalType": "bool",
                  "name": "isActive",
                  "type": "bool"
                },
                {
                  "internalType": "uint256",
                  "name": "percentageSplitBalance",
                  "type": "uint256"
                },
                {
                  "internalType": "uint256",
                  "name": "investmentArmPercent",
                  "type": "uint256"
                },
                {
                  "internalType": "uint8",
                  "name": "leverage",
                  "type": "uint8"
                },
                {
                  "internalType": "address",
                  "name": "asset",
                  "type": "address"
                },
                {
                  "internalType": "enum CoverLib.AssetDepositType",
                  "name": "assetType",
                  "type": "uint8"
                }
              ],
              "internalType": "struct CoverLib.Pool[]",
              "name": "pools",
              "type": "tuple[]"
            },
            {
              "internalType": "uint256",
              "name": "minInv",
              "type": "uint256"
            },
            {
              "internalType": "uint256",
              "name": "maxInv",
              "type": "uint256"
            },
            {
              "internalType": "uint256",
              "name": "minPeriod",
              "type": "uint256"
            },
            {
              "internalType": "enum CoverLib.AssetDepositType",
              "name": "assetType",
              "type": "uint8"
            },
            {
              "internalType": "address",
              "name": "asset",
              "type": "address"
            }
          ],
          "internalType": "struct Vaults.Vault[]",
          "name": "",
          "type": "tuple[]"
        }
      ],
      "stateMutability": "view",
      "type": "function"
    },
    {
      "inputs": [],
      "name": "governance",
      "outputs": [
        {
          "internalType": "address",
          "name": "",
          "type": "address"
        }
      ],
      "stateMutability": "view",
      "type": "function"
    },
    {
      "inputs": [],
      "name": "initialOwner",
      "outputs": [
        {
          "internalType": "address",
          "name": "",
          "type": "address"
        }
      ],
      "stateMutability": "view",
      "type": "function"
    },
    {
      "inputs": [
        {
          "internalType": "uint256",
          "name": "_vaultId",
          "type": "uint256"
        }
      ],
      "name": "initialVaultWithdraw",
      "outputs": [],
      "stateMutability": "nonpayable",
      "type": "function"
    },
    {
      "inputs": [],
      "name": "owner",
      "outputs": [
        {
          "internalType": "address",
          "name": "",
          "type": "address"
        }
      ],
      "stateMutability": "view",
      "type": "function"
    },
    {
      "inputs": [
        {
          "internalType": "uint256",
          "name": "",
          "type": "uint256"
        }
      ],
      "name": "participants",
      "outputs": [
        {
          "internalType": "address",
          "name": "",
          "type": "address"
        }
      ],
      "stateMutability": "view",
      "type": "function"
    },
    {
      "inputs": [
        {
          "internalType": "address",
          "name": "",
          "type": "address"
        }
      ],
      "name": "participation",
      "outputs": [
        {
          "internalType": "uint256",
          "name": "",
          "type": "uint256"
        }
      ],
      "stateMutability": "view",
      "type": "function"
    },
    {
      "inputs": [],
      "name": "poolCanister",
      "outputs": [
        {
          "internalType": "address",
          "name": "",
          "type": "address"
        }
      ],
      "stateMutability": "view",
      "type": "function"
    },
    {
      "inputs": [],
      "name": "poolContract",
      "outputs": [
        {
          "internalType": "address",
          "name": "",
          "type": "address"
        }
      ],
      "stateMutability": "view",
      "type": "function"
    },
    {
      "inputs": [],
      "name": "renounceOwnership",
      "outputs": [],
      "stateMutability": "nonpayable",
      "type": "function"
    },
    {
      "inputs": [
        {
          "internalType": "address",
          "name": "_coverContract",
          "type": "address"
        }
      ],
      "name": "setCover",
      "outputs": [],
      "stateMutability": "nonpayable",
      "type": "function"
    },
    {
      "inputs": [
        {
          "internalType": "address",
          "name": "_governance",
          "type": "address"
        }
      ],
      "name": "setGovernance",
      "outputs": [],
      "stateMutability": "nonpayable",
      "type": "function"
    },
    {
      "inputs": [
        {
          "internalType": "address",
          "name": "_poolcontract",
          "type": "address"
        }
      ],
      "name": "setPool",
      "outputs": [],
      "stateMutability": "nonpayable",
      "type": "function"
    },
    {
      "inputs": [
        {
          "internalType": "address",
          "name": "_poolcanister",
          "type": "address"
        }
      ],
      "name": "setPoolCanister",
      "outputs": [],
      "stateMutability": "nonpayable",
      "type": "function"
    },
    {
      "inputs": [
        {
          "internalType": "uint256",
          "name": "vaultId",
          "type": "uint256"
        },
        {
          "internalType": "address",
          "name": "user",
          "type": "address"
        }
      ],
      "name": "setUserVaultDepositToZero",
      "outputs": [],
      "stateMutability": "nonpayable",
      "type": "function"
    },
    {
      "inputs": [
        {
          "internalType": "address",
          "name": "newOwner",
          "type": "address"
        }
      ],
      "name": "transferOwnership",
      "outputs": [],
      "stateMutability": "nonpayable",
      "type": "function"
    },
    {
      "inputs": [],
      "name": "vaultCount",
      "outputs": [
        {
          "internalType": "uint256",
          "name": "",
          "type": "uint256"
        }
      ],
      "stateMutability": "view",
      "type": "function"
    },
    {
      "inputs": [
        {
          "internalType": "uint256",
          "name": "_vaultId",
          "type": "uint256"
        },
        {
          "internalType": "uint256",
          "name": "_amount",
          "type": "uint256"
        },
        {
          "internalType": "uint256",
          "name": "_period",
          "type": "uint256"
        }
      ],
      "name": "vaultDeposit",
      "outputs": [],
      "stateMutability": "payable",
      "type": "function"
    }
  ],
  "bytecode": "0x60803460d657601f6127c338819003918201601f19168301916001600160401b0383118484101760db5780849260209460405283398101031260d657516001600160a01b0381169081900360d6576001600055801560c057600180546001600160a01b031981168317909155604051919081906001600160a01b03167f8be0079c531659141344cd1fd0a4f28419497f9722a3daafe3b4186f6b6457e0600080a3601080546001600160a01b0319169190911790556126d190816100f28239f35b631e4fbdf760e01b600052600060045260246000fd5b600080fd5b634e487b7160e01b600052604160045260246000fdfe6080604052600436101561001257600080fd5b60003560e01c80631f8be73c14611e99578063248a75b714611e7057806329ba7bb214611e4757806334808ec314611e1e57806335c1d34914611dc35780634437152a14611ce757806344d00f8214611bcd5780635765648614611a175780635aa6e675146119ee5780635f267c55146119c557806360ebd71814611982578063626cc0a91461158d578063715018a61461153057806372bafbde146112e45780637c366cc61461120757806388d52ef7146111de5780638da5cb5b146111b55780639403b6341461116857806396f3a8ad1461112e578063996b8a6f14611105578063a69ddee61461101c578063a7c6a10014610ffe578063ab033ea914610f0f578063b30703cd14610ee6578063b5d90c2814610ebd578063d000626514610c9c578063f2fde38b14610c12578063f339624b146101895763f6e805581461015b57600080fd5b34610184576000366003190112610184576008546040516001600160a01b039091168152602090f35b600080fd5b3461018457610100366003190112610184576004356001600160401b03811161018457366023820112156101845780600401356101c581612247565b916101d36040519384612226565b8183523660248383010111610184578160009260246020930183860137830101526024356001600160401b03811161018457610213903690600401612279565b6044356001600160401b03811161018457610232903690600401612279565b9060a4359260c4359360028510156101845760e4356001600160a01b03811680820361018457610260612630565b8451865103610bc15761027287611ff3565b8615908115610bb7575b5015610b72576006549260018401809411610b5c5783600655836000526003602052604060002093845560018401908051906001600160401b0382116106ee576102c68354612329565b601f8111610b14575b50602090601f8311600114610aa5576103499493929160009183610a9a575b50508160011b916000199060031b1c19161790559491945b606435600385015560843560048501556006840161032488826125dc565b8054610100600160a81b03191660089290921b610100600160a81b0316919091179055565b60009161016d9360009260028301935b82518110156109ac576009546001600160a01b031695600061037b8386612315565b516024604051809a819363068bcd8d60e01b835260048301525afa9687156109a057600097610822575b506102008701908a82516103b881611ff3565b6103c182611ff3565b6103ca81611ff3565b036107dd576103e4906103dd8486612315565b51906125cf565b966103ef8385612315565b518654600052600260205260406000206104098588612315565b516000526020526040600020558654680100000000000000008110156106ee57600181018089558110156107c75787600052600f602060002091020191815183556001830160208301518051906001600160401b0382116106ee5781906104708454612329565b601f8111610774575b50602090601f831160011461070f57600092610704575b50508160011b916000199060031b1c19161790555b6002830160408301518051906001600160401b0382116106ee5781906104cb8454612329565b601f811161069b575b50602090601f83116001146106365760009261062b575b50508160011b916000199060031b1c19161790555b60038301606083015161051281611fd3565b61051b81611fd3565b815460ff91821660ff19918216179092556080840151600486015560a084018051600587015560c0850151600687015560e085015160078701556101008501516008808801919091556101208601516009880155610140860151600a880155610160860151600b8801805491151585169190951617909355610180850151600c8701556101a0850151600d8701556101c0850151600e90960180546101e0909601516001600160a81b031990961696909216959095179390911b610100600160a81b0316929092178255516105ef81611ff3565b6105f881611ff3565b815460ff60a81b191660a89190911b60ff60a81b1617905551878110610622575b50600101610359565b96506001610619565b015190508f806104eb565b60008581528281209350601f198516905b818110610683575090846001959493921061066a575b505050811b019055610500565b015160001960f88460031b161c191690558f808061065d565b92936020600181928786015181550195019301610647565b909150836000526020600020601f840160051c810191602085106106e4575b90601f859493920160051c01905b8181106106d557506104d4565b600081558493506001016106c8565b90915081906106ba565b634e487b7160e01b600052604160045260246000fd5b015190508f80610490565b60008581528281209350601f198516905b81811061075c5750908460019594939210610743575b505050811b0190556104a5565b015160001960f88460031b161c191690558f8080610736565b92936020600181928786015181550195019301610720565b909150836000526020600020601f840160051c810191602085106107bd575b90601f859493920160051c01905b8181106107ae5750610479565b600081558493506001016107a1565b9091508190610793565b634e487b7160e01b600052603260045260246000fd5b60405162461bcd60e51b815260206004820152601f60248201527f496e636f6d70617469626c65206173736574207479706520696e20706f6f6c006044820152606490fd5b90963d8082843e6108338184612226565b82019160208184031261099c578051906001600160401b03821161099457016102208184031261099c576040519261086a846121ee565b8151845260208201516001600160401b038111610998578161088d918401612659565b602085015260408201516001600160401b03811161099857906108b1918301612659565b6040840152606081015160038110156109945760608401526080810151608084015260a081015160a084015260c081015160c084015260e081015160e08401526101008101516101008401526101208101516101208401526101408101516101408401526101608101518015158103610994576101608401526101808101516101808401526101a08101516101a08401526101c081015160ff81168103610994576101c08401526101e08101516001600160a01b0381168103610994576101e084015261020001519060028210156109915750610200820152958a6103a5565b80fd5b8280fd5b8380fd5b5080fd5b6040513d6000823e3d90fd5b838689898110610a095760056064930155036109c457005b60405162461bcd60e51b815260206004820152601b60248201527f546f74616c2073706c6974206d75737420657175616c203130302500000000006044820152606490fd5b60405162461bcd60e51b815260206004820152606060248201527f4d696e696d756e20706572696f64206d7573742062652067726561746572207460448201527f68616e206f7220657175616c20746f20746865206d696e696d756d207065726960648201527f6f64206f6620616c6c20706f6f6c732077697468696e20746865207661756c74608482015260a490fd5b015190508a806102ee565b90601f1983169184600052816000209260005b818110610afc57509160019391856103499897969410610ae3575b505050811b019055949194610306565b015160001960f88460031b161c191690558a8080610ad3565b92936020600181928786015181550195019301610ab8565b836000526020600020601f840160051c81019160208510610b52575b601f0160051c01905b818110610b4657506102cf565b60008155600101610b39565b9091508190610b30565b634e487b7160e01b600052601160045260246000fd5b60405162461bcd60e51b815260206004820152601e60248201527f496e76616c696420617373657420666f72206465706f736974207479706500006044820152606490fd5b905015158761027c565b60405162461bcd60e51b815260206004820152602360248201527f4d69736d61746368656420706f6f6c2049447320616e642070657263656e746160448201526267657360e81b6064820152608490fd5b3461018457602036600319011261018457610c2b611f75565b610c33612630565b6001600160a01b03168015610c8657600180546001600160a01b0319811683179091556001600160a01b03167f8be0079c531659141344cd1fd0a4f28419497f9722a3daafe3b4186f6b6457e0600080a3005b631e4fbdf760e01b600052600060045260246000fd5b3461018457602036600319011261018457600435610cb861260e565b33600052600560205260406000208160005260205260406000206001810191825415610e6e57600482019160ff835416610cf181611fd3565b610e3157600701544210610dec576000526003602052610d146040600020612540565b604081019260005b84518051821015610d9c5781610d3191612315565b51516009546001600160a01b03169190823b15610184576000926064849260405195869384926383bc635760e01b84523360048501526024840152600160448401525af19182156109a057600192610d8b575b5001610d1c565b6000610d9691612226565b86610d84565b845460ff191660011785558254602085015160405133927f485f1bb6524c663555797e00171a10f341656e59b02d6b557a0a38ba7d5d9751928291610de29190836125f4565b0390a26001600055005b60405162461bcd60e51b815260206004820152601c60248201527f4465706f73697420706572696f6420686173206e6f7420656e646564000000006044820152606490fd5b60405162461bcd60e51b81526020600482015260156024820152744465706f736974206973206e6f742061637469766560581b6044820152606490fd5b60405162461bcd60e51b815260206004820152602160248201527f4e6f206465706f73697420666f756e6420666f722074686973206164647265736044820152607360f81b6064820152608490fd5b3461018457600036600319011261018457600a546040516001600160a01b039091168152602090f35b34610184576000366003190112610184576009546040516001600160a01b039091168152602090f35b3461018457602036600319011261018457610f28611f75565b610f30612630565b600754906001600160a01b038216610fc0576001600160a01b0316908115610f71576001600160a01b03199081168217600755600a80549091169091179055005b60405162461bcd60e51b815260206004820152602160248201527f476f7665726e616e636520616464726573732063616e6e6f74206265207a65726044820152606f60f81b6064820152608490fd5b60405162461bcd60e51b815260206004820152601660248201527511dbdd995c9b985b98d948185b1c9958591e481cd95d60521b6044820152606490fd5b34610184576000366003190112610184576020600654604051908152f35b3461018457602036600319011261018457611035611f75565b61103d612630565b600d54906001600160a01b0382166110c0576001600160a01b031690811561106f576001600160a01b03191617600d55005b60405162461bcd60e51b8152602060048201526024808201527f506f6f6c2043616e697374657220616464726573732063616e6e6f74206265206044820152637a65726f60e01b6064820152608490fd5b60405162461bcd60e51b815260206004820152601960248201527f506f6f6c2043616e697374657220616c726561647920736574000000000000006044820152606490fd5b3461018457600036600319011261018457600e546040516001600160a01b039091168152602090f35b34610184576020366003190112610184576001600160a01b0361114f611f75565b1660005260126020526020604060002054604051908152f35b34610184576020366003190112610184576111816122d6565b5060043560005260036020526111b161119d6040600020612540565b60405191829160208352602083019061213b565b0390f35b34610184576000366003190112610184576001546040516001600160a01b039091168152602090f35b3461018457600036600319011261018457600c546040516001600160a01b039091168152602090f35b3461018457602036600319011261018457611220611f75565b611228612630565b600f54906001600160a01b0382166112ab576001600160a01b031690811561126657600880546001600160a01b031990811684179091551617600f55005b60405162461bcd60e51b815260206004820152601c60248201527f436f76657220616464726573732063616e6e6f74206265207a65726f000000006044820152606490fd5b60405162461bcd60e51b815260206004820152601160248201527010dbdd995c88185b1c9958591e481cd95d607a1b6044820152606490fd5b34610184576040366003190112610184576112fd611f5f565b6004356000526003602052604061131681600020612540565b01908151519161132583612262565b926113336040519485612226565b808452611342601f1991612262565b0160005b8181106114d9575090916001600160a01b0316905060005b825190815181101561142d5761137681600193612315565b515183600052600460205260406000209060005260205260406000208260005260205260406000206008604051916113ad836121d2565b848060a01b038154168352848101546020840152600281015460408401526003810154606084015260ff6004820154166113e681611fd3565b6080840152600581015460a0840152600681015460c0840152600781015460e0840152015461010082015261141b8287612315565b526114268186612315565b500161135e565b8460405180916020820160208352815180915260206040840192019060005b81811061145a575050500390f35b9193509160206101206001926101008751858060a01b0381511683528481015185840152604081015160408401526060810151606084015260808101516114a081611fd3565b608084015260a081015160a084015260c081015160c084015260e081015160e0840152015161010082015201940191019184939261144c565b6020906040516114e8816121d2565b60008152600083820152600060408201526000606082015260006080820152600060a0820152600060c0820152600060e0820152600061010082015282828801015201611346565b3461018457600036600319011261018457611549612630565b600180546001600160a01b031981169091556000906001600160a01b03167f8be0079c531659141344cd1fd0a4f28419497f9722a3daafe3b4186f6b6457e08280a3005b6060366003190112610184576024356044356004356115aa61260e565b8060005260036020526115c06040600020612540565b9160a08301518110611925576040830192600092839260e083019260c081019190855b89895180518a101561178157896115f991612315565b5151866000526002602052604060002081600052602052606461162e8161162660406000205495866125bc565b0493346125bc565b0490865161163b81611ff3565b89516040516001600160a01b039091169360e08201928284106001600160401b038511176106ee5760409560e49487523384526020840195865286840197885260608401918b8352608085016001815260a086019161169981611ff3565b825260c086019283526009548951632607b53960e01b815296516001600160a01b0390811660048901529851602488015299516044870152925160648601529151939788968795911692906116ed81611ff3565b6084860152516116fc81611ff3565b60a4850152516001600160a01b031660c48401525af19182156109a0576000918293611743575b509061173460019361173a936125cf565b986125cf565b970196956115e3565b9250906040833d8211611779575b8161175e60409383612226565b81010312610991575081516020909201519190611734611723565b3d9150611751565b5097509490929162015180810296818804620151801482151715610b5c576009610de297602097611915966118f2946117db7f6f85d9948d6ca3dd6ce6ce7d175da22b4e865827ae6fcd530ec7edac1240f9289d426125cf565b9151976117e789611ff3565b516040516001600160a01b03909116979094611802866121b6565b3386528c860192835260408601908582526060870190815260808701916000835260a0880193845260c088019442865260e08901968752610100890197600089526101208a019d8e61185382611ff3565b526101408a019c8d5233600090815260056020908152604080832093835292905220985189546001600160a01b0319166001600160a01b03919091161789555160018901555160028801555160038701555160048601906118b381611fd3565b6118bc81611fd3565b60ff801983541691161790555160058501555160068401555160078301555160088201550192516118ec81611ff3565b836125dc565b518154610100600160a81b03191660089190911b610100600160a81b0316179055565b01516040519182913395836125f4565b60405162461bcd60e51b815260206004820152602f60248201527f506572696f642063616e6e6f74206265206c657373207468616e20746865207660448201526e185d5b1d081b5a5b881c195c9a5bd9608a1b6064820152608490fd5b346101845760203660031901126101845760043560005260036020526111b16119b16002604060002001612407565b604051918291602083526020830190611ffd565b3461018457600036600319011261018457600d546040516001600160a01b039091168152602090f35b34610184576000366003190112610184576007546040516001600160a01b039091168152602090f35b3461018457604036600319011261018457611a30611f5f565b6000610140604051611a41816121b6565b8281528260208201528260408201528260608201528260808201528260a08201528260c08201528260e08201528261010082015282610120820152015260018060a01b031660005260056020526040600020600435600052602052610160604060002060405190611ab1826121b6565b80546001600160a01b031682526001810154602083019081526002820154604084019081526003830154606085019081526004840154919391608086019060ff16611afb81611fd3565b8152600583015460a0870190815260068401549160c0880192835260078501549360e0890194855260096008870154966101008b0197885201549760ff8916976101208b0198611b4a81611ff3565b895260089990991c6001600160a01b039081166101408c01908152604080519c519092168c52995160208c01529051908a015251606089015251611b8d81611fd3565b60808801525160a08701525160c08601525160e08501525161010084015251611bb581611ff3565b610120830152516001600160a01b0316610140820152f35b3461018457600036600319011261018457600654611bea81612262565b90611bf86040519283612226565b808252601f19611c0782612262565b0160005b818110611cd057505060015b81811115611c8757826040518091602082016020835281518091526040830190602060408260051b8601019301916000905b828210611c5857505050500390f35b91936001919395506020611c778192603f198a8203018652885161213b565b9601920192018594939192611c49565b80600052600360205260406000206000198201828111610b5c57611cad611cbe92612540565b611cb78287612315565b5284612315565b506000198114610b5c57600101611c17565b602090611cdb6122d6565b82828701015201611c0b565b3461018457602036600319011261018457611d00611f75565b611d08612630565b600c54906001600160a01b038216611d8b576001600160a01b0316908115611d4657600980546001600160a01b031990811684179091551617600c55005b60405162461bcd60e51b815260206004820152601b60248201527f506f6f6c20616464726573732063616e6e6f74206265207a65726f00000000006044820152606490fd5b60405162461bcd60e51b815260206004820152601060248201526f141bdbdb08185b1c9958591e481cd95d60821b6044820152606490fd5b34610184576020366003190112610184576004356011548110156101845760116000527f31ecc21a745e3968a04e9570e4425bc18fa8019c68028196b546d1669c200c6801546040516001600160a01b039091168152602090f35b3461018457600036600319011261018457600b546040516001600160a01b039091168152602090f35b34610184576000366003190112610184576010546040516001600160a01b039091168152602090f35b3461018457600036600319011261018457600f546040516001600160a01b039091168152602090f35b3461018457604036600319011261018457611eb2611f5f565b611eba61260e565b600d546001600160a01b031633148015611f4b575b15611f065760018060a01b031660005260056020526040600020600435600052602052600060016040822001556001600055600080f35b60405162461bcd60e51b815260206004820152601f60248201527f43616c6c6572206973206e6f742074686520706f6f6c2063616e6973746572006044820152606490fd5b506010546001600160a01b03163314611ecf565b602435906001600160a01b038216820361018457565b600435906001600160a01b038216820361018457565b60005b838110611f9e5750506000910152565b8181015183820152602001611f8e565b90602091611fc781518092818552858086019101611f8b565b601f01601f1916010190565b60031115611fdd57565b634e487b7160e01b600052602160045260246000fd5b60021115611fdd57565b9080602083519182815201916020808360051b8301019401926000915b83831061202957505050505090565b9091929394602080600192601f1985820301865288519081518152610200806120766120648686015161022088870152610220860190611fae565b60408601518582036040870152611fae565b93606081015161208581611fd3565b60608501526080810151608085015260a081015160a085015260c081015160c085015260e081015160e085015261010081015161010085015261012081015161012085015261014081015161014085015261016081015115156101608501526101808101516101808501526101a08101516101a085015260ff6101c0820151166101c0850152878060a01b036101e0820151166101e085015201519161212a83611ff3565b01529701930193019193929061201a565b908151815260e061217261216060208501516101006020860152610100850190611fae565b60408501518482036040860152611ffd565b92606081015160608401526080810151608084015260a081015160a084015260c081015161219f81611ff3565b60c08401528101516001600160a01b031691015290565b61016081019081106001600160401b038211176106ee57604052565b61012081019081106001600160401b038211176106ee57604052565b61022081019081106001600160401b038211176106ee57604052565b61010081019081106001600160401b038211176106ee57604052565b90601f801991011681019081106001600160401b038211176106ee57604052565b6001600160401b0381116106ee57601f01601f191660200190565b6001600160401b0381116106ee5760051b60200190565b9080601f8301121561018457813561229081612262565b9261229e6040519485612226565b81845260208085019260051b82010192831161018457602001905b8282106122c65750505090565b81358152602091820191016122b9565b604051906122e38261220a565b600060e08382815260606020820152606060408201528260608201528260808201528260a08201528260c08201520152565b80518210156107c75760209160051b010190565b90600182811c92168015612359575b602083101461234357565b634e487b7160e01b600052602260045260246000fd5b91607f1691612338565b906040519182600082549261237784612329565b80845293600181169081156123e5575060011461239e575b5061239c92500383612226565b565b90506000929192526020600020906000915b8183106123c957505090602061239c928201013861238f565b60209193508060019154838589010152019101909184926123b0565b90506020925061239c94915060ff191682840152151560051b8201013861238f565b90815461241381612262565b926124216040519485612226565b818452602084019060005260206000206000915b8383106124425750505050565b600f6020600192604051612455816121ee565b85548152612464858701612363565b8382015261247460028701612363565b604082015260ff60038701541661248a81611fd3565b606082015260048601546080820152600586015460a0820152600686015460c0820152600786015460e082015260088601546101008201526009860154610120820152600a86015461014082015260ff600b870154161515610160820152600c860154610180820152600d8601546101a082015260ff600e8701548181166101c0840152868060a01b038160081c166101e084015260a81c1661252c81611ff3565b610200820152815201920192019190612435565b9060405161254d8161220a565b60e0600682948054845261256360018201612363565b602085015261257460028201612407565b60408501526003810154606085015260048101546080850152600581015460a0850152015460ff81166125a681611ff3565b60c084015260081c6001600160a01b0316910152565b81810292918115918404141715610b5c57565b91908201809211610b5c57565b906125e681611ff3565b60ff80198354169116179055565b60409061260b939281528160208201520190611fae565b90565b60026000541461261f576002600055565b633ee5aeb560e01b60005260046000fd5b6001546001600160a01b0316330361264457565b63118cdaa760e01b6000523360045260246000fd5b81601f8201121561018457805161266f81612247565b9261267d6040519485612226565b818452602082840101116101845761260b9160208085019101611f8b56fea264697066735822122018a3fd62845e39043a1c199696fa0432b19e9d512f1a42109e106cf6849c3bc864736f6c634300081c0033",
  "linkReferences": {},
  "deployedLinkReferences": {}
}