{
  "_format": "hh-sol-artifact-1",
  "contractName": "Vaults",
  "sourceName": "contracts/Vaults.sol",
  "abi": [
    {
      "inputs": [
        {
          "internalType": "address",
          "name": "_initialOwner",
          "type": "address"
        }
      ],
      "stateMutability": "nonpayable",
      "type": "constructor"
    },
    {
      "inputs": [
        {
          "internalType": "address",
          "name": "owner",
          "type": "address"
        }
      ],
      "name": "OwnableInvalidOwner",
      "type": "error"
    },
    {
      "inputs": [
        {
          "internalType": "address",
          "name": "account",
          "type": "address"
        }
      ],
      "name": "OwnableUnauthorizedAccount",
      "type": "error"
    },
    {
      "inputs": [],
      "name": "ReentrancyGuardReentrantCall",
      "type": "error"
    },
    {
      "anonymous": false,
      "inputs": [
        {
          "indexed": false,
          "internalType": "uint256",
          "name": "",
          "type": "uint256"
        },
        {
          "indexed": false,
          "internalType": "uint256",
          "name": "",
          "type": "uint256"
        },
        {
          "indexed": false,
          "internalType": "address",
          "name": "",
          "type": "address"
        }
      ],
      "name": "ClaimAttempt",
      "type": "event"
    },
    {
      "anonymous": false,
      "inputs": [
        {
          "indexed": true,
          "internalType": "address",
          "name": "recipient",
          "type": "address"
        },
        {
          "indexed": false,
          "internalType": "string",
          "name": "pool",
          "type": "string"
        },
        {
          "indexed": false,
          "internalType": "uint256",
          "name": "amount",
          "type": "uint256"
        }
      ],
      "name": "ClaimPaid",
      "type": "event"
    },
    {
      "anonymous": false,
      "inputs": [
        {
          "indexed": true,
          "internalType": "address",
          "name": "user",
          "type": "address"
        },
        {
          "indexed": false,
          "internalType": "uint256",
          "name": "amount",
          "type": "uint256"
        },
        {
          "indexed": false,
          "internalType": "string",
          "name": "pool",
          "type": "string"
        }
      ],
      "name": "Deposited",
      "type": "event"
    },
    {
      "anonymous": false,
      "inputs": [
        {
          "indexed": true,
          "internalType": "address",
          "name": "previousOwner",
          "type": "address"
        },
        {
          "indexed": true,
          "internalType": "address",
          "name": "newOwner",
          "type": "address"
        }
      ],
      "name": "OwnershipTransferred",
      "type": "event"
    },
    {
      "anonymous": false,
      "inputs": [
        {
          "indexed": true,
          "internalType": "uint256",
          "name": "id",
          "type": "uint256"
        },
        {
          "indexed": false,
          "internalType": "string",
          "name": "poolName",
          "type": "string"
        }
      ],
      "name": "PoolCreated",
      "type": "event"
    },
    {
      "anonymous": false,
      "inputs": [
        {
          "indexed": true,
          "internalType": "uint256",
          "name": "poolId",
          "type": "uint256"
        },
        {
          "indexed": false,
          "internalType": "uint256",
          "name": "apy",
          "type": "uint256"
        },
        {
          "indexed": false,
          "internalType": "uint256",
          "name": "_minPeriod",
          "type": "uint256"
        }
      ],
      "name": "PoolUpdated",
      "type": "event"
    },
    {
      "anonymous": false,
      "inputs": [
        {
          "indexed": true,
          "internalType": "address",
          "name": "user",
          "type": "address"
        },
        {
          "indexed": false,
          "internalType": "uint256",
          "name": "amount",
          "type": "uint256"
        },
        {
          "indexed": false,
          "internalType": "string",
          "name": "pool",
          "type": "string"
        }
      ],
      "name": "VaultWithdrawalInitiated",
      "type": "event"
    },
    {
      "inputs": [],
      "name": "ICoverContract",
      "outputs": [
        {
          "internalType": "contract ICover",
          "name": "",
          "type": "address"
        }
      ],
      "stateMutability": "view",
      "type": "function"
    },
    {
      "inputs": [],
      "name": "IGovernanceContract",
      "outputs": [
        {
          "internalType": "contract IGov",
          "name": "",
          "type": "address"
        }
      ],
      "stateMutability": "view",
      "type": "function"
    },
    {
      "inputs": [],
      "name": "IPoolContract",
      "outputs": [
        {
          "internalType": "contract IPool",
          "name": "",
          "type": "address"
        }
      ],
      "stateMutability": "view",
      "type": "function"
    },
    {
      "inputs": [],
      "name": "bqBTC",
      "outputs": [
        {
          "internalType": "contract IbqBTC",
          "name": "",
          "type": "address"
        }
      ],
      "stateMutability": "view",
      "type": "function"
    },
    {
      "inputs": [],
      "name": "bqBTCAddress",
      "outputs": [
        {
          "internalType": "address",
          "name": "",
          "type": "address"
        }
      ],
      "stateMutability": "view",
      "type": "function"
    },
    {
      "inputs": [],
      "name": "coverContract",
      "outputs": [
        {
          "internalType": "address",
          "name": "",
          "type": "address"
        }
      ],
      "stateMutability": "view",
      "type": "function"
    },
    {
      "inputs": [
        {
          "internalType": "string",
          "name": "_vaultName",
          "type": "string"
        },
        {
          "internalType": "enum CoverLib.RiskType",
          "name": "risk",
          "type": "uint8"
        },
        {
          "internalType": "uint256[]",
          "name": "_poolIds",
          "type": "uint256[]"
        },
        {
          "internalType": "uint256[]",
          "name": "poolPercentageSplit",
          "type": "uint256[]"
        },
        {
          "internalType": "uint256",
          "name": "_minInv",
          "type": "uint256"
        },
        {
          "internalType": "uint256",
          "name": "_maxInv",
          "type": "uint256"
        },
        {
          "internalType": "uint256",
          "name": "_minPeriod",
          "type": "uint256"
        },
        {
          "internalType": "enum CoverLib.AssetDepositType",
          "name": "adt",
          "type": "uint8"
        },
        {
          "internalType": "address",
          "name": "asset",
          "type": "address"
        }
      ],
      "name": "createVault",
      "outputs": [],
      "stateMutability": "nonpayable",
      "type": "function"
    },
    {
      "inputs": [
        {
          "internalType": "address",
          "name": "",
          "type": "address"
        },
        {
          "internalType": "uint256",
          "name": "",
          "type": "uint256"
        },
        {
          "internalType": "enum CoverLib.DepositType",
          "name": "",
          "type": "uint8"
        }
      ],
      "name": "deposits",
      "outputs": [
        {
          "internalType": "address",
          "name": "lp",
          "type": "address"
        },
        {
          "internalType": "uint256",
          "name": "amount",
          "type": "uint256"
        },
        {
          "internalType": "uint256",
          "name": "poolId",
          "type": "uint256"
        },
        {
          "internalType": "uint256",
          "name": "dailyPayout",
          "type": "uint256"
        },
        {
          "internalType": "enum CoverLib.Status",
          "name": "status",
          "type": "uint8"
        },
        {
          "internalType": "uint256",
          "name": "daysLeft",
          "type": "uint256"
        },
        {
          "internalType": "uint256",
          "name": "startDate",
          "type": "uint256"
        },
        {
          "internalType": "uint256",
          "name": "withdrawalInitiated",
          "type": "uint256"
        },
        {
          "internalType": "uint256",
          "name": "accruedPayout",
          "type": "uint256"
        },
        {
          "internalType": "enum CoverLib.DepositType",
          "name": "pdt",
          "type": "uint8"
        }
      ],
      "stateMutability": "view",
      "type": "function"
    },
    {
      "inputs": [
        {
          "internalType": "uint256",
          "name": "vaultId",
          "type": "uint256"
        },
        {
          "internalType": "address",
          "name": "user",
          "type": "address"
        }
      ],
      "name": "getUserVaultDeposit",
      "outputs": [
        {
          "components": [
            {
              "internalType": "address",
              "name": "lp",
              "type": "address"
            },
            {
              "internalType": "uint256",
              "name": "amount",
              "type": "uint256"
            },
            {
              "internalType": "uint256",
              "name": "vaultId",
              "type": "uint256"
            },
            {
              "internalType": "uint256",
              "name": "dailyPayout",
              "type": "uint256"
            },
            {
              "internalType": "uint256",
              "name": "vaultApy",
              "type": "uint256"
            },
            {
              "internalType": "enum CoverLib.Status",
              "name": "status",
              "type": "uint8"
            },
            {
              "internalType": "uint256",
              "name": "daysLeft",
              "type": "uint256"
            },
            {
              "internalType": "uint256",
              "name": "startDate",
              "type": "uint256"
            },
            {
              "internalType": "uint256",
              "name": "expiryDate",
              "type": "uint256"
            },
            {
              "internalType": "uint256",
              "name": "withdrawalInitiated",
              "type": "uint256"
            },
            {
              "internalType": "uint256",
              "name": "accruedPayout",
              "type": "uint256"
            },
            {
              "internalType": "enum CoverLib.AssetDepositType",
              "name": "assetType",
              "type": "uint8"
            },
            {
              "internalType": "address",
              "name": "asset",
              "type": "address"
            }
          ],
          "internalType": "struct Vaults.VaultDeposit",
          "name": "",
          "type": "tuple"
        }
      ],
      "stateMutability": "view",
      "type": "function"
    },
    {
      "inputs": [
        {
          "internalType": "address",
          "name": "user",
          "type": "address"
        }
      ],
      "name": "getUserVaultDeposits",
      "outputs": [
        {
          "components": [
            {
              "internalType": "address",
              "name": "lp",
              "type": "address"
            },
            {
              "internalType": "uint256",
              "name": "amount",
              "type": "uint256"
            },
            {
              "internalType": "uint256",
              "name": "vaultId",
              "type": "uint256"
            },
            {
              "internalType": "uint256",
              "name": "dailyPayout",
              "type": "uint256"
            },
            {
              "internalType": "uint256",
              "name": "vaultApy",
              "type": "uint256"
            },
            {
              "internalType": "enum CoverLib.Status",
              "name": "status",
              "type": "uint8"
            },
            {
              "internalType": "uint256",
              "name": "daysLeft",
              "type": "uint256"
            },
            {
              "internalType": "uint256",
              "name": "startDate",
              "type": "uint256"
            },
            {
              "internalType": "uint256",
              "name": "expiryDate",
              "type": "uint256"
            },
            {
              "internalType": "uint256",
              "name": "withdrawalInitiated",
              "type": "uint256"
            },
            {
              "internalType": "uint256",
              "name": "accruedPayout",
              "type": "uint256"
            },
            {
              "internalType": "enum CoverLib.AssetDepositType",
              "name": "assetType",
              "type": "uint8"
            },
            {
              "internalType": "address",
              "name": "asset",
              "type": "address"
            }
          ],
          "internalType": "struct Vaults.VaultDeposit[]",
          "name": "",
          "type": "tuple[]"
        },
        {
          "internalType": "string[][]",
          "name": "",
          "type": "string[][]"
        }
      ],
      "stateMutability": "view",
      "type": "function"
    },
    {
      "inputs": [
        {
          "internalType": "uint256",
          "name": "vaultId",
          "type": "uint256"
        },
        {
          "internalType": "address",
          "name": "user",
          "type": "address"
        }
      ],
      "name": "getUserVaultPoolDeposits",
      "outputs": [
        {
          "components": [
            {
              "internalType": "address",
              "name": "lp",
              "type": "address"
            },
            {
              "internalType": "uint256",
              "name": "amount",
              "type": "uint256"
            },
            {
              "internalType": "uint256",
              "name": "poolId",
              "type": "uint256"
            },
            {
              "internalType": "uint256",
              "name": "dailyPayout",
              "type": "uint256"
            },
            {
              "internalType": "enum CoverLib.Status",
              "name": "status",
              "type": "uint8"
            },
            {
              "internalType": "uint256",
              "name": "daysLeft",
              "type": "uint256"
            },
            {
              "internalType": "uint256",
              "name": "startDate",
              "type": "uint256"
            },
            {
              "internalType": "uint256",
              "name": "withdrawalInitiated",
              "type": "uint256"
            },
            {
              "internalType": "uint256",
              "name": "accruedPayout",
              "type": "uint256"
            },
            {
              "internalType": "enum CoverLib.DepositType",
              "name": "pdt",
              "type": "uint8"
            }
          ],
          "internalType": "struct CoverLib.Deposits[]",
          "name": "",
          "type": "tuple[]"
        }
      ],
      "stateMutability": "view",
      "type": "function"
    },
    {
      "inputs": [
        {
          "internalType": "uint256",
          "name": "vaultId",
          "type": "uint256"
        }
      ],
      "name": "getVault",
      "outputs": [
        {
          "components": [
            {
              "internalType": "uint256",
              "name": "id",
              "type": "uint256"
            },
            {
              "internalType": "string",
              "name": "vaultName",
              "type": "string"
            },
            {
              "internalType": "enum CoverLib.RiskType",
              "name": "risk",
              "type": "uint8"
            },
            {
              "components": [
                {
                  "internalType": "uint256",
                  "name": "id",
                  "type": "uint256"
                },
                {
                  "internalType": "string",
                  "name": "poolName",
                  "type": "string"
                },
                {
                  "internalType": "string",
                  "name": "rating",
                  "type": "string"
                },
                {
                  "internalType": "enum CoverLib.RiskType",
                  "name": "riskType",
                  "type": "uint8"
                },
                {
                  "internalType": "uint256",
                  "name": "apy",
                  "type": "uint256"
                },
                {
                  "internalType": "uint256",
                  "name": "minPeriod",
                  "type": "uint256"
                },
                {
                  "internalType": "uint256",
                  "name": "totalUnit",
                  "type": "uint256"
                },
                {
                  "internalType": "uint256",
                  "name": "tvl",
                  "type": "uint256"
                },
                {
                  "internalType": "uint256",
                  "name": "baseValue",
                  "type": "uint256"
                },
                {
                  "internalType": "uint256",
                  "name": "coverUnits",
                  "type": "uint256"
                },
                {
                  "internalType": "uint256",
                  "name": "tcp",
                  "type": "uint256"
                },
                {
                  "internalType": "bool",
                  "name": "isActive",
                  "type": "bool"
                },
                {
                  "internalType": "uint256",
                  "name": "percentageSplitBalance",
                  "type": "uint256"
                },
                {
                  "internalType": "uint256",
                  "name": "investmentArmPercent",
                  "type": "uint256"
                },
                {
                  "internalType": "uint8",
                  "name": "leverage",
                  "type": "uint8"
                },
                {
                  "internalType": "address",
                  "name": "asset",
                  "type": "address"
                },
                {
                  "internalType": "enum CoverLib.AssetDepositType",
                  "name": "assetType",
                  "type": "uint8"
                }
              ],
              "internalType": "struct CoverLib.Pool[]",
              "name": "pools",
              "type": "tuple[]"
            },
            {
              "internalType": "uint256",
              "name": "apy",
              "type": "uint256"
            },
            {
              "internalType": "uint256",
              "name": "minInv",
              "type": "uint256"
            },
            {
              "internalType": "uint256",
              "name": "maxInv",
              "type": "uint256"
            },
            {
              "internalType": "uint256",
              "name": "minPeriod",
              "type": "uint256"
            },
            {
              "internalType": "enum CoverLib.AssetDepositType",
              "name": "assetType",
              "type": "uint8"
            },
            {
              "internalType": "address",
              "name": "asset",
              "type": "address"
            }
          ],
          "internalType": "struct Vaults.Vault",
          "name": "",
          "type": "tuple"
        }
      ],
      "stateMutability": "view",
      "type": "function"
    },
    {
      "inputs": [],
      "name": "getVaultCount",
      "outputs": [
        {
          "internalType": "uint256",
          "name": "",
          "type": "uint256"
        }
      ],
      "stateMutability": "view",
      "type": "function"
    },
    {
      "inputs": [
        {
          "internalType": "uint256",
          "name": "vaultId",
          "type": "uint256"
        }
      ],
      "name": "getVaultPools",
      "outputs": [
        {
          "components": [
            {
              "internalType": "uint256",
              "name": "id",
              "type": "uint256"
            },
            {
              "internalType": "string",
              "name": "poolName",
              "type": "string"
            },
            {
              "internalType": "string",
              "name": "rating",
              "type": "string"
            },
            {
              "internalType": "enum CoverLib.RiskType",
              "name": "riskType",
              "type": "uint8"
            },
            {
              "internalType": "uint256",
              "name": "apy",
              "type": "uint256"
            },
            {
              "internalType": "uint256",
              "name": "minPeriod",
              "type": "uint256"
            },
            {
              "internalType": "uint256",
              "name": "totalUnit",
              "type": "uint256"
            },
            {
              "internalType": "uint256",
              "name": "tvl",
              "type": "uint256"
            },
            {
              "internalType": "uint256",
              "name": "baseValue",
              "type": "uint256"
            },
            {
              "internalType": "uint256",
              "name": "coverUnits",
              "type": "uint256"
            },
            {
              "internalType": "uint256",
              "name": "tcp",
              "type": "uint256"
            },
            {
              "internalType": "bool",
              "name": "isActive",
              "type": "bool"
            },
            {
              "internalType": "uint256",
              "name": "percentageSplitBalance",
              "type": "uint256"
            },
            {
              "internalType": "uint256",
              "name": "investmentArmPercent",
              "type": "uint256"
            },
            {
              "internalType": "uint8",
              "name": "leverage",
              "type": "uint8"
            },
            {
              "internalType": "address",
              "name": "asset",
              "type": "address"
            },
            {
              "internalType": "enum CoverLib.AssetDepositType",
              "name": "assetType",
              "type": "uint8"
            }
          ],
          "internalType": "struct CoverLib.Pool[]",
          "name": "",
          "type": "tuple[]"
        }
      ],
      "stateMutability": "view",
      "type": "function"
    },
    {
      "inputs": [],
      "name": "getVaults",
      "outputs": [
        {
          "components": [
            {
              "internalType": "uint256",
              "name": "id",
              "type": "uint256"
            },
            {
              "internalType": "string",
              "name": "vaultName",
              "type": "string"
            },
            {
              "internalType": "enum CoverLib.RiskType",
              "name": "risk",
              "type": "uint8"
            },
            {
              "components": [
                {
                  "internalType": "uint256",
                  "name": "id",
                  "type": "uint256"
                },
                {
                  "internalType": "string",
                  "name": "poolName",
                  "type": "string"
                },
                {
                  "internalType": "string",
                  "name": "rating",
                  "type": "string"
                },
                {
                  "internalType": "enum CoverLib.RiskType",
                  "name": "riskType",
                  "type": "uint8"
                },
                {
                  "internalType": "uint256",
                  "name": "apy",
                  "type": "uint256"
                },
                {
                  "internalType": "uint256",
                  "name": "minPeriod",
                  "type": "uint256"
                },
                {
                  "internalType": "uint256",
                  "name": "totalUnit",
                  "type": "uint256"
                },
                {
                  "internalType": "uint256",
                  "name": "tvl",
                  "type": "uint256"
                },
                {
                  "internalType": "uint256",
                  "name": "baseValue",
                  "type": "uint256"
                },
                {
                  "internalType": "uint256",
                  "name": "coverUnits",
                  "type": "uint256"
                },
                {
                  "internalType": "uint256",
                  "name": "tcp",
                  "type": "uint256"
                },
                {
                  "internalType": "bool",
                  "name": "isActive",
                  "type": "bool"
                },
                {
                  "internalType": "uint256",
                  "name": "percentageSplitBalance",
                  "type": "uint256"
                },
                {
                  "internalType": "uint256",
                  "name": "investmentArmPercent",
                  "type": "uint256"
                },
                {
                  "internalType": "uint8",
                  "name": "leverage",
                  "type": "uint8"
                },
                {
                  "internalType": "address",
                  "name": "asset",
                  "type": "address"
                },
                {
                  "internalType": "enum CoverLib.AssetDepositType",
                  "name": "assetType",
                  "type": "uint8"
                }
              ],
              "internalType": "struct CoverLib.Pool[]",
              "name": "pools",
              "type": "tuple[]"
            },
            {
              "internalType": "uint256",
              "name": "apy",
              "type": "uint256"
            },
            {
              "internalType": "uint256",
              "name": "minInv",
              "type": "uint256"
            },
            {
              "internalType": "uint256",
              "name": "maxInv",
              "type": "uint256"
            },
            {
              "internalType": "uint256",
              "name": "minPeriod",
              "type": "uint256"
            },
            {
              "internalType": "enum CoverLib.AssetDepositType",
              "name": "assetType",
              "type": "uint8"
            },
            {
              "internalType": "address",
              "name": "asset",
              "type": "address"
            }
          ],
          "internalType": "struct Vaults.Vault[]",
          "name": "",
          "type": "tuple[]"
        }
      ],
      "stateMutability": "view",
      "type": "function"
    },
    {
      "inputs": [],
      "name": "governance",
      "outputs": [
        {
          "internalType": "address",
          "name": "",
          "type": "address"
        }
      ],
      "stateMutability": "view",
      "type": "function"
    },
    {
      "inputs": [],
      "name": "initialOwner",
      "outputs": [
        {
          "internalType": "address",
          "name": "",
          "type": "address"
        }
      ],
      "stateMutability": "view",
      "type": "function"
    },
    {
      "inputs": [
        {
          "internalType": "uint256",
          "name": "_vaultId",
          "type": "uint256"
        }
      ],
      "name": "initialVaultWithdraw",
      "outputs": [],
      "stateMutability": "nonpayable",
      "type": "function"
    },
    {
      "inputs": [],
      "name": "owner",
      "outputs": [
        {
          "internalType": "address",
          "name": "",
          "type": "address"
        }
      ],
      "stateMutability": "view",
      "type": "function"
    },
    {
      "inputs": [
        {
          "internalType": "uint256",
          "name": "",
          "type": "uint256"
        }
      ],
      "name": "participants",
      "outputs": [
        {
          "internalType": "address",
          "name": "",
          "type": "address"
        }
      ],
      "stateMutability": "view",
      "type": "function"
    },
    {
      "inputs": [
        {
          "internalType": "address",
          "name": "",
          "type": "address"
        }
      ],
      "name": "participation",
      "outputs": [
        {
          "internalType": "uint256",
          "name": "",
          "type": "uint256"
        }
      ],
      "stateMutability": "view",
      "type": "function"
    },
    {
      "inputs": [],
      "name": "poolCanister",
      "outputs": [
        {
          "internalType": "address",
          "name": "",
          "type": "address"
        }
      ],
      "stateMutability": "view",
      "type": "function"
    },
    {
      "inputs": [],
      "name": "poolContract",
      "outputs": [
        {
          "internalType": "address",
          "name": "",
          "type": "address"
        }
      ],
      "stateMutability": "view",
      "type": "function"
    },
    {
      "inputs": [],
      "name": "renounceOwnership",
      "outputs": [],
      "stateMutability": "nonpayable",
      "type": "function"
    },
    {
      "inputs": [
        {
          "internalType": "address",
          "name": "_coverContract",
          "type": "address"
        }
      ],
      "name": "setCover",
      "outputs": [],
      "stateMutability": "nonpayable",
      "type": "function"
    },
    {
      "inputs": [
        {
          "internalType": "address",
          "name": "_governance",
          "type": "address"
        }
      ],
      "name": "setGovernance",
      "outputs": [],
      "stateMutability": "nonpayable",
      "type": "function"
    },
    {
      "inputs": [
        {
          "internalType": "address",
          "name": "_poolcontract",
          "type": "address"
        }
      ],
      "name": "setPool",
      "outputs": [],
      "stateMutability": "nonpayable",
      "type": "function"
    },
    {
      "inputs": [
        {
          "internalType": "address",
          "name": "_poolcanister",
          "type": "address"
        }
      ],
      "name": "setPoolCanister",
      "outputs": [],
      "stateMutability": "nonpayable",
      "type": "function"
    },
    {
      "inputs": [
        {
          "internalType": "uint256",
          "name": "vaultId",
          "type": "uint256"
        },
        {
          "internalType": "address",
          "name": "user",
          "type": "address"
        }
      ],
      "name": "setUserVaultDepositToZero",
      "outputs": [],
      "stateMutability": "nonpayable",
      "type": "function"
    },
    {
      "inputs": [
        {
          "internalType": "address",
          "name": "newOwner",
          "type": "address"
        }
      ],
      "name": "transferOwnership",
      "outputs": [],
      "stateMutability": "nonpayable",
      "type": "function"
    },
    {
      "inputs": [
        {
          "internalType": "address",
          "name": "",
          "type": "address"
        },
        {
          "internalType": "uint256",
          "name": "",
          "type": "uint256"
        }
      ],
      "name": "userVaultDeposits",
      "outputs": [
        {
          "internalType": "address",
          "name": "lp",
          "type": "address"
        },
        {
          "internalType": "uint256",
          "name": "amount",
          "type": "uint256"
        },
        {
          "internalType": "uint256",
          "name": "vaultId",
          "type": "uint256"
        },
        {
          "internalType": "uint256",
          "name": "dailyPayout",
          "type": "uint256"
        },
        {
          "internalType": "uint256",
          "name": "vaultApy",
          "type": "uint256"
        },
        {
          "internalType": "enum CoverLib.Status",
          "name": "status",
          "type": "uint8"
        },
        {
          "internalType": "uint256",
          "name": "daysLeft",
          "type": "uint256"
        },
        {
          "internalType": "uint256",
          "name": "startDate",
          "type": "uint256"
        },
        {
          "internalType": "uint256",
          "name": "expiryDate",
          "type": "uint256"
        },
        {
          "internalType": "uint256",
          "name": "withdrawalInitiated",
          "type": "uint256"
        },
        {
          "internalType": "uint256",
          "name": "accruedPayout",
          "type": "uint256"
        },
        {
          "internalType": "enum CoverLib.AssetDepositType",
          "name": "assetType",
          "type": "uint8"
        },
        {
          "internalType": "address",
          "name": "asset",
          "type": "address"
        }
      ],
      "stateMutability": "view",
      "type": "function"
    },
    {
      "inputs": [],
      "name": "vaultCount",
      "outputs": [
        {
          "internalType": "uint256",
          "name": "",
          "type": "uint256"
        }
      ],
      "stateMutability": "view",
      "type": "function"
    },
    {
      "inputs": [
        {
          "internalType": "uint256",
          "name": "_vaultId",
          "type": "uint256"
        },
        {
          "internalType": "uint256",
          "name": "_amount",
          "type": "uint256"
        }
      ],
      "name": "vaultDeposit",
      "outputs": [],
      "stateMutability": "payable",
      "type": "function"
    },
    {
      "inputs": [
        {
          "internalType": "uint256",
          "name": "",
          "type": "uint256"
        },
        {
          "internalType": "uint256",
          "name": "",
          "type": "uint256"
        }
      ],
      "name": "vaultPercentageSplits",
      "outputs": [
        {
          "internalType": "uint256",
          "name": "",
          "type": "uint256"
        }
      ],
      "stateMutability": "view",
      "type": "function"
    },
    {
      "inputs": [
        {
          "internalType": "uint256",
          "name": "",
          "type": "uint256"
        }
      ],
      "name": "vaults",
      "outputs": [
        {
          "internalType": "uint256",
          "name": "id",
          "type": "uint256"
        },
        {
          "internalType": "string",
          "name": "vaultName",
          "type": "string"
        },
        {
          "internalType": "enum CoverLib.RiskType",
          "name": "risk",
          "type": "uint8"
        },
        {
          "internalType": "uint256",
          "name": "apy",
          "type": "uint256"
        },
        {
          "internalType": "uint256",
          "name": "minInv",
          "type": "uint256"
        },
        {
          "internalType": "uint256",
          "name": "maxInv",
          "type": "uint256"
        },
        {
          "internalType": "uint256",
          "name": "minPeriod",
          "type": "uint256"
        },
        {
          "internalType": "enum CoverLib.AssetDepositType",
          "name": "assetType",
          "type": "uint8"
        },
        {
          "internalType": "address",
          "name": "asset",
          "type": "address"
        }
      ],
      "stateMutability": "view",
      "type": "function"
    }
  ],
  "bytecode": "0x60803460d657601f61316b38819003918201601f19168301916001600160401b0383118484101760db5780849260209460405283398101031260d657516001600160a01b0381169081900360d6576001600055801560c057600180546001600160a01b031981168317909155604051919081906001600160a01b03167f8be0079c531659141344cd1fd0a4f28419497f9722a3daafe3b4186f6b6457e0600080a3601080546001600160a01b03191691909117905561307990816100f28239f35b631e4fbdf760e01b600052600060045260246000fd5b600080fd5b634e487b7160e01b600052604160045260246000fdfe6080604052600436101561001257600080fd5b60003560e01c80631690927d146126925780631bec14a11461265f5780631f8be73c14612599578063215baab714611a8e578063248a75b714611a6557806325ac1938146116af57806329ba7bb21461168657806334808ec31461165d57806335c1d349146116025780634437152a1461152657806344d00f821461140d57806357656486146112fe5780635aa6e675146112d55780635f267c55146112ac57806360ebd71814611269578063715018a61461120c57806372bafbde14610f8c57806374d4e49114610be85780637c366cc614610eaf57806388d52ef714610e865780638c64ea4a14610dc85780638da5cb5b14610d9f5780639403b63414610d5257806396f3a8ad14610d18578063996b8a6f14610cef578063a69ddee614610c06578063a7c6a10014610be8578063ab033ea914610af9578063b30703cd14610ad0578063b38375e9146109da578063b5d90c28146109b1578063c59ecad81461048b578063d000626514610255578063f2fde38b146101cb5763f6e805581461019d57600080fd5b346101c65760003660031901126101c6576008546040516001600160a01b039091168152602090f35b600080fd5b346101c65760203660031901126101c6576101e461277f565b6101ec612fd8565b6001600160a01b0316801561023f57600180546001600160a01b0319811683179091556001600160a01b03167f8be0079c531659141344cd1fd0a4f28419497f9722a3daafe3b4186f6b6457e0600080a3005b631e4fbdf760e01b600052600060045260246000fd5b346101c65760203660031901126101c657600435610271612fb6565b3360005260056020526040600020816000526020526040600020906001820180541561043c57600583019160ff8354166102aa816127cb565b6103ff57600884015442106103ba5760005260036020526102ce6040600020612e8b565b9060009360608301945b8551805182101561036457816102ed91612f29565b51516009546001600160a01b03169190823b156101c657600092606484926040519586938492630380dd7f60e61b84523360048501526024840152600160448401525af191821561035857600192610347575b50016102d8565b60006103529161283f565b87610340565b6040513d6000823e3d90fd5b855460ff191660021786554260098401558354602086015160405133927f5cc6e6e6e1779c899a2e4c7a7eabc92a9be18b1efbd37971bb8fcfba46ec24d99282916103b0919083612f9c565b0390a26001600055005b60405162461bcd60e51b815260206004820152601c60248201527f4465706f73697420706572696f6420686173206e6f7420656e646564000000006044820152606490fd5b60405162461bcd60e51b81526020600482015260156024820152744465706f736974206973206e6f742061637469766560581b6044820152606490fd5b60405162461bcd60e51b815260206004820152602160248201527f4e6f206465706f73697420666f756e6420666f722074686973206164647265736044820152607360f81b6064820152608490fd5b610494366127d5565b9061049d612fb6565b8060005260036020526104b36040600020612e8b565b90606082018051511561097657600090846101208501610100860184805b8551805183101561079c57826104e691612f29565b515190886000526002602052604060002082600052602052606461051c81610514604060002054998a612f89565b049734612f89565b04845190610529826127ab565b60018060a01b038751169060405160c08101918183106001600160401b038411176107865760409460c493865233835260208301948886528684019c8d52606084019160018352608085019061057e816127ab565b815260a0850191825260095488516305cf023360e21b815295516001600160a01b039081166004880152975160248701529d5160448601529151939c8d968795911692906105cb816127ab565b6064860152516105da816127ab565b6084850152516001600160a01b031660a48401525af190811561035857600096879261073e575b508161061d886106176001979695600995612c97565b9b612c97565b9760a061062b868c51612f29565b5101516040519261063b84612823565b338452602084019283526040840191868352606085019182526106fc608086016000815260a0870192835260c087019342855260e088019560008752610100890197600089526101208a019b8e8d5233600052600460205260406000209060005260205260406000208e6000526020526040600020998e8060a01b03908f8060a01b03905116166bffffffffffffffffffffffff60a01b8b5416178a55518d8a0155516002890155516003880155516106f3816127cb565b60048701612cbc565b516005850155516006840155516007830155516008820155019051610720816127ab565b610729816127ab565b60ff80198354169116179055018893956104d1565b915091929394956040823d821161077e575b8161075d6040938361283f565b8101031261077b575080516020909101519095949392916009610601565b80fd5b3d9150610750565b634e487b7160e01b600052604160045260246000fd5b858a8686858d8d60808601519360e087015194620151808602868104620151801487151715610960576107cf9042612c97565b9151966107db886127ab565b516040516001600160a01b039091169690956107f687612807565b338752602087019485526040870192868452606088019182526080880190815260a08801916000835260c0890193845260e08901944286526101008a019687526101208a0197600089526101408b019960008b526101608c019d8e61085a826127ab565b526101808c019c8d52336000908152600560209081526040808320938352929052209a518b546001600160a01b0319166001600160a01b0391909116178b555160018b01555160028a0155516003890155516004880155516108bb816127cb565b6108c89060058801612cbc565b51600686015551600785015551600884015551600983015551600a820155600b0191516108f4816127ab565b6108fe9083612ca4565b518154610100600160a81b03191660089190911b610100600160a81b03161790556020015190604051809133936109359183612f9c565b037f6f85d9948d6ca3dd6ce6ce7d175da22b4e865827ae6fcd530ec7edac1240f92891a26001600055005b634e487b7160e01b600052601160045260246000fd5b60405162461bcd60e51b81526020600482015260136024820152725661756c74206973206e6f742061637469766560681b6044820152606490fd5b346101c65760003660031901126101c657600a546040516001600160a01b039091168152602090f35b346101c65760403660031901126101c6576001600160a01b036109fb61277f565b16600052600560205260406000206024356000526020526101a0604060002060018060a01b038154169060018101546002820154916003810154600482015460ff6005840154166006840154600785015491600886015493600987015495600b600a8901549801549960ff8b16996040519c8d5260208d015260408c015260608b015260808a0152610a8c816127cb565b60a089015260c088015260e0870152610100860152610120850152610140840152610ab6816127ab565b61016083015260081c6001600160a01b0316610180820152f35b346101c65760003660031901126101c6576009546040516001600160a01b039091168152602090f35b346101c65760203660031901126101c657610b1261277f565b610b1a612fd8565b600754906001600160a01b038216610baa576001600160a01b0316908115610b5b576001600160a01b03199081168217600755600a80549091169091179055005b60405162461bcd60e51b815260206004820152602160248201527f476f7665726e616e636520616464726573732063616e6e6f74206265207a65726044820152606f60f81b6064820152608490fd5b60405162461bcd60e51b815260206004820152601660248201527511dbdd995c9b985b98d948185b1c9958591e481cd95d60521b6044820152606490fd5b346101c65760003660031901126101c6576020600654604051908152f35b346101c65760203660031901126101c657610c1f61277f565b610c27612fd8565b600d54906001600160a01b038216610caa576001600160a01b0316908115610c59576001600160a01b03191617600d55005b60405162461bcd60e51b8152602060048201526024808201527f506f6f6c2043616e697374657220616464726573732063616e6e6f74206265206044820152637a65726f60e01b6064820152608490fd5b60405162461bcd60e51b815260206004820152601960248201527f506f6f6c2043616e697374657220616c726561647920736574000000000000006044820152606490fd5b346101c65760003660031901126101c657600e546040516001600160a01b039091168152602090f35b346101c65760203660031901126101c6576001600160a01b03610d3961277f565b1660005260126020526020604060002054604051908152f35b346101c65760203660031901126101c657610d6b612f3d565b506004356000526003602052610d9b610d876040600020612e8b565b604051918291602083526020830190612b1e565b0390f35b346101c65760003660031901126101c6576001546040516001600160a01b039091168152602090f35b346101c65760203660031901126101c657600435600052600360205260406000208054610df760018301612bf3565b9160ff6002820154169060048101546005820154916006810154600860078301549201549360ff851693610e3f604051998a998a5261012060208b01526101208a01906129bb565b96610e49816127cb565b60408901526060880152608087015260a086015260c0850152610e6b816127ab565b60e084015260081c6001600160a01b03166101008301520390f35b346101c65760003660031901126101c657600c546040516001600160a01b039091168152602090f35b346101c65760203660031901126101c657610ec861277f565b610ed0612fd8565b600f54906001600160a01b038216610f53576001600160a01b0316908115610f0e57600880546001600160a01b031990811684179091551617600f55005b60405162461bcd60e51b815260206004820152601c60248201527f436f76657220616464726573732063616e6e6f74206265207a65726f000000006044820152606490fd5b60405162461bcd60e51b815260206004820152601160248201527010dbdd995c88185b1c9958591e481cd95d607a1b6044820152606490fd5b346101c65760403660031901126101c657610fa5612795565b60043560005260036020526060610fbf6040600020612e8b565b019081515191610fce8361287b565b92610fdc604051948561283f565b808452610feb601f199161287b565b0160005b8181106111ad575090916001600160a01b0316905060005b82519081518110156110ec5761101f81600193612f29565b5151836000526004602052604060002090600052602052604060002082600052602052604060002060ff60096040519261105884612823565b858060a01b038154168452858101546020850152600281015460408501526003810154606085015282600482015416611090816127cb565b6080850152600581015460a0850152600681015460c0850152600781015460e085015260088101546101008501520154166110ca816127ab565b6101208201526110da8287612f29565b526110e58186612f29565b5001611007565b8460405180916020820160208352815180915260206040840192019060005b818110611119575050500390f35b9193509160206101406001926101208751858060a01b03815116835284810151858401526040810151604084015260608101516060840152608081015161115f816127cb565b608084015260a081015160a084015260c081015160c084015260e081015160e08401526101008101516101008401520151611199816127ab565b61012082015201940191019184939261110b565b6020906040516111bc81612823565b60008152600083820152600060408201526000606082015260006080820152600060a0820152600060c0820152600060e08201526000610100820152600061012082015282828801015201610fef565b346101c65760003660031901126101c657611225612fd8565b600180546001600160a01b031981169091556000906001600160a01b03167f8be0079c531659141344cd1fd0a4f28419497f9722a3daafe3b4186f6b6457e08280a3005b346101c65760203660031901126101c6576004356000526003602052610d9b6112986003604060002001612d52565b6040519182916020835260208301906129e0565b346101c65760003660031901126101c657600d546040516001600160a01b039091168152602090f35b346101c65760003660031901126101c6576007546040516001600160a01b039091168152602090f35b346101c65760403660031901126101c657611317612795565b61131f612cd5565b5060018060a01b0316600052600560205260406000206004356000526020526101a06040600020600b6040519161135583612807565b80546001600160a01b0316835260018101546020840152600281015460408401526003810154606084015260048101546080840152600581015460ff1661139b816127cb565b60a0840152600681015460c0840152600781015460e084015260088101546101008401526009810154610120840152600a810154610140840152015460ff81166113e4816127ab565b61016083015260081c6001600160a01b03166101808201526040519061140b9082906128ef565bf35b346101c65760003660031901126101c65760065461142a8161287b565b90611438604051928361283f565b808252601f196114478261287b565b0160005b81811061150f57505060015b818111156114c757826040518091602082016020835281518091526040830190602060408260051b8601019301916000905b82821061149857505050500390f35b919360019193955060206114b78192603f198a82030186528851612b1e565b9601920192018594939192611489565b8060005260036020526040600020906000198101918183116109605761150a926114f361150492612e8b565b6114fd8288612f29565b5285612f29565b50612cc6565b611457565b60209061151a612f3d565b8282870101520161144b565b346101c65760203660031901126101c65761153f61277f565b611547612fd8565b600c54906001600160a01b0382166115ca576001600160a01b031690811561158557600980546001600160a01b031990811684179091551617600c55005b60405162461bcd60e51b815260206004820152601b60248201527f506f6f6c20616464726573732063616e6e6f74206265207a65726f00000000006044820152606490fd5b60405162461bcd60e51b815260206004820152601060248201526f141bdbdb08185b1c9958591e481cd95d60821b6044820152606490fd5b346101c65760203660031901126101c6576004356011548110156101c65760116000527f31ecc21a745e3968a04e9570e4425bc18fa8019c68028196b546d1669c200c6801546040516001600160a01b039091168152602090f35b346101c65760003660031901126101c657600b546040516001600160a01b039091168152602090f35b346101c65760003660031901126101c6576010546040516001600160a01b039091168152602090f35b346101c65760203660031901126101c6576116c861277f565b600654906000906001600160a01b031660015b83811115611a1f57506116ed8261287b565b926116fb604051948561283f565b828452601f1961170a8461287b565b0160005b818110611a085750506117396117238461287b565b93611731604051958661283f565b80855261287b565b9161174c6020850193601f190184612d35565b60009060015b838111156118485750505050604051916040830160408452845180915260206060850195019060005b81811061182757505050828403602084015251808452602084019060208160051b86010192916000905b8282106117b25785850386f35b90919293601f19878203018252845190815180825260208201906020808260051b85010194019260005b8281106117fc5750505050506020806001929601920192019092916117a5565b909192939460208061181a600193601f1987820301895289516129bb565b97019501939291016117dc565b90919560206101a08261183d6001948b516128ef565b01970192910161177b565b81600052600560205260406000208160005260205260406000206040519061186f82612807565b80546001600160a01b0316825260018101546020830190815260028201546040840152600382015460608401526004820154608084015260058201549091600b9160ff166118bc816127cb565b60a0850152600681015460c0850152600781015460e085015260088101546101008501526009810154610120850152600a810154610140850152015460ff8116611905816127ab565b61016084015260081c6001600160a01b031661018083015251611932575b5061192d90612cc6565b611752565b93816000979294939752600360205260606119506040600020612e8b565b0196875151966119896119628961287b565b986119706040519a8b61283f565b808a5261197f601f199161287b565b0160208a01612d35565b60005b895180518210156119c5579060206119a682600194612f29565b5101516119b3828c612f29565b526119be818b612f29565b500161198c565b50509661192d939850611a0192969491946119e0838c612f29565b526119eb828b612f29565b506119f6828a612f29565b526115048189612f29565b9290611923565b602090611a13612cd5565b8282890101520161170e565b816000526005602052604060002081600052602052600160406000200154611a50575b611a4b90612cc6565b6116db565b91611a5d611a4b91612cc6565b929050611a42565b346101c65760003660031901126101c657600f546040516001600160a01b039091168152602090f35b346101c6576101203660031901126101c6576004356001600160401b0381116101c657366023820112156101c6578060040135611aca81612860565b91611ad8604051938461283f565b81835236602483830101116101c65781600092602460209301838601378301015260243560038110156101c6576044356001600160401b0381116101c657611b24903690600401612892565b6064356001600160401b0381116101c657611b43903690600401612892565b60c43592600260e43510156101c657610104356001600160a01b0381168082036101c657611b6f612fd8565b845184510361254857611b8360e4356127ab565b60e4351590811561253e575b50156124f95760065495600187018097116109605786600655866000526003602052604060002096875560018701908051906001600160401b03821161078657611bd98354612bb9565b601f81116124b1575b50602090601f8311600114612441579180611c609492611c69979694600092612436575b50508160011b916000199060031b1c19161790555b608435600589015560a435600689015560088801611c3b60e43582612ca4565b8054610100600160a81b03191660089290921b610100600160a81b0316919091179055565b60028601612cbc565b60009160009283809281955b8151871015612311576009546001600160a01b0316936000611c978985612f29565b5160246040518098819363068bcd8d60e01b835260048301525afa94851561035857600095612196575b50610200850151611cd1816127ab565b611cdc60e4356127ab565b611ce5816127ab565b60e4350361215157611d0290611cfb8989612f29565b5190612c97565b93611d0d8888612f29565b518a5460005260026020526040600020611d278a86612f29565b5160005260205260406000205560038a01546801000000000000000081101561078657600181018060038d015581101561213b5760038b016000526020600020918051600f83028401556001600f830284010160208201518051906001600160401b038211610786578190611d9c8454612bb9565b601f81116120e8575b50602090601f831160011461208357600092612078575b50508160011b916000199060031b1c19161790555b60408101518051906001600160401b038211610786578190611dfb6002600f870288010154612bb9565b601f8111612020575b50602090601f8311600114611fa557600092611f9a575b50508160011b916000199060031b1c1916176002600f8402850101555b611e576060820151611e49816127cb565b6003600f8502860101612cbc565b608081018051600f93909302909301600481019290925560a081018051600584015560c0820151600684015560e082015160078401556101008201516008808501919091556101208301516009850155610140830151600a850155610160830151600b8501805460ff921515831660ff1991909116179055610180840151600c8601556101a0840151600d8601556101c0840151600e9590950180546101e08601516001600160a81b03199091169690921695909517911b610100600160a81b031617835591906102000151611f2c816127ab565b611f35816127ab565b815460ff60a81b191660a89190911b60ff60a81b1617905551848111611f90575b50611f7c600192611f76611f879351611f6f8c8c612f29565b5190612f89565b90612c97565b95611cfb8989612f29565b96019593611c75565b9350611f7c611f56565b015190508e80611e1b565b92506002600f860287010160005280600020906000935b601f1984168510612005576001945083601f19811610611fec575b505050811b016002600f840285010155611e38565b015160001960f88460031b161c191690558e8080611fd7565b81810151835560209485019460019093019290910190611fbc565b9091506002600f86028701016000526020600020601f840160051c810160208510612071575b90849392915b601f830160051c82018110612062575050611e04565b6000815585945060010161204c565b5080612046565b015190508f80611dbc565b60008581528281209350601f198516905b8181106120d057509084600195949392106120b7575b505050811b019055611dd1565b015160001960f88460031b161c191690558f80806120aa565b92936020600181928786015181550195019301612094565b909150836000526020600020601f840160051c81019160208510612131575b90601f859493920160051c01905b8181106121225750611da5565b60008155849350600101612115565b9091508190612107565b634e487b7160e01b600052603260045260246000fd5b60405162461bcd60e51b815260206004820152601f60248201527f496e636f6d70617469626c65206173736574207479706520696e20706f6f6c006044820152606490fd5b90943d8082843e6121a7818461283f565b82019160208184031261230d578051906001600160401b03821161230557016102208184031261230d57604051926121de846127eb565b8151845260208201516001600160401b0381116123095781612201918401613001565b602085015260408201516001600160401b0381116123095790612225918301613001565b6040840152606081015160038110156123055760608401526080810151608084015260a081015160a084015260c081015160c084015260e081015160e08401526101008101516101008401526101208101516101208401526101408101516101408401526101608101518015158103612305576101608401526101808101516101808401526101a08101516101a08401526101c081015160ff81168103612305576101c08401526101e08101516001600160a01b0381168103612305576101e0840152610200015190600282101561077b5750610200820152938a611cc1565b8280fd5b8380fd5b5080fd5b88948892509081158061242b576124155704915b811061238457836004916007606496015501550361233f57005b60405162461bcd60e51b815260206004820152601b60248201527f546f74616c2073706c6974206d75737420657175616c203130302500000000006044820152606490fd5b60405162461bcd60e51b815260206004820152606060248201527f4d696e696d756e20706572696f64206d7573742062652067726561746572207460448201527f68616e206f7220657175616c20746f20746865206d696e696d756d207065726960648201527f6f64206f6620616c6c20706f6f6c732077697468696e20746865207661756c74608482015260a490fd5b634e487b7160e01b600052601260045260246000fd5b505050600091612325565b015190508b80611c06565b90601f1983169184600052816000209260005b8181106124995750926001928592611c69999896611c60989610612480575b505050811b019055611c1b565b015160001960f88460031b161c191690558b8080612473565b92936020600181928786015181550195019301612454565b836000526020600020601f840160051c810191602085106124ef575b601f0160051c01905b8181106124e35750611be2565b600081556001016124d6565b90915081906124cd565b60405162461bcd60e51b815260206004820152601e60248201527f496e76616c696420617373657420666f72206465706f736974207479706500006044820152606490fd5b9050151587611b8f565b60405162461bcd60e51b815260206004820152602360248201527f4d69736d61746368656420706f6f6c2049447320616e642070657263656e746160448201526267657360e81b6064820152608490fd5b346101c65760403660031901126101c6576125b2612795565b6125ba612fb6565b600c546001600160a01b03163314801561264b575b156126065760018060a01b031660005260056020526040600020600435600052602052600060016040822001556001600055600080f35b60405162461bcd60e51b815260206004820152601f60248201527f43616c6c6572206973206e6f742074686520706f6f6c20636f6e7472616374006044820152606490fd5b506010546001600160a01b031633146125cf565b346101c65761266d366127d5565b9060005260026020526040600020906000526020526020604060002054604051908152f35b346101c65760603660031901126101c6576126ab61277f565b6044359060028210156101c65760018060a01b0316600052600460205260406000206024356000526020526040600020906126e5816127ab565b600052602052610140604060002060018060a01b03815416906001810154906002810154600382015460ff60048401541660058401549060068501549260078601549460ff600960088901549801541697604051998a5260208a015260408901526060880152612754816127cb565b608087015260a086015260c085015260e0840152610100830152612777816127ab565b610120820152f35b600435906001600160a01b03821682036101c657565b602435906001600160a01b03821682036101c657565b600211156127b557565b634e487b7160e01b600052602160045260246000fd5b600311156127b557565b60409060031901126101c6576004359060243590565b61022081019081106001600160401b0382111761078657604052565b6101a081019081106001600160401b0382111761078657604052565b61014081019081106001600160401b0382111761078657604052565b90601f801991011681019081106001600160401b0382111761078657604052565b6001600160401b03811161078657601f01601f191660200190565b6001600160401b0381116107865760051b60200190565b9080601f830112156101c65781356128a98161287b565b926128b7604051948561283f565b81845260208085019260051b8201019283116101c657602001905b8282106128df5750505090565b81358152602091820191016128d2565b6101809060018060a01b0381511683526020810151602084015260408101516040840152606081015160608401526080810151608084015260a0810151612935816127cb565b60a084015260c081015160c084015260e081015160e0840152610100810151610100840152610120810151610120840152610140810151610140840152610160810151612981816127ab565b6101608401528101516001600160a01b0316910152565b60005b8381106129ab5750506000910152565b818101518382015260200161299b565b906020916129d481518092818552858086019101612998565b601f01601f1916010190565b9080602083519182815201916020808360051b8301019401926000915b838310612a0c57505050505090565b9091929394602080600192601f198582030186528851908151815261020080612a59612a4786860151610220888701526102208601906129bb565b604086015185820360408701526129bb565b936060810151612a68816127cb565b60608501526080810151608085015260a081015160a085015260c081015160c085015260e081015160e085015261010081015161010085015261012081015161012085015261014081015161014085015261016081015115156101608501526101808101516101808501526101a08101516101a085015260ff6101c0820151166101c0850152878060a01b036101e0820151166101e0850152015191612b0d836127ab565b0152970193019301919392906129fd565b9081518152610120612b69612b44602085015161014060208601526101408501906129bb565b6040850151612b52816127cb565b6040850152606085015184820360608601526129e0565b926080810151608084015260a081015160a084015260c081015160c084015260e081015160e0840152610100810151612ba1816127ab565b6101008401528101516001600160a01b031691015290565b90600182811c92168015612be9575b6020831014612bd357565b634e487b7160e01b600052602260045260246000fd5b91607f1691612bc8565b9060405191826000825492612c0784612bb9565b8084529360018116908115612c755750600114612c2e575b50612c2c9250038361283f565b565b90506000929192526020600020906000915b818310612c59575050906020612c2c9282010138612c1f565b6020919350806001915483858901015201910190918492612c40565b905060209250612c2c94915060ff191682840152151560051b82010138612c1f565b9190820180921161096057565b90612cae816127ab565b60ff80198354169116179055565b90612cae816127cb565b60001981146109605760010190565b60405190612ce282612807565b6000610180838281528260208201528260408201528260608201528260808201528260a08201528260c08201528260e0820152826101008201528261012082015282610140820152826101608201520152565b60005b828110612d4457505050565b606082820152602001612d38565b908154612d5e8161287b565b92612d6c604051948561283f565b818452602084019060005260206000206000915b838310612d8d5750505050565b600f6020600192604051612da0816127eb565b85548152612daf858701612bf3565b83820152612dbf60028701612bf3565b604082015260ff600387015416612dd5816127cb565b606082015260048601546080820152600586015460a0820152600686015460c0820152600786015460e082015260088601546101008201526009860154610120820152600a86015461014082015260ff600b870154161515610160820152600c860154610180820152600d8601546101a082015260ff600e8701548181166101c0840152868060a01b038160081c166101e084015260a81c16612e77816127ab565b610200820152815201920192019190612d80565b90604051612e9881612823565b6101206008829480548452612eaf60018201612bf3565b602085015260ff600282015416612ec5816127cb565b6040850152612ed660038201612d52565b606085015260048101546080850152600581015460a0850152600681015460c0850152600781015460e0850152015460ff8116612f12816127ab565b61010084015260081c6001600160a01b0316910152565b805182101561213b5760209160051b010190565b60405190612f4a82612823565b600061012083828152606060208201528260408201526060808201528260808201528260a08201528260c08201528260e0820152826101008201520152565b8181029291811591840414171561096057565b604090612fb39392815281602082015201906129bb565b90565b600260005414612fc7576002600055565b633ee5aeb560e01b60005260046000fd5b6001546001600160a01b03163303612fec57565b63118cdaa760e01b6000523360045260246000fd5b81601f820112156101c657805161301781612860565b92613025604051948561283f565b818452602082840101116101c657612fb3916020808501910161299856fea2646970667358221220b7a90d74345e7a3c7cbaaeb2bdeed775ecc6d1bf481185b276cb00dad76ac36c64736f6c634300081c0033",
  "linkReferences": {},
  "deployedLinkReferences": {}
}