{
  "_format": "hh-sol-artifact-1",
  "contractName": "Vaults",
  "sourceName": "contracts/Vaults.sol",
  "abi": [
    {
      "inputs": [
        {
          "internalType": "address",
          "name": "_initialOwner",
          "type": "address"
        }
      ],
      "stateMutability": "nonpayable",
      "type": "constructor"
    },
    {
      "inputs": [
        {
          "internalType": "address",
          "name": "owner",
          "type": "address"
        }
      ],
      "name": "OwnableInvalidOwner",
      "type": "error"
    },
    {
      "inputs": [
        {
          "internalType": "address",
          "name": "account",
          "type": "address"
        }
      ],
      "name": "OwnableUnauthorizedAccount",
      "type": "error"
    },
    {
      "inputs": [],
      "name": "ReentrancyGuardReentrantCall",
      "type": "error"
    },
    {
      "anonymous": false,
      "inputs": [
        {
          "indexed": false,
          "internalType": "uint256",
          "name": "",
          "type": "uint256"
        },
        {
          "indexed": false,
          "internalType": "uint256",
          "name": "",
          "type": "uint256"
        },
        {
          "indexed": false,
          "internalType": "address",
          "name": "",
          "type": "address"
        }
      ],
      "name": "ClaimAttempt",
      "type": "event"
    },
    {
      "anonymous": false,
      "inputs": [
        {
          "indexed": true,
          "internalType": "address",
          "name": "recipient",
          "type": "address"
        },
        {
          "indexed": false,
          "internalType": "string",
          "name": "pool",
          "type": "string"
        },
        {
          "indexed": false,
          "internalType": "uint256",
          "name": "amount",
          "type": "uint256"
        }
      ],
      "name": "ClaimPaid",
      "type": "event"
    },
    {
      "anonymous": false,
      "inputs": [
        {
          "indexed": true,
          "internalType": "address",
          "name": "user",
          "type": "address"
        },
        {
          "indexed": false,
          "internalType": "uint256",
          "name": "amount",
          "type": "uint256"
        },
        {
          "indexed": false,
          "internalType": "string",
          "name": "pool",
          "type": "string"
        }
      ],
      "name": "Deposited",
      "type": "event"
    },
    {
      "anonymous": false,
      "inputs": [
        {
          "indexed": true,
          "internalType": "address",
          "name": "previousOwner",
          "type": "address"
        },
        {
          "indexed": true,
          "internalType": "address",
          "name": "newOwner",
          "type": "address"
        }
      ],
      "name": "OwnershipTransferred",
      "type": "event"
    },
    {
      "anonymous": false,
      "inputs": [
        {
          "indexed": true,
          "internalType": "uint256",
          "name": "id",
          "type": "uint256"
        },
        {
          "indexed": false,
          "internalType": "string",
          "name": "poolName",
          "type": "string"
        }
      ],
      "name": "PoolCreated",
      "type": "event"
    },
    {
      "anonymous": false,
      "inputs": [
        {
          "indexed": true,
          "internalType": "uint256",
          "name": "poolId",
          "type": "uint256"
        },
        {
          "indexed": false,
          "internalType": "uint256",
          "name": "apy",
          "type": "uint256"
        },
        {
          "indexed": false,
          "internalType": "uint256",
          "name": "_minPeriod",
          "type": "uint256"
        }
      ],
      "name": "PoolUpdated",
      "type": "event"
    },
    {
      "anonymous": false,
      "inputs": [
        {
          "indexed": true,
          "internalType": "address",
          "name": "user",
          "type": "address"
        },
        {
          "indexed": false,
          "internalType": "uint256",
          "name": "amount",
          "type": "uint256"
        },
        {
          "indexed": false,
          "internalType": "string",
          "name": "pool",
          "type": "string"
        }
      ],
      "name": "VaultWithdrawalInitiated",
      "type": "event"
    },
    {
      "inputs": [],
      "name": "ICoverContract",
      "outputs": [
        {
          "internalType": "contract ICover",
          "name": "",
          "type": "address"
        }
      ],
      "stateMutability": "view",
      "type": "function"
    },
    {
      "inputs": [],
      "name": "IGovernanceContract",
      "outputs": [
        {
          "internalType": "contract IGov",
          "name": "",
          "type": "address"
        }
      ],
      "stateMutability": "view",
      "type": "function"
    },
    {
      "inputs": [],
      "name": "IPoolContract",
      "outputs": [
        {
          "internalType": "contract IPool",
          "name": "",
          "type": "address"
        }
      ],
      "stateMutability": "view",
      "type": "function"
    },
    {
      "inputs": [],
      "name": "bqBTC",
      "outputs": [
        {
          "internalType": "contract IbqBTC",
          "name": "",
          "type": "address"
        }
      ],
      "stateMutability": "view",
      "type": "function"
    },
    {
      "inputs": [],
      "name": "bqBTCAddress",
      "outputs": [
        {
          "internalType": "address",
          "name": "",
          "type": "address"
        }
      ],
      "stateMutability": "view",
      "type": "function"
    },
    {
      "inputs": [],
      "name": "coverContract",
      "outputs": [
        {
          "internalType": "address",
          "name": "",
          "type": "address"
        }
      ],
      "stateMutability": "view",
      "type": "function"
    },
    {
      "inputs": [
        {
          "internalType": "string",
          "name": "_vaultName",
          "type": "string"
        },
        {
          "internalType": "enum CoverLib.RiskType",
          "name": "risk",
          "type": "uint8"
        },
        {
          "internalType": "uint256[]",
          "name": "_poolIds",
          "type": "uint256[]"
        },
        {
          "internalType": "uint256[]",
          "name": "poolPercentageSplit",
          "type": "uint256[]"
        },
        {
          "internalType": "uint256",
          "name": "_minInv",
          "type": "uint256"
        },
        {
          "internalType": "uint256",
          "name": "_maxInv",
          "type": "uint256"
        },
        {
          "internalType": "uint256",
          "name": "_minPeriod",
          "type": "uint256"
        },
        {
          "internalType": "enum CoverLib.AssetDepositType",
          "name": "adt",
          "type": "uint8"
        },
        {
          "internalType": "address",
          "name": "asset",
          "type": "address"
        }
      ],
      "name": "createVault",
      "outputs": [],
      "stateMutability": "nonpayable",
      "type": "function"
    },
    {
      "inputs": [
        {
          "internalType": "address",
          "name": "",
          "type": "address"
        },
        {
          "internalType": "uint256",
          "name": "",
          "type": "uint256"
        },
        {
          "internalType": "enum CoverLib.DepositType",
          "name": "",
          "type": "uint8"
        }
      ],
      "name": "deposits",
      "outputs": [
        {
          "internalType": "address",
          "name": "lp",
          "type": "address"
        },
        {
          "internalType": "uint256",
          "name": "amount",
          "type": "uint256"
        },
        {
          "internalType": "uint256",
          "name": "poolId",
          "type": "uint256"
        },
        {
          "internalType": "uint256",
          "name": "dailyPayout",
          "type": "uint256"
        },
        {
          "internalType": "enum CoverLib.Status",
          "name": "status",
          "type": "uint8"
        },
        {
          "internalType": "uint256",
          "name": "daysLeft",
          "type": "uint256"
        },
        {
          "internalType": "uint256",
          "name": "startDate",
          "type": "uint256"
        },
        {
          "internalType": "uint256",
          "name": "withdrawalInitiated",
          "type": "uint256"
        },
        {
          "internalType": "uint256",
          "name": "accruedPayout",
          "type": "uint256"
        },
        {
          "internalType": "enum CoverLib.DepositType",
          "name": "pdt",
          "type": "uint8"
        }
      ],
      "stateMutability": "view",
      "type": "function"
    },
    {
      "inputs": [
        {
          "internalType": "uint256",
          "name": "vaultId",
          "type": "uint256"
        },
        {
          "internalType": "address",
          "name": "user",
          "type": "address"
        }
      ],
      "name": "getUserVaultDeposit",
      "outputs": [
        {
          "components": [
            {
              "internalType": "address",
              "name": "lp",
              "type": "address"
            },
            {
              "internalType": "uint256",
              "name": "amount",
              "type": "uint256"
            },
            {
              "internalType": "uint256",
              "name": "vaultId",
              "type": "uint256"
            },
            {
              "internalType": "uint256",
              "name": "dailyPayout",
              "type": "uint256"
            },
            {
              "internalType": "uint256",
              "name": "vaultApy",
              "type": "uint256"
            },
            {
              "internalType": "enum CoverLib.Status",
              "name": "status",
              "type": "uint8"
            },
            {
              "internalType": "uint256",
              "name": "daysLeft",
              "type": "uint256"
            },
            {
              "internalType": "uint256",
              "name": "startDate",
              "type": "uint256"
            },
            {
              "internalType": "uint256",
              "name": "expiryDate",
              "type": "uint256"
            },
            {
              "internalType": "uint256",
              "name": "withdrawalInitiated",
              "type": "uint256"
            },
            {
              "internalType": "uint256",
              "name": "accruedPayout",
              "type": "uint256"
            },
            {
              "internalType": "enum CoverLib.AssetDepositType",
              "name": "assetType",
              "type": "uint8"
            },
            {
              "internalType": "address",
              "name": "asset",
              "type": "address"
            }
          ],
          "internalType": "struct Vaults.VaultDeposit",
          "name": "",
          "type": "tuple"
        }
      ],
      "stateMutability": "view",
      "type": "function"
    },
    {
      "inputs": [
        {
          "internalType": "address",
          "name": "user",
          "type": "address"
        }
      ],
      "name": "getUserVaultDeposits",
      "outputs": [
        {
          "components": [
            {
              "internalType": "address",
              "name": "lp",
              "type": "address"
            },
            {
              "internalType": "uint256",
              "name": "amount",
              "type": "uint256"
            },
            {
              "internalType": "uint256",
              "name": "vaultId",
              "type": "uint256"
            },
            {
              "internalType": "uint256",
              "name": "dailyPayout",
              "type": "uint256"
            },
            {
              "internalType": "uint256",
              "name": "vaultApy",
              "type": "uint256"
            },
            {
              "internalType": "enum CoverLib.Status",
              "name": "status",
              "type": "uint8"
            },
            {
              "internalType": "uint256",
              "name": "daysLeft",
              "type": "uint256"
            },
            {
              "internalType": "uint256",
              "name": "startDate",
              "type": "uint256"
            },
            {
              "internalType": "uint256",
              "name": "expiryDate",
              "type": "uint256"
            },
            {
              "internalType": "uint256",
              "name": "withdrawalInitiated",
              "type": "uint256"
            },
            {
              "internalType": "uint256",
              "name": "accruedPayout",
              "type": "uint256"
            },
            {
              "internalType": "enum CoverLib.AssetDepositType",
              "name": "assetType",
              "type": "uint8"
            },
            {
              "internalType": "address",
              "name": "asset",
              "type": "address"
            }
          ],
          "internalType": "struct Vaults.VaultDeposit[]",
          "name": "",
          "type": "tuple[]"
        },
        {
          "internalType": "string[][]",
          "name": "",
          "type": "string[][]"
        }
      ],
      "stateMutability": "view",
      "type": "function"
    },
    {
      "inputs": [
        {
          "internalType": "uint256",
          "name": "vaultId",
          "type": "uint256"
        },
        {
          "internalType": "address",
          "name": "user",
          "type": "address"
        }
      ],
      "name": "getUserVaultPoolDeposits",
      "outputs": [
        {
          "components": [
            {
              "internalType": "address",
              "name": "lp",
              "type": "address"
            },
            {
              "internalType": "uint256",
              "name": "amount",
              "type": "uint256"
            },
            {
              "internalType": "uint256",
              "name": "poolId",
              "type": "uint256"
            },
            {
              "internalType": "uint256",
              "name": "dailyPayout",
              "type": "uint256"
            },
            {
              "internalType": "enum CoverLib.Status",
              "name": "status",
              "type": "uint8"
            },
            {
              "internalType": "uint256",
              "name": "daysLeft",
              "type": "uint256"
            },
            {
              "internalType": "uint256",
              "name": "startDate",
              "type": "uint256"
            },
            {
              "internalType": "uint256",
              "name": "withdrawalInitiated",
              "type": "uint256"
            },
            {
              "internalType": "uint256",
              "name": "accruedPayout",
              "type": "uint256"
            },
            {
              "internalType": "enum CoverLib.DepositType",
              "name": "pdt",
              "type": "uint8"
            }
          ],
          "internalType": "struct CoverLib.Deposits[]",
          "name": "",
          "type": "tuple[]"
        }
      ],
      "stateMutability": "view",
      "type": "function"
    },
    {
      "inputs": [
        {
          "internalType": "uint256",
          "name": "vaultId",
          "type": "uint256"
        }
      ],
      "name": "getVault",
      "outputs": [
        {
          "components": [
            {
              "internalType": "uint256",
              "name": "id",
              "type": "uint256"
            },
            {
              "internalType": "string",
              "name": "vaultName",
              "type": "string"
            },
            {
              "internalType": "enum CoverLib.RiskType",
              "name": "risk",
              "type": "uint8"
            },
            {
              "components": [
                {
                  "internalType": "uint256",
                  "name": "id",
                  "type": "uint256"
                },
                {
                  "internalType": "string",
                  "name": "poolName",
                  "type": "string"
                },
                {
                  "internalType": "string",
                  "name": "rating",
                  "type": "string"
                },
                {
                  "internalType": "enum CoverLib.RiskType",
                  "name": "riskType",
                  "type": "uint8"
                },
                {
                  "internalType": "uint256",
                  "name": "apy",
                  "type": "uint256"
                },
                {
                  "internalType": "uint256",
                  "name": "minPeriod",
                  "type": "uint256"
                },
                {
                  "internalType": "uint256",
                  "name": "totalUnit",
                  "type": "uint256"
                },
                {
                  "internalType": "uint256",
                  "name": "tvl",
                  "type": "uint256"
                },
                {
                  "internalType": "uint256",
                  "name": "baseValue",
                  "type": "uint256"
                },
                {
                  "internalType": "uint256",
                  "name": "coverUnits",
                  "type": "uint256"
                },
                {
                  "internalType": "uint256",
                  "name": "tcp",
                  "type": "uint256"
                },
                {
                  "internalType": "bool",
                  "name": "isActive",
                  "type": "bool"
                },
                {
                  "internalType": "uint256",
                  "name": "percentageSplitBalance",
                  "type": "uint256"
                },
                {
                  "internalType": "uint256",
                  "name": "investmentArmPercent",
                  "type": "uint256"
                },
                {
                  "internalType": "uint8",
                  "name": "leverage",
                  "type": "uint8"
                },
                {
                  "internalType": "address",
                  "name": "asset",
                  "type": "address"
                },
                {
                  "internalType": "enum CoverLib.AssetDepositType",
                  "name": "assetType",
                  "type": "uint8"
                }
              ],
              "internalType": "struct CoverLib.Pool[]",
              "name": "pools",
              "type": "tuple[]"
            },
            {
              "internalType": "uint256",
              "name": "amount",
              "type": "uint256"
            },
            {
              "internalType": "uint256",
              "name": "apy",
              "type": "uint256"
            },
            {
              "internalType": "uint256",
              "name": "minInv",
              "type": "uint256"
            },
            {
              "internalType": "uint256",
              "name": "maxInv",
              "type": "uint256"
            },
            {
              "internalType": "uint256",
              "name": "minPeriod",
              "type": "uint256"
            },
            {
              "internalType": "enum CoverLib.AssetDepositType",
              "name": "assetType",
              "type": "uint8"
            },
            {
              "internalType": "address",
              "name": "asset",
              "type": "address"
            }
          ],
          "internalType": "struct Vaults.Vault",
          "name": "",
          "type": "tuple"
        }
      ],
      "stateMutability": "view",
      "type": "function"
    },
    {
      "inputs": [],
      "name": "getVaultCount",
      "outputs": [
        {
          "internalType": "uint256",
          "name": "",
          "type": "uint256"
        }
      ],
      "stateMutability": "view",
      "type": "function"
    },
    {
      "inputs": [
        {
          "internalType": "uint256",
          "name": "vaultId",
          "type": "uint256"
        }
      ],
      "name": "getVaultPools",
      "outputs": [
        {
          "components": [
            {
              "internalType": "uint256",
              "name": "id",
              "type": "uint256"
            },
            {
              "internalType": "string",
              "name": "poolName",
              "type": "string"
            },
            {
              "internalType": "string",
              "name": "rating",
              "type": "string"
            },
            {
              "internalType": "enum CoverLib.RiskType",
              "name": "riskType",
              "type": "uint8"
            },
            {
              "internalType": "uint256",
              "name": "apy",
              "type": "uint256"
            },
            {
              "internalType": "uint256",
              "name": "minPeriod",
              "type": "uint256"
            },
            {
              "internalType": "uint256",
              "name": "totalUnit",
              "type": "uint256"
            },
            {
              "internalType": "uint256",
              "name": "tvl",
              "type": "uint256"
            },
            {
              "internalType": "uint256",
              "name": "baseValue",
              "type": "uint256"
            },
            {
              "internalType": "uint256",
              "name": "coverUnits",
              "type": "uint256"
            },
            {
              "internalType": "uint256",
              "name": "tcp",
              "type": "uint256"
            },
            {
              "internalType": "bool",
              "name": "isActive",
              "type": "bool"
            },
            {
              "internalType": "uint256",
              "name": "percentageSplitBalance",
              "type": "uint256"
            },
            {
              "internalType": "uint256",
              "name": "investmentArmPercent",
              "type": "uint256"
            },
            {
              "internalType": "uint8",
              "name": "leverage",
              "type": "uint8"
            },
            {
              "internalType": "address",
              "name": "asset",
              "type": "address"
            },
            {
              "internalType": "enum CoverLib.AssetDepositType",
              "name": "assetType",
              "type": "uint8"
            }
          ],
          "internalType": "struct CoverLib.Pool[]",
          "name": "",
          "type": "tuple[]"
        }
      ],
      "stateMutability": "view",
      "type": "function"
    },
    {
      "inputs": [
        {
          "internalType": "uint256",
          "name": "vaultId",
          "type": "uint256"
        }
      ],
      "name": "getVaultTVL",
      "outputs": [
        {
          "internalType": "uint256",
          "name": "",
          "type": "uint256"
        }
      ],
      "stateMutability": "view",
      "type": "function"
    },
    {
      "inputs": [],
      "name": "getVaults",
      "outputs": [
        {
          "components": [
            {
              "internalType": "uint256",
              "name": "id",
              "type": "uint256"
            },
            {
              "internalType": "string",
              "name": "vaultName",
              "type": "string"
            },
            {
              "internalType": "enum CoverLib.RiskType",
              "name": "risk",
              "type": "uint8"
            },
            {
              "components": [
                {
                  "internalType": "uint256",
                  "name": "id",
                  "type": "uint256"
                },
                {
                  "internalType": "string",
                  "name": "poolName",
                  "type": "string"
                },
                {
                  "internalType": "string",
                  "name": "rating",
                  "type": "string"
                },
                {
                  "internalType": "enum CoverLib.RiskType",
                  "name": "riskType",
                  "type": "uint8"
                },
                {
                  "internalType": "uint256",
                  "name": "apy",
                  "type": "uint256"
                },
                {
                  "internalType": "uint256",
                  "name": "minPeriod",
                  "type": "uint256"
                },
                {
                  "internalType": "uint256",
                  "name": "totalUnit",
                  "type": "uint256"
                },
                {
                  "internalType": "uint256",
                  "name": "tvl",
                  "type": "uint256"
                },
                {
                  "internalType": "uint256",
                  "name": "baseValue",
                  "type": "uint256"
                },
                {
                  "internalType": "uint256",
                  "name": "coverUnits",
                  "type": "uint256"
                },
                {
                  "internalType": "uint256",
                  "name": "tcp",
                  "type": "uint256"
                },
                {
                  "internalType": "bool",
                  "name": "isActive",
                  "type": "bool"
                },
                {
                  "internalType": "uint256",
                  "name": "percentageSplitBalance",
                  "type": "uint256"
                },
                {
                  "internalType": "uint256",
                  "name": "investmentArmPercent",
                  "type": "uint256"
                },
                {
                  "internalType": "uint8",
                  "name": "leverage",
                  "type": "uint8"
                },
                {
                  "internalType": "address",
                  "name": "asset",
                  "type": "address"
                },
                {
                  "internalType": "enum CoverLib.AssetDepositType",
                  "name": "assetType",
                  "type": "uint8"
                }
              ],
              "internalType": "struct CoverLib.Pool[]",
              "name": "pools",
              "type": "tuple[]"
            },
            {
              "internalType": "uint256",
              "name": "amount",
              "type": "uint256"
            },
            {
              "internalType": "uint256",
              "name": "apy",
              "type": "uint256"
            },
            {
              "internalType": "uint256",
              "name": "minInv",
              "type": "uint256"
            },
            {
              "internalType": "uint256",
              "name": "maxInv",
              "type": "uint256"
            },
            {
              "internalType": "uint256",
              "name": "minPeriod",
              "type": "uint256"
            },
            {
              "internalType": "enum CoverLib.AssetDepositType",
              "name": "assetType",
              "type": "uint8"
            },
            {
              "internalType": "address",
              "name": "asset",
              "type": "address"
            }
          ],
          "internalType": "struct Vaults.Vault[]",
          "name": "",
          "type": "tuple[]"
        }
      ],
      "stateMutability": "view",
      "type": "function"
    },
    {
      "inputs": [],
      "name": "governance",
      "outputs": [
        {
          "internalType": "address",
          "name": "",
          "type": "address"
        }
      ],
      "stateMutability": "view",
      "type": "function"
    },
    {
      "inputs": [],
      "name": "initialOwner",
      "outputs": [
        {
          "internalType": "address",
          "name": "",
          "type": "address"
        }
      ],
      "stateMutability": "view",
      "type": "function"
    },
    {
      "inputs": [
        {
          "internalType": "uint256",
          "name": "_vaultId",
          "type": "uint256"
        }
      ],
      "name": "initialVaultWithdraw",
      "outputs": [],
      "stateMutability": "nonpayable",
      "type": "function"
    },
    {
      "inputs": [],
      "name": "owner",
      "outputs": [
        {
          "internalType": "address",
          "name": "",
          "type": "address"
        }
      ],
      "stateMutability": "view",
      "type": "function"
    },
    {
      "inputs": [
        {
          "internalType": "uint256",
          "name": "",
          "type": "uint256"
        }
      ],
      "name": "participants",
      "outputs": [
        {
          "internalType": "address",
          "name": "",
          "type": "address"
        }
      ],
      "stateMutability": "view",
      "type": "function"
    },
    {
      "inputs": [
        {
          "internalType": "address",
          "name": "",
          "type": "address"
        }
      ],
      "name": "participation",
      "outputs": [
        {
          "internalType": "uint256",
          "name": "",
          "type": "uint256"
        }
      ],
      "stateMutability": "view",
      "type": "function"
    },
    {
      "inputs": [],
      "name": "poolCanister",
      "outputs": [
        {
          "internalType": "address",
          "name": "",
          "type": "address"
        }
      ],
      "stateMutability": "view",
      "type": "function"
    },
    {
      "inputs": [],
      "name": "poolContract",
      "outputs": [
        {
          "internalType": "address",
          "name": "",
          "type": "address"
        }
      ],
      "stateMutability": "view",
      "type": "function"
    },
    {
      "inputs": [],
      "name": "renounceOwnership",
      "outputs": [],
      "stateMutability": "nonpayable",
      "type": "function"
    },
    {
      "inputs": [
        {
          "internalType": "address",
          "name": "_coverContract",
          "type": "address"
        }
      ],
      "name": "setCover",
      "outputs": [],
      "stateMutability": "nonpayable",
      "type": "function"
    },
    {
      "inputs": [
        {
          "internalType": "address",
          "name": "_governance",
          "type": "address"
        }
      ],
      "name": "setGovernance",
      "outputs": [],
      "stateMutability": "nonpayable",
      "type": "function"
    },
    {
      "inputs": [
        {
          "internalType": "address",
          "name": "_poolcontract",
          "type": "address"
        }
      ],
      "name": "setPool",
      "outputs": [],
      "stateMutability": "nonpayable",
      "type": "function"
    },
    {
      "inputs": [
        {
          "internalType": "address",
          "name": "_poolcanister",
          "type": "address"
        }
      ],
      "name": "setPoolCanister",
      "outputs": [],
      "stateMutability": "nonpayable",
      "type": "function"
    },
    {
      "inputs": [
        {
          "internalType": "uint256",
          "name": "vaultId",
          "type": "uint256"
        },
        {
          "internalType": "address",
          "name": "user",
          "type": "address"
        }
      ],
      "name": "setUserVaultDepositToZero",
      "outputs": [],
      "stateMutability": "nonpayable",
      "type": "function"
    },
    {
      "inputs": [
        {
          "internalType": "address",
          "name": "newOwner",
          "type": "address"
        }
      ],
      "name": "transferOwnership",
      "outputs": [],
      "stateMutability": "nonpayable",
      "type": "function"
    },
    {
      "inputs": [
        {
          "internalType": "address",
          "name": "",
          "type": "address"
        },
        {
          "internalType": "uint256",
          "name": "",
          "type": "uint256"
        }
      ],
      "name": "userVaultDeposits",
      "outputs": [
        {
          "internalType": "address",
          "name": "lp",
          "type": "address"
        },
        {
          "internalType": "uint256",
          "name": "amount",
          "type": "uint256"
        },
        {
          "internalType": "uint256",
          "name": "vaultId",
          "type": "uint256"
        },
        {
          "internalType": "uint256",
          "name": "dailyPayout",
          "type": "uint256"
        },
        {
          "internalType": "uint256",
          "name": "vaultApy",
          "type": "uint256"
        },
        {
          "internalType": "enum CoverLib.Status",
          "name": "status",
          "type": "uint8"
        },
        {
          "internalType": "uint256",
          "name": "daysLeft",
          "type": "uint256"
        },
        {
          "internalType": "uint256",
          "name": "startDate",
          "type": "uint256"
        },
        {
          "internalType": "uint256",
          "name": "expiryDate",
          "type": "uint256"
        },
        {
          "internalType": "uint256",
          "name": "withdrawalInitiated",
          "type": "uint256"
        },
        {
          "internalType": "uint256",
          "name": "accruedPayout",
          "type": "uint256"
        },
        {
          "internalType": "enum CoverLib.AssetDepositType",
          "name": "assetType",
          "type": "uint8"
        },
        {
          "internalType": "address",
          "name": "asset",
          "type": "address"
        }
      ],
      "stateMutability": "view",
      "type": "function"
    },
    {
      "inputs": [],
      "name": "vaultCount",
      "outputs": [
        {
          "internalType": "uint256",
          "name": "",
          "type": "uint256"
        }
      ],
      "stateMutability": "view",
      "type": "function"
    },
    {
      "inputs": [
        {
          "internalType": "uint256",
          "name": "_vaultId",
          "type": "uint256"
        },
        {
          "internalType": "uint256",
          "name": "_amount",
          "type": "uint256"
        }
      ],
      "name": "vaultDeposit",
      "outputs": [],
      "stateMutability": "payable",
      "type": "function"
    },
    {
      "inputs": [
        {
          "internalType": "uint256",
          "name": "",
          "type": "uint256"
        },
        {
          "internalType": "uint256",
          "name": "",
          "type": "uint256"
        }
      ],
      "name": "vaultPercentageSplits",
      "outputs": [
        {
          "internalType": "uint256",
          "name": "",
          "type": "uint256"
        }
      ],
      "stateMutability": "view",
      "type": "function"
    },
    {
      "inputs": [
        {
          "internalType": "uint256",
          "name": "",
          "type": "uint256"
        }
      ],
      "name": "vaults",
      "outputs": [
        {
          "internalType": "uint256",
          "name": "id",
          "type": "uint256"
        },
        {
          "internalType": "string",
          "name": "vaultName",
          "type": "string"
        },
        {
          "internalType": "enum CoverLib.RiskType",
          "name": "risk",
          "type": "uint8"
        },
        {
          "internalType": "uint256",
          "name": "amount",
          "type": "uint256"
        },
        {
          "internalType": "uint256",
          "name": "apy",
          "type": "uint256"
        },
        {
          "internalType": "uint256",
          "name": "minInv",
          "type": "uint256"
        },
        {
          "internalType": "uint256",
          "name": "maxInv",
          "type": "uint256"
        },
        {
          "internalType": "uint256",
          "name": "minPeriod",
          "type": "uint256"
        },
        {
          "internalType": "enum CoverLib.AssetDepositType",
          "name": "assetType",
          "type": "uint8"
        },
        {
          "internalType": "address",
          "name": "asset",
          "type": "address"
        }
      ],
      "stateMutability": "view",
      "type": "function"
    }
  ],
  "bytecode": "0x6080346100e757601f61342d38819003918201601f19168301916001600160401b038311848410176100ec578084926020946040528339810103126100e757516001600160a01b038116908190036100e757600160005580156100d157600180546001600160a01b031981168317909155604051919081906001600160a01b03167f8be0079c531659141344cd1fd0a4f28419497f9722a3daafe3b4186f6b6457e0600080a3601280546001600160a01b03199081169091556010805490911691909117905561332a90816101038239f35b631e4fbdf760e01b600052600060045260246000fd5b600080fd5b634e487b7160e01b600052604160045260246000fdfe6080604052600436101561001257600080fd5b60003560e01c80631690927d146128fb5780631bec14a1146128c85780631f8be73c14612802578063215baab714611cfa578063248a75b714611cd157806325ac19381461191b57806329ba7bb2146118f257806334808ec3146118c957806335c1d3491461186e5780634437152a1461179257806344d00f8214611679578063576564861461156a5780635aa6e675146115415780635f267c551461151857806360ebd718146114d5578063715018a61461147857806372bafbde146111f857806374d4e49114610e485780637c366cc61461111b57806388d52ef7146110f25780638c64ea4a146110285780638da5cb5b14610fff5780639403b63414610fb257806396f3a8ad14610f78578063996b8a6f14610f4f578063a69ddee614610e66578063a7c6a10014610e48578063ab033ea914610d59578063b30703cd14610d30578063b38375e914610c3a578063b5d90c2814610c11578063c59ecad8146106e1578063d000626514610492578063f2fde38b14610408578063f5b44a70146101d65763f6e80558146101a857600080fd5b346101d15760003660031901126101d1576008546040516001600160a01b039091168152602090f35b600080fd5b346101d15760203660031901126101d15760043560005260036020526101ff604060002061311c565b610140810180516012546001600160a01b039081169291600091168381036102ff575050600954604051630226614760e01b8152600481019390935260209150829060249082906001600160a01b03165afa9081156102f3576000916102c1575b509060806012915b01519060120390601282116102ab57604d82116102ab5760209261029c6102a292670de0b6b3a764000094600a0a9061322c565b9061322c565b04604051908152f35b634e487b7160e01b600052601160045260246000fd5b90506020813d6020116102eb575b816102dc60209383612ac4565b810103126101d1575182610260565b3d91506102cf565b6040513d6000823e3d90fd5b600954604051630226614760e01b81526004810192909252929493509091602090829060249082906001600160a01b03165afa9182156103fc5780926103c2575b5050915160405163313ce56760e01b815290602090829060049082906001600160a01b03165afa9081156102f357600091610383575b5060ff6080911691610268565b90506020813d6020116103ba575b8161039e60209383612ac4565b810103126101d15760ff6103b3608092613259565b9150610376565b3d9150610391565b9091506020823d6020116103f4575b816103de60209383612ac4565b810103126103f157505160206004610340565b80fd5b3d91506103d1565b604051903d90823e3d90fd5b346101d15760203660031901126101d1576104216129e8565b610429613289565b6001600160a01b0316801561047c57600180546001600160a01b0319811683179091556001600160a01b03167f8be0079c531659141344cd1fd0a4f28419497f9722a3daafe3b4186f6b6457e0600080a3005b631e4fbdf760e01b600052600060045260246000fd5b346101d15760203660031901126101d1576004356104ae613267565b336000526005602052604060002081600052602052604060002090600182019081541561069257600583019160ff8354166104e881612a34565b61065557600884015442106106105781600052600360205261050d604060002061311c565b9160009460608401955b86518051821015610597578161052c916131c5565b51516009546001600160a01b03169190823b156101d157600092606484926040519586938492630380dd7f60e61b84523360048501526024840152600160448401525af19182156102f357600192610586575b5001610517565b600061059191612ac4565b8861057f565b505084600260ff198254161790556009429101558154906000526003602052600460406000200180549182039182116102ab577f5cc6e6e6e1779c899a2e4c7a7eabc92a9be18b1efbd37971bb8fcfba46ec24d99261060692602092555493015160405191829133958361323f565b0390a26001600055005b60405162461bcd60e51b815260206004820152601c60248201527f4465706f73697420706572696f6420686173206e6f7420656e646564000000006044820152606490fd5b60405162461bcd60e51b81526020600482015260156024820152744465706f736974206973206e6f742061637469766560581b6044820152606490fd5b60405162461bcd60e51b815260206004820152602160248201527f4e6f206465706f73697420666f756e6420666f722074686973206164647265736044820152607360f81b6064820152608490fd5b6106ea36612a3e565b906106f3613267565b806000526003602052610709604060002061311c565b906060820180515115610bd657600090846101408501610120860184805b855180518310156109ef578261073c916131c5565b51519088600052600260205260406000208260005260205260646107728161076a604060002054998a61322c565b04973461322c565b0484519061077f82612a14565b60018060a01b038751169060405160c08101918183106001600160401b038411176109d95760409460c493865233835260208301948886528684019c8d5260608401916001835260808501906107d481612a14565b815260a0850191825260095488516305cf023360e21b815295516001600160a01b039081166004880152975160248701529d5160448601529151939c8d9687959116929061082181612a14565b60648601525161083081612a14565b6084850152516001600160a01b031660a48401525af19081156102f3576000968792610994575b50816108738861086d6001979695600995612f28565b9b612f28565b9760a0610881868c516131c5565b5101516040519261089184612a8c565b33845260208401928352604084019186835260608501918252610952608086016000815260a0870192835260c087019342855260e088019560008752610100890197600089526101208a019b8e8d5233600052600460205260406000209060005260205260406000208e6000526020526040600020998e8060a01b03908f8060a01b03905116166bffffffffffffffffffffffff60a01b8b5416178a55518d8a01555160028901555160038801555161094981612a34565b60048701612f4d565b51600585015551600684015551600783015551600882015501905161097681612a14565b61097f81612a14565b60ff8019835416911617905501889395610727565b915091929394956040823d82116109d1575b816109b360409383612ac4565b810103126103f1575080516020909101519095949392916009610857565b3d91506109a6565b634e487b7160e01b600052604160045260246000fd5b509450509391509360a086015193610100870151946201518086028681046201518014871517156102ab57610a249042612f28565b915196610a3088612a14565b516040516001600160a01b03909116969095610a4b87612a70565b33875260208701928684526040880191868352606089019081526080890191825260a08901926000845260c08a0194855260e08a01954287526101008b019788526101208b019860008a526101408c019a60008c526101608d019e8f610ab082612a14565b526101808d019d8e52816000526003602052604060002060040190815490610ad791612f28565b9055336000908152600560209081526040808320938352929052209a518b546001600160a01b0319166001600160a01b0391909116178b555160018b01555160028a015551600389015551600488015551610b3181612a34565b610b3e9060058801612f4d565b51600686015551600785015551600884015551600983015551600a820155600b019151610b6a81612a14565b610b749083612f35565b518154610100600160a81b03191660089190911b610100600160a81b0316179055602001519060405180913393610bab918361323f565b037f6f85d9948d6ca3dd6ce6ce7d175da22b4e865827ae6fcd530ec7edac1240f92891a26001600055005b60405162461bcd60e51b81526020600482015260136024820152725661756c74206973206e6f742061637469766560681b6044820152606490fd5b346101d15760003660031901126101d157600a546040516001600160a01b039091168152602090f35b346101d15760403660031901126101d1576001600160a01b03610c5b6129e8565b16600052600560205260406000206024356000526020526101a0604060002060018060a01b038154169060018101546002820154916003810154600482015460ff6005840154166006840154600785015491600886015493600987015495600b600a8901549801549960ff8b16996040519c8d5260208d015260408c015260608b015260808a0152610cec81612a34565b60a089015260c088015260e0870152610100860152610120850152610140840152610d1681612a14565b61016083015260081c6001600160a01b0316610180820152f35b346101d15760003660031901126101d1576009546040516001600160a01b039091168152602090f35b346101d15760203660031901126101d157610d726129e8565b610d7a613289565b600754906001600160a01b038216610e0a576001600160a01b0316908115610dbb576001600160a01b03199081168217600755600a80549091169091179055005b60405162461bcd60e51b815260206004820152602160248201527f476f7665726e616e636520616464726573732063616e6e6f74206265207a65726044820152606f60f81b6064820152608490fd5b60405162461bcd60e51b815260206004820152601660248201527511dbdd995c9b985b98d948185b1c9958591e481cd95d60521b6044820152606490fd5b346101d15760003660031901126101d1576020600654604051908152f35b346101d15760203660031901126101d157610e7f6129e8565b610e87613289565b600d54906001600160a01b038216610f0a576001600160a01b0316908115610eb9576001600160a01b03191617600d55005b60405162461bcd60e51b8152602060048201526024808201527f506f6f6c2043616e697374657220616464726573732063616e6e6f74206265206044820152637a65726f60e01b6064820152608490fd5b60405162461bcd60e51b815260206004820152601960248201527f506f6f6c2043616e697374657220616c726561647920736574000000000000006044820152606490fd5b346101d15760003660031901126101d157600e546040516001600160a01b039091168152602090f35b346101d15760203660031901126101d1576001600160a01b03610f996129e8565b1660005260136020526020604060002054604051908152f35b346101d15760203660031901126101d157610fcb6131d9565b506004356000526003602052610ffb610fe7604060002061311c565b604051918291602083526020830190612da3565b0390f35b346101d15760003660031901126101d1576001546040516001600160a01b039091168152602090f35b346101d15760203660031901126101d15760043560005260036020526040600020805461105760018301612e84565b9160ff6002820154169060048101546005820154916006810154600782015490600960088401549301549460ff8616946110a56040519a8b9a8b5261014060208c01526101408b0190612c40565b976110af81612a34565b60408a01526060890152608088015260a087015260c086015260e08501526110d681612a14565b61010084015260081c6001600160a01b03166101208301520390f35b346101d15760003660031901126101d157600c546040516001600160a01b039091168152602090f35b346101d15760203660031901126101d1576111346129e8565b61113c613289565b600f54906001600160a01b0382166111bf576001600160a01b031690811561117a57600880546001600160a01b031990811684179091551617600f55005b60405162461bcd60e51b815260206004820152601c60248201527f436f76657220616464726573732063616e6e6f74206265207a65726f000000006044820152606490fd5b60405162461bcd60e51b815260206004820152601160248201527010dbdd995c88185b1c9958591e481cd95d607a1b6044820152606490fd5b346101d15760403660031901126101d1576112116129fe565b6004356000526003602052606061122b604060002061311c565b01908151519161123a83612b00565b926112486040519485612ac4565b808452611257601f1991612b00565b0160005b818110611419575090916001600160a01b0316905060005b82519081518110156113585761128b816001936131c5565b5151836000526004602052604060002090600052602052604060002082600052602052604060002060ff6009604051926112c484612a8c565b858060a01b0381541684528581015460208501526002810154604085015260038101546060850152826004820154166112fc81612a34565b6080850152600581015460a0850152600681015460c0850152600781015460e0850152600881015461010085015201541661133681612a14565b61012082015261134682876131c5565b5261135181866131c5565b5001611273565b8460405180916020820160208352815180915260206040840192019060005b818110611385575050500390f35b9193509160206101406001926101208751858060a01b0381511683528481015185840152604081015160408401526060810151606084015260808101516113cb81612a34565b608084015260a081015160a084015260c081015160c084015260e081015160e0840152610100810151610100840152015161140581612a14565b610120820152019401910191849392611377565b60209060405161142881612a8c565b60008152600083820152600060408201526000606082015260006080820152600060a0820152600060c0820152600060e0820152600061010082015260006101208201528282880101520161125b565b346101d15760003660031901126101d157611491613289565b600180546001600160a01b031981169091556000906001600160a01b03167f8be0079c531659141344cd1fd0a4f28419497f9722a3daafe3b4186f6b6457e08280a3005b346101d15760203660031901126101d1576004356000526003602052610ffb6115046003604060002001612fe3565b604051918291602083526020830190612c65565b346101d15760003660031901126101d157600d546040516001600160a01b039091168152602090f35b346101d15760003660031901126101d1576007546040516001600160a01b039091168152602090f35b346101d15760403660031901126101d1576115836129fe565b61158b612f66565b5060018060a01b0316600052600560205260406000206004356000526020526101a06040600020600b604051916115c183612a70565b80546001600160a01b0316835260018101546020840152600281015460408401526003810154606084015260048101546080840152600581015460ff1661160781612a34565b60a0840152600681015460c0840152600781015460e084015260088101546101008401526009810154610120840152600a810154610140840152015460ff811661165081612a14565b61016083015260081c6001600160a01b031661018082015260405190611677908290612b74565bf35b346101d15760003660031901126101d15760065461169681612b00565b906116a46040519283612ac4565b808252601f196116b382612b00565b0160005b81811061177b57505060015b8181111561173357826040518091602082016020835281518091526040830190602060408260051b8601019301916000905b82821061170457505050500390f35b919360019193955060206117238192603f198a82030186528851612da3565b96019201920185949391926116f5565b8060005260036020526040600020906000198101918183116102ab576117769261175f6117709261311c565b61176982886131c5565b52856131c5565b50612f57565b6116c3565b6020906117866131d9565b828287010152016116b7565b346101d15760203660031901126101d1576117ab6129e8565b6117b3613289565b600c54906001600160a01b038216611836576001600160a01b03169081156117f157600980546001600160a01b031990811684179091551617600c55005b60405162461bcd60e51b815260206004820152601b60248201527f506f6f6c20616464726573732063616e6e6f74206265207a65726f00000000006044820152606490fd5b60405162461bcd60e51b815260206004820152601060248201526f141bdbdb08185b1c9958591e481cd95d60821b6044820152606490fd5b346101d15760203660031901126101d1576004356011548110156101d15760116000527f31ecc21a745e3968a04e9570e4425bc18fa8019c68028196b546d1669c200c6801546040516001600160a01b039091168152602090f35b346101d15760003660031901126101d157600b546040516001600160a01b039091168152602090f35b346101d15760003660031901126101d1576010546040516001600160a01b039091168152602090f35b346101d15760203660031901126101d1576119346129e8565b600654906000906001600160a01b031660015b83811115611c8b575061195982612b00565b926119676040519485612ac4565b828452601f1961197684612b00565b0160005b818110611c745750506119a561198f84612b00565b9361199d6040519586612ac4565b808552612b00565b916119b86020850193601f190184612fc6565b60009060015b83811115611ab45750505050604051916040830160408452845180915260206060850195019060005b818110611a9357505050828403602084015251808452602084019060208160051b86010192916000905b828210611a1e5785850386f35b90919293601f19878203018252845190815180825260208201906020808260051b85010194019260005b828110611a68575050505050602080600192960192019201909291611a11565b9091929394602080611a86600193601f198782030189528951612c40565b9701950193929101611a48565b90919560206101a082611aa96001948b51612b74565b0197019291016119e7565b816000526005602052604060002081600052602052604060002060405190611adb82612a70565b80546001600160a01b0316825260018101546020830190815260028201546040840152600382015460608401526004820154608084015260058201549091600b9160ff16611b2881612a34565b60a0850152600681015460c0850152600781015460e085015260088101546101008501526009810154610120850152600a810154610140850152015460ff8116611b7181612a14565b61016084015260081c6001600160a01b031661018083015251611b9e575b50611b9990612f57565b6119be565b9381600097929493975260036020526060611bbc604060002061311c565b019687515196611bf5611bce89612b00565b98611bdc6040519a8b612ac4565b808a52611beb601f1991612b00565b0160208a01612fc6565b60005b89518051821015611c3157906020611c12826001946131c5565b510151611c1f828c6131c5565b52611c2a818b6131c5565b5001611bf8565b505096611b99939850611c6d9296949194611c4c838c6131c5565b52611c57828b6131c5565b50611c62828a6131c5565b5261177081896131c5565b9290611b8f565b602090611c7f612f66565b8282890101520161197a565b816000526005602052604060002081600052602052600160406000200154611cbc575b611cb790612f57565b611947565b91611cc9611cb791612f57565b929050611cae565b346101d15760003660031901126101d157600f546040516001600160a01b039091168152602090f35b346101d1576101203660031901126101d1576004356001600160401b0381116101d157366023820112156101d1578060040135611d3681612ae5565b91611d446040519384612ac4565b81835236602483830101116101d15781600092602460209301838601378301015260243560038110156101d1576044356001600160401b0381116101d157611d90903690600401612b17565b6064356001600160401b0381116101d157611daf903690600401612b17565b60c43592600260e43510156101d157610104356001600160a01b0381168082036101d157611ddb613289565b84518451036127b157611def60e435612a14565b60e435159081156127a7575b50156127625760065495600187018097116102ab5786600655866000526003602052604060002096875560018701908051906001600160401b0382116109d957611e458354612e4a565b601f811161271a575b50602090601f83116001146126aa579180611ecc9492611ed597969460009261269f575b50508160011b916000199060031b1c19161790555b608435600689015560a435600789015560098801611ea760e43582612f35565b8054610100600160a81b03191660089290921b610100600160a81b0316919091179055565b60028601612f4d565b60009160009283809281955b815187101561257a576009546001600160a01b0316936000611f0389856131c5565b5160246040518098819363068bcd8d60e01b835260048301525afa9485156102f357600095612402575b50610200850151611f3d81612a14565b611f4860e435612a14565b611f5181612a14565b60e435036123bd57611f6e90611f6789896131c5565b5190612f28565b93611f7988886131c5565b518a5460005260026020526040600020611f938a866131c5565b5160005260205260406000205560038a0154680100000000000000008110156109d957600181018060038d01558110156123a75760038b016000526020600020918051600f83028401556001600f830284010160208201518051906001600160401b0382116109d95781906120088454612e4a565b601f8111612354575b50602090601f83116001146122ef576000926122e4575b50508160011b916000199060031b1c19161790555b60408101518051906001600160401b0382116109d95781906120676002600f870288010154612e4a565b601f811161228c575b50602090601f831160011461221157600092612206575b50508160011b916000199060031b1c1916176002600f8402850101555b6120c360608201516120b581612a34565b6003600f8502860101612f4d565b608081018051600f93909302909301600481019290925560a081018051600584015560c0820151600684015560e082015160078401556101008201516008808501919091556101208301516009850155610140830151600a850155610160830151600b8501805460ff921515831660ff1991909116179055610180840151600c8601556101a0840151600d8601556101c0840151600e9590950180546101e08601516001600160a81b03199091169690921695909517911b610100600160a81b03161783559190610200015161219881612a14565b6121a181612a14565b815460ff60a81b191660a89190911b60ff60a81b16179055518481116121fc575b506121e86001926121e26121f393516121db8c8c6131c5565b519061322c565b90612f28565b95611f6789896131c5565b96019593611ee1565b93506121e86121c2565b015190508e80612087565b92506002600f860287010160005280600020906000935b601f1984168510612271576001945083601f19811610612258575b505050811b016002600f8402850101556120a4565b015160001960f88460031b161c191690558e8080612243565b81810151835560209485019460019093019290910190612228565b9091506002600f86028701016000526020600020601f840160051c8101602085106122dd575b90849392915b601f830160051c820181106122ce575050612070565b600081558594506001016122b8565b50806122b2565b015190508f80612028565b60008581528281209350601f198516905b81811061233c5750908460019594939210612323575b505050811b01905561203d565b015160001960f88460031b161c191690558f8080612316565b92936020600181928786015181550195019301612300565b909150836000526020600020601f840160051c8101916020851061239d575b90601f859493920160051c01905b81811061238e5750612011565b60008155849350600101612381565b9091508190612373565b634e487b7160e01b600052603260045260246000fd5b60405162461bcd60e51b815260206004820152601f60248201527f496e636f6d70617469626c65206173736574207479706520696e20706f6f6c006044820152606490fd5b90943d8082843e6124138184612ac4565b820191602081840312612576578051906001600160401b03821161256e570161022081840312612576576040519261244a84612a54565b8151845260208201516001600160401b038111612572578161246d9184016132b2565b602085015260408201516001600160401b03811161257257906124919183016132b2565b60408401526060810151600381101561256e5760608401526080810151608084015260a081015160a084015260c081015160c084015260e081015160e0840152610100810151610100840152610120810151610120840152610140810151610140840152610160810151801515810361256e576101608401526101808101516101808401526101a08101516101a084015261252f6101c08201613259565b6101c08401526101e08101516001600160a01b038116810361256e576101e084015261020001519060028210156103f15750610200820152938a611f2d565b8280fd5b8380fd5b5080fd5b8894889250908115806126945761267e5704915b81106125ed5783600591600860649601550155036125a857005b60405162461bcd60e51b815260206004820152601b60248201527f546f74616c2073706c6974206d75737420657175616c203130302500000000006044820152606490fd5b60405162461bcd60e51b815260206004820152606060248201527f4d696e696d756e20706572696f64206d7573742062652067726561746572207460448201527f68616e206f7220657175616c20746f20746865206d696e696d756d207065726960648201527f6f64206f6620616c6c20706f6f6c732077697468696e20746865207661756c74608482015260a490fd5b634e487b7160e01b600052601260045260246000fd5b50505060009161258e565b015190508b80611e72565b90601f1983169184600052816000209260005b8181106127025750926001928592611ed5999896611ecc9896106126e9575b505050811b019055611e87565b015160001960f88460031b161c191690558b80806126dc565b929360206001819287860151815501950193016126bd565b836000526020600020601f840160051c81019160208510612758575b601f0160051c01905b81811061274c5750611e4e565b6000815560010161273f565b9091508190612736565b60405162461bcd60e51b815260206004820152601e60248201527f496e76616c696420617373657420666f72206465706f736974207479706500006044820152606490fd5b9050151587611dfb565b60405162461bcd60e51b815260206004820152602360248201527f4d69736d61746368656420706f6f6c2049447320616e642070657263656e746160448201526267657360e81b6064820152608490fd5b346101d15760403660031901126101d15761281b6129fe565b612823613267565b600c546001600160a01b0316331480156128b4575b1561286f5760018060a01b031660005260056020526040600020600435600052602052600060016040822001556001600055600080f35b60405162461bcd60e51b815260206004820152601f60248201527f43616c6c6572206973206e6f742074686520706f6f6c20636f6e7472616374006044820152606490fd5b506010546001600160a01b03163314612838565b346101d1576128d636612a3e565b9060005260026020526040600020906000526020526020604060002054604051908152f35b346101d15760603660031901126101d1576129146129e8565b6044359060028210156101d15760018060a01b03166000526004602052604060002060243560005260205260406000209061294e81612a14565b600052602052610140604060002060018060a01b03815416906001810154906002810154600382015460ff60048401541660058401549060068501549260078601549460ff600960088901549801541697604051998a5260208a0152604089015260608801526129bd81612a34565b608087015260a086015260c085015260e08401526101008301526129e081612a14565b610120820152f35b600435906001600160a01b03821682036101d157565b602435906001600160a01b03821682036101d157565b60021115612a1e57565b634e487b7160e01b600052602160045260246000fd5b60031115612a1e57565b60409060031901126101d1576004359060243590565b61022081019081106001600160401b038211176109d957604052565b6101a081019081106001600160401b038211176109d957604052565b61014081019081106001600160401b038211176109d957604052565b61016081019081106001600160401b038211176109d957604052565b90601f801991011681019081106001600160401b038211176109d957604052565b6001600160401b0381116109d957601f01601f191660200190565b6001600160401b0381116109d95760051b60200190565b9080601f830112156101d1578135612b2e81612b00565b92612b3c6040519485612ac4565b81845260208085019260051b8201019283116101d157602001905b828210612b645750505090565b8135815260209182019101612b57565b6101809060018060a01b0381511683526020810151602084015260408101516040840152606081015160608401526080810151608084015260a0810151612bba81612a34565b60a084015260c081015160c084015260e081015160e0840152610100810151610100840152610120810151610120840152610140810151610140840152610160810151612c0681612a14565b6101608401528101516001600160a01b0316910152565b60005b838110612c305750506000910152565b8181015183820152602001612c20565b90602091612c5981518092818552858086019101612c1d565b601f01601f1916010190565b9080602083519182815201916020808360051b8301019401926000915b838310612c9157505050505090565b9091929394602080600192601f198582030186528851908151815261020080612cde612ccc8686015161022088870152610220860190612c40565b60408601518582036040870152612c40565b936060810151612ced81612a34565b60608501526080810151608085015260a081015160a085015260c081015160c085015260e081015160e085015261010081015161010085015261012081015161012085015261014081015161014085015261016081015115156101608501526101808101516101808501526101a08101516101a085015260ff6101c0820151166101c0850152878060a01b036101e0820151166101e0850152015191612d9283612a14565b015297019301930191939290612c82565b9081518152610140612dee612dc960208501516101606020860152610160850190612c40565b6040850151612dd781612a34565b604085015260608501518482036060860152612c65565b926080810151608084015260a081015160a084015260c081015160c084015260e081015160e0840152610100810151610100840152610120810151612e3281612a14565b6101208401528101516001600160a01b031691015290565b90600182811c92168015612e7a575b6020831014612e6457565b634e487b7160e01b600052602260045260246000fd5b91607f1691612e59565b9060405191826000825492612e9884612e4a565b8084529360018116908115612f065750600114612ebf575b50612ebd92500383612ac4565b565b90506000929192526020600020906000915b818310612eea575050906020612ebd9282010138612eb0565b6020919350806001915483858901015201910190918492612ed1565b905060209250612ebd94915060ff191682840152151560051b82010138612eb0565b919082018092116102ab57565b90612f3f81612a14565b60ff80198354169116179055565b90612f3f81612a34565b60001981146102ab5760010190565b60405190612f7382612a70565b6000610180838281528260208201528260408201528260608201528260808201528260a08201528260c08201528260e0820152826101008201528261012082015282610140820152826101608201520152565b60005b828110612fd557505050565b606082820152602001612fc9565b908154612fef81612b00565b92612ffd6040519485612ac4565b818452602084019060005260206000206000915b83831061301e5750505050565b600f602060019260405161303181612a54565b85548152613040858701612e84565b8382015261305060028701612e84565b604082015260ff60038701541661306681612a34565b606082015260048601546080820152600586015460a0820152600686015460c0820152600786015460e082015260088601546101008201526009860154610120820152600a86015461014082015260ff600b870154161515610160820152600c860154610180820152600d8601546101a082015260ff600e8701548181166101c0840152868060a01b038160081c166101e084015260a81c1661310881612a14565b610200820152815201920192019190613011565b9060405161312981612aa8565b610140600982948054845261314060018201612e84565b602085015260ff60028201541661315681612a34565b604085015261316760038201612fe3565b606085015260048101546080850152600581015460a0850152600681015460c0850152600781015460e08501526008810154610100850152015460ff81166131ae81612a14565b61012084015260081c6001600160a01b0316910152565b80518210156123a75760209160051b010190565b604051906131e682612aa8565b600061014083828152606060208201528260408201526060808201528260808201528260a08201528260c08201528260e082015282610100820152826101208201520152565b818102929181159184041417156102ab57565b604090613256939281528160208201520190612c40565b90565b519060ff821682036101d157565b600260005414613278576002600055565b633ee5aeb560e01b60005260046000fd5b6001546001600160a01b0316330361329d57565b63118cdaa760e01b6000523360045260246000fd5b81601f820112156101d15780516132c881612ae5565b926132d66040519485612ac4565b818452602082840101116101d1576132569160208085019101612c1d56fea26469706673582212205269ce0d6e1af085748a61fe0b37a52781919dcb3925b863edb32f7844402cb964736f6c634300081c0033",
  "linkReferences": {},
  "deployedLinkReferences": {}
}