{
  "_format": "hh-sol-artifact-1",
  "contractName": "Vaults",
  "sourceName": "contracts/Vaults.sol",
  "abi": [
    {
      "inputs": [
        {
          "internalType": "address",
          "name": "_initialOwner",
          "type": "address"
        }
      ],
      "stateMutability": "nonpayable",
      "type": "constructor"
    },
    {
      "inputs": [
        {
          "internalType": "address",
          "name": "owner",
          "type": "address"
        }
      ],
      "name": "OwnableInvalidOwner",
      "type": "error"
    },
    {
      "inputs": [
        {
          "internalType": "address",
          "name": "account",
          "type": "address"
        }
      ],
      "name": "OwnableUnauthorizedAccount",
      "type": "error"
    },
    {
      "inputs": [],
      "name": "ReentrancyGuardReentrantCall",
      "type": "error"
    },
    {
      "anonymous": false,
      "inputs": [
        {
          "indexed": false,
          "internalType": "uint256",
          "name": "",
          "type": "uint256"
        },
        {
          "indexed": false,
          "internalType": "uint256",
          "name": "",
          "type": "uint256"
        },
        {
          "indexed": false,
          "internalType": "address",
          "name": "",
          "type": "address"
        }
      ],
      "name": "ClaimAttempt",
      "type": "event"
    },
    {
      "anonymous": false,
      "inputs": [
        {
          "indexed": true,
          "internalType": "address",
          "name": "recipient",
          "type": "address"
        },
        {
          "indexed": false,
          "internalType": "string",
          "name": "pool",
          "type": "string"
        },
        {
          "indexed": false,
          "internalType": "uint256",
          "name": "amount",
          "type": "uint256"
        }
      ],
      "name": "ClaimPaid",
      "type": "event"
    },
    {
      "anonymous": false,
      "inputs": [
        {
          "indexed": true,
          "internalType": "address",
          "name": "user",
          "type": "address"
        },
        {
          "indexed": false,
          "internalType": "uint256",
          "name": "amount",
          "type": "uint256"
        },
        {
          "indexed": false,
          "internalType": "string",
          "name": "pool",
          "type": "string"
        }
      ],
      "name": "Deposited",
      "type": "event"
    },
    {
      "anonymous": false,
      "inputs": [
        {
          "indexed": true,
          "internalType": "address",
          "name": "previousOwner",
          "type": "address"
        },
        {
          "indexed": true,
          "internalType": "address",
          "name": "newOwner",
          "type": "address"
        }
      ],
      "name": "OwnershipTransferred",
      "type": "event"
    },
    {
      "anonymous": false,
      "inputs": [
        {
          "indexed": true,
          "internalType": "uint256",
          "name": "id",
          "type": "uint256"
        },
        {
          "indexed": false,
          "internalType": "string",
          "name": "poolName",
          "type": "string"
        }
      ],
      "name": "PoolCreated",
      "type": "event"
    },
    {
      "anonymous": false,
      "inputs": [
        {
          "indexed": true,
          "internalType": "uint256",
          "name": "poolId",
          "type": "uint256"
        },
        {
          "indexed": false,
          "internalType": "uint256",
          "name": "apy",
          "type": "uint256"
        },
        {
          "indexed": false,
          "internalType": "uint256",
          "name": "_minPeriod",
          "type": "uint256"
        }
      ],
      "name": "PoolUpdated",
      "type": "event"
    },
    {
      "anonymous": false,
      "inputs": [
        {
          "indexed": true,
          "internalType": "address",
          "name": "user",
          "type": "address"
        },
        {
          "indexed": false,
          "internalType": "uint256",
          "name": "amount",
          "type": "uint256"
        },
        {
          "indexed": false,
          "internalType": "string",
          "name": "pool",
          "type": "string"
        }
      ],
      "name": "VaultWithdrawalInitiated",
      "type": "event"
    },
    {
      "inputs": [],
      "name": "ICoverContract",
      "outputs": [
        {
          "internalType": "contract ICover",
          "name": "",
          "type": "address"
        }
      ],
      "stateMutability": "view",
      "type": "function"
    },
    {
      "inputs": [],
      "name": "IGovernanceContract",
      "outputs": [
        {
          "internalType": "contract IGov",
          "name": "",
          "type": "address"
        }
      ],
      "stateMutability": "view",
      "type": "function"
    },
    {
      "inputs": [],
      "name": "IPoolContract",
      "outputs": [
        {
          "internalType": "contract IPool",
          "name": "",
          "type": "address"
        }
      ],
      "stateMutability": "view",
      "type": "function"
    },
    {
      "inputs": [],
      "name": "bqBTC",
      "outputs": [
        {
          "internalType": "contract IbqBTC",
          "name": "",
          "type": "address"
        }
      ],
      "stateMutability": "view",
      "type": "function"
    },
    {
      "inputs": [],
      "name": "bqBTCAddress",
      "outputs": [
        {
          "internalType": "address",
          "name": "",
          "type": "address"
        }
      ],
      "stateMutability": "view",
      "type": "function"
    },
    {
      "inputs": [],
      "name": "coverContract",
      "outputs": [
        {
          "internalType": "address",
          "name": "",
          "type": "address"
        }
      ],
      "stateMutability": "view",
      "type": "function"
    },
    {
      "inputs": [
        {
          "internalType": "string",
          "name": "_vaultName",
          "type": "string"
        },
        {
          "internalType": "uint256[]",
          "name": "_poolIds",
          "type": "uint256[]"
        },
        {
          "internalType": "uint256[]",
          "name": "poolPercentageSplit",
          "type": "uint256[]"
        },
        {
          "internalType": "uint256",
          "name": "_minInv",
          "type": "uint256"
        },
        {
          "internalType": "uint256",
          "name": "_maxInv",
          "type": "uint256"
        },
        {
          "internalType": "uint256",
          "name": "_minPeriod",
          "type": "uint256"
        },
        {
          "internalType": "enum CoverLib.AssetDepositType",
          "name": "adt",
          "type": "uint8"
        },
        {
          "internalType": "address",
          "name": "asset",
          "type": "address"
        }
      ],
      "name": "createVault",
      "outputs": [],
      "stateMutability": "nonpayable",
      "type": "function"
    },
    {
      "inputs": [
        {
          "internalType": "uint256",
          "name": "_vaultId",
          "type": "uint256"
        }
      ],
      "name": "finalVaultWithdraw",
      "outputs": [],
      "stateMutability": "nonpayable",
      "type": "function"
    },
    {
      "inputs": [
        {
          "internalType": "uint256",
          "name": "vaultId",
          "type": "uint256"
        },
        {
          "internalType": "address",
          "name": "user",
          "type": "address"
        }
      ],
      "name": "getUserVaultDeposit",
      "outputs": [
        {
          "components": [
            {
              "internalType": "address",
              "name": "lp",
              "type": "address"
            },
            {
              "internalType": "uint256",
              "name": "amount",
              "type": "uint256"
            },
            {
              "internalType": "uint256",
              "name": "vaultId",
              "type": "uint256"
            },
            {
              "internalType": "uint256",
              "name": "dailyPayout",
              "type": "uint256"
            },
            {
              "internalType": "enum CoverLib.Status",
              "name": "status",
              "type": "uint8"
            },
            {
              "internalType": "uint256",
              "name": "daysLeft",
              "type": "uint256"
            },
            {
              "internalType": "uint256",
              "name": "startDate",
              "type": "uint256"
            },
            {
              "internalType": "uint256",
              "name": "expiryDate",
              "type": "uint256"
            },
            {
              "internalType": "uint256",
              "name": "withdrawalInitiated",
              "type": "uint256"
            },
            {
              "internalType": "uint256",
              "name": "accruedPayout",
              "type": "uint256"
            },
            {
              "internalType": "enum CoverLib.AssetDepositType",
              "name": "assetType",
              "type": "uint8"
            },
            {
              "internalType": "address",
              "name": "asset",
              "type": "address"
            }
          ],
          "internalType": "struct Vaults.VaultDeposit",
          "name": "",
          "type": "tuple"
        }
      ],
      "stateMutability": "view",
      "type": "function"
    },
    {
      "inputs": [
        {
          "internalType": "uint256",
          "name": "vaultId",
          "type": "uint256"
        },
        {
          "internalType": "address",
          "name": "user",
          "type": "address"
        }
      ],
      "name": "getUserVaultPoolDeposits",
      "outputs": [
        {
          "components": [
            {
              "internalType": "address",
              "name": "lp",
              "type": "address"
            },
            {
              "internalType": "uint256",
              "name": "amount",
              "type": "uint256"
            },
            {
              "internalType": "uint256",
              "name": "poolId",
              "type": "uint256"
            },
            {
              "internalType": "uint256",
              "name": "dailyPayout",
              "type": "uint256"
            },
            {
              "internalType": "enum CoverLib.Status",
              "name": "status",
              "type": "uint8"
            },
            {
              "internalType": "uint256",
              "name": "daysLeft",
              "type": "uint256"
            },
            {
              "internalType": "uint256",
              "name": "startDate",
              "type": "uint256"
            },
            {
              "internalType": "uint256",
              "name": "withdrawalInitiated",
              "type": "uint256"
            },
            {
              "internalType": "uint256",
              "name": "accruedPayout",
              "type": "uint256"
            },
            {
              "internalType": "enum CoverLib.DepositType",
              "name": "pdt",
              "type": "uint8"
            }
          ],
          "internalType": "struct CoverLib.Deposits[]",
          "name": "",
          "type": "tuple[]"
        }
      ],
      "stateMutability": "view",
      "type": "function"
    },
    {
      "inputs": [
        {
          "internalType": "uint256",
          "name": "vaultId",
          "type": "uint256"
        }
      ],
      "name": "getVault",
      "outputs": [
        {
          "components": [
            {
              "internalType": "uint256",
              "name": "id",
              "type": "uint256"
            },
            {
              "internalType": "string",
              "name": "vaultName",
              "type": "string"
            },
            {
              "components": [
                {
                  "internalType": "uint256",
                  "name": "id",
                  "type": "uint256"
                },
                {
                  "internalType": "string",
                  "name": "poolName",
                  "type": "string"
                },
                {
                  "internalType": "string",
                  "name": "rating",
                  "type": "string"
                },
                {
                  "internalType": "enum CoverLib.RiskType",
                  "name": "riskType",
                  "type": "uint8"
                },
                {
                  "internalType": "uint256",
                  "name": "apy",
                  "type": "uint256"
                },
                {
                  "internalType": "uint256",
                  "name": "minPeriod",
                  "type": "uint256"
                },
                {
                  "internalType": "uint256",
                  "name": "totalUnit",
                  "type": "uint256"
                },
                {
                  "internalType": "uint256",
                  "name": "tvl",
                  "type": "uint256"
                },
                {
                  "internalType": "uint256",
                  "name": "baseValue",
                  "type": "uint256"
                },
                {
                  "internalType": "uint256",
                  "name": "coverUnits",
                  "type": "uint256"
                },
                {
                  "internalType": "uint256",
                  "name": "tcp",
                  "type": "uint256"
                },
                {
                  "internalType": "bool",
                  "name": "isActive",
                  "type": "bool"
                },
                {
                  "internalType": "uint256",
                  "name": "percentageSplitBalance",
                  "type": "uint256"
                },
                {
                  "internalType": "uint256",
                  "name": "investmentArmPercent",
                  "type": "uint256"
                },
                {
                  "internalType": "uint8",
                  "name": "leverage",
                  "type": "uint8"
                },
                {
                  "internalType": "address",
                  "name": "asset",
                  "type": "address"
                },
                {
                  "internalType": "enum CoverLib.AssetDepositType",
                  "name": "assetType",
                  "type": "uint8"
                }
              ],
              "internalType": "struct CoverLib.Pool[]",
              "name": "pools",
              "type": "tuple[]"
            },
            {
              "internalType": "uint256",
              "name": "minInv",
              "type": "uint256"
            },
            {
              "internalType": "uint256",
              "name": "maxInv",
              "type": "uint256"
            },
            {
              "internalType": "uint256",
              "name": "minPeriod",
              "type": "uint256"
            },
            {
              "internalType": "enum CoverLib.AssetDepositType",
              "name": "assetType",
              "type": "uint8"
            },
            {
              "internalType": "address",
              "name": "asset",
              "type": "address"
            }
          ],
          "internalType": "struct Vaults.Vault",
          "name": "",
          "type": "tuple"
        }
      ],
      "stateMutability": "view",
      "type": "function"
    },
    {
      "inputs": [
        {
          "internalType": "uint256",
          "name": "vaultId",
          "type": "uint256"
        }
      ],
      "name": "getVaultPools",
      "outputs": [
        {
          "components": [
            {
              "internalType": "uint256",
              "name": "id",
              "type": "uint256"
            },
            {
              "internalType": "string",
              "name": "poolName",
              "type": "string"
            },
            {
              "internalType": "string",
              "name": "rating",
              "type": "string"
            },
            {
              "internalType": "enum CoverLib.RiskType",
              "name": "riskType",
              "type": "uint8"
            },
            {
              "internalType": "uint256",
              "name": "apy",
              "type": "uint256"
            },
            {
              "internalType": "uint256",
              "name": "minPeriod",
              "type": "uint256"
            },
            {
              "internalType": "uint256",
              "name": "totalUnit",
              "type": "uint256"
            },
            {
              "internalType": "uint256",
              "name": "tvl",
              "type": "uint256"
            },
            {
              "internalType": "uint256",
              "name": "baseValue",
              "type": "uint256"
            },
            {
              "internalType": "uint256",
              "name": "coverUnits",
              "type": "uint256"
            },
            {
              "internalType": "uint256",
              "name": "tcp",
              "type": "uint256"
            },
            {
              "internalType": "bool",
              "name": "isActive",
              "type": "bool"
            },
            {
              "internalType": "uint256",
              "name": "percentageSplitBalance",
              "type": "uint256"
            },
            {
              "internalType": "uint256",
              "name": "investmentArmPercent",
              "type": "uint256"
            },
            {
              "internalType": "uint8",
              "name": "leverage",
              "type": "uint8"
            },
            {
              "internalType": "address",
              "name": "asset",
              "type": "address"
            },
            {
              "internalType": "enum CoverLib.AssetDepositType",
              "name": "assetType",
              "type": "uint8"
            }
          ],
          "internalType": "struct CoverLib.Pool[]",
          "name": "",
          "type": "tuple[]"
        }
      ],
      "stateMutability": "view",
      "type": "function"
    },
    {
      "inputs": [],
      "name": "getVaults",
      "outputs": [
        {
          "components": [
            {
              "internalType": "uint256",
              "name": "id",
              "type": "uint256"
            },
            {
              "internalType": "string",
              "name": "vaultName",
              "type": "string"
            },
            {
              "components": [
                {
                  "internalType": "uint256",
                  "name": "id",
                  "type": "uint256"
                },
                {
                  "internalType": "string",
                  "name": "poolName",
                  "type": "string"
                },
                {
                  "internalType": "string",
                  "name": "rating",
                  "type": "string"
                },
                {
                  "internalType": "enum CoverLib.RiskType",
                  "name": "riskType",
                  "type": "uint8"
                },
                {
                  "internalType": "uint256",
                  "name": "apy",
                  "type": "uint256"
                },
                {
                  "internalType": "uint256",
                  "name": "minPeriod",
                  "type": "uint256"
                },
                {
                  "internalType": "uint256",
                  "name": "totalUnit",
                  "type": "uint256"
                },
                {
                  "internalType": "uint256",
                  "name": "tvl",
                  "type": "uint256"
                },
                {
                  "internalType": "uint256",
                  "name": "baseValue",
                  "type": "uint256"
                },
                {
                  "internalType": "uint256",
                  "name": "coverUnits",
                  "type": "uint256"
                },
                {
                  "internalType": "uint256",
                  "name": "tcp",
                  "type": "uint256"
                },
                {
                  "internalType": "bool",
                  "name": "isActive",
                  "type": "bool"
                },
                {
                  "internalType": "uint256",
                  "name": "percentageSplitBalance",
                  "type": "uint256"
                },
                {
                  "internalType": "uint256",
                  "name": "investmentArmPercent",
                  "type": "uint256"
                },
                {
                  "internalType": "uint8",
                  "name": "leverage",
                  "type": "uint8"
                },
                {
                  "internalType": "address",
                  "name": "asset",
                  "type": "address"
                },
                {
                  "internalType": "enum CoverLib.AssetDepositType",
                  "name": "assetType",
                  "type": "uint8"
                }
              ],
              "internalType": "struct CoverLib.Pool[]",
              "name": "pools",
              "type": "tuple[]"
            },
            {
              "internalType": "uint256",
              "name": "minInv",
              "type": "uint256"
            },
            {
              "internalType": "uint256",
              "name": "maxInv",
              "type": "uint256"
            },
            {
              "internalType": "uint256",
              "name": "minPeriod",
              "type": "uint256"
            },
            {
              "internalType": "enum CoverLib.AssetDepositType",
              "name": "assetType",
              "type": "uint8"
            },
            {
              "internalType": "address",
              "name": "asset",
              "type": "address"
            }
          ],
          "internalType": "struct Vaults.Vault[]",
          "name": "",
          "type": "tuple[]"
        }
      ],
      "stateMutability": "view",
      "type": "function"
    },
    {
      "inputs": [],
      "name": "governance",
      "outputs": [
        {
          "internalType": "address",
          "name": "",
          "type": "address"
        }
      ],
      "stateMutability": "view",
      "type": "function"
    },
    {
      "inputs": [],
      "name": "initialOwner",
      "outputs": [
        {
          "internalType": "address",
          "name": "",
          "type": "address"
        }
      ],
      "stateMutability": "view",
      "type": "function"
    },
    {
      "inputs": [
        {
          "internalType": "uint256",
          "name": "_vaultId",
          "type": "uint256"
        }
      ],
      "name": "initialVaultWithdraw",
      "outputs": [],
      "stateMutability": "nonpayable",
      "type": "function"
    },
    {
      "inputs": [],
      "name": "owner",
      "outputs": [
        {
          "internalType": "address",
          "name": "",
          "type": "address"
        }
      ],
      "stateMutability": "view",
      "type": "function"
    },
    {
      "inputs": [
        {
          "internalType": "uint256",
          "name": "",
          "type": "uint256"
        }
      ],
      "name": "participants",
      "outputs": [
        {
          "internalType": "address",
          "name": "",
          "type": "address"
        }
      ],
      "stateMutability": "view",
      "type": "function"
    },
    {
      "inputs": [
        {
          "internalType": "address",
          "name": "",
          "type": "address"
        }
      ],
      "name": "participation",
      "outputs": [
        {
          "internalType": "uint256",
          "name": "",
          "type": "uint256"
        }
      ],
      "stateMutability": "view",
      "type": "function"
    },
    {
      "inputs": [],
      "name": "poolCanister",
      "outputs": [
        {
          "internalType": "address",
          "name": "",
          "type": "address"
        }
      ],
      "stateMutability": "view",
      "type": "function"
    },
    {
      "inputs": [],
      "name": "poolContract",
      "outputs": [
        {
          "internalType": "address",
          "name": "",
          "type": "address"
        }
      ],
      "stateMutability": "view",
      "type": "function"
    },
    {
      "inputs": [],
      "name": "renounceOwnership",
      "outputs": [],
      "stateMutability": "nonpayable",
      "type": "function"
    },
    {
      "inputs": [
        {
          "internalType": "address",
          "name": "_coverContract",
          "type": "address"
        }
      ],
      "name": "setCover",
      "outputs": [],
      "stateMutability": "nonpayable",
      "type": "function"
    },
    {
      "inputs": [
        {
          "internalType": "address",
          "name": "_governance",
          "type": "address"
        }
      ],
      "name": "setGovernance",
      "outputs": [],
      "stateMutability": "nonpayable",
      "type": "function"
    },
    {
      "inputs": [
        {
          "internalType": "address",
          "name": "_poolcontract",
          "type": "address"
        }
      ],
      "name": "setPool",
      "outputs": [],
      "stateMutability": "nonpayable",
      "type": "function"
    },
    {
      "inputs": [
        {
          "internalType": "address",
          "name": "_poolcanister",
          "type": "address"
        }
      ],
      "name": "setPoolCanister",
      "outputs": [],
      "stateMutability": "nonpayable",
      "type": "function"
    },
    {
      "inputs": [
        {
          "internalType": "uint256",
          "name": "vaultId",
          "type": "uint256"
        },
        {
          "internalType": "address",
          "name": "user",
          "type": "address"
        }
      ],
      "name": "setUserVaultDepositToZero",
      "outputs": [],
      "stateMutability": "nonpayable",
      "type": "function"
    },
    {
      "inputs": [
        {
          "internalType": "address",
          "name": "newOwner",
          "type": "address"
        }
      ],
      "name": "transferOwnership",
      "outputs": [],
      "stateMutability": "nonpayable",
      "type": "function"
    },
    {
      "inputs": [],
      "name": "vaultCount",
      "outputs": [
        {
          "internalType": "uint256",
          "name": "",
          "type": "uint256"
        }
      ],
      "stateMutability": "view",
      "type": "function"
    },
    {
      "inputs": [
        {
          "internalType": "uint256",
          "name": "_vaultId",
          "type": "uint256"
        },
        {
          "internalType": "uint256",
          "name": "_amount",
          "type": "uint256"
        }
      ],
      "name": "vaultDeposit",
      "outputs": [],
      "stateMutability": "payable",
      "type": "function"
    }
  ],
  "bytecode": "0x60803460d657601f61296538819003918201601f19168301916001600160401b0383118484101760db5780849260209460405283398101031260d657516001600160a01b0381169081900360d6576001600055801560c057600180546001600160a01b031981168317909155604051919081906001600160a01b03167f8be0079c531659141344cd1fd0a4f28419497f9722a3daafe3b4186f6b6457e0600080a3601080546001600160a01b03191691909117905561287390816100f28239f35b631e4fbdf760e01b600052600060045260246000fd5b600080fd5b634e487b7160e01b600052604160045260246000fdfe6080604052600436101561001257600080fd5b60003560e01c80631f8be73c14611f99578063248a75b714611f7057806329ba7bb214611f4757806334808ec314611f1e57806335c1d34914611ec35780634437152a14611de757806344d00f8214611ccd5780635765648614611afb5780635aa6e67514611ad25780635f267c5514611aa957806360ebd71814611a66578063654bae28146118d8578063715018a61461187b57806372bafbde146115fc5780637c366cc61461151f57806388d52ef7146114f65780638da5cb5b146114cd5780639403b6341461148057806396f3a8ad14611446578063996b8a6f1461141d578063a69ddee614611334578063a7c6a10014611316578063ab033ea914611227578063b30703cd146111fe578063b5d90c28146111d5578063c59ecad814610e47578063d000626514610ca7578063f2fde38b14610c1d578063f339624b146101945763f6e805581461016657600080fd5b3461018f57600036600319011261018f576008546040516001600160a01b039091168152602090f35b600080fd5b3461018f5761010036600319011261018f576004356001600160401b03811161018f573660238201121561018f5780600401356101d081612347565b916101de6040519384612326565b818352366024838301011161018f578160009260246020930183860137830101526024356001600160401b03811161018f5761021e903690600401612379565b6044356001600160401b03811161018f5761023d903690600401612379565b9060a4359260c43593600285101561018f5760e4356001600160a01b03811680820361018f5761026b6127d2565b8451865103610bcc5761027d876120f3565b8615908115610bc2575b5015610b7d576006549260018401809411610b675783600655836000526003602052604060002093845560018401908051906001600160401b0382116106f9576102d18354612429565b601f8111610b1f575b50602090601f8311600114610ab0576103549493929160009183610aa5575b50508160011b916000199060031b1c19161790559491945b606435600385015560843560048501556006840161032f8882612798565b8054610100600160a81b03191660089290921b610100600160a81b0316919091179055565b60009161016d9360009260028301935b82518110156109b7576009546001600160a01b03169560006103868386612415565b516024604051809a819363068bcd8d60e01b835260048301525afa9687156109ab5760009761082d575b506102008701908a82516103c3816120f3565b6103cc826120f3565b6103d5816120f3565b036107e8576103ef906103e88486612415565b519061278b565b966103fa8385612415565b518654600052600260205260406000206104148588612415565b516000526020526040600020558654680100000000000000008110156106f957600181018089558110156107d25787600052600f602060002091020191815183556001830160208301518051906001600160401b0382116106f957819061047b8454612429565b601f811161077f575b50602090601f831160011461071a5760009261070f575b50508160011b916000199060031b1c19161790555b6002830160408301518051906001600160401b0382116106f95781906104d68454612429565b601f81116106a6575b50602090601f831160011461064157600092610636575b50508160011b916000199060031b1c19161790555b60038301606083015161051d816120d3565b610526816120d3565b815460ff91821660ff19918216179092556080840151600486015560a084018051600587015560c0850151600687015560e085015160078701556101008501516008808801919091556101208601516009880155610140860151600a880155610160860151600b8801805491151585169190951617909355610180850151600c8701556101a0850151600d8701556101c0850151600e90960180546101e0909601516001600160a81b031990961696909216959095179390911b610100600160a81b0316929092178255516105fa816120f3565b610603816120f3565b815460ff60a81b191660a89190911b60ff60a81b161790555187811061062d575b50600101610364565b96506001610624565b015190508f806104f6565b60008581528281209350601f198516905b81811061068e5750908460019594939210610675575b505050811b01905561050b565b015160001960f88460031b161c191690558f8080610668565b92936020600181928786015181550195019301610652565b909150836000526020600020601f840160051c810191602085106106ef575b90601f859493920160051c01905b8181106106e057506104df565b600081558493506001016106d3565b90915081906106c5565b634e487b7160e01b600052604160045260246000fd5b015190508f8061049b565b60008581528281209350601f198516905b818110610767575090846001959493921061074e575b505050811b0190556104b0565b015160001960f88460031b161c191690558f8080610741565b9293602060018192878601518155019501930161072b565b909150836000526020600020601f840160051c810191602085106107c8575b90601f859493920160051c01905b8181106107b95750610484565b600081558493506001016107ac565b909150819061079e565b634e487b7160e01b600052603260045260246000fd5b60405162461bcd60e51b815260206004820152601f60248201527f496e636f6d70617469626c65206173736574207479706520696e20706f6f6c006044820152606490fd5b90963d8082843e61083e8184612326565b8201916020818403126109a7578051906001600160401b03821161099f5701610220818403126109a75760405192610875846122ee565b8151845260208201516001600160401b0381116109a357816108989184016127fb565b602085015260408201516001600160401b0381116109a357906108bc9183016127fb565b60408401526060810151600381101561099f5760608401526080810151608084015260a081015160a084015260c081015160c084015260e081015160e0840152610100810151610100840152610120810151610120840152610140810151610140840152610160810151801515810361099f576101608401526101808101516101808401526101a08101516101a08401526101c081015160ff8116810361099f576101c08401526101e08101516001600160a01b038116810361099f576101e0840152610200015190600282101561099c5750610200820152958a6103b0565b80fd5b8280fd5b8380fd5b5080fd5b6040513d6000823e3d90fd5b838689898110610a145760056064930155036109cf57005b60405162461bcd60e51b815260206004820152601b60248201527f546f74616c2073706c6974206d75737420657175616c203130302500000000006044820152606490fd5b60405162461bcd60e51b815260206004820152606060248201527f4d696e696d756e20706572696f64206d7573742062652067726561746572207460448201527f68616e206f7220657175616c20746f20746865206d696e696d756d207065726960648201527f6f64206f6620616c6c20706f6f6c732077697468696e20746865207661756c74608482015260a490fd5b015190508a806102f9565b90601f1983169184600052816000209260005b818110610b0757509160019391856103549897969410610aee575b505050811b019055949194610311565b015160001960f88460031b161c191690558a8080610ade565b92936020600181928786015181550195019301610ac3565b836000526020600020601f840160051c81019160208510610b5d575b601f0160051c01905b818110610b5157506102da565b60008155600101610b44565b9091508190610b3b565b634e487b7160e01b600052601160045260246000fd5b60405162461bcd60e51b815260206004820152601e60248201527f496e76616c696420617373657420666f72206465706f736974207479706500006044820152606490fd5b9050151587610287565b60405162461bcd60e51b815260206004820152602360248201527f4d69736d61746368656420706f6f6c2049447320616e642070657263656e746160448201526267657360e81b6064820152608490fd5b3461018f57602036600319011261018f57610c36612075565b610c3e6127d2565b6001600160a01b03168015610c9157600180546001600160a01b0319811683179091556001600160a01b03167f8be0079c531659141344cd1fd0a4f28419497f9722a3daafe3b4186f6b6457e0600080a3005b631e4fbdf760e01b600052600060045260246000fd5b3461018f57602036600319011261018f57600435610cc36127b0565b33600052600560205260406000208160005260205260406000209060018201610cee815415156126bc565b600483019160ff835416610d01816120d3565b610e0a57610d156007850154421015612712565b6000526003602052610d2a6040600020612640565b9060009360408301945b85518051821015610db45781610d4991612415565b51516009546001600160a01b03169190823b1561018f57600092606484926040519586938492630380dd7f60e61b84523360048501526024840152600160448401525af19182156109ab57600192610da3575b5001610d34565b6000610dae91612326565b87610d9c565b855460ff191660011786554260088401558354602086015160405133927f5cc6e6e6e1779c899a2e4c7a7eabc92a9be18b1efbd37971bb8fcfba46ec24d9928291610e0091908361275e565b0390a26001600055005b60405162461bcd60e51b81526020600482015260156024820152744465706f736974206973206e6f742061637469766560581b6044820152606490fd5b604036600319011261018f57602435600435610e616127b0565b806000526003602052610e776040600020612640565b6040810191600091829160c082019160e0810190845b888851805189101561101d5788610ea391612415565b51518560005260026020526040600020816000526020526064610ed881610ed06040600020549586612778565b049334612778565b04908751610ee5816120f3565b86516040516001600160a01b039091169360c08201928284106001600160401b038511176106f95760409560c4948752338452602084019586528684019788526060840191600183526080850190610f3c816120f3565b815260a0850191825260095488516305cf023360e21b815295516001600160a01b0390811660048801529751602487015298516044860152915193978896879591169290610f89816120f3565b606486015251610f98816120f3565b6084850152516001600160a01b031660a48401525af19182156109ab576000918293610fdf575b5090610fd0600193610fd69361278b565b9761278b565b96019594610e8d565b9250906040833d8211611015575b81610ffa60409383612326565b8101031261099c575081516020909201519190610fd0610fbf565b3d9150610fed565b509590939260a08301519462015180860296868804620151801487151715610b6757600a610e00976020976111c5966111a29461107b7f6f85d9948d6ca3dd6ce6ce7d175da22b4e865827ae6fcd530ec7edac1240f9289d4261278b565b905197611087896120f3565b516040516001600160a01b039091169790946110a2866122b6565b3386528c860193845260408601918583526060870190815260808701906000825260a0880192835260c088019342855260e08901958652610100890196600088526101208a019860008a526101408b019e8f6110fd826120f3565b526101608b019d8e523360009081526005602090815260408083209383529290522099518a546001600160a01b0319166001600160a01b0391909116178a555160018a015551600289015551600388015551600487019061115d816120d3565b611166816120d3565b60ff8019835416911617905551600586015551600685015551600784015551600883015551600982015501925161119c816120f3565b83612798565b518154610100600160a81b03191660089190911b610100600160a81b0316179055565b015160405191829133958361275e565b3461018f57600036600319011261018f57600a546040516001600160a01b039091168152602090f35b3461018f57600036600319011261018f576009546040516001600160a01b039091168152602090f35b3461018f57602036600319011261018f57611240612075565b6112486127d2565b600754906001600160a01b0382166112d8576001600160a01b0316908115611289576001600160a01b03199081168217600755600a80549091169091179055005b60405162461bcd60e51b815260206004820152602160248201527f476f7665726e616e636520616464726573732063616e6e6f74206265207a65726044820152606f60f81b6064820152608490fd5b60405162461bcd60e51b815260206004820152601660248201527511dbdd995c9b985b98d948185b1c9958591e481cd95d60521b6044820152606490fd5b3461018f57600036600319011261018f576020600654604051908152f35b3461018f57602036600319011261018f5761134d612075565b6113556127d2565b600d54906001600160a01b0382166113d8576001600160a01b0316908115611387576001600160a01b03191617600d55005b60405162461bcd60e51b8152602060048201526024808201527f506f6f6c2043616e697374657220616464726573732063616e6e6f74206265206044820152637a65726f60e01b6064820152608490fd5b60405162461bcd60e51b815260206004820152601960248201527f506f6f6c2043616e697374657220616c726561647920736574000000000000006044820152606490fd5b3461018f57600036600319011261018f57600e546040516001600160a01b039091168152602090f35b3461018f57602036600319011261018f576001600160a01b03611467612075565b1660005260126020526020604060002054604051908152f35b3461018f57602036600319011261018f576114996123d6565b5060043560005260036020526114c96114b56040600020612640565b60405191829160208352602083019061223b565b0390f35b3461018f57600036600319011261018f576001546040516001600160a01b039091168152602090f35b3461018f57600036600319011261018f57600c546040516001600160a01b039091168152602090f35b3461018f57602036600319011261018f57611538612075565b6115406127d2565b600f54906001600160a01b0382166115c3576001600160a01b031690811561157e57600880546001600160a01b031990811684179091551617600f55005b60405162461bcd60e51b815260206004820152601c60248201527f436f76657220616464726573732063616e6e6f74206265207a65726f000000006044820152606490fd5b60405162461bcd60e51b815260206004820152601160248201527010dbdd995c88185b1c9958591e481cd95d607a1b6044820152606490fd5b3461018f57604036600319011261018f5761161561205f565b6004356000526003602052604061162e81600020612640565b01908151519161163d83612362565b9261164b6040519485612326565b80845261165a601f1991612362565b0160005b81811061181c575090916001600160a01b0316905060005b825190815181101561175b5761168e81600193612415565b5151836000526004602052604060002090600052602052604060002082600052602052604060002060ff6009604051926116c7846122d2565b858060a01b0381541684528581015460208501526002810154604085015260038101546060850152826004820154166116ff816120d3565b6080850152600581015460a0850152600681015460c0850152600781015460e08501526008810154610100850152015416611739816120f3565b6101208201526117498287612415565b526117548186612415565b5001611676565b8460405180916020820160208352815180915260206040840192019060005b818110611788575050500390f35b9193509160206101406001926101208751858060a01b0381511683528481015185840152604081015160408401526060810151606084015260808101516117ce816120d3565b608084015260a081015160a084015260c081015160c084015260e081015160e08401526101008101516101008401520151611808816120f3565b61012082015201940191019184939261177a565b60209060405161182b816122d2565b60008152600083820152600060408201526000606082015260006080820152600060a0820152600060c0820152600060e0820152600061010082015260006101208201528282880101520161165e565b3461018f57600036600319011261018f576118946127d2565b600180546001600160a01b031981169091556000906001600160a01b03167f8be0079c531659141344cd1fd0a4f28419497f9722a3daafe3b4186f6b6457e08280a3005b3461018f57602036600319011261018f576004356118f46127b0565b3360005260056020526040600020816000526020526040600020600181019161191f835415156126bc565b6004820191600160ff845416611934816120d3565b03611a2c576007611949910154421015612712565b600052600360205261195e6040600020612640565b604081019260005b845180518210156119e6578161197b91612415565b51516009546001600160a01b03169190823b1561018f57600092606484926040519586938492633c04b4dd60e11b84523360048501526024840152600160448401525af19182156109ab576001926119d5575b5001611966565b60006119e091612326565b866119ce565b845460ff191660021785558254602085015160405133927f5cc6e6e6e1779c899a2e4c7a7eabc92a9be18b1efbd37971bb8fcfba46ec24d9928291610e0091908361275e565b60405162461bcd60e51b81526020600482015260126024820152714465706f736974206973206e6f742044756560701b6044820152606490fd5b3461018f57602036600319011261018f5760043560005260036020526114c9611a956002604060002001612507565b6040519182916020835260208301906120fd565b3461018f57600036600319011261018f57600d546040516001600160a01b039091168152602090f35b3461018f57600036600319011261018f576007546040516001600160a01b039091168152602090f35b3461018f57604036600319011261018f57611b1461205f565b6000610160604051611b25816122b6565b8281528260208201528260408201528260608201528260808201528260a08201528260c08201528260e0820152826101008201528261012082015282610140820152015260018060a01b031660005260056020526040600020600435600052602052610180604060002060405190611b9c826122b6565b80546001600160a01b031682526001810154602083019081526002820154604084019081526003830154606085019081526004840154919391608086019060ff16611be6816120d3565b8152600583015460a0870190815260068401549060c0880191825260078501549260e089019384526008860154946101008a01958652600a6009880154976101208c0198895201549860ff8a16986101408c0199611c43816120f3565b8a5260089a909a1c6001600160a01b039081166101608d01908152604080519d519092168d529a5160208d01529051908b01525160608a015251611c86816120d3565b60808901525160a08801525160c08701525160e0860152516101008501525161012084015251611cb5816120f3565b610140830152516001600160a01b0316610160820152f35b3461018f57600036600319011261018f57600654611cea81612362565b90611cf86040519283612326565b808252601f19611d0782612362565b0160005b818110611dd057505060015b81811115611d8757826040518091602082016020835281518091526040830190602060408260051b8601019301916000905b828210611d5857505050500390f35b91936001919395506020611d778192603f198a8203018652885161223b565b9601920192018594939192611d49565b80600052600360205260406000206000198201828111610b6757611dad611dbe92612640565b611db78287612415565b5284612415565b506000198114610b6757600101611d17565b602090611ddb6123d6565b82828701015201611d0b565b3461018f57602036600319011261018f57611e00612075565b611e086127d2565b600c54906001600160a01b038216611e8b576001600160a01b0316908115611e4657600980546001600160a01b031990811684179091551617600c55005b60405162461bcd60e51b815260206004820152601b60248201527f506f6f6c20616464726573732063616e6e6f74206265207a65726f00000000006044820152606490fd5b60405162461bcd60e51b815260206004820152601060248201526f141bdbdb08185b1c9958591e481cd95d60821b6044820152606490fd5b3461018f57602036600319011261018f5760043560115481101561018f5760116000527f31ecc21a745e3968a04e9570e4425bc18fa8019c68028196b546d1669c200c6801546040516001600160a01b039091168152602090f35b3461018f57600036600319011261018f57600b546040516001600160a01b039091168152602090f35b3461018f57600036600319011261018f576010546040516001600160a01b039091168152602090f35b3461018f57600036600319011261018f57600f546040516001600160a01b039091168152602090f35b3461018f57604036600319011261018f57611fb261205f565b611fba6127b0565b600c546001600160a01b03163314801561204b575b156120065760018060a01b031660005260056020526040600020600435600052602052600060016040822001556001600055600080f35b60405162461bcd60e51b815260206004820152601f60248201527f43616c6c6572206973206e6f742074686520706f6f6c20636f6e7472616374006044820152606490fd5b506010546001600160a01b03163314611fcf565b602435906001600160a01b038216820361018f57565b600435906001600160a01b038216820361018f57565b60005b83811061209e5750506000910152565b818101518382015260200161208e565b906020916120c78151809281855285808601910161208b565b601f01601f1916010190565b600311156120dd57565b634e487b7160e01b600052602160045260246000fd5b600211156120dd57565b9080602083519182815201916020808360051b8301019401926000915b83831061212957505050505090565b9091929394602080600192601f19858203018652885190815181526102008061217661216486860151610220888701526102208601906120ae565b604086015185820360408701526120ae565b936060810151612185816120d3565b60608501526080810151608085015260a081015160a085015260c081015160c085015260e081015160e085015261010081015161010085015261012081015161012085015261014081015161014085015261016081015115156101608501526101808101516101808501526101a08101516101a085015260ff6101c0820151166101c0850152878060a01b036101e0820151166101e085015201519161222a836120f3565b01529701930193019193929061211a565b908151815260e0612272612260602085015161010060208601526101008501906120ae565b604085015184820360408601526120fd565b92606081015160608401526080810151608084015260a081015160a084015260c081015161229f816120f3565b60c08401528101516001600160a01b031691015290565b61018081019081106001600160401b038211176106f957604052565b61014081019081106001600160401b038211176106f957604052565b61022081019081106001600160401b038211176106f957604052565b61010081019081106001600160401b038211176106f957604052565b90601f801991011681019081106001600160401b038211176106f957604052565b6001600160401b0381116106f957601f01601f191660200190565b6001600160401b0381116106f95760051b60200190565b9080601f8301121561018f57813561239081612362565b9261239e6040519485612326565b81845260208085019260051b82010192831161018f57602001905b8282106123c65750505090565b81358152602091820191016123b9565b604051906123e38261230a565b600060e08382815260606020820152606060408201528260608201528260808201528260a08201528260c08201520152565b80518210156107d25760209160051b010190565b90600182811c92168015612459575b602083101461244357565b634e487b7160e01b600052602260045260246000fd5b91607f1691612438565b906040519182600082549261247784612429565b80845293600181169081156124e5575060011461249e575b5061249c92500383612326565b565b90506000929192526020600020906000915b8183106124c957505090602061249c928201013861248f565b60209193508060019154838589010152019101909184926124b0565b90506020925061249c94915060ff191682840152151560051b8201013861248f565b90815461251381612362565b926125216040519485612326565b818452602084019060005260206000206000915b8383106125425750505050565b600f6020600192604051612555816122ee565b85548152612564858701612463565b8382015261257460028701612463565b604082015260ff60038701541661258a816120d3565b606082015260048601546080820152600586015460a0820152600686015460c0820152600786015460e082015260088601546101008201526009860154610120820152600a86015461014082015260ff600b870154161515610160820152600c860154610180820152600d8601546101a082015260ff600e8701548181166101c0840152868060a01b038160081c166101e084015260a81c1661262c816120f3565b610200820152815201920192019190612535565b9060405161264d8161230a565b60e0600682948054845261266360018201612463565b602085015261267460028201612507565b60408501526003810154606085015260048101546080850152600581015460a0850152015460ff81166126a6816120f3565b60c084015260081c6001600160a01b0316910152565b156126c357565b60405162461bcd60e51b815260206004820152602160248201527f4e6f206465706f73697420666f756e6420666f722074686973206164647265736044820152607360f81b6064820152608490fd5b1561271957565b60405162461bcd60e51b815260206004820152601c60248201527f4465706f73697420706572696f6420686173206e6f7420656e646564000000006044820152606490fd5b6040906127759392815281602082015201906120ae565b90565b81810292918115918404141715610b6757565b91908201809211610b6757565b906127a2816120f3565b60ff80198354169116179055565b6002600054146127c1576002600055565b633ee5aeb560e01b60005260046000fd5b6001546001600160a01b031633036127e657565b63118cdaa760e01b6000523360045260246000fd5b81601f8201121561018f57805161281181612347565b9261281f6040519485612326565b8184526020828401011161018f57612775916020808501910161208b56fea2646970667358221220a41bb08e662de85a8af82a33cb710738ed70008e4ca1bbaa5c4f60909ad21e1f64736f6c634300081c0033",
  "linkReferences": {},
  "deployedLinkReferences": {}
}